:020000040000FA
:10000000C053202085010000890100008B01000001
:1000100000000000000000000000000000000000E0
:100020000000000000000000000000008D01000042
:1000300000000000000000008F01000075170000A4
:100040009301000093010000930100009301000060
:100050009301000093010000930100009301000050
:100060000000000093010000930100000000000068
:1000700000000000930100009301000093010000C4
:100080009301000093010000930100009301000020
:100090009301000093010000000000000000000038
:1000A0009301000093010000000000000000000028
:1000B0009301000000000000930100009301000084
:1000C00000F002F800F04FF812A030C808382418E9
:1000D0002D18AC4201D100F046F80FCCA246AB4639
:1000E0000CA730CF2D1B083F3F197C427F1E544484
:1000F0002D090426F441641EAC4201D300F033F80C
:100100000126334200D0FB1A3343984754465D46DC
:10011000DFE70000842500009425000000000000B7
:100120007047000000000000002300240025002686
:10013000103A01D378C1FBD8520700D330C100D5A3
:100140000B60704710B5642902D100F07DF810BD36
:10015000632902D100F0C1FA10BD002010BD1FB507
:100160001FBD10B510BD00F010FB1146FFF7F7FFE3
:1001700001F07EFC00F028FB03B4FFF7F2FF03BCA4
:1001800000F04AFB06480047FEE7FEE7FEE7FEE711
:10019000FEE7FEE703480449044A054B70470000A8
:1001A000C1000000C0032020C0532020C013202025
:1001B000C01320200FB41CB50C0007AA009007D074
:1001C0004142A14202D30019401E01E00020C04379
:1001D000074B7B4469460190069800F058FA0020CE
:1001E000002C01D0009908701CBC08BC04B0184752
:1001F000DF04000070B50C460546012A05D02878BA
:10020000800600D5EA69002302E0012305E05B1CBB
:10021000934202D2E05C0028F9D1A869E618C01A1E
:10022000A861286AC01828622846C046C04604E073
:100230006A682078A968641C9047B442F8D32846BD
:10024000C046C04670BD0000F7B50025752910688E
:10025000009914A611D0C046C046002802DA4042D8
:1002600011A608E0009909688A0701D50FA602E0E7
:10027000490704D50EA6012501E0C046C046009FEF
:100280000024243704E000F034FA30313955641C7E
:100290000028F8D12B4632462146009800F099F903
:1002A000FEBD0000000000002D0000002B0000003B
:1002B00020000000F3B50446002081B020622046F3
:1002C000E168884700287AD0252802D06268A168B2
:1002D00071E0E16820460025884706460020E0617D
:1002E0000746A0612A2E0AD0304601F021FC0028E2
:1002F00027D0B8000019303E0090866119E00298BE
:10030000BA00121902C8916102902046E16888473C
:10031000012F064617D1E06900281FDA2020854307
:100320001CE000980A218069484300998019303800
:1003300088612046E1688847064601F0F9FB0028FD
:10034000EFD1012F0AD02E2E08D12046E168884730
:100350000646202005437F1C022FC3DBA06900282E
:1003600003DA4042A06101200543E80701D01020D4
:100370008543002E23D030464138192803D8012068
:10038000C00205432036204625603146029A1546B4
:10039000FFF7D8FE00280BD0012806D0ED1DE80895
:1003A000C000083002908AE709E02D1D029586E71B
:1003B00062683046A1689047206A401C7EE7206A48
:1003C000FEBD704770477047F0B5FF252D04C60984
:1003D000C209FF2704462E400137CB093E4348405F
:1003E0002A402B400746002A6BD0002B69D0AA4236
:1003F00067D0AB4265D0002800DA32460125ED0512
:1004000029432C4309022002090AD21A4B0C7F24EB
:10041000E31A434C000A7C44E35C7D242404121953
:1004200014145B00A218884201D3521C00E0400063
:1004300049420C465C4324115C43DB016415E3181C
:10044000040A5C43C502200D0C4644436419250A86
:100450005D432303EC0C0D46654300030019EB18C4
:100460004C42A34201D35B18401CD4052018002B3A
:1004700007D05B00C91804D3401C002901D14008F3
:1004800040003F2189048A4209D3002A08DC110672
:10049000090F04D0032149074018C00FC007F0BD61
:1004A00001224100120689187F2252069142F6D29B
:1004B00005214907C84201D59010F0BDFF20C005B5
:1004C000F0BD002F00DA32461648AA4207D2AB42EE
:1004D00005D21902090E17D0F80FC007F0BDFF258D
:1004E00063002D06AB42F9D84900A942F6D8AB42C9
:1004F00001D1A942F2D0A94201D1002101E061005D
:100500004908D0050843F0BD1102090EFBD0FF20B9
:100510000243D005F0BD0A460146104654E70000EC
:10052000DA1900000000C07F10B501469E240002C9
:10053000CA15A307002A02D01843002A04DBA21A16
:10054000002A0CDDD04010BD1206120E01D1400071
:100550004008A21A03D4D04040420028F3DDFF2215
:1005600048001206904201D9002010BDC817C043B0
:10057000584010BD1F22030C02D10F2200041CD0D2
:10058000030E01D10002083A030F01D10001121F2E
:10059000830F01D18000921E002801DB4000521E13
:1005A000D2055118021251181922904004D3491C47
:1005B000002801D14908490008467047C10FC90702
:1005C00000D04042012292071143D3E7012189075D
:1005D000D0E7FFB504460D4681B024300090216875
:1005E000880604D51022E0699143216000E00120D3
:1005F000A84201DD471B00E000270498A1697A1991
:100600001018081AA0612078C00602D42046C046FF
:10061000C046002608E003986268A168805D9047A4
:10062000206A401C761C206204988642F3DB207806
:10063000C0060AD52046C046C04606E06268A168EA
:1006400030209047206A401C206238467F1E0028D8
:10065000F4DC07E000986268A168405D9047206A7A
:10066000401C206228466D1E0028F3DC2046C04650
:10067000C0462078000602D5022005B0F0BD01205A
:10068000FBE7000001694A1C02610878704700B569
:100690008FB002910021059105490193794403919E
:1006A000114604906846FFF705FE0FB000BD00003C
:1006B000E5FFFFFF0CC908399A4202D2531C0B60B8
:1006C0001070704710B54369002B02D0C046C04679
:1006D00001E0FFF78FFD012010BD127801462431A3
:1006E0000A7000224A700122ECE711680022D2430E
:1006F000E8E701468008081A02091018020A1018D3
:10070000020C1018C008820012185200891A01E069
:10071000401C0A390A29FBD2704700000048704784
:100720000000202010B5FF231B0644009C421DD86A
:100730004C009C421AD80346124A0B4307D4401A75
:1007400002D3EFF3008010BDEFF3008010BD081A54
:1007500003D3EFF30080904305E0EFF30080012125
:100760009043C907084380F3008810BD0D231B0484
:100770001A4204D01146002000F02EF810BD00F0FF
:1007800043F810BD0000009070477546FFF7C6FFA4
:10079000AE46050069465346C008C000854618B0FD
:1007A00020B5FFF7F7FC60BCB64600260027C0C5A1
:1007B000C0C5C0C5C0C5C0C5C0C5C0C5C0C5403D19
:1007C000490849008D46704710B50446C046C046EA
:1007D0002046FFF7D1FC10BDC80212D54803400FD8
:1007E000002804D0C803C043012188407047EFF3BC
:1007F00000800001000903210907084380F30088F5
:10080000704700207047000010B5024800F00AF859
:1008100010BD00000000C07F01491820ABBEFEE7FC
:100820002600020010B50C461107090F092904D053
:100830000A290AD008290CD104E011460820FFF744
:10084000CBFF06E0510606D501E0510601D5012097
:10085000C007214610BDD10607D501010909CC0802
:100860004907000E0006044309E0410F2002490732
:10087000000A0143200E00061D22D1410143084613
:10088000E7E70000B0B502240025054A20462946C6
:1008900000F0C8FA034A2046294600F0C3FAB0BD6A
:1008A00070002020A8002020811E091F00BFFCD25C
:1008B00070470000F0B57A4A82183B4BC31808799C
:1008C0004E793A4D784C002E23D0202804D00526AE
:1008D000F601002803D003E0354E002800D1882619
:1008E000576F2F4037435767976F2F4037439767AE
:1008F000566B26405663966B2640966300265665D7
:1009000096658F26F6435F6837405F609F68374083
:100910009F608E79096820280BD0002819D1491EC4
:100920005160D76E2F4088210F43D7661746703726
:1009300019E0491E5160D16E29401D4F3943D166DF
:10094000116F29403943116701214907194D174695
:1009500009E049085160D76E2F400521C9010F43B6
:10096000D766174670373C682C400C433C60D16A10
:100970004D4C2140D162116B214011630021D164A3
:1009800011658F21C943D46F0C40D4671C680C409B
:100990001C600643BD2030401168074B0B40C01857
:1009A000801C1060F0BDC0468418000024493E0041
:1009B00001040000FFFFFFCF4000FFCFB0B54A6841
:1009C000364BC250364A80180A78222A58D89300EB
:1009D00001A4E3589F46C046770A0000810A000040
:1009E000770A0000810A0000810A0000810A0000E5
:1009F000810A0000810A0000810A0000810A0000CB
:100A0000810A0000810A0000810A0000810A0000BA
:100A1000810A0000810A0000650A0000810A0000C6
:100A2000650A0000810A0000810A0000810A0000B6
:100A3000810A0000810A0000810A0000810A00008A
:100A4000810A0000810A0000810A0000810A00007A
:100A5000810A0000810A0000650A0000810A000086
:100A6000650A000003231B0704689C4301235B07FE
:100A7000E318036004E003231B0704689C4304603D
:100A80000B69C360CB68074C1C40C36A064D1D4010
:100A90002B19C362097A11430160B0BD0818000028
:100AA00004180000777702008888FDFF10B507233F
:100AB0009B04194092008018024A84589C43611894
:100AC000815010BD3018000010B5029CA400001920
:100AD00011431943014A815010BDC046501800000F
:100AE00092008018014A81507047C04610180000DB
:100AF00010B50122120383180C789C604B78835048
:100B00008978014A815010BD0C110000B0B5112246
:100B1000120283580124A34383500B888C781C4312
:100B20008B882343094C1C408358094D1D40631991
:100B300083508B79CC791C43097A21437E23194059
:100B4000801842689A4351184160B0BD1867000090
:100B5000E798FDFF10B50122120383180C789C6002
:100B60004978815010BD0000F0B5002835D003252C
:100B7000054001210904464A524B002D04462AD063
:100B80005A6000249C6005261E601F680F4208D131
:100B90001F680F4205D11F680F4202D11F680F4224
:100BA000F3D01C60012D03D1441E04282DD214E083
:100BB0005A609C601E601F680F4208D11F680F4278
:100BC00005D11F680F4202D11F680F42F3D01C608D
:100BD000022D03D1841E042817D2F0BD5A609C60F8
:100BE0001E601D680D4208D11D680D4205D11D68AB
:100BF0000D4202D11D680D42F3D01C60C41E0428B2
:100C000003D2EAE71860241FE7D05A6000209860FA
:100C100005251D601E680E4208D11E680E4205D1D2
:100C20001E680E4202D11E680E42F3D018605A6050
:100C300098601D601E680E4208D11E680E4205D1E4
:100C40001E680E4202D11E680E42F3D018605A6030
:100C500098601D601E680E4208D11E680E4205D1C4
:100C60001E680E4202D11E680E42F3D018605A6010
:100C700098601D601D680D42C4D11D680D42C1D130
:100C80001D680D42BED11D680D42F3D0BAE7C046C3
:100C9000FF7C00004001411E0A4841600021816044
:100CA00005220260012212040368134208D103687E
:100CB000134205D10368134202D103681342F3D0F3
:100CC0000160704710E000E080B501B2C913024630
:100CD0004A40511A09B27D22D200914200DB1146EE
:100CE00089B280B2C00B124A00F09CF880BDC046A9
:100CF000F0B585B000250395012602960B4F0197AC
:100D0000F0040090B2040A480A4C2146234600F041
:100D100063F8700400900197029503953204064829
:100D20000649234600F058F805B0F0BD00A0864003
:100D30007000202000200A40A800202000000A4067
:100D4000F0B581B00143114334D004461046FFF79B
:100D500035FC1D49FFF738FB1C4900F08BFF0546A9
:100D60002046FFF72BFC0646294600F0DBFFFFF785
:100D7000DBFB0446164F38602846314600F0E0FEA3
:100D8000FFF7D2FB1349884200DC08467D21C900E9
:100D9000884200DB08468C4202DC0E498C4200DAB5
:100DA000396000B2FFF790FF0020385E00F0A8FA2B
:100DB00001B0F0BD0024204600F0A2FA2046FFF763
:100DC00083FF01B0F0BDC04600007A440000E64257
:100DD000B803202018FCFFFFF0B583B000281CD01A
:100DE000099C002C19D00B9D01950A9D0295089F26
:100DF00095256D015F514A51094D655901262E43D4
:100E0000074D6651019EC682029D05758EC0046025
:100E1000204631462A46FFF763FE03B0F0BDC046C8
:100E200004180000B0B5002A11D003280AD88000A9
:100E300007A31B5854681568EC5009A31858936809
:100E4000D4681C50D1821069127DFFF749FEB0BDF5
:100E500090120000A012000090120000A0120000EA
:100E6000A01200009012000090120000A0120000DA
:100E7000F0B585B0012081020391C5020020FE4F2C
:100E80001D4E0190024604A8019981701021417005
:100E9000B021029211430170032100F0EFF9039C8D
:100EA0003C603D603C610120FFF7F4FE3D6178202D
:100EB00000F09EF83C603D6030683D61402000F0ED
:100EC00097F83C603D6030683D61344680260020E4
:100ED00000F08EF8039838603D6020683D61761E12
:100EE000F5D1039838613D60386002994A1C0729A2
:100EF0002646C8D305B0F0BD80130A4070B5642003
:100F0000FFF732FEAE200024214600F085F920468E
:100F1000214600F081F91020214600F07DF940269D
:100F20003046214600F078F98120214600F074F91E
:100F3000CF20214600F070F9A120214600F06CF985
:100F4000C820214600F068F9A6252846214600F071
:100F500063F9A820214600F05FF93F20214600F008
:100F60005BF9D320214600F057F92046214600F0D6
:100F700053F9D520214600F04FF98020214600F09A
:100F80004BF9D920214600F047F9F120214600F025
:100F900043F9DA20214600F03FF91220214600F003
:100FA0003BF9DB20214600F037F93046214600F0BE
:100FB00033F92020214600F02FF90220214600F0CD
:100FC0002BF98D20214600F027F91420214600F04E
:100FD00023F9A420214600F01FF92846214600F0FD
:100FE0001BF9FFF745FFAF20214600F015F970BD52
:100FF000F0B583B00124E602434D2E60029040B26A
:101000002F46103F0028284600DA3846A1020191F9
:1010100001602046FFF73EFE3E602046FFF73AFEA5
:101020002E602E6002984006284600D53846019969
:1010300001602046FFF72EFE3E602046FFF72AFEA5
:101040002E602E6002988006284600D53846019909
:1010500001602046FFF71EFE3E602046FFF71AFEA5
:101060002E602E600298C006284600D538460199A9
:1010700001602046FFF70EFE3E602046FFF70AFEA5
:101080002E602E6002980007284600D53846019948
:1010900001602046FFF7FEFD3E602046FFF7FAFDA7
:1010A0002E602E6002984007284600D538460199E8
:1010B00001602046FFF7EEFD3E602046FFF7EAFDA7
:1010C0002E602E6002988007284600D53846019988
:1010D00001602046FFF7DEFD3E602046FFF7DAFDA7
:1010E0002E602E600298C007284600D0384601992D
:1010F00001602046FFF7CEFD3E602046FFF7CAFDA7
:101100002E6003B0F0BDC046A0120A40F0B58BB00F
:101110001C4616465A080892082B01D1062506E0FF
:101120006207E508002A00D06D1C089A55430F237A
:10113000034009AA04939370079150391170000974
:101140001030039050700321104600F097F8069578
:10115000002D3AD0203EF0B2019000011C49081841
:10116000059000252F462E46029404E07F1C761C35
:101170000698864229D2082C11D0002D0FD10AA83A
:101180000499817003994170079C21465039017080
:10119000032100F073F8641C0794029C07E0082CFC
:1011A00005D10620019948430A49081802E0102C8D
:1011B0000BD10598C0190078012100F02DF86D1CA5
:1011C00008988542D2D10025D0E70BB0F0BDC046CB
:1011D0005C200000341E0000F0B583B01578002DAF
:1011E00018D00746082B01D05E0800E00626002430
:1011F00002920196F8B2EAB20E461D46FFF786FF4C
:10120000029A2B463146019EBF19641CE0B2155C60
:10121000002DEFD103B0F0BDF0B581B00D460090C8
:1012200001208602344F3E60C4023C603E61FFF7FD
:1012300031FD3C617820FFF7DBFE3E603C602F49CA
:1012400008683C61400512D4681E8541A8010D461E
:10125000FFF7CEFE3E603C6028683C61304206D11C
:101260000098FFF7C5FE3E603C6028683C613E6127
:101270003C603E6001B0F0BD90120A40F0B581B014
:10128000002936D004460091012086021A4F3E60A4
:10129000C5023D603E61FFF7FDFC3D617820FFF730
:1012A000A7FE3E603D60154800683D6140051CD4C6
:1012B0000020FFF79DFE10490E600D600F4800688A
:1012C0000D61304211D10098471E2078FFF790FE43
:1012D00009490E600D60094800680D61304204D173
:1012E000641C781E002F0746EFD103480661056095
:1012F000066001B0F0BDC04690120A4080130A405B
:1013000080B501B2C91302464A40511A09B27D2282
:10131000D200914200DB114689B280B2C00B024A72
:10132000FFF780FD80BDC046A800202010B5124CFC
:1013300012492046FFF70EFC11492046FFF7E6FB55
:101340000320C1030F4802688A4302600169524AC0
:101350000A40D0320261416915220A432A218A4398
:10136000426141680122114043689343591841602A
:1013700001681143016010BD008010404C26000040
:101380004E26000000911040F0B5204986234B60A6
:101390001F4A1446813C1F4804608B601E4C234644
:1013A000823B03601D4B85251D6001267707076082
:1013B0005D60B5070560651C0D62DC6082251D62FD
:1013C0005C62CD630C64164C0C638125CD62DD66D6
:1013D0001D675D67DD620C604C618C61CC61114CF6
:1013E000DC641C655C659C659C67CC644C63DC6755
:1013F0005A649A6401463039432292020A600260BC
:1014000009480A4901600163F0BDC0469880424026
:1014100081000200D0120A40820004001080424085
:101420008100010081000D00A0320A4004C06F005D
:1014300010B5154C15492046FFF78CFB1449204682
:10144000FFF764FB0321CA03124803689343036058
:101450000269114B1340113303614269172313438F
:10146000282293434361426801231A4044689C4305
:10147000A21842608902094A14680C43146001688A
:101480001943016010BDC0460020104058260000DE
:101490005A260000003110400000FFFF28301040A5
:1014A000F0B581B01C4C1D492046FFF721FB1C49BB
:1014B0002046FFF7FFF91B480168514A0A400260C5
:1014C00000250095204629462A462B46FFF7FCFAC0
:1014D000204629462A46FFF7E9FA7D208600204665
:1014E00031462A46FFF7FCFA012700972046294695
:1014F0002A462B46FFF7E8FA204629463A46FFF7E8
:10150000D5FA204631463A46FFF7EAFA06488760A0
:101510000321016001B0F0BD00A0864064260000F8
:101520006826000004B8864000B1864080B50A48AD
:101530000A49FFF7DDFA0A480A49C1620022C26778
:10154000094B0360016309490A600360084941606F
:1015500008480121016080BD00000940702600009C
:10156000041809400100020012920010841809407A
:10157000FFFF000008110940F0B581B01C4C1D4967
:101580002046FFF7B5FA1C492046FFF793F91B48A0
:1015900001681B4A0A400260002500952046294642
:1015A0002A462B46FFF790FA204629462A46FFF79F
:1015B0007DFA7D20C600204631462A46FFF790FA84
:1015C00001270097204629462A462B46FFF77CFA3A
:1015D000204629463A46FFF769FA204631463A4600
:1015E000FFF77EFA074887600321016001B0F0BD74
:1015F000008086407326000078260000049886400C
:101600007F00FFFF009186400D480021016003200C
:10161000C1430C48021F13680B401360416801224C
:1016200091434160110242688A434260016830225E
:101630009143016001680F22914301607047C046E9
:1016400008030B4004010B40084809494160FF2191
:101650000906084A13688B4303218907591811604A
:1016600000218160072101607047C04610E000E062
:10167000FF7C000020ED00E010B5084C0849204632
:10168000FFF736FA07492046FFF798F90648016840
:101690000122114301600548026010BD0000864030
:1016A000802600008426000028108640081186400D
:1016B00080B500F027F8FFF767FEFFF7A5FFFFF7FB
:1016C000EFFEFFF759FFFFF731FFFFF7D5FFFFF7F9
:1016D0002DFEFFF7ADFEFFF7B7FF9C200549002266
:1016E0000A5405490A5405490A54B82004490A54C1
:1016F00080BDC04624022020E40020208401202058
:10170000C4022020F0B581B0104811494160114851
:101710004160114B5960114C6160114D6960114E6F
:101720007160114F7960114841601149074A116099
:10173000084A1160196021602960316039600160D8
:101740001020FFF7B1F801B0F0BDC04600080A4014
:10175000030000B100280A4000A8864000888640A7
:10176000000809400008864000881040002810400A
:101770000100002607480168491C01601E4A1368E1
:101780005B1C13607D22D200914201D100210160D7
:101790007047C046DC002020B0B516490868164ADC
:1017A0001268131A0020642B20D3D54C25786B4285
:1017B0006B416578002D00D15B1CA578002D00D110
:1017C0005B1CE578002D00D15B1C2579002D00D134
:1017D0005B1C6579002D00D15B1CA579002D00D123
:1017E0005B1CE479654265411D4300D0B0BD0A60D1
:1017F0000120B0BDD8002020BC032020B0B51A497C
:101800000A68402313405A425A41C2710A68802331
:1018100013405A425A418271012213020C681C4043
:1018200063426341437153020C681C40634263414D
:10183000037114030D4B1D6825406C426C41C4704C
:1018400094060D6825406C426C418470D40509688B
:1018500021404C424C41447051031A680A405142A5
:1018600051410170B0BDC04680330A4080130A4028
:10187000F0B589B00793059206910890A04E37788D
:10188000002F01D0002400E0654C6649204600F09E
:1018900057F9054670780490002800D02546624923
:1018A000284600F04DF90446B0780390002800D097
:1018B0002C46BF200106204600F042F90546F0788C
:1018C0000290002800D025463F200106284600F05F
:1018D00037F9044630790190002800D02C46FF20CB
:1018E0008105204600F02CF905467679002E00D0BF
:1018F00025464E49284600F023F981498979002977
:1019000000D02846002F01D0012400E002247A42B2
:101910007A41049B002B00D01446039A002A00D180
:10192000641C029A002A00D1641C019A002A00D18A
:10193000641C002E00D1641C714A002900D1641C73
:10194000D179002904D0002C06D13948007812E062
:10195000384900F0F5F8641C05462046FEF736FECF
:1019600001462846FEF730FD334900F083F9FEF7C3
:10197000DBFD2F4908700022304904928A5E0392F1
:1019800045B20D802846FEF719FE06462C48006831
:10199000314600F0D5F807462A4C214600F0B2F84F
:1019A000002800D13C46284F2046394600F0B5F8C3
:1019B000002800D12746224807600598394600F0E4
:1019C00059F904463046069900F054F9214600F0D2
:1019D000B7F804460398281AFEF7F0FD079900F0BF
:1019E00049F9214600F0ACF80446184D294600F0AC
:1019F00089F8002800D12546154C2846214600F0DC
:101A00008CF8002800D12C462046FEF78DFD1149A8
:101A1000086002B208980499FFF792F909B0F0BD86
:101A2000000060C0000020C00000C0BF00002040D7
:101A3000E00020200000604000002041A4002020A1
:101A4000A00020200000FA430000FAC300409C459B
:101A500000409CC5B403202080B53F200306C82069
:101A600002490022FFF704FF80BDC0460000A041EC
:101A700088B0FFF71DFEFFF741FAFFF739F911486B
:101A8000FFF7BCFE00F02EF80E4C23786078A178AA
:101A9000E27827796679A579E4790090019102923C
:101AA00003970496059506943221074C204607A219
:101AB000FEF780FB0020032108232246FFF78CFB62
:101AC000E2E7C0466800202080032020256420250E
:101AD0006420256420256420256420256420256455
:101AE0002025640010B5064C2046FFF787FEFFF75F
:101AF000B3FFFFF751FE0028F6D0FEF7C3FE10BD7E
:101B00006000202010B500F061F8EFF30080400085
:101B1000800F012800D0002010BD10B500F080F823
:101B2000EFF30080800001D4012010BD002010BD23
:101B300030380A2801D20120704700207047000089
:101B400070B50125ED0704004C4020D4441A01D2A1
:101B5000001B0919C60D4B00F2B2FF2A29D01B0E3B
:101B60002CD000020C0228432C43D31ADC40051968
:101B700010D2280A02D3401C6D0611D0761EF6053D
:101B80008019FF2A00DA70BDC00DC00570BD694024
:101B900000F0CEF801200543C541521C761CE8E751
:101BA00064089C40C90161408900E7D10124A04339
:101BB000E4E71B0E440200D0034870BD002AFCD1AC
:101BC000C00FC00770BD00BF0000C07F0123DB0550
:101BD00002000A430DD4DA4203D49A4207D4884261
:101BE0007047D84214D4D94212D4884270478042F8
:101BF0007047DA4203D59A42F9D5814270475B00BB
:101C00004200DA4204D24A00DA4201D281427047ED
:101C100010B5024AFEF786FD10BD00BF090013048F
:101C20000123DB0502000A430DD4DA4203D49A42B1
:101C300007D488427047D84214D4D94212D488427B
:101C4000704780427047DA4203D59A42F9D5814203
:101C500070475B004200DA4204D24A00DA4201D205
:101C60008142704710B5024AFEF75CFD10BD00BF0F
:101C70000900160470B5420064414B005C41120E2D
:101C800039D01B0E38D0FF2A3CD0FF2B3AD0D218C7
:101C90007F3A40024902400A490A4518ED01060010
:101CA0004E43000A090A48430104731A4019190CEB
:101CB0004318990F04D05B08012149075B1A521C95
:101CC000D80904D3401CF50301D19D0607D0FF2A93
:101CD00008D2D50506D0E4072043401970BD012580
:101CE000A843F4E7002A01DCE00770BD2402FF20CE
:101CF0002043C00570BD1B0EFF2A03D0FF2B01D06F
:101D0000E00770BDFF2636064500B54206D84D00F7
:101D1000B54203D8D218FF2A00D0E7E7004870BDCB
:101D20000000C07F70B50125ED0704004C4022D4AF
:101D3000441A02D26C40001B0919C60D4B00F2B2C6
:101D4000FF2A4BD01B0E50D000020C02A8432C439C
:101D5000D31ADC40051B05D5AD0019D36D08761EDE
:101D6000521E37D0F605280A01D2801970BD704185
:101D70006D0603D070BD6940FFF7E8FE9C40090284
:101D80006140490001D0401E70BD0124A04370BDD8
:101D90006D081DD001202B0C01D12D0410302B0E0D
:101DA00001D12D0208302B0F01D12D01001DAB0FE9
:101DB00001D1AD00801CEB0F01D16D00401C361A23
:101DC000121A6D00680AF5054019012A02DB70BD80
:101DD000002070BDC036300AC00770BD1B0E440223
:101DE00001D1FF2B00D1024870BD002AF0D070BD98
:101DF0000000C07F8182838485868788898B8C8D53
:101E00008E8F919293959697999A9C9D9FA0A2A34D
:101E1000A5A7A8AAACAEB0B2B3B5B7B9BCBEC0C294
:101E2000C5C7C9CCCED1D4D7D9DCDFE2E6E9ECF026
:101E3000F3F7FAFE0000000000000000002F000091
:101E400000000700070000147F147F1400242A7F7D
:101E50002A120062640813230036495522500000FC
:101E60000503000000001C224100000041221C006C
:101E70000014083E08140008083E0808000000A0EE
:101E800060000008080808080000606000000020EA
:101E900010080402003E5149453E0000427F4000C8
:101EA000004261514946002141454B31001814124E
:101EB0007F10002745454539003C4A49493000011B
:101EC0007109050300364949493600064949291E6A
:101ED00000003636000000005636000000081422CC
:101EE00041000014141414140000412214080002CC
:101EF0000151090600324959513E007C1211127CF1
:101F0000007F49494936003E41414122007F41411D
:101F1000221C007F49494941007F09090901003E0F
:101F20004149497A007F0808087F0000417F41004D
:101F3000002040413F01007F08142241007F4040C3
:101F40004040007F020C027F007F0408107F003EAB
:101F50004141413E007F09090906003E4151215E91
:101F6000007F091929460046494949310001017F8E
:101F70000101003F4040403F001F2040201F003F24
:101F80004038403F006314081463000708700807D6
:101F900000615149454300007F41410000552A55E9
:101FA0002A55000041417F00000402010204004064
:101FB0004040404000000102040000205454547886
:101FC000007F4844443800384444442000384444A6
:101FD000487F00385454541800087E090102001844
:101FE000A4A4A47C007F080404780000447D400081
:101FF000004080847D00007F102844000000417F65
:102000004000007C04180478007C08040478003840
:102010004444443800FC242424180018242418FCC8
:10202000007C0804040800485454542000043F4431
:102030004020003C4040207C001C2040201C003CF4
:102040004030403C004428102844001CA0A0A07C44
:10205000004464544C44141414141414000000007C
:10206000000000000000000000000000000000F878
:1020700000000000000000333000000000100C06DB
:10208000100C0600000000000000000040C0784076
:10209000C0784000043F04043F040400007088FC42
:1020A00008300000001820FF211E0000F008F0009A
:1020B000E018000000211C031E211E0000F008880B
:1020C000700000001E2123241927211010160E0075
:1020D000000000000000000000000000000000E020
:1020E0001804020000000007182040000002041835
:1020F000E00000000040201807000000404080F091
:10210000804040000202010F01020200000000F0C6
:10211000000000000101011F01010100000000009A
:102120000000000080B0700000000000000000000F
:102130000000000000010101010101010000000098
:10214000000000000030300000000000000000002F
:1021500080601804006018060100000000E010080C
:102160000810E000000F102020100F00001010F8E1
:10217000000000000020203F202000000070080820
:1021800008887000003028242221300000300888A0
:10219000884830000018202020110E000000C020C8
:1021A00010F8000000070424243F240000F80888E9
:1021B000880808000019212020110E0000E0108876
:1021C00088180000000F112020110E0000380808A8
:1021D000C83808000000003F0000000000708808B8
:1021E00008887000001C222121221C0000E0100839
:1021F0000810E0000000312222110F00000000C092
:10220000C00000000000003030000000000000802E
:10221000000000000000806000000000000080401E
:102220002010080000010204081020004040404037
:10223000404040000404040404040400000810208A
:1022400040800000002010080402010000704808CF
:102250000808F0000000003036010000C030C82837
:10226000E810E0000718272423140B000000C038F2
:10227000E0000000203C23020227382008F888886C
:1022800088700000203F202020110E00C030080878
:1022900008083800071820202010080008F808084F
:1022A0000810E000203F202020100F0008F8888848
:1022B000E8081000203F20202320180008F8888814
:1022C000E8081000203F200003000000C03008088C
:1022D0000838000007182020221E020008F8080015
:1022E0000008F808203F210101213F20000808F8DC
:1022F000080800000020203F2020000000000808FF
:10230000F8080800C08080807F00000008F888C0BE
:1023100028180800203F20012638200008F808006F
:1023200000000000203F20202020300008F8F800A6
:10233000F8F80800203F003F003F200008F830C0B8
:102340000008F808203F200007183F00E0100808A8
:102350000810E0000F10202020100F0008F80808D7
:102360000808F000203F210101010000E0100808EA
:102370000810E0000F18242438504F0008F888880F
:1023800088887000203F2000030C302000708808EF
:10239000080838000038202121221C00180808F8FD
:1023A000080818000000203F2000000008F808007E
:1023B0000008F808001F202020201F00087888004F
:1023C00000C83808000007380E010000F80800F8BF
:1023D0000008F800033C0700073C03000818688069
:1023E0008068180820302C03032C30200838C800DF
:1023F000C83808000000203F20000000100808082E
:10240000C83808002038262120201800000000FECF
:10241000020202000000007F40404000000C30C07B
:1024200000000000000000010638C00000020202A7
:10243000FE000000004040407F0000000000040259
:102440000202040000000000000000000000000084
:102450000000000080808080808080800002020474
:10246000000000000000000000000000000080806C
:10247000808000000019242222223F2008F80080DA
:1024800080000000003F112020110E00000000809D
:1024900080800000000E112020201100000000802C
:1024A0008088F800000E112020103F20000080805E
:1024B00080800000001F222222221300008080F072
:1024C000888888180020203F20200000000080809D
:1024D00080808000006B94949493600008F80080E2
:1024E00080800000203F210000203F20008098983D
:1024F000000000000020203F20200000000000809D
:102500009898000000C08080807F000008F80000DC
:1025100080808000203F24022D302000000808F831
:10252000000000000020203F2020000080808080EC
:1025300080808000203F20003F20003F808000807E
:1025400080800000203F210000203F20000080808C
:1025500080800000001F202020201F00808000803D
:102560008000000080FFA12020110E0000000080EC
:1025700080808000000E112020A0FF8080808000DD
:102580008080800020203F2120000100000080800A
:10259000808080000033242424241900008080E0FF
:1025A000808000000000001F2020000080800000CC
:1025B00000808000001F202020103F2080808000AD
:1025C0000080808000010E300806010080800080BD
:1025D000008080800F300C030C300F0000808000E2
:1025E000808080000020312E0E312000808080000D
:1025F0000080808080818E701806010000808080BD
:10260000808080000021302C22213000000000005A
:10261000807C020200000000003F404000000000FB
:10262000FF00000000000000FF0000000002027C2C
:10263000800000000040403F000000000006010153
:102640000202040400000000000000000800000076
:102650001800000000300000080000001800000012
:102660000030000008070000E8030000200001001F
:102670000800000800030000E8030000000000005C
:1026800008076300020000008F0100000100000045
:102690000000000000000000A8260000000020202C
:0826A000C053000028010000F6
:04000005000000C136
:00000001FF
