:020000040000FA
:10000000F8192020D5000000D9000000DB00000016
:1000100000000000000000000000000000000000E0
:10002000000000000000000000000000DD000000F3
:100030000000000000000000DF0000004535000067
:10004000E300000059180000E3000000E300000096
:10005000E3000000E3000000E3000000E300000014
:1000600000000000E3000000E300000000000000CA
:1000700000000000E30000008D350000E3000000F8
:10008000E3000000E300000071350000E300000021
:10009000E3000000E300000000000000000000009A
:1000A000E3000000E300000000000000000000008A
:1000B000E300000000000000E3000000E300000097
:1000C0000348854600F084FD0048004715400000C5
:1000D000F819202003480047FEE7FEE7FEE7FEE7A9
:1000E000FEE7FEE7C100000003460B439B0703D079
:1000F00009E008C9121F08C0042AFAD203E00B78ED
:100100000370401C491C521EF9D27047D2B201E064
:100110000270401C491EFBD270470022F6E710B562
:1001200013460A4604461946FFF7F0FF204610BD65
:10013000F8B502464A40D40F42004B0052085B0813
:100140009A4202D20246084611464A0023D0C30D05
:100150004A00DDB2120EAD1A202D35DA4902012611
:10016000490AF6058A19002C00D0524220214F1B63
:100170001146B9402A411018C20D9A4221D0002CD4
:1001800017D0012D08DCDA05801AD20F8019D207AA
:10019000DBB200F0CAFBF8BDDA05801A012340008B
:1001A0001B06C01880185A428018CA0F1043490015
:1001B00007E04908C2071143DA05801A8019400890
:1001C000801800F0AAFBF8BD61000122511A001B43
:1001D000F7E70122D2075140AAE70122D207504097
:1001E000A6E7024670B54A40D30FDB0740002DD08A
:1001F0004A002AD0010E140E000212020919400A08
:10020000520A8418E50104465443000A120A2E04D7
:100210005043A4194219200CC543AA18120C0125F9
:10022000AD03521C521912047F39240400D0521C11
:10023000104301D44000491EC2B20C06C009201868
:10024000401C4008802A02D003E0002070BD400816
:100250004000002900DA0020184370BD70B5024646
:100260004A40D50F40004A00ED07400852080028D8
:1002700014D0002A12D0C40DD30D41020120C005B4
:100280005202490A520AE41A091812187D3491429E
:1002900001D3641C00E04900002C01DA002070BD8D
:1002A0000023914201D3891A0343400849000028E2
:1002B000F7D100290AD0914202D10121C90705E0F6
:1002C000914201D2012101E00121C943E005C0189A
:1002D000401900F022FB70BDF0B5074608465840B3
:1002E00087B0C00F049048000E46590040084908E6
:1002F000BC1A884105D2384631461E4617460B4681
:1003000002465800400810434CD0300D0390400581
:100310005900400D490D0590401A0290402872DAAC
:1003200018030121000B090508430190049800926D
:10033000002805D001995242002088410092019086
:10034000029840210A1A0199009800F0C3FA054664
:100350000C466B4607CB00F0CDFAC0197141039AE9
:100360000E0D0023D71756401A467A40164344D044
:10037000049A002A2DD0029A012A039A15DC12054C
:10038000C01A914101263605001C7141D20F059E0D
:10039000D2070093019202962A46234600F02AFBD8
:1003A00007B0F0BD38463146FAE71605224A0F4637
:1003B000B218C01AB74101210905001C4F410018AD
:1003C0007F41114618187941E20F10436D196441BD
:1003D00013E0E2076D0815436408C2071443039A4B
:1003E00001261205C01A91413605001C7141CE0745
:1003F000400830434908C01851412A46234600F0BE
:10040000ECFACDE7FFE7049801224000C117121A69
:1004100000238B4104983146C417381AA141EEE7F6
:1004200030B40124E407634030BC55E730B4012404
:10043000E407614030BC4FE70000E0FFF0B51FB4B7
:1004400088B00B990998002448400999C00F4900C9
:1004500049080991C0070B990090490049080B9180
:1004600009990898A64608431CD00B990A98084396
:1004700018D0099801244000420D4800410D099808
:1004800024050003000B204309900B980003000B88
:1004900020430B9050181C4940180022019014462C
:1004A000104605E0002001460DB0F0BD032801DA3A
:1004B000034600E003239C46C11A0AAE0AE05F002F
:1004C00008ADED5B4F00F75B7D430027AA187C4128
:1004D000491C5B1E6145F2DD410004AB5A52210408
:1004E000120C0A43240C401C0828DFDB0198029000
:1004F0000099704601910090059B049A079906980F
:1005000000F078FAD0E700000DFCFFFFF0B50C46D4
:100510005C4085B0E40FE40703944C0000266408B7
:1005200059009446490802460296224321D0624669
:100530000A431ED06200570D4A000E032303550DD7
:10054000012402462C492405781B1B0B360B40184E
:1005500023432643614600901C46501AB44103D3FE
:100560000098401C009002E0921800985B4100281F
:1005700003DA0020014605B0F0BD00200121090585
:100580000746864611E064461D46141BB54106D356
:100590006546521BB341744607430C43A646CD073C
:1005A00040084908284392185B4105460D43EAD1AB
:1005B0001046184313D06046194650407140084316
:1005C00006D06046101AB34106D20122002306E08D
:1005D00000220123DB0702E00122D24353100098DE
:1005E00074460105381C6141029C039D0019694154
:1005F00000F0F3F9BFE70000FD0300000122D2077D
:10060000002800DB101A002900DB511A814201D8B2
:1006100001207047002070470122D207002800DB2C
:10062000101A002900DB511A814201D301207047C2
:10063000002070470122D207002800DB101A002991
:1006400000DB511A814201D9012070470020704718
:100650000122D207002800DB101A002900DB511A02
:10066000814201D1012070470020704710B5002958
:1006700004DB0C460121C9074042A141002B04DBE9
:100680001C460123DB075242A341101A8B4101D3C0
:10069000012010BD002010BD10B5002904DB0C4660
:1006A0000121C9074042A141002B04DB1C46012364
:1006B000DB075242A341801A994101D2012010BDAB
:1006C000002010BDC217C10F504010B54018CA0716
:1006D0009623002100F029F910BD10B500229623C1
:1006E000114600F022F910BD0EB5C217C10F5040DF
:1006F000CA0740180021054B0293019200910A4657
:100700000B4600F077F903B000BD00003304000091
:100710000EB505490291002100910A460B46019150
:1007200000F068F903B000BD33040000C20F4100BF
:1007300040020123400ADB05D207090EC0187F29B9
:1007400001DA00207047962903DC9623591AC84025
:1007500001E096398840002AF4D0404270474100B9
:1007600040020122400AD205090E80187F2901DAD1
:1007700000207047962903DC9622511AC840704722
:10078000963988407047C20FD207400040080BD00E
:10079000C10D0723DB01C91840020905400A1143B6
:1007A000C208400711437047002001467047CB0F35
:1007B000DB07490010B5490802460A4307D00A0D75
:1007C00007240903E401090B121B002A01DC0020A5
:1007D00010BDC900440F0C43C100E018D2058018B9
:1007E00000F09BF810BD70B50446002903D000202E
:1007F0002022012310E0002801D00020C043C04681
:10080000C0460DE02546D5408D4205D30D469540A6
:10081000641B1D46954040191546521E002DF1DC03
:10082000214670BD70B5002504462E46002911D022
:10083000002C01DA01254442002901DA012649424F
:100840002046FFF7D0FFB54200D04042002D00D037
:10085000494270BD002C02DA0121C90702E0002CD8
:1008600000DD03490846C046C046214670BD000071
:10087000FFFFFF7FF0B51FB40646002082B005469B
:100880004024019100901BE0019922460F4630461A
:1008900000F0B6F9049A059B801A994110D31046CE
:1008A0001946224600F016F8361A8F410197224663
:1008B00001200021009F00F00DF838184D410090F4
:1008C0002046641E0028DFDC019B00982946324642
:1008D00007B0F0BD10B5202A04DB0146203A914054
:1008E000002010BD914020239C1A0346E340194389
:1008F000904010BD10B5202A06DBCB170846203AE1
:100900001041C1170B4306E00B461341D040202491
:10091000A21A91400843194610BD002904DA401C70
:10092000490001D140084000704770B40024050C14
:1009300005D11024000402D1002921D01124050E74
:1009400001D100020834050F01D10001241D850FDB
:1009500001D18000A41C002801DB4000641C002998
:1009600008D020252E1B0D46F540A14000D00121C6
:100970002943084301061B1B000ADB1D02D500208A
:1009800070BC7047DB05181880180029F8DA401C85
:100990004900F5D170BC40084000704710B54100D7
:1009A0000DD04100090E962909DC7E290ADC07DBFF
:1009B000410205D0C00F7F21C007C905401810BDF6
:1009C000002010BD9622541A20210A1B0146914096
:1009D000E040FFF7A2FFA04010BD10B5002B08DAE1
:1009E0000024401C614192185B411A4301D1400828
:1009F000400010BDF0B51FB482B005460C0003D016
:100A0000084603F039FF02E003F036FF20300246CB
:100A1000009021462846FFF75DFF049B059A044697
:100A20000F4618431143084314D0184610431BD0F7
:100A3000009840210A1A1846059900F0E1F8054689
:100A40000E46009A05990498FFF744FF084305D025
:100A5000012004E02046394607B0F0BD0020C11750
:100A600005430E432C43374300990E986305401A03
:100A70007905E40A00220C43FD0A0A3002D5002061
:100A80000146E9E70105101969410C9C0D9D00190B
:100A90006941FFF7A2FFDFE770B54B005B08034336
:100AA0000BD04B005C0D002633466542B341D41792
:100AB000AD1AA34102DB0020014670BD12053018BB
:100AC000514170BDFEB500231A461B1A8A4103DB53
:100AD0000020014603B0F0BD4A000D0301212D0B9B
:100AE0000905520D0D43D10702D100186D41521E68
:100AF0005110FF31FF310131002704463E46384690
:100B000000970191024601210020090500F078F8C4
:100B1000C3197141F818324684468E464A416146EF
:100B20002846611A904104D36046241A95417646BE
:100B30001F46241900986D41401C00903428E1DDC7
:100B4000F91930467041091BA84103D20022D24353
:100B5000134601E00022134601980105381C71413B
:100B6000FFF73BFFB6E700004A0009030123090B2A
:100B70001B0519430A4B10B5520D9A4202DA0020A8
:100B8000014610BD064B34339A4203DC9A1A00F03A
:100B900037F810BD034BD218FFF79CFE10BD0000C4
:100BA000FF030000CDFBFFFF10B5002904DB01248B
:100BB000E40740428C412146002B04DB1C46012304
:100BC000DB075242A341994200D1904210BD000080
:100BD0001CB5094800900948019005460126009C73
:100BE00005E0E36807CC33430C3C98471034AC4233
:100BF000F7D3FFF769FA0000F46D0000146E0000EF
:100C000010B5202A04DB0846203AD040002110BD50
:100C10000B46D340D0402024A21A914008431946E5
:100C200010BD420005D04200120E52428A4201DB42
:100C300000207047C9050818704784B002900191E0
:100C400000200090FFE700980199884210DAFFE742
:100C5000029800994900405A002804D0FFE703A9F0
:100C60000020087008E0FFE70098401C0090EAE7C9
:100C700003A901200870FFE703A8007804B07047BB
:100C800080B582B0022000900021019101F04AF964
:100C90000098019901F036FF02B080BD80B582B0A6
:100CA000124800F007FD014601A80170007800F02D
:100CB00055FD0F48007801280AD1FFE70C490020B4
:100CC00008700C4800F092FE0B4800F099FEFFE718
:100CD00008480A4A0A4B042102F0ACFC0648094ABB
:100CE000094B082102F0A6FC02B080BD0020104094
:100CF000080520203A002020240120200C0020207C
:100D000008002020140020201000202080B584B08E
:100D1000039003980068002801D1FFE718E00398CA
:100D200000680290FFE7029840680190029802F084
:100D3000C7FE01980290FFE702980399096888426C
:100D4000F1D1FFE703990020086003994860FFE7AD
:100D500004B080BD81B00090009900200860009927
:100D6000486001B07047000080B584B002900191E6
:100D700002F0DEFD0090009800280AD1FFE7164837
:100D8000164903F065FD02F08BFE0020C04303907E
:100D90001FE001980099086002980068002809D1B6
:100DA000FFE700980299086000980299486000984F
:100DB00040600BE0009802994968486000980299E9
:100DC00048600298006800994860FFE7002003909F
:100DD000FFE7039804B080BDA5022020766C0000D8
:100DE00010B598B05C480068002807D0FFE7179856
:100DF0000121C907484059490860FFE702F07AFE1F
:100E0000169057480068C117890F41180322914373
:100E1000401A1590032800D99BE01598810001A085
:100E200040588746350E00008D0E0000C50E0000AC
:100E30001B0F000002F030FF0F9010914A4801682C
:100E40003F200006FFF7C5F9FFF79DFC02460F980B
:100E50000B4610990124E407A343FFF7EFFA119022
:100E600012911698FFF78FFC0246119813920B46C9
:100E700012991493FFF74AFB139A149B6140FFF7F2
:100E800045FBFFF794FC3549086063E002F004FF7E
:100E90000022364BFFF7D2FA0B900C911698FFF711
:100EA00072FC02460B980D920B460C990E93FFF7BD
:100EB0002DFB0D9A0E9BFFF729FBFFF778FC2749C6
:100EC000086047E002F0E8FE0590069126480168B8
:100ED0003F200006FFF77DF9FFF755FC0246059815
:100EE0000B4606990124E407A343FFF7A7FA0790EE
:100EF00008911698FFF747FC0246079809920B469F
:100F000008990A93FFF702FB099A0A9BFFF7FEFA7A
:100F1000FFF74DFC114908601CE002F0BDFE002205
:100F2000104BFFF78BFA019002911698FFF72BFCFC
:100F30000246019803920B4602990493FFF7E6FAE2
:100F4000039A049BFFF7E2FAFFF731FC03490860BC
:100F500000E0FFE718B010BD0C052020980220200B
:100F6000A00220200000E0BF840620200000E03F17
:100F7000811E091F00BFFCD2704784B0039002910C
:100F800001920398006800900098019988430090AE
:100F900000980299019A114008430399086004B02F
:100FA0007047000082B001900091009B0199094AAE
:100FB00088581843885002B07047C04682B00190EC
:100FC0000091009B0199034A88581843885002B049
:100FD0007047C0464810000082B001900091009810
:100FE000019995225201885002B0704782B0019059
:100FF00000910098019995225201885002B07047E3
:1010000082B0019000910098019995225201885078
:1010100002B0704782B0019000910098019995222A
:101020005201885002B0704782B001900091009B3D
:101030000199A74A88581843885002B07047C046A3
:1010400082B00190009100980199024A885002B044
:101050007047C046D012000081B000900099012076
:10106000C202A148885001B07047C04682B00190CA
:1010700000910198024940580099084002B0704719
:101080003810000010B584B0069C039002910192C4
:101090000093029801990843009908430699084370
:1010A00003490843039989001F4A885004B010BDC2
:1010B0008100040081B00090009881001A4A8120CC
:1010C000885001B07047C04610B584B0069C0390AC
:1010D00002910192009302980199084300990843F4
:1010E0000699084381210843039989000E4A8850D4
:1010F00004B010BD82B001900091009803490843EC
:1011000001998900084A885002B0704780000400A5
:1011100082B00190009100988021084301998900D4
:10112000014A885002B070470480424082B001906A
:10113000009101982721C90140580099084002B048
:10114000704782B00190009101982721C901405851
:101150000099084002B0704782B001900091019858
:101160002721C90140580099084002B0704782B059
:101170000190009101982721C90140580099084029
:1011800002B0704781B000900099DD4ADD48885078
:1011900001B0704782B001900091009B0199034A11
:1011A00088581843885002B07047C046901300001A
:1011B00082B00190009100980199114A885002B0C4
:1011C0007047C04682B001900091009801990C4A86
:1011D000885002B07047C04682B0019000910098DC
:1011E0000199074A885002B07047C04682B001900A
:1011F000009100980199024A885002B07047C04699
:101200009012000082B001900091009B01999D20F6
:10121000420188581843885002B070470649086850
:1012200001229043086070470349086801221202B6
:10123000904308607047C04608010B4081B00146EA
:101240006846017000780249086001B07047C046E6
:1012500008030B4080B582B0014601A801700178F7
:101260000F480F22FFF789FE02B080BD80B582B023
:10127000014601A80170017802480322FFF77DFEB4
:1012800002B080BD00010B4080B582B0014601A8CC
:101290000170017802483022FFF76FFE02B080BD76
:1012A00004010B4081B000900099024A012088504F
:1012B00001B070470811000082B001900091009BBE
:1012C0000199DE4A88581843885002B07047C046DA
:1012D0002810000081B0009000990120C202DD4872
:1012E000885001B07047C0460100002681B00090D0
:1012F0000098812149014058C0B201B070470000F8
:10130000F0B5C14A82183B4BC31808794E793A4D63
:10131000764C002E23D0202804D00526F601002884
:1013200003D003E0354E002800D18826576F2F40A8
:1013300037435767976F2F4037439767566B264061
:101340005663966B264096630026566596658F26F3
:10135000F6435F6837405F609F6837409F608E79D3
:10136000096820280BD0002819D1491E5160D76E7A
:101370002F4088210F43D7661746703719E0491E62
:101380005160D16E29401D4F3943D166116F2940FC
:101390003943116701214907194D174609E04908EA
:1013A0005160D76E2F400521C9010F43D7661746FC
:1013B00070373C682C400C433C60D16A4B4C214058
:1013C000D162116B214011630021D16411658F211D
:1013D000C943D46F0C40D4671C680C401C600643A2
:1013E000BD2030401168074B0B40C018801C1060B6
:1013F000F0BDC0468418000024493E0001040000EE
:10140000FFFFFFCF4000FFCFB0B54A686E4BC25020
:101410007D4A80180A78222A58D8930001A4E358FC
:101420009F46C046C3140000CD140000C314000042
:10143000CD140000CD140000CD140000CD14000028
:10144000CD140000CD140000CD140000CD14000018
:10145000CD140000CD140000CD140000CD14000008
:10146000CD140000B1140000CD140000B114000030
:10147000CD140000CD140000CD140000CD140000E8
:10148000CD140000CD140000CD140000CD140000D8
:10149000CD140000CD140000CD140000CD140000C8
:1014A000CD140000B1140000CD140000B1140000F0
:1014B00003231B0704689C4301235B07E3180360B5
:1014C00004E003231B0704689C4304600B69C360AA
:1014D000CB68054C1C40C36A044D1D402B19C362E8
:1014E000097A11430160B0BD777702008888FDFF5B
:1014F00081B000900099784A7848885001B07047D0
:1015000004080000030000B182B00190009100982F
:10151000019911221202885002B0704710B50723BA
:101520009B04194092008018024A84589C43611819
:10153000815010BD3018000010B5029CA4000019A5
:1015400011431943014A815010BDC0465018000094
:1015500092008018014A81507047C0461018000060
:1015600010B50122120383180C789C604B788350CD
:101570008978014A815010BD0C11000010B586B069
:1015800001930B4601460198059104A90B8003AB1A
:101590001A8002AA108005981B4C001909881B8824
:1015A000194312881143024AFFF7E7FC06B010BD49
:1015B00080FF000082B00190009100980199024ADA
:1015C000885002B07047C0460818000081B00090F3
:1015D00000990D4A885801231843885001B070477C
:1015E00081B000900099084A885801231843885018
:1015F00001B0704781B000900099034A88580123D8
:101600001843885001B070470418000081B0009062
:10161000009911200202885801231843885001B014
:101620007047000082B001900091009B0199034A2D
:1016300088581843885002B07047C04628100000F0
:1016400081B0009000990120C2020248885001B088
:101650007047C0460100002681B0009000988121AB
:1016600049014058C0B201B070470000B0B5112226
:10167000120283580124A34383500B888C781C43A7
:101680008B882343094C1C408358094D1D40631926
:1016900083508B79CC791C43097A21437E231940EE
:1016A000801842689A4351184160B0BD1867000025
:1016B000E798FDFF81B00090009802494058C0B201
:1016C00001B070472411000081B000900099024AD7
:1016D0000248885001B0704704080000030000B1C0
:1016E00080B584B003900291019203980B49401891
:1016F00002990B4AFFF741FC03980A4940180199E7
:101700003F22FFF73AFC0399074A881889580122BB
:101710001140FFF732FC04B080BDC046101100003C
:10172000FFFF0000141100000411000010B5012299
:10173000120383180C789C604978815010BD80B5E5
:1017400082B001900091019811210902401800997E
:101750000322D203FFF711FC02B080BD80B584B034
:10176000014603A80170007812280BD1FFE72A492F
:10177000012008700398294B1A78511C19702849C8
:10178000885446E024480078002806D1FFE7D24973
:1017900003200860244908603BE003981F4B1A7837
:1017A000511C19701E49885403A800785B281AD16F
:1017B000FFE71949002002900870184908708A480C
:1017C0001749019164220092FEF78EFC009901985E
:1017D000144B01221A70FEF7A0FC0298BE49086063
:1017E00011490860FFE70D48007864280FDBFFE728
:1017F000B949032008600C490860074900200870B7
:101800000649087006486421FEF787FCFFE7FFE7FA
:10181000FFE704B080BDC04631002020300020200A
:101820006C012020080520201400202082B00190A7
:101830007A4800680090FFE7784800680099019AAC
:101840008918884201D2FFE7F6E702B07047C04628
:1018500081B0009001B0704780B582B091482649B0
:10186000FFF704FC019001A80078400700281BD571
:10187000FFE7012041058B48FFF758FC002809D1FC
:10188000FFE71E4948680A680023521E98410A6013
:10189000486008E0194948680A680023521C58410A
:1018A0000A604860FFE720E001A8807880060028F1
:1018B0001AD5FFE77B480421FFF738FC002809D13F
:1018C000FFE70E4948680A680023521C58410A6025
:1018D000486008E0094948680A680023521E984198
:1018E0000A604860FFE7FFE7FFE76E480249FFF73D
:1018F00065FB02B080BDC04604002000A00520208A
:1019000080B582B000900098002809D1FFE72248F6
:10191000074902F09DFF02F0C3F80020019002E0A9
:1019200002480190FFE7019802B080BD0048E8013D
:101930009F6B000080B586B0049003910398002847
:1019400009D1FFE71448154902F082FF02F0A8F818
:10195000002005901CE004980021FEF75DFE0028A1
:1019600006D1FFE704980121C90748400490FFE72A
:101970000498039901914969FEF770FC01998969FE
:10198000FEF72FFCFEF7EBFE029002980590FFE7B2
:10199000059806B080BDC046A5022020566C000008
:1019A00080B584B003900291019200200090FFE77F
:1019B00000980299884215DAFFE7009803994218C7
:1019C00009488118805C497800F02AF80199009A4A
:1019D000D30FD21801239A438852FFE70098801C46
:1019E0000090E5E704B080BDB005202080B582B04E
:1019F0000190019A02200821FFF7D2FF02B080BDBA
:101A000080B582B00190019A0A201021FFF7C8FF2B
:101A100002B080BD014800687047C046AC06202077
:101A200082B00A46014601A8017069460A70007832
:101A300000020978401802B07047000080B584B0F9
:101A4000012001908102009116480290FFF7CEFB21
:101A500001990298C9020391FFF7C8FB0099029807
:101A6000FFF7D8FA0198FFF7F3FE02980399FFF702
:101A7000D1FA04B080BDC04680B584B00120019089
:101A80008102039107480290FFF7C4FA0199029876
:101A9000C902FFF7ABFB02980399FFF7A7FB04B05D
:101AA00080BDC04600000A4080B582B00A48006888
:101AB000012809D1FFE709480021009101F01EFE2D
:101AC000009801A9087003E001A901200870FFE750
:101AD00001A8007802B080BD0C0020200000F0C2F8
:101AE00070B586B06C4935480860012040054860F3
:101AF00005A900200870FFE705A80078002838DC59
:101B0000FFE705A901910A781C2302931846504368
:101B1000614A03921418002020720D781C466C4311
:101B2000151901246C720E781D4675435519AC7257
:101B30000D781C466C431419E0600D781C466C430C
:101B4000141920610D781C466C43141960610D78DE
:101B50001C466C43141920760C786343D2185076D7
:101B60000A78EF498854FFE70598401C05A90870DA
:101B7000C2E704A900200870FFE704A80078002845
:101B800019DCFFE704A80090007800F061F8009AE3
:101B9000034610781C210C464443E0480419637244
:101BA000127851434118487A8872FFE70498401C24
:101BB00004A90870E1E706B070BDC04600200A40E5
:101BC00082B00146684601700078012804DBFFE717
:101BD00001A90020087013E068460178D048405CF5
:101BE000042809D1FFE768460278CD4900208854CF
:101BF00001A90120087003E001A900200870FFE797
:101C000001A8007802B0704782B0014668460170B2
:101C10000078012804DBFFE701A90020087013E029
:101C200068460178BE48405C032809D1FFE7684652
:101C30000278BB490020885401A90120087003E004
:101C400001A900200870FFE701A8007802B07047E2
:101C500080B584B0014602A801700078012804DB39
:101C6000FFE703A90120087012E002A800781C21F8
:101C70004143AA4840180190019908684968FFF754
:101C80006BFA00900098411E884103A90870FFE795
:101C900003A8007804B080BD1405202080B582B070
:101CA00001A900200870FFE701A8007800280ADCDD
:101CB000FFE701A8007800F009F8FFE70198401C51
:101CC00001A90870F0E702B080BD000080B586B0C1
:101CD000014605A801700078012801DBFFE71BE140
:101CE00005A8009000781C2141438C4840180490BE
:101CF000FFF790FE0146009803910078FFF7A8FFD8
:101D0000049948720498007A0190042800D9FFE0F1
:101D10000198810001A040588746C046311D00004F
:101D2000551D0000911D00003D1E0000811E000099
:101D30000498407A00280CD1FFE70498807A0128A3
:101D400007D1FFE704990120087203980499C8603D
:101D5000FFE7E1E00498407A002814D1FFE70398F8
:101D60000499C968401A14280CD3FFE7049902208B
:101D7000087205A802786A49012088540499002055
:101D80004876FFE703E0049900200872FFE7C3E00C
:101D90000498407A012832D1FFE70398049908613A
:101DA00003980499C968401A02900298322810D307
:101DB000FFE70298C0087C280BD8FFE70499087E4B
:101DC000401C08760398049948610499042008721D
:101DD0000FE00298C0087D2806D3FFE70499002091
:101DE00008720499087603E0049900200872FFE75E
:101DF000FFE705A802784A49022088541DE00498AC
:101E0000407EC007002817D1FFE703980499C968EE
:101E1000401AC0087D280FD3FFE7049901204876B7
:101E200004990320087205A802783D4904208854CB
:101E3000039804994861FFE7FFE76DE00498407A52
:101E400001280BD1FFE70499002008720499087655
:101E500005A8027832490220885410E003980499BA
:101E60004969401AC82809D3FFE705A802782C4918
:101E700005208854039804994861FFE7FFE74BE089
:101E80000498407A00282DD1FFE70498807A012831
:101E900028D1FFE7039804990969401A4B2189006A
:101EA00088420FD8FFE705A802781D49062088540C
:101EB0000499002008760499012008720398049977
:101EC000C8600EE005A802781549032088540499DB
:101ED0000020087604990120087203980499C860CC
:101EE000FFE714E0039804990969401AFF212E3195
:101EF00088420BD3FFE705A80278094903208854DC
:101F000004990020087604990872FFE7FFE703E0D0
:101F1000049900200872FFE706B080BD1405202058
:101F20001005202080B582B00A46014601A8017044
:101F300069460A80007809882F4A00F04DF902B0FE
:101F400080BDC04680B582B0014601A801806A46C6
:101F500000211170405E002808D5FFE76946012086
:101F600008700198404201A90880FFE7002101A8FC
:101F7000405E7349884205DBFFE77D20C00001A970
:101F80000880FFE76846007801A90988FFF7CAFFC3
:101F900002B080BD80B582B00E20019001F018FC27
:101FA000019801F03FFC02B080BD000080B588B010
:101FB0000020049003900121069102910D480590A4
:101FC0000190C80400900C488A040C4B07931946F2
:101FD00000F0BCF8049A05980699079B03920292B8
:101FE00001904804009006480A04CA4900F0AEF87F
:101FF00008B080BD00A086405000202000200A408C
:102000003801202080B58CB003460BA807900380D0
:102010000AAB198009A905910A8042490891424AF0
:10202000002106911160405EFEF74CFB06990246C6
:1020300005983E4B1A60405EFEF744FB3C49FEF7B4
:102040000DF90899FEF7CDF8069902460798394B25
:102050001A60405E002814D1FFE700210AA8405E04
:1020600000280ED1FFE7002109A8405E002808D112
:10207000FFE70020049000F057FD0498FFF762FF8F
:102080004EE02A48029000682A4901910968FEF74B
:102090004FF8FEF74BFB019902460298264B03933B
:1020A0001A6000680968FEF794F8FEF73FFB0146E6
:1020B0000398224A116000682149884205DBFFE746
:1020C0001D497D20C0000860FFE71B4800681D49CE
:1020D000884204DCFFE718491B480860FFE71748FF
:1020E00000681749884205DBFFE714497D20C000DE
:1020F0000860FFE7114800681249884204DCFFE7E6
:102100000E4911480860FFE7002100910A48405E2F
:10211000FFF718FF00990948405E00F005FDFFE752
:102120000CB080BD0000E6429406202090062020DE
:1021300000007A4498062020880620208C06202063
:10214000E903000017FCFFFF18FCFFFF70B586B025
:102150000C4605460D980C990B9E0A9E0595049415
:102160000392029301AA117069460880059800281D
:1021700004D0FFE70B98002801D1FFE729E004987D
:102180000599086003980599486002980599886048
:102190000A980599C8600B980599086101980599F6
:1021A000087500980599C88205998868C968FEF77E
:1021B0001DFF059908684968FEF718FF0598006932
:1021C000FFF70EFA059A1069D18A127DFFF7C0F960
:1021D000FFE706B070BD000080B584B003AB187097
:1021E00002A8018001920198002801D1FFE74AE08E
:1021F00003A80078009004283BD80098810001A033
:1022000040588746192200002F2200004522000076
:102210005B22000071220000019908684968FEF7FE
:10222000C7FF01998868C968FEF7E0FE21E00199BF
:1022300008684968FEF7DAFE01998868C968FEF700
:10224000B7FF16E0019908684968FEF7B1FF0199E8
:102250008868C968FEF7ACFF0BE001990868496817
:10226000FEF7C4FE01998868C968FEF7BFFE00E06A
:10227000FFE702980199C882019A1069D18A127DFC
:10228000FFF766F9FFE704B080BD000080B582B0BB
:1022900001A900200870FFE701A8007807280FDCDB
:1022A000FFE701A80178002000F0F6F8054880213A
:1022B00000F04FFAFFE70198401C01A90870EBE716
:1022C00002B080BD8000202080B584B003A9012029
:1022D00000900870810202916E480190FEF786FF1F
:1022E00000990198C902FEF781FF01980299FEF753
:1022F0003EFF002804D1FFE703A900200870FFE794
:102300000120C1026348FEF785FE03A8007804B0EF
:1023100080BDC04600000A4080B584B06420FFF74D
:1023200085FAAE200021039100F094F90399084644
:1023300000F090F90399102000F08CF903994020E7
:10234000019000F087F90399812000F083F9039947
:10235000CF2000F07FF90399A12000F07BF90399C9
:10236000C82000F077F90399A620029000F072F9D6
:102370000399A82000F06EF903993F2000F06AF954
:102380000399D32000F066F90399084600F062F93A
:102390000399D52000F05EF90399802000F05AF9E6
:1023A0000399D92000F056F90399F12000F052F971
:1023B0000399DA2000F04EF90399122000F04AF94F
:1023C0000399DB2000F046F90198039900F042F9E7
:1023D0000399202000F03EF90399022000F03AF919
:1023E00003998D2000F036F90399142000F032F99A
:1023F0000399A42000F02EF90298039900F02AF91D
:10240000FFF744FF0399AF2000F024F904B080BD2A
:1024100080B586B005A9087004A900200870FFE700
:1024200004A80078072833DCFFE70120C10219481F
:10243000FEF7F0FD05A800780006002806D5FFE7A6
:10244000012081021348FEF7D1FE05E00120810240
:102450001048FEF7DFFDFFE701200190FFF7F8F9D4
:102460000198C10203910B480290FEF7BFFE01984C
:10247000FFF7EEF902980399FEF7CCFD05984000AE
:1024800005A90870FFE70498401C04A90870C7E775
:1024900006B080BD00000A4080B584B000910246BD
:1024A000009803A90A7002AA1070029AB03201A81B
:1024B00002700A7812091032427009780F22114016
:1024C0008170032100F0FFF804B080BD10B58CB01E
:1024D0000BAC20700AA8017009A8027008A803704C
:1024E00007AA002111700278520806AB1A7005AADB
:1024F00011800078082804D1FFE704A9062008808D
:1025000012E008A801780191C80802904907401C10
:102510000029039001D10298039001980399400883
:10252000484304A90880FFE70998203807A90870E4
:102530000BA800780AA90978FFF7AEFF05A90020CB
:102540000880FFE705A8008804A90988884242DAC4
:10255000FFE705A8008806A90978FEF744F90029D5
:102560000ED1FFE708A80078082809D0FFE70BA8DC
:1025700000780AAB19784A1C1A70FFF78DFFFFE745
:1025800008A8007808280DD1FFE707A800780621E1
:1025900041431348401805A90988405C012100F017
:1025A00059F812E008A8007810280CD1FFE707A816
:1025B000007801010948401805A90988405C0121FB
:1025C00000F048F800E006E0FFE7FFE70598401C50
:1025D00005A90880B6E70CB010BDC0462465000010
:1025E000FC620000B0B586B005AC207004A8017094
:1025F000039202A8037001A900200870FFE7039866
:1026000001A90978405C002822D0FFE705A80078DE
:1026100004A90978039A01AD2B785C1C2C70D25C5C
:1026200002AB00931B78FFF751FF00980078082851
:1026300005D1FFE70598801D05A9087007E002A8ED
:10264000007841080598401805A90870FFE7D6E70B
:1026500006B0B0BD80B582B001AA107068460170A6
:10266000FFF7ECF97820FFF7D3FEFFF72DFE0028E7
:1026700003D0FFE7FFF700FA23E068460078002860
:1026800004D0FFE74020FFF7C3FE03E00020FFF780
:10269000BFFEFFE7FFF718FE002803D0FFE7FFF7B4
:1026A000EBF90EE001A80078FFF7B2FEFFF70CFE91
:1026B000002803D0FFE7FFF7DFF902E0FFF7DCF9BE
:1026C000FFE702B080BD80B584B0039002A801701E
:1026D0000078002801D1FFE739E0FFF7AFF9782053
:1026E000FFF796FEFFF7F0FD002803D0FFE7FFF7A6
:1026F000C3F92CE00020FFF78BFEFFF7E5FD002873
:1027000003D0FFE7FFF7B8F921E001A90020087026
:10271000FFE701A8007802A90978884214DAFFE7E8
:10272000039801A90978405CFFF772FEFFF7CCFD22
:10273000002803D0FFE7FFF79FF908E0FFE70198C3
:10274000401C01A90870E4E7FFF796F9FFE704B021
:1027500080BD80B584B0039002A801800088002865
:1027600001D1FFE727E0FFF769F97820FFF750FE76
:10277000FFF7AAFD4020FFF74BFEFFF7A5FD01A9DB
:1027800000200880FFE701A8008802A90988884284
:102790000EDAFFE7039801A90988405CFFF738FECD
:1027A000FFF792FDFFE70198401C01A90880EAE7C6
:1027B000FFF762F9FFE704B080BD000010B58AB0F2
:1027C00008900791069205930898002803D1FFE727
:1027D0000020099036E008984068A949FDF70EFFEF
:1027E000002804D1FFE70899A54848600CE0089844
:1027F00040681649FDF710FF002804D1FFE708994B
:1028000012484860FFE7FFE7079801900899039195
:102810000868009006984968FDF7E3FC00990246B5
:1028200001980292FDF7DDFC0299FDF781FC039906
:10283000049005988968FDF7D4FC0499FDF778FCAD
:102840000990FFE709980AB010BDC04600007AC49D
:1028500010B58EB00DAC20800C910B920A93002124
:1028600009910D9A08A80280405EFDF72BFF0146F2
:10287000304807900068FDF75BFC0146079801604F
:1028800000682D49FDF7BAFE002804D1FFE7294969
:1028900029480860FFE7274800682849FDF7BCFE83
:1028A000002804D1FFE7234924480860FFE70021FE
:1028B000039108A8405E0490FDF704FF01900C9876
:1028C00000900B981B490968FDF78BFC00990246A4
:1028D00001980292FDF785FC0299FDF729FC039A05
:1028E00001460498059116490691895E401AFDF744
:1028F000E9FE0A99FDF775FC0599FDF719FC0699A3
:1029000009900898088009980E49FDF777FE00287D
:1029100003D1FFE70B480990FFE709980A49FDF743
:102920007BFE002803D1FFE707480990FFE70998DD
:102930000EB010BD000120200000FA430000FAC3D1
:102940000401202000409C4500409CC581B00090BF
:102950000098002801D1FFE707E0009900200860F7
:102960000099486000998860FFE701B07047000057
:1029700080B590B03C4A0F923C490E917F20C00533
:102980000D900C920B910A903948006809903948D3
:102990000078C00700280DD0FFE73C48FFF7D6FFBE
:1029A0003B48FFF7D3FF33490020087009983349AB
:1029B000086057E00020089007902F480078C00773
:1029C00000283AD0FFE72C490020087009982B49CD
:1029D00003910968401AFDF780FE2949FDF73EFC86
:1029E000069028480290284901910A680168069BD0
:1029F0002648049000F050F8019902984A6841680E
:102A0000069B2348059000F047F8039A049809991B
:102A100011600F9B0E9A0D99FFF7D0FE0146012021
:102A2000C007FDF7D6FB0146059808910C9B0B9A51
:102A30000A99FFF7C3FE0790FFE716480090416828
:102A40000798FDF775FB0146009807910168089803
:102A5000FDF76EFB08900799089800F04FFE00F014
:102A600097FEFFE710B080BD0AD7233CCDCCCC3D0C
:102A7000AC0620202C002020090520200801202061
:102A800000007A44A4062020300520200C012020DC
:102A9000180120209802202010B588B007900691D8
:102AA000059204930798002807D0FFE704980021B7
:102AB000FDF7C0FD002801D1FFE721E0079800687D
:102AC000039006980599FDF784FB07990860079A1B
:102AD00001921068049952680092FDF782FB0099F8
:102AE000FDF726FB0199486007980290006803995A
:102AF000FDF76FFB0499FDF7B1FB02998860FFE7D2
:102B000008B010BD80B582B00A46014601A8017028
:102B100069460A8000780988024AFFF75DFB02B027
:102B200080BDC0463801202080B582B0014601A892
:102B300001806A4600211170405E002808D5FFE739
:102B40006946012008700198404201A90880FFE70A
:102B5000002101A8405E0849884205DBFFE77D208F
:102B6000C00001A90880FFE76846007801A909882C
:102B7000FFF7C8FF02B080BDE903000085B00390F5
:102B80000291002001900090FFE7009807280EDCDA
:102B9000FFE700991148405C002804D1FFE7019845
:102BA000401C0190FFE70098401C0090EDE7019861
:102BB0000299884209DCFFE701980399884204DB07
:102BC000FFE704A90120087003E004A900200870B1
:102BD000FFE704A8007805B07047C0463200202007
:102BE00010B586B0044608980594049103920293A8
:102BF00001A908700598002804D0FFE70298002872
:102C000007D1FFE79248174901F022FE00F048FF84
:102C100026E0049805990860039805994860029891
:102C2000059988600198059908730599002000901E
:102C300048620862059AC143916205994863086336
:102C4000059908684968FEF7DBF905988068FEF782
:102C5000D1FC0099059A9068127BFEF779FCFFE79A
:102C600006B010BDE66B000010B584B0039002A85A
:102C70000170019200930398002807D1FFE7744880
:102C8000084901F0E5FD00F00BFF09E00298039907
:102C90000874019803994861009803998861FFE7D7
:102CA00004B010BD306C000080B586B00590049172
:102CB0000598002805D0FFE705988068002807D10F
:102CC000FFE763483C4901F0C3FD00F0E9FE6EE018
:102CD0000498FDF758FD0A4605994A62086204986F
:102CE0000021FDF7B5FC002807D0FFE705998868AB
:102CF0000A7B0021FEF72CFC59E004980021FDF727
:102D00007DFC002812D1FFE70598007C012806D140
:102D1000FFE7059908684968FEF75EFA05E005993E
:102D200008684968FEF76CF9FFE716E00598007C33
:102D3000012806D1FFE7059908684968FEF760F9A0
:102D400005E0059908684968FEF746FAFFE7049828
:102D50000121C90748400490FFE7FFE70598806814
:102D6000FEF7CEFD039005990498FEF7E3FD02906F
:102D7000042001900398029A01995143FDF733FD15
:102D8000401E009068464088002803D0FFE70948AD
:102D90000090FFE7059880680099FEF70BFC059A04
:102DA000906800994908127BFEF7D2FBFFE706B056
:102DB00080BDC046FFFF0000BA6B000080B588B040
:102DC00007900798002807D1FFE72148214901F023
:102DD0003FFD00F065FE33E00798806A401C002844
:102DE00005D1FFE7174800680799886228E0154871
:102DF0000068069007990591086A0190486A029058
:102E00000698896A401AFDF783FC024601980B4632
:102E10000299FDF713FB059A136B0393526B04920F
:102E2000094A0A4BFDF70AFB039A049BFDF754FA83
:102E30000A4605994A630863069807998862FFE77E
:102E400008B080BDAC062020FCA9F1D24D62503FF5
:102E5000A50220200E6C000080B582B00B490C4802
:102E60000190FEF763FC01980A49FEF7FFFB019809
:102E70000021FEF764FC0198D0211522FEF730FCFA
:102E80000198FEF7C3FB02B080BDC046346B000062
:102E900000801040366B000080B58EB026200621E1
:102EA0000391FEF735F9012009904104069173481A
:102EB0000A90FEF7C5F803992720FEF729F909992A
:102EC0000A988904FEF7BCF803200521FEF720F9D3
:102ED00009990A984907FEF7B3F804210846FEF756
:102EE00017F909990A988907FEF7AAF80B20022119
:102EF0000291FEF70DF902990C20FEF7FBF80299FA
:102F00003420FEF705F902993520FEF7F3F8099809
:102F10000023079300930204049231201946FEF720
:102F2000D3F8069A079909980091C30405933020B5
:102F3000FEF7A8F81E20FEF7BDF81F20FEF7BAF82E
:102F40002020FEF7B7F80E20FEF7B4F8049A079B8E
:102F5000009325201946FEF7B7F8049A079B0093C3
:102F60002A201946FEF7B0F8049A079B00932B20FD
:102F70001946FEF7A9F8049A079B00932C201946DE
:102F8000FEF7A2F80398059B079A00921146FEF7F8
:102F900079F8059B079A00922D201146FEF772F8EA
:102FA000049A059B079900911620FEF76BF8049A86
:102FB000059B079900911720FEF764F8049A059B7A
:102FC000079900911820FEF75DF8049A059B079970
:102FD00000911920FEF756F8049A059B0799009175
:102FE0002120FEF74FF8049A059B0799009138209D
:102FF000FEF748F8049A059B079900913220FEF7E6
:1030000041F8049A059B079900912220FEF73AF8AF
:10301000069A079B009314201946FEF755F8069A66
:10302000079B009315201946FEF74EF80A98432196
:1030300089020891FDF7D0FF08990A98FEF700F879
:103040000A981021FEF7A6F809990A988902FEF756
:10305000D9F80A980A490B91FDF7A4FF0A980B9931
:10306000FDF7E2FFC3480C9006490D91FDF7B4FF50
:103070000C980D99FDF7E4FF0EB080BD00000A40EA
:103080000400200004C04F0080B582B01049BE4843
:103090000190FEF74BFB01980E49FEF7E7FA019805
:1030A00000210091FEF74BFB019811211722FEF73A
:1030B00017FB019803218902FEF7B4FA00990E204C
:1030C00000F0C6FB0198FEF7A1FA02B080BDC04631
:1030D000406B0000426B000080B586B01F49A648D7
:1030E0000590FEF73DFA05981D49FEF709F9059888
:1030F0000023029319461A46FEF740FA029B0598F0
:10310000009319461A46FEF717FA029A05981146D7
:10311000FEF704FA029A05987D2189000391FEF7D3
:1031200017FA029B059801210491009119461A464D
:10313000FEF702FA0299049A0598FEF7EFF903994F
:10314000049A0598FEF704FA0598FEF7ABF805987F
:103150000321FEF7D9F906B080BDC0464C6B0000D4
:10316000506B000080B584B0144984480390FEF78A
:10317000F7F903981249FEF7C3F803980023029366
:1031800019461A46FEF7FAF9029B0398009319466E
:103190001A46FEF7D1F9029A03981146FEF7BEF9D6
:1031A000029A03981146FEF7D3F90398FEF77AF8CE
:1031B00003980121FEF7A8F904B080BD586B000008
:1031C0005C6B000080B584B016496D480390FEF733
:1031D000C7F903981449FEF793F803980122029265
:1031E000510392028023FEF7C9F9029903980091D6
:1031F0000023019319461A46FEF79EF90199029A97
:103200000398FEF78BF90199029A0398FEF7A0F94B
:103210000398FEF747F803980221FEF775F904B00A
:1032200080BDC046646B0000686B000080B582B052
:1032300000200190FEF702F80198FEF717F8FDF75D
:10324000EDFFFDF7F1FF0198FEF71EF80198FEF77C
:1032500001F80199012000F0FBFA02B080BD80B5B1
:103260007D20000200F046F980BD000080B582B0EC
:103270000A49C5480190FEF773F901980849FEF71D
:10328000C3F801980121FEF717F81220032100F07E
:10329000DFFA0198FEF706F802B080BD706B0000FF
:1032A000746B000080B500F023F8FFF7F5FDFFF721
:1032B000BDFFFFF711FFFFF755FFFFF783FFFFF794
:1032C000D5FFFFF7C9FDFFF7DFFEFFF7C8FF054990
:1032D0009C2200208854044988540449B822885408
:1032E00080BDC0460C032020AC0320204C042020CD
:1032F00080B588B01E480090FDF744FF1D4801903E
:10330000FDF740FF1C480290FEF7F2F81B480390BF
:10331000FEF7EEF8F6480490FEF7EAF89A480590B2
:10332000FEF7E6F817480690FEF7CEF99D4807909D
:10333000FEF7CAF90098FDF78FFE0198FDF78CFEA5
:103340000298FDF7C7FF0398FDF7C4FF0498FDF747
:10335000C1FF0598FDF7BEFF0698FEF771F90798C3
:10336000FEF76EF91020FDF703FE08B080BDC046E1
:1033700000000A4000200A4000A0864000808640ED
:1033800000000940008010400020104080B582B04D
:10339000014668460170007830280ADBFFE768467E
:1033A0000078392805DCFFE768460078303801905E
:1033B0000BE0684602780648064901F049FA00F039
:1033C0006FFB0020C0430190FFE7019802B080BD71
:1033D000A5022020836D000080B582B032480068CD
:1033E000002810D1FFE7314800908088FDF775F97B
:1033F00001460098084A01921160C088FDF76DF9F6
:103400000199486005E004493F20000608604860D3
:10341000FFE702B080BDC0463005202080B586B0F1
:1034200021480068002813D1FFE720480490008855
:10343000FDF753F9014604982C4A05921160408823
:10344000FDF74BF90599486029490120087028E0EB
:1034500015480068002823D0FFE7234800680028AB
:103460001ED1FFE712490191088889884018FDF7AD
:1034700029F93F2109060291FCF7B3FE01991B4A85
:10348000039210604888C9884018FDF71BF902991B
:10349000FCF7A7FE03994860154901200870FFE773
:1034A000FFE706B080BDC0460C0020203A00202077
:1034B0002401202080B584B00B480068002811D179
:1034C000FFE7684600F086FC019A009902A801F027
:1034D00005F80649039848600298086004490120ED
:1034E0000870FFE704B080BD14002020A40620204F
:1034F0000905202080B584B002900298401E000E7D
:10350000002803D0FFE70120039011E00298401E3D
:103510000949086000200190C043032100F098F998
:10352000019806490860064A072111600390FFE7E9
:10353000039804B080BDC04614E000E018E000E04D
:1035400010E000E080B509480168491C0160354A77
:103550001168491C116000680A2806D1FFE7FEF7D0
:103560009DFB024900200860FFE780BD6801202024
:1035700080B50548FDF7BAFE012803D1FFE700F04A
:1035800083FAFFE780BDC0460000864080B505484D
:10359000FEF762F80B2803D1FFE7FDF77FFB00E0A1
:1035A000FFE780BD0020104010B58AB01D480068BC
:1035B000099009981C490968401A0A282FD3FFE787
:1035C0000998194900910968401AFDF786F81749CA
:1035D000FCF707FE009908900998086000F05CFB72
:1035E000039004910898FDF7CEF8019002911048DD
:1035F00007900068FDF7C7F8019A029B04460398FC
:1036000005940C4604990694FCF718FF059A069B4E
:10361000FCF762FEFDF7CBF807990860FFE70AB0F8
:1036200010BDC046AC062020D00120206F12833A86
:103630008406202080B584B003900291019200930B
:103640000198006803281CD0FFE703980299FDF752
:10365000F4FA00280ED0FFE700980068002804D193
:10366000FFE701990220086003E00199012008604A
:10367000FFE705E001990020086000990860FFE776
:10368000FFE704B080BD000080B58AB0012007903C
:10369000010416480490FDF795FD04980421FDF7F8
:1036A00091FD0499079A00923D480290D203059239
:1036B0000F4BFFF795FA029821214B060993002141
:1036C00003910C4A0892FFF7CFFA03980499059AE0
:1036D000009034480690084BFFF782FA0698079945
:1036E000089A099BFFF7C0FA0AB080BD00200A4083
:1036F000000009406666E63F0080864080B588B0DD
:10370000079006912749086B496B00221C4BFCF778
:10371000C3FF00280AD1FFE72249086B496B00224A
:10372000184BFCF7A3FF00280AD1FFE71D48002132
:103730000591FFF7B9FA05991948FFF7B5FA1DE0A9
:103740001748039017490491436B026B086B496B50
:10375000019100900C4802900C4901F079F8029A0E
:10376000002108230846FEF73DFF03980799FFF75D
:103770009BFA04980699FFF797FAFFE708B080BD17
:1037800000804640008046C038052020886B00003D
:1037900080B50348FFF712FB0248FFF70FFB80BD1F
:1037A000B80920204006202081B0014668460170FB
:1037B00000214056002809D4FFE7684601781F2001
:1037C0000140012088400C490860FFE701B07047C4
:1037D00081B001466846017000214056002809D496
:1037E000FFE7684601781F20014001208840024918
:1037F0000860FFE701B0704780E200E081B0014659
:103800006846017000214056002809D4FFE7684649
:1038100001781F200140012088400C490860FFE723
:1038200001B0704781B001466846017000214056E2
:10383000002809D4FFE7684601781F2001400120D5
:10384000884002490860FFE701B0704700E100E0EE
:1038500070B582B0024601A8027000910021405666
:10386000002816D4FFE7002401A908570322D343F8
:103870001840174A805809578C07E50EFF24AC40C2
:10388000A043009CA401E4B2AC40204319408850FE
:103890001AE001A908780F24204008380322D343F6
:1038A00018400A4A8058002549578D07EE0EFF251B
:1038B000B540A843009DAD01EDB2B540284321407D
:1038C000083919408850FFE702B070BD1CED00E0D8
:1038D00000E400E080B584B00390029103980028D2
:1038E00004D0FFE70298002803D1FFE700F0D8F8E2
:1038F0001CE003980299086103988068002804D1AD
:10390000FFE702980399886010E0039880680190AF
:10391000FFE70198C068002804D0FFE70198C0685D
:103920000190F6E702980199C860FFE704B080BDF6
:1039300010B582B01D480078C007002803D1FFE70A
:1039400000F0A2FAFFE700200090FFE700980F28A0
:1039500026DCFFE700980C21414365484018007AB7
:10396000C007002817D1FFE700980C210A46424300
:103970005F48831801221A72009A0B4653430022B3
:10398000C250009C0B466343C3185A60009A5143CF
:103990004018019007E0FFE70098401C0090D5E731
:1039A00000200190FFE7019802B010BD9402202092
:1039B00010B584B00291019027480078C007002814
:1039C00003D1FFE700F088FAFFE700200090FFE74F
:1039D00000981F2834DCFFE7009818214143204855
:1039E0004018007DC007002825D1FFE70098182166
:1039F0000C4644431A480319019A0251029A5A602C
:103A0000009B0A465A43831800229A60009C0B468A
:103A10006343C318DA60009C0B466343C3181A6102
:103A2000009B0A465A43831801221A75009A514393
:103A3000401803900DE0FFE70098401C0090C7E796
:103A40001E48064900F004FF00F02AF80020039009
:103A5000FFE7039804B010BD80062020D56D00005C
:103A6000B006202080B500210846FFF787F880BD0A
:103A700080B582B001200190FFF796FE0198FFF714
:103A8000BDFE02B080BD0000D1494868086888606A
:103A90008868C00F08730020486008607047C046FF
:103AA00080B5FDF7EDF8FEF7F1FB044A002108238D
:103AB0000846FEF797FDFFE7FEE7C046A502202077
:103AC00081B0009000980A4988420ED3FFE7009821
:103AD0000749C031884208D2FFE7009900200872E8
:103AE0000099086000994860FFE701B07047C04640
:103AF000D401202080B592B0D9480068C117890F41
:103B0000411803229143401A1090032800D999E0EC
:103B10001098810001A040588746C0462D3B000008
:103B2000733B0000B93B0000FF3B0000CD4801683B
:103B30003F200006FCF74DFBFCF725FE0122930712
:103B40000D9300220C9201F075FD0C9A0D9B0E90C6
:103B50000F913F49104601F06DFD02460E980B464D
:103B60000F99FCF7B9FB02F011FBFCF720FE119056
:103B70006BE0012083070993354900220892104623
:103B800001F058FD0A900B91B64800683F210906E4
:103B9000FCF7CEFAFCF7F7FD089A099B01F04AFD05
:103BA00002460A980B460B99FCF796FB02F0EEFAD8
:103BB000FCF7FDFD119048E0AA4801683F2000068F
:103BC000FCF707FBFCF7DFFD0122930705930022BA
:103BD000049201F02FFD049A059B069007911D4960
:103BE000104601F027FD024606980B460799FCF7A0
:103BF00073FB02F0CBFAFCF7DAFD119025E001200F
:103C000083070193124900220092104601F012FD31
:103C10000290039193480168FF208005FCF7D9FAD0
:103C2000FCF7B1FD009A019B01F004FD02460298E9
:103C30000B460399FCF750FB02F0A8FAFCF7B7FD1E
:103C4000119002E000201190FFE7119812B080BDA2
:103C50000000E03F0000F83F82B00090009800288C
:103C600003D1FFE70020019003E0009880680190F5
:103C7000FFE7019802B0704782B0009000980028DA
:103C800003D1FFE70020019003E00098C068019095
:103C9000FFE7019802B0704780B5B8B006A8C82108
:103CA000FCF73BFA00F08CF814490391086000F02F
:103CB0008BF801460020C0430490012000290590A4
:103CC00001D004980590039805990D4A009211605F
:103CD0000068FCF709FD0B4A0B4BFCF7AFFB0246F3
:103CE0000098019202910068FCF7FEFC02460198E0
:103CF0000B460299FCF7A2FB38B080BD28002020BB
:103D0000240020200FD6FF39CC97573F80B584B0D0
:103D10000390294800904021FDF713FA01460098CE
:103D20004A425141039AD1718021FDF70AFA0146B6
:103D300000984A425141039A91710121019109026F
:103D4000FDF7FFF901990246009853425A41039B3F
:103D50005A714902FDF7F5F9014601984A4251416D
:103D6000039A1171010315480290FDF7EAF90199D0
:103D70000246009853425A41039BDA708906FDF7C8
:103D8000E0F901990246009853425A41039B9A7008
:103D9000C905FDF7D6F901990246029853425A41E6
:103DA000039B5A704903FDF7CCF9414248410399FE
:103DB000087004B080BDC04600200A4000000A40E0
:103DC000034880687047C0460148007B7047C04682
:103DD000A005202080B588B0069021480068401ECC
:103DE000FCF770FC1F49096801911F49FCF7F9F9BC
:103DF0000199FCF79DF907900798FCF7C4FC1B4A52
:103E000002921B4B0393FCF719FBFCF7D0FC01F06B
:103E100055FB18490491FCF7E4F9069908600798E6
:103E2000FCF7B1FC029A039BFCF708FBFCF7BFFC14
:103E300002F0EAF80499FCF7D4F9014606984160CB
:103E400000680D490591FCF773F90599024606983B
:103E500002604068FCF76CF90699486008B080BDC4
:103E6000A0022020840620200000B44244CD7D5FC3
:103E700049DF913F000070420000FA4280B5032004
:103E80000621FEF77BFE80BD10B581B000200090BA
:103E9000FFE700980F2815DCFFE700990C22104679
:103EA00048430C490B1800201872009C13466343CA
:103EB000C850009B5A4389184860FFE70098401C8F
:103EC0000090E6E702490120087001B010BDC0462D
:103ED00094022020D401202010B581B00020009051
:103EE000FFE700981F281BDCFFE700991822104607
:103EF00048430F490B1800201875009C1346634374
:103F0000CB189860009C13466343CB18D860009B85
:103F10005A4389180861FFE70098401C0090E0E7C9
:103F200002490120087001B010BDC0468006202063
:103F3000B006202070B592B011AC208010910F9285
:103F40000E9300200D900C90274A04A978CA78C1DE
:103F500078CA78C10390FFE70398072817DCFFE7CA
:103F600003992548405C00280CD1FFE703988100A5
:103F700004A841580D98FCF7DBF80D900C98401CF4
:103F80000C90FFE7FFE70398401C0390E4E70C98D0
:103F9000012813DBFFE70D9801900C98FCF792FBCA
:103FA00001460198FCF75AF9029002980F49FCF774
:103FB00018F9FCF7BBFB0E49087000E0FFE70C485E
:103FC0000021009140560E9B0F9A1099FEF740FC7D
:103FD000FCF7ACFB0099074A106011A8405E525EE6
:103FE000FEF710F812B070BD146B00000000204105
:103FF000A4022020380620203200202080B54B204B
:104000008000FF218B0502490022FFF793FF80BD4E
:104010000000F04180B582B000200190FFF742F926
:1040200062B6FFF725FD00F0ADFB0848FDF7CEFABC
:10403000FDF7B0FFFEF770F9FDF7B8FFFDF750FD93
:1040400000F0F4F800F004F8FFE7FEE70000864017
:1040500080B5704800680068804780BD80B588B032
:10406000FEF714F96A480390FCF750FE0398FCF73A
:1040700071FE68480068002807D1FFE76A4A0021FE
:1040800008230846FEF7AEFABFE062480068006900
:1040900000280DD1FFE7FD4800688068002807D19F
:1040A000FFE7604A002108230846FEF79BFAACE0D0
:1040B000F64800680069002811D0FFE7F34800685F
:1040C00001695348FCF750FE002807D0FFE7544A27
:1040D000002108230846FEF785FA96E0FFE7EB4843
:1040E0000068FFF7B9FD0790FFE70798002813D095
:1040F000FFE707994648FCF737FE002807D0FFE79F
:10410000474A002108230846FEF76CFA7DE007982D
:10411000FFF7B2FD0790E8E73D48006806900020F1
:104120000590FFE706980068002824D0FFE706986E
:104130000068406800281ED0FFE706980068D34951
:1041400009680969884208D1FFE705A80178324A61
:1041500000200823FEF746FA09E005A80178069832
:104160000068426800200823FEF73CFAFFE7059844
:10417000401C0590FFE7069840680690FFE7069808
:10418000234909688842CDD1FFE7059804900020B3
:10419000059005A8017878203C220823FEF796F9BF
:1041A000FFE70020FDF70CFD00280BD0FFE7069885
:1041B000006840680078194908700698006800F0A7
:1041C00077FA22E00020FDF71FFD00281CD0FFE752
:1041D00006984068069005A8029001787820019022
:1041E000202208230093FEF771F90598401C0499DA
:1041F000FCF718FB009B01980A4602990592097882
:104200003C22FEF763F9FFE7CBE708B080BDC0466C
:104210009C062020140620209A6C00000400202018
:10422000506D0000786D0000EB6C0000B0B5B2B0CE
:10423000FFF752FEFFF728FE93484168319100686E
:10424000309031993098FFF7B3FB01468F480160F9
:104250000068002807D1FFE78D488E4900F0F8FA82
:10426000FFF71EFCFFE789480090016800200590D9
:104270000861FEF70BF8009905980B68864A1A60EA
:104280000B68864A5A6009680861FDF7FFFF844899
:1042900041682F9100682E90824841682D910068F6
:1042A0002C90814841682B9100682A902F992E9874
:1042B000FFF77EFB29902D992C98FFF779FB28902A
:1042C0002B992A98FFF774FB014600982791006804
:1042D0002999FFF7FFFA009800682899FFF7FAFA82
:1042E000009800682799FFF7F5FA70484168269111
:1042F000006825906E4841682491006823906D48BD
:1043000041682291006821906B48416820910068C3
:104310001F902998019026992598FFF749FB01469F
:104320000198FFF7D7FA2998029024992398FFF76C
:104330003FFB01460298FFF7CDFA29980390229996
:104340002198FFF735FB01460398FFF7C3FA299838
:10435000049020991F98FFF72BFB01460498FFF764
:10436000B9FA564841681E9100681D90544841684A
:104370001C9100681B90534841681A91006819907D
:10438000514841681891006817901E991D98FFF7D1
:104390000FFB16901C991B98FFF70AFB15901A99B2
:1043A0001998FFF705FB149018991798FFF700FB71
:1043B000139028981699FFF78DFA28981599FFF70A
:1043C00089FA27981499FFF785FA27981399FFF728
:1043D00081FA05983D4A0EA918CA18C138CA38C1D1
:1043E0000D90FFE70D98042822DCFFE73A480B9078
:1043F0000D9881000EA840580C900C990B98FFF76F
:10440000D7FA0A9016980A99FFF764FA0A980028D2
:1044100009D1FFE70D98421C1D482E4900F018FAFB
:10442000FFF73EFBFFE7FFE70D98401C0D90D9E733
:1044300000200990FFE70998012822DCFFE72448C3
:104440000790099881000EA840580890089907988D
:10445000FFF7AEFA069014980699FFF73BFA069814
:10446000002809D1FFE70998421C0948194900F0C2
:10447000EFF9FFF715FBFFE7FFE70998401C0990EC
:10448000D9E732B0B0BDC046D46200001406202087
:10449000A50220200E6D00005D400000646D00004C
:1044A000B862000098620000B0620000EC62000098
:1044B000E4620000DC620000F46200008862000038
:1044C00090620000A0620000A8620000C0620000CC
:1044D000F1450000CB6C00008145000080B58EB036
:1044E0000B900D920C910C9823490191FBF7B6FEAD
:1044F00001990C900D98FBF7B1FE0D901F490791A3
:10450000886809680291FBF764FE029902460798E1
:1045100004920C9A03928069FBF75BFE0D99FBF7FE
:1045200060FE0399024604980592FBF75AFE05992E
:10453000FBF7FEFD07990B9A1060C8684968069161
:10454000FBF747FE06990246079809920C9A0892D3
:10455000C069FBF73EFE0D99FBF743FE0899024642
:1045600009980A92FBF73DFE0A99FBF7E1FD0B99CA
:1045700048600EB080BDC04600007A431806202077
:1045800080B582B034480078FEF700FF0190FFE765
:104590007B48FFF7BBFBFFF771FC00280BD0FFE760
:1045A00001988100A8480068884204D1FFE7FCF721
:1045B00067FB02B080BD00F0F1F8002803D1FFE7EF
:1045C000FFF71CFDFFE70A20FDF730F9E0E7C046E2
:1045D00080B5FFF759F8FFE7FDF766FA002806D027
:1045E000FFE7FEF7C5F90A20FDF720F9FFE7F3E73B
:1045F00080B582B018480078FEF7C8FE0190FFF73A
:1046000043F8FFE75E48FFF781FBFEF7CDFFFFF7BA
:1046100035FC00280BD0FFE7019881008A4800682C
:10462000884204D1FFE7FCF72BFB02B080BD00F00D
:10463000B5F8002803D1FFE7FFF7E0FCFFE7FEF73E
:10464000CBFEFEF7EBFEFCF7CBFBFEF791F90A2061
:10465000FDF7ECF8D6E7C0460400202080B5FFF750
:1046600013F8FFE74648FFF751FBFEF79DFFFFF702
:1046700005FC002808D0FFE773480068042803D130
:10468000FFE7FCF7FDFA80BD00F088F8002803D1B1
:10469000FFE7FFF7B3FCFFE7FEF79EFEFEF70AFF1A
:1046A000FCF79EFBFEF764F90A20FDF7BFF8D9E797
:1046B00080B582B001900198002801D1FFE708E0A1
:1046C000FDF7E4FD01990448016000680068804737
:1046D000FFE702B080BDC0461406202080B5FFE78A
:1046E0005020FDF72FFC2D20C000FEF71DFAF7E744
:1046F00080B5FEF7C9FF07480749FEF7FFFFFFE750
:10470000FFF746F803480449FEF7F8FF0A20FDF7D3
:104710008DF8F5E70000F0410000204180B582B03F
:104720000E4900200860FFE70C4800687F21C9059A
:10473000FBF772FF00280DD1FFE764200190FDF721
:1047400001FC0198FEF7F0F9FEF72EFF0A20FDF7B5
:104750006DF8E9E7FCF794FA02B080BD84062020EA
:1047600080B5FFE70648FFF7D1FAFFF747FCFFF7F0
:1047700079F9002803D0FFE7FCF782FA80BDF1E762
:104780003200202080B582B012200190FFF70CF893
:104790000198FFF733F802B080BD000080B592B0F9
:1047A00026480068264909687D22D2008918884277
:1047B00010D2FFE72348006800280BD0FFE7502005
:1047C000FDF7C0FB2D20C000FEF7AEF911A90120B6
:1047D00008702FE01B4900200860FFF74FFB0028FE
:1047E00024D0FFE71748006800281FD1FFE71648CC
:1047F00002900268134803900368144904A80190CA
:1048000000F026F8019A002108230846FDF7EAFE89
:10481000029A03991068401C106001200860074943
:104820000968074A116011A9087003E011A9002066
:104830000870FFE711A8007812B080BDAC062020F8
:10484000B00920200C052020A0022020C06D00000F
:104850000FB410B504A9074B02AA039800F08CFA14
:10486000044602A9002000F023FE204610BC08BC2C
:1048700004B01847B15400002021020C01D01021CF
:104880001046020A01D010460839020901D010462C
:10489000091F820801D01046891E420801D0881ED7
:1048A0007047081A7047F0B4040C8BB2264682B2E7
:1048B0005E430D0C1046370C584336048019002116
:1048C000794116466E43370C3604801979412646E5
:1048D0006E438919F0BC70474900CA0202431000B8
:1048E00000D004204A0D01D001221043044A490D92
:1048F000914201D102210843012800D105207047CF
:10490000FF0700004100080200D004200A0E01D079
:1049100001221043090EFF2901D102210843012879
:1049200000D105207047F8B504464F1EC80008386E
:10493000211815461E46086849683A4606239A43D8
:1049400010D02A463346FBF779FD3A46D200083AA2
:10495000A3181A687F1E5B68FBF7BEFC06223B4665
:104960009343EED1022F23D0042F11D0062F2FD145
:104970002A463346FBF762FDE36AA26AFBF7ACFC0A
:104980002A463346FBF75AFD636A226AFBF7A4FC0A
:104990002A463346FBF752FDE369A269FBF79CFC0C
:1049A0002A463346FBF74AFD63692269FBF794FC0C
:1049B0002A463346FBF742FDE368A268FBF78CFC0E
:1049C0002A463346FBF73AFD63682268FBF784FC0E
:1049D000F8BD0000002210B5134610460149FBF750
:1049E00095FD10BD0000F03F10B5FBF775FC10BD44
:1049F000002210B5134610461146FBF787FD10BD87
:104A000010B50721024A00200907FCF745F810BD40
:104A100001030000034A10B500201107FCF73CF821
:104A200010BD000001FDFFFF10B50121FCF7F9F8F2
:104A300010BD10B500210846FBF710FC10BD5E212B
:104A400010B5C9430807FCF7ECF810BDF0B50E46E9
:104A500014465100FF22120687B0914203D311166B
:104A6000316007B0F0BD01202502C0070543E00D0D
:104A70007838C206D20E2020871A6000000E7838DF
:104A8000401181004D4878440B189C464358002A39
:104A900014D06046406893400146F84003436046A6
:104AA000806891408646F840014303916046714614
:104AB000C0689140F84001430F4603E060464168FA
:104AC0000391876818462946FFF7EDFE029104908E
:104AD00029460398FFF7E7FE0391069038462946DA
:104AE000FFF7E1FE0F460698029B3D18049A0399D2
:104AF000BD4201D2012700E000278818C019002F0D
:104B000002D0884202D903E0884201D2012100E0AC
:104B1000002159180A4620329709C20C890652030F
:104B200040033760114301900846FBF7CBFD02902C
:104B30000198FBF7D2FD1221C943FCF772F80190EE
:104B40002846FBF7CAFD2521C943FCF76AF8009007
:104B500001990298FBF7ECFA0099FBF7E9FA0121B9
:104B6000C9024018050B2D0328460299FBF731FBBB
:104B70000199FBF72EFB0099FBF72FFB1049FBF780
:104B800030FB00900F492846FBF72BFB0099FBF701
:104B9000CFFA00900C492846FBF723FB0099FBF75E
:104BA000C7FA002C00DB5CE701210907C91B316053
:104BB0000121C907484007B0F0BD0000DE17000022
:104BC000DB0FC92F22AAFD290000C92F0000000019
:104BD00002E008C8121F08C1002AFAD1704700007D
:104BE0007047000000000000002001E001C1121F1A
:104BF000002AFBD17047000001490860704700009F
:104C000000002020F0B51FB486B00998089A030D63
:104C10000021024314D05148514A1818504305143A
:104C20001198012810981AD0281A401C00264D4FC0
:104C30004D49009601910490002812DA444211E097
:104C40001198012449A3012801D11098C143069865
:104C5000119A84600360C26041600BB0F0BD4042B5
:104C6000E4E70446210500203F4A001C514103911E
:104C7000029012E0E00707D032463B4601990098C7
:104C8000FBF7DCFB0191009032463B46104619468B
:104C9000FBF7D4FB06460F466410002CEAD10498BB
:104CA000039B0028029A0999089806DAFBF7C6FBCD
:104CB000019B009AFBF7C2FB05E0FBF727FC019B79
:104CC000009AFBF723FC04460E460022284BFBF714
:104CD0006BFF03D80020C043014607E00022254BAC
:104CE00020463146FBF7F8FAFBF73EFF102409E0B7
:104CF000002C0ADB0A220023FBF7BCFD079B3032A5
:104D00001A55641E02460A43F2D11122641C079B05
:104D1000121B1C19119B012B03D0012308430ED138
:104D20000AE0084304D0112010900020119077E78A
:104D30001098151A6D1E0BE01098824202DD0023B8
:104D40006D1C03E0824201DA00236D1E002BEED0C1
:104D5000069811998260C16030C07EE701FCFFFFB8
:104D6000104D0000000014400000F03F3000000033
:104D70000000F0430000E03FFFB597B00646002575
:104D800018E2252877D100242746FD49049400E045
:104D90000443761C32780120203A90400842F7D133
:104DA00030782A280ED0022230780146303909297D
:104DB00016D804990A235943303940181443761CF5
:104DC0000490F1E7189802C804911890002904DAB9
:104DD0000120400304434842049002200443761C0F
:104DE00030782E2814D1042004437078761C2A28A9
:104DF00009D11898761C80C8189009E00A214F4301
:104E0000303FC719761C3078014630390929F5D969
:104E100030786C2810D006DC4C281AD068280ED0C8
:104E20006A2817D104E0742813D07A2812D110E030
:104E30000120400504430CE00121090501E00321A4
:104E400009050C437178814203D101200005241823
:104E5000761C761C3078119066280BD013DC58280D
:104E60007DD009DC00287BD04528F6D04628F4D038
:104E700047281AD1A5E118E0632835D0642870D0FE
:104E8000652812D19DE170286CD008DC6728F1D02C
:104E900069287BD06E280DD06F2806D1BAE0732820
:104EA0002ED0752871D0782859D01A9A1999904720
:104EB0006D1C7EE16002400F022809D003280DD04E
:104EC0000428189801680DD00D60001D189070E13D
:104ED0001898EA1701680D604A60F6E718980168AB
:104EE0000D80F2E70D70F0E718986A4601781172AC
:104EF000001D18900020507202A80090012005E0CB
:104F0000189802C8189000200091C04361070DD581
:104F1000002101E00199491C0191B94212DA814254
:104F2000F8DB009A515C0029F4D10BE0002101E08C
:104F30000199491C01918142FADB019A0099895C2F
:104F40000029F5D1019904981A9B471A2146384641
:104F5000199A00F097FA0199401945180BE04FE0B3
:104F60002CE113E04EE0009800990078491C009174
:104F70001A9A199990470198401E0190401CF2D14D
:104F8000214638461A9B199A10E137E00A20002181
:104F9000009001916002410F022907D0189A01CABE
:104FA0001892C2179446032908D00AE01898C01D29
:104FB000C108C90005C91891944607E000B2C2179C
:104FC0009446042902D140B2C1178C4600226146A2
:104FD000944506DA0A460021404291418C462D2133
:104FE00002E0210504D52B216A461173012103E05B
:104FF000E10701D02021F7E7029155E00A200AE0FD
:10500000102008E0102000900021042004430191AA
:10501000082703E008200021019100906002410F61
:10502000022907D0189A01CA18920022944603292F
:1050300008D008E01898C01DC108C90005C918911A
:10504000944603E080B2042900D1C0B2002102914D
:10505000210729D51199702906D0009A1021019BAA
:105060004A401A4305D00EE040216A4611730121DF
:1050700008E06146014306D030216A461173119958
:10508000517302210291009A0821019B4A401A4360
:105090000AD16146014301D1610705D530216A4635
:1050A000117301217F1E02911199582904D035A155
:1050B0000E910DA90D910DE037A1F9E76146019B15
:1050C000009AFBF7D7FB0E9B8C469B5C0D9A521EF9
:1050D0000D92137061460143F0D10D9805A9081A8D
:1050E00020300190600703D501200004844300E0D4
:1050F00001270198874201DD381A00E0002001995C
:1051000000904118029809180498401A0490E0038E
:1051100006D421461A9B199A049800F0B3F9451950
:10512000002706E003A81A9AC05D199990476D1CE4
:105130007F1C02988742F5DBE0030CD521461A9BC1
:10514000199A049800F09EF9451904E01A9A302043
:10515000199990476D1C0099481E00900029F5DCB4
:1051600008E00D980D990078491C0D911A9A19992B
:1051700090476D1C0199481E01900029F1DC63E104
:10518000092801003031323334353637383961621D
:1051900063646566000000003031323334353637E1
:1051A00038394142434445460000000000F05AF9B6
:1051B0004519761C3078002800D0E2E528461BB05F
:1051C000F0BD600700D406271898C01DC108C900AB
:1051D00048680A680831C30FDB071891190001D02D
:1051E0009CA108E0210501D59BA104E0E10701D0C5
:1051F0009AA100E09AA1430011985B0810916528DC
:105200000CD006DC452809D046281DD0472841D1BE
:1052100041E0662818D067283CD13CE00021112FDE
:1052200001DB112000E0781C0191009008A911A871
:10523000FFF7E8FC139905910021119A15927F1C44
:1052400012980197009150E00120C00703900120BF
:10525000019008A9009711A8FFF7D4FC139A14999C
:1052600005920022119B009212981593059A0192C3
:10527000002901D0104602E0791C40180190381A2C
:1052800001D5019804E04042401E0090781C019036
:10529000C01B029043E0012F00DA01270021112FEB
:1052A00001DD112000E038460191009008A911A805
:1052B000FFF7A8FC13990591119A002112981592F5
:1052C0000091019721070CD40599B94201DB01999E
:1052D00000E00191012904DD159A491E515C302935
:1052E00006D0B84201DA011D05DA0121029115E06C
:1052F0000199491EEDE7002805DC0099411800914D
:105300000199091A03E0019A411C914200DD0191C3
:105310000099401A401C02900120C007039020070A
:1053200006D402990198814202DB0020C04302901A
:1053300000206946C87707AF012103980337C907E2
:10534000884224D0022011902B201290039800282C
:105350000CDA404203902D20129007E00A210398B6
:10536000FBF741FA30317F1E039039701199481EC6
:1053700011900029F2DC03980028EFD1791E1298D1
:1053800008703078202108404530BF1E387006A8CC
:10539000C01BC01D039010980078002800D0012089
:1053A000019941180298C017091803980918049820
:1053B000401A401E0490E00306D421461A9B199A15
:1053C000049800F05FF8451910980078002803D081
:1053D0001A9A199990476D1CE00324D521461A9B0F
:1053E000199A049800F04EF845191CE0009800281E
:1053F00007DB00990598884203DD1598405C1999F0
:1054000001E0199930201A9A904700986D1C401CB1
:1054100000900298401E0290002804D11A9A2E2073
:10542000199990476D1C0199481E01900029DDDCF7
:1054300005E038781A9A7F1C199990476D1C0399DA
:10544000481E03900029F4DC21461A9B199A0498FF
:10545000ACE600002D0000002B0000002000000042
:1054600000000000F8B5044600251E4617468804D3
:1054700004D405E039462020B0476D1C641EF9D5E0
:105480002846F8BDFFB50446002581B01E46C80376
:1054900001D5302700E02027880404D505E03846F0
:1054A0000399B0476D1C641EF9D5284605B0F0BDC0
:1054B0000A68531C0B60107070470000F0B502467C
:1054C00004464E4B83B040006946984209D273218E
:1054D0000906884202D20020C04300E0002000906C
:1054E00030E05000464B400898426CD24549104687
:1054F000FAF777FEFBF752FA0746FBF717F9800732
:10550000800F009040493846FAF76BFE01903F4902
:105510003846FAF766FE06463D493846FAF761FE18
:1055200005463C493846FAF75CFE2146FAF755FE37
:105530002946FAF74EFE3146FAF74BFE0199FAF783
:1055400048FE044625467F27009CFF05002C3EDBD5
:10555000E007314E294608461BD0FAF742FE0746BF
:105560002E49FAF73EFE2E49FAF7E2FD3946FAF7E0
:1055700038FE2C49FAF7DCFD3946FAF732FE2946A7
:10558000FAF72FFE2946FAF7D3FDA10718D503B085
:10559000F0BDFAF726FE05462349FAF722FE234915
:1055A000FAF7C6FD2946FAF71CFE2149FAF7C0FDB5
:1055B0002946FAF716FE3946FAF7BAFDA107E6D5ED
:1055C000704003B0F0BD1046FFF740FAB9E7FF2185
:1055D00068000906884202D2384603B0F0BD88420E
:1055E00006D10120FFF708FBFFF723FA03B0F0BD57
:1055F0002846FFF719FA03B0F0BD0000B61F927EEF
:10560000490E494683F9223F1A61342C0020A23307
:1056100000A0FD390000C93F00000080336D4CB987
:10562000DA82083CA0AA2ABEB93AB2BACA9F2A3D79
:10563000DDFFFFBEF0B51FB494B084460C460246B1
:10564000179D1698009049006800630049084008BB
:105650000393002A01D0012600E000269E19FB4B8F
:10566000F6185B109E422BD36E00009F0196002F10
:1056700000D00127F719F54EF54BBE199E421FD3F6
:10568000009E0346F34F334309D03B469C4201D171
:10569000002A04D0039B002A05D0012604E0002044
:1056A000394619B0F0BD00269E19EB4B9E4207D833
:1056B000009F019E002F00D00127F6199E4207D9B6
:1056C0002B4660462146169AFFF78EF919B0F0BDB9
:1056D0000023002C29DAE14EB04226DAE04EB04237
:1056E00001DB022321E0DB4EB0421EDBDD4E070D65
:1056F000BE19142E09DD3427BF1B009EFE40019603
:10570000BE40009FBE420BD00FE0009F002F0CD187
:105710001427BF1B0646FE400196BE40864204D1B8
:10572000019BDE07F60F02239B1B0E46164318D182
:10573000002D16DA002C03D0022B01D0012B06D04D
:105740000220FFF759FAFFF745F919B0F0BD022022
:10575000FFF752FAFFF73EF90122D207514019B084
:10576000F0BD009E002E61D1BC4EB04220D1BE489B
:10577000844201D1002A08D0B648814209DB002DBD
:1057800010DB1698294619B0F0BD0020B14919B0B8
:10579000F0BD002D06DA01222946D20716985140A5
:1057A00019B0F0BDB14979440868496819B0F0BD35
:1057B000A84FB84225D1002D1FDA002904D0B142EC
:1057C00012D1002A09D018E0002A72D1A349E20FB1
:1057D0000020D207114319B0F0BD0020E20F0146AE
:1057E000D207114319B0F0BDB14206DA23460020BA
:1057F0003946FAF78BFE19B0F0BD1046214619B0B4
:10580000F0BDB14212DA0126B607B54203D12346F4
:1058100010461946EFE3964EB54207D1261E05DB2A
:105820001046314600F0B2FC19B0F0BD67007F08A9
:105830001646002A40D100290AD0884A914229D12F
:10584000002C0EDD002D1CDB0020114619B0F0BD30
:10585000022B16D0002C14D0012B12D1002C14DBFB
:105860000FE0002C28DA002D09DB012B03D00020EB
:105870007A4919B0F0BD00207E4919B0F0BD012B66
:1058800003D00020014619B0F0BD00200121C90756
:1058900019B0F0BD6F4A91420ED1002C01DA002BF5
:1058A00017D0022B06D00020C043FAF71DFF19B015
:1058B000F0BD7AE20120F8E7E217521C94461A4341
:1058C00007D000220692634C62465B1E1A4307D043
:1058D00009E00120FFF790F9FFF78AF819B0F0BD51
:1058E0000022614C0692644A90427DDD634B644A1B
:1058F00098420ADD914202DC002D10DB25E055487C
:10590000814202DB002D0ADC1FE0914202DA002D09
:1059100005DB1AE04F4B994223DD002D15DD0220F7
:10592000FFF76AF9FFF76CF805460E4600224B4B6D
:1059300021460698FAF782FD084671004908C00F13
:10594000C0070143284619B0F0BD0220FFF754F903
:10595000FFF760F849004908E20FD207114319B078
:10596000F0BD002230463946FAF75AFD01220546BD
:105970000E46D243FBF790F8424A434BFAF756FDE6
:105980002A463346FAF75AFD0022394BFAF74EFD04
:1059900007462A463346019110461946FAF74EFD4E
:1059A0003A46019BFAF74AFD0746032007912A462B
:1059B000334640073549FAF741FD01910890344AD2
:1059C000324B38460799FAF739FD07460291314ABA
:1059D000314B28463146FAF731FD3A46029BFAF739
:1059E0001FFD07460B4600E013E0024607910199B0
:1059F0000898FAF771FC00250E462846019B089A84
:105A0000FAF70EFD3A46079BFAF710FD02460B46E1
:105A10008DE1012500202D05A94207DA3522304607
:105A20003946FBF739F806463420C0430A151218E8
:105A30000C48084F101803900803000B0146394327
:105A40000491164988422BDC00202DE0FFFF1F0047
:105A5000FFFF0F000000F03F0000E0FF0000F07FBC
:105A60000000404301FCFFFF0000F0BFB60A000049
:105A70000000E03F0000F0FF0000E0410000F043C4
:105A8000FFFFEF3F555555555555D53F4715F73F46
:105A9000FE822B6544DF5DF80BAE543E8E9803000A
:105AA000FE49884202DA01200F9007E000200F90A3
:105AB0000398401C03900498401B0490049909919A
:105AC0000F98F749C00079440D90081843680268A0
:105AD00030460999FAF7A4FC0191F24908907944FB
