:020000040000FA
:10000000500620208D0100009101000093010000A6
:1000100000000000000000000000000000000000E0
:10002000000000000000000000000000950100003A
:10003000000000000000000097010000A11C00006B
:100040009B0100009B0100009B0100009B01000040
:100050009B0100009B0100009B0100009B01000030
:10006000000000009B0100009B0100000000000058
:10007000000000009B0100009B0100009B010000AC
:100080009B0100009B0100009B0100009B01000000
:100090009B0100009B010000000000000000000028
:1000A0009B0100009B010000000000000000000018
:1000B0009B010000000000009B0100009B0100006C
:1000C00000F002F800F052F812A030C808382418E6
:1000D0002D18AC4201D100F049F80FCCA246AB4636
:1000E0000CA730CF2D1B083F3F197C427F1E544484
:1000F0002D090426F441641EAC4201D300F036F809
:100100000126334200D0FB1A3343984754465D46DC
:10011000DFE70000642A0000842A000000000000DD
:10012000103A02D378C878C1FAD8520701D330C840
:1001300030C101D504680C60704700000000000069
:100140007047000000000000002300240025002666
:10015000103A01D378C1FBD8520700D330C100D583
:100160000B6070471FB51FBD10B510BD00F050F9F2
:100170001146FFF7F7FF01F079FE00F068F903B4CC
:10018000FFF7F2FF03BC00F0B9F900000648004792
:10019000FEE7FEE7FEE7FEE7FEE7FEE70348044969
:1001A000024A044B70470000C100000050052020A7
:1001B00050062020500520207047704770470000EF
:1001C0000121C9050123411842001B06D3185B0E0B
:1001D0000AD0C1100722D206891840075242D142E4
:1001E00001D5520089187047090208D50146002A36
:1001F00003D0C10FC9070020704710467047420264
:1002000002D0002002497047072109050143F4E7A5
:100210000000F87FF0B5FF252D04C609C209FF27AD
:1002200004462E400137CB093E4348402A402B402C
:100230000746002A6BD0002B69D0AA4267D0AB4298
:1002400065D0002800DA32460125ED0529432C430C
:1002500009022002090AD21A4B0C7F24E31A434CEC
:10026000000A7C44E35C7D242404121914145B000E
:10027000A218884201D3521C00E0400049420C46BB
:100280005C4324115C43DB016415E318040A5C43FE
:10029000C502200D0C4644436419250A5D4323031F
:1002A000EC0C0D46654300030019EB184C42A342C9
:1002B00001D35B18401CD4052018002B07D05B002D
:1002C000C91804D3401C002901D1400840003F2137
:1002D00089048A4209D3002A08DC1106090F04D0D8
:1002E000032149074018C00FC007F0BD012241009B
:1002F000120689187F2252069142F6D2052149073B
:10030000C84201D59010F0BDFF20C005F0BD002F00
:1003100000DA32461648AA4207D2AB4205D2190289
:10032000090E17D0F80FC007F0BDFF2563002D069A
:10033000AB42F9D84900A942F6D8AB4201D1A94253
:10034000F2D0A94201D1002101E061004908D005A5
:100350000843F0BD1102090EFBD0FF200243D00577
:10036000F0BD0A460146104654E700004620000052
:100370000000C07F0102C21504D00123DB0719432E
:10038000002A0ADB9E239A1A02D40846D0407047FE
:10039000FF2241001206914201D900207047C01788
:1003A000C043704710B5FF231B0644009C421DD874
:1003B0004C009C421AD80346124A0B4307D4401AF9
:1003C00002D3EFF3008010BDEFF3008010BD081AD8
:1003D00003D3EFF30080904305E0EFF300800121A9
:1003E0009043C907084380F3008810BD0D231B0408
:1003F0001A4204D01146002000F031F810BD00F080
:1004000045F810BD000000900048704720002020F3
:100410007546FFF7F9FFAE46050069465346C0082A
:10042000C000854618B020B5FFF7B8FE60BCB646E0
:1004300000260027C0C5C0C5C0C5C0C5C0C5C0C551
:10044000C0C5C0C5403D490849008D46704710B53C
:100450000446C046C0462046FFF791FE10BDC802C4
:1004600012D54803400F002804D0C803C04301211F
:1004700088407047EFF3008000010009032109075D
:10048000084380F3008870470020704710B5024889
:1004900000F004F810BD00000000C07F10B50C464D
:1004A0001107090F092904D00A290AD008290CD1FB
:1004B00004E011460820FFF7D2FF06E0510606D5FA
:1004C00001E0510601D50120C007214610BDD1062B
:1004D00007D501010909CC084907000E00060443AD
:1004E00009E0410F20024907000A0143200E0006DF
:1004F0001D22D14101430846E7E7000001491820C9
:10050000ABBEFEE7260002007047811E091F00BF38
:10051000FCD2704784B00390029101920398006866
:100520000090009801998843009000980299019AE0
:10053000114008430399086004B0704784B00390E9
:1005400002910192039800680090009801998843F5
:10055000009000980299019A11400843039908609D
:1005600004B0704782B001900091009801999522E3
:100570005201885002B0704782B0019000910098FB
:10058000019995225201885002B0704782B00190C3
:1005900000910098019995225201885002B070474D
:1005A00081B0009000988100384A885801235B068A
:1005B0001843885001B0704782B0019000910098B4
:1005C0000199024A885002B07047C046D01200001C
:1005D00081B0009000990120C2025848885001B0B3
:1005E0007047C04681B0009000988100274A812062
:1005F000885001B07047C04610B584B0069C039087
:1006000002910192009302980199084300990843CE
:100610000699084381210843039989001B4A8850A1
:1006200004B010BD82B001900091009810490843B9
:1006300001998900154A885002B0704710B584B0FE
:10064000079C069C039002910192009302980199E5
:100650000843009908430699084307990843044949
:10066000084303998900094A885004B010BDC04668
:100670008000040082B0019000910098802108431E
:1006800001998900014A885002B0704704804240B5
:1006900081B000900099474A4748885001B07047A0
:1006A00082B00190009100980199074A885002B0E9
:1006B0007047C04682B00190009100980199024AAB
:1006C000885002B07047C0469012000082B001907E
:1006D000009100980199024A885002B07047C046C4
:1006E000B012000081B000900099092042028858A1
:1006F00001231B021843885001B0704781B000905D
:100700000099084A885801231843885001B070475F
:1007100081B000900099034A8858042318438850F8
:1007200001B070472812000081B0009000990120AC
:10073000C202B848885001B07047C0460100002688
:1007400010B5002A0FD091235B01C3180020DC698B
:100750002405240F05D00C5C1C60401C8242F6D19D
:10076000104680B210BD002080B210BD3C4A8358B4
:1007700080210B43835080180F22120243681340DC
:100780000122D2029342F7D102688A430260704785
:1007900081B0009000980249405801B07047C046AF
:1007A0001812000081B000900099024A0248885057
:1007B00001B0704704080000030000B181B0009050
:1007C0000099404A0020885001B0704780B584B03D
:1007D000019101460198039102A90880039809221A
:1007E00052028018098803225202FFF793FE04B0D8
:1007F00080BD70B50A780C231A4001242403051922
:100800006E689E43B2186A60497807221140035906
:1008100093435918015170BD80B584B001910146D0
:100820000198039102A9088003980D4A801809884D
:1008300007221202FFF76EFE04B080BD80B584B0BF
:10084000019101460198039102A908700398044A96
:10085000801809780722FFF75DFE04B080BDC0460E
:100860003812000082B0019068460170007801994A
:10087000014A885002B070472412000010B586B0BB
:100880000192024601980592049103AA107002A8F1
:1008900003800598094940180499490012781143CA
:1008A000074AFFF74BFE05980649401802990904CC
:1008B000C91D054AFFF742FE06B010BD1012000028
:1008C000FF070000141200000700FF0F0649086828
:1008D0000122904308607047034908680122120210
:1008E000904308607047C04608010B4081B0014644
:1008F0006846017000780249086001B07047C04640
:1009000008030B4080B582B0014601A80170017850
:100910000F480F22FFF7FEFD02B080BD80B582B008
:10092000014601A80170017802480322FFF7F2FD99
:1009300002B080BD00010B4080B582B0014601A825
:100940000170017802483022FFF7E4FD02B080BD5B
:1009500004010B4082B00190009100980199024A75
:10096000885002B07047C0464810000010B585B0EE
:1009700000930B460099049003A80380029201ABF8
:10098000197004991A7892008A18B24C08491151CA
:100990000299049A1B789B00D2183123DB01D150B5
:1009A0000088044908430499E44A885005B010BD02
:1009B000010002001200001081B000900099024A6C
:1009C0000120885001B070470811000082B00190EA
:1009D0000091009B0199094A88581843885002B039
:1009E0007047C04682B001900091009B0199034A74
:1009F00088581843885002B07047C046281000003D
:100A000081B0009000990120C202D848885001B0FE
:100A10007047C0460100002681B000900098032175
:100A2000C902405801B07047F0B5C44A82183B4B28
:100A3000C31808794E793A4D764C002E23D02028E1
:100A400004D00526F601002803D003E0354E002827
:100A500000D18826576F2F4037435767976F2F4035
:100A600037439767566B26405663966B26409663CE
:100A70000026566596658F26F6435F6837405F60AF
:100A80009F6837409F608E79096820280BD0002826
:100A900019D1491E5160D76E2F4088210F43D76668
:100AA0001746703719E0491E5160D16E29401D4F1D
:100AB0003943D166116F2940394311670121490734
:100AC000194D174609E049085160D76E2F4005219E
:100AD000C9010F43D766174670373C682C400C435A
:100AE0003C60D16A4B4C2140D162116B21401163B3
:100AF0000021D16411658F21C943D46F0C40D467A4
:100B00001C680C401C600643BD2030401168074B38
:100B10000B40C018801C1060F0BDC0468418000057
:100B200024493E0001040000FFFFFFCF4000FFCF3B
:100B3000B0B54A68714BC250804A80180A78222AA0
:100B400058D8930001A4E3589F46C046EB0B000021
:100B5000F50B0000EB0B0000F50B0000F50B00009F
:100B6000F50B0000F50B0000F50B0000F50B000085
:100B7000F50B0000F50B0000F50B0000F50B000075
:100B8000F50B0000F50B0000F50B0000D90B000081
:100B9000F50B0000D90B0000F50B0000F50B000071
:100BA000F50B0000F50B0000F50B0000F50B000045
:100BB000F50B0000F50B0000F50B0000F50B000035
:100BC000F50B0000F50B0000F50B0000D90B000041
:100BD000F50B0000D90B000003231B0704689C439E
:100BE00001235B07E318036004E003231B07046889
:100BF0009C4304600B69C360CB68054C1C40C36A0E
:100C0000044D1D402B19C362097A11430160B0BD28
:100C1000777702008888FDFF81B0009000996A4ACA
:100C20006A48885001B0704782B0019000910098E6
:100C3000019911221202885002B0704710B50723A3
:100C40009B04194092008018024A84589C43611802
:100C5000815010BD3018000010B5029CA40000198E
:100C600011431943014A815010BDC046501800007D
:100C700092008018014A81507047C0461018000049
:100C800010B50122120383180C789C604B788350B6
:100C90008978014A815010BD0C11000010B586B052
:100CA00001930B4601460198059104A90B8003AB03
:100CB0001A8002AA10800598204C001909881B8808
:100CC000194312881143024AFFF724FC06B010BDF5
:100CD00080FF000082B00190009100980199074ABE
:100CE000885002B07047C04682B0019000910098D1
:100CF0000199024A885002B07047C04608180000A7
:100D000081B0009000990D4A8858012318438850FB
:100D100001B0704781B000900099084A88580123BB
:100D20001843885001B0704781B000900099034A81
:100D3000885801231843885001B0704704180000F8
:100D400081B00090009911200202885801231843B5
:100D5000885001B07047000081B0009000990120D8
:100D6000C2020248885001B07047C0460100002608
:100D7000B0B51122120283580124A34383500B887B
:100D80008C781C438B882343094C1C408358094DA5
:100D90001D40631983508B79CC791C43097A214318
:100DA0007E231940801842689A4351184160B0BDB3
:100DB00018670000E798FDFF81B000900099024A93
:100DC0000248885001B0704704080000030000B1D9
:100DD00080B584B003900291019203980B494018AA
:100DE00002990B4AFFF796FB03980A4940180199AC
:100DF0003F22FFF78FFB0399074A88188958012281
:100E00001140FFF787FB04B080BDC0461011000001
:100E1000FFFF0000141100000411000010B50122B2
:100E2000120383180C789C604978815010BD80B5FE
:100E300082B0019000910198112109024018009997
:100E40000322D203FFF766FB02B080BD80B582B0FB
:100E50000190FFE70198411E0191002805D0FFE7AE
:100E60007D20C00000F004F8F4E702B080BD00006F
:100E700082B001900198400100900098401E0A49FC
:100E800008600A4900200860094905200860FFE75A
:100E900007480068C003002801D4FFE7F8E70449C9
:100EA0000020086002B0704714E000E018E000E0A5
:100EB00010E000E080B588B0079006910592049399
:100EC000254800680A2801DBFFE742E00798224A2C
:100ED000039211684B0121490291CB189860069842
:100EE000126852018918C8600798FFF713FF069827
:100EF00001210191FFF72EFD01990698FFF772FD80
:100F00000698FFF707FF0299039A106840010B1833
:100F100064201861106843010020C8501268520113
:100F2000891848600798FFF777FD039902460298F1
:100F30000B685B01C3189A83096849014018143093
:100F40000599049A00F00CF803990868401C0860A1
:100F5000FFE708B080BDC046C0042020E400202088
:100F600083B00290019100920298002801D1FFE71E
:100F700006E0019802990860009802994860FFE72E
:100F800003B0704782B000900098002803D1FFE7BB
:100F90000020019002E003480190FFE7019802B0B1
:100FA0007047C0460048E80180B586B004900391C0
:100FB0000398002803D1FFE7002005901CE0049867
:100FC000002101F085F8002806D1FFE704980121EF
:100FD000C90748400490FFE70498039901914969C3
:100FE000FFF718F90199896901F008F9FFF7C2F9CB
:100FF000029002980590FFE7059806B080BD0000BA
:1010000010B58CB000F084FD41200B9002901E487A
:1010100005900190002400941C4804901C4B0693FA
:10102000224600F043F804980394012108910291AC
:10103000184A07920192CA0400928A04164B0A9336
:10104000194600F053F80598069B0B990291019000
:10105000009412480990224600F028F8079A08994F
:1010600009980A9B0394029401924A0400920A048C
:101070000B4900F03BF80B9A5B20830009480A49B2
:10108000FFF718FF0CB010BD00C072408000202098
:1010900000003C4000A0864000200A40B000202014
:1010A00000000A400000094000008640B0B586B04C
:1010B00004460B990A980C9D0594039302920191A2
:1010C00000900598002801D1FFE70DE00298039AEF
:1010D0000599CA6188610098019A05994A62086277
:1010E0000C9805998862FFE706B0B0BD70B586B070
:1010F0000C4605460D980C990B9E0A9E0595049486
:101100000392029301AA117069460880059800288D
:1011100004D0FFE70B98002801D1FFE729E00498ED
:1011200005990860039805994860029805998860B8
:101130000A980599C8600B98059908610198059966
:10114000087500980599C88205998868C968FFF7ED
:1011500013FA059908684968FFF70EFA05980069BF
:10116000FFF7CEFD059A1069D18A127DFFF780FD49
:10117000FFE706B070BD80B584B003A900200870F9
:10118000FFE703A80078072824DCFFE70398B030C6
:10119000C0B200F009F90020019000F005F910201C
:1011A00000F002F9019802A90870FFE702A8007890
:1011B0007F2809DCFFE7002000F01AF9FFE702981A
:1011C000401C02A90870F1E7FFE70398401C03A93F
:1011D0000870D6E704B080BD80B50348FFF795F9E5
:1011E00000F07CFD80BDC04600A8610080B584B0E1
:1011F00003AA0192107002A801700298B030C0B228
:1012000000F0D2F8019800780009103000F0CCF816
:10121000019800780F21084000F0C6F804B080BDA6
:1012200010B586B0044605A8047004AC217003A96B
:101230000A7002A90B7001AA002111706B46197087
:101240000399203911700078802808DBFFE705A991
:10125000002008700498801C04A90870FFE702A809
:101260000078102841D1FFE705A8007804A9097883
:10127000FFF7BCFF694600200870FFE7684600786A
:10128000072810DCFFE701A800780001694609780B
:1012900041182848405C00F0ABF8FFE70098401C7C
:1012A00069460870EAE705A800780499491CC9B2A4
:1012B000FFF79CFF694600200870FFE7684600784A
:1012C000072811DCFFE701A80078000169460978CA
:1012D000401818494018007A00F08AF8FFE7009893
:1012E000401C69460870E9E720E005A8007804A9D9
:1012F0000978FFF77BFF694600200870FFE7684622
:101300000078052811DCFFE701A800780621414399
:101310000748401869460978405C00F069F8FFE723
:101320000098401C69460870E9E7FFE706B010BD69
:10133000EC2200001425000010B586B005AC20702A
:1013400004A80170039202A8037001A9002008708C
:10135000FFE7039801A90978405C002822D0FFE745
:1013600005A80090007804A90978039A01AB1B78BE
:10137000D25C02AB1B78FFF753FF00980599083148
:1013800001700078792808DBFFE705A900200870C4
:101390000498801C04A90870FFE70198401C01A96B
:1013A0000870D6E706B010BD80B586B005A90870F4
:1013B00004A9029100220A70059848701F48019004
:1013C000782102230393FFF759FA0198FFF7CEF92A
:1013D00001980299039AFFF7B3F9FFE71748FFF75F
:1013E000D7F94006002801D5FFE7F7E706B080BD32
:1013F00080B586B005A9087004A902914020087044
:10140000059848700D48019078210022022303932B
:10141000FFF734FA0198FFF7A9F901980299039AA6
:10142000FFF78EF9FFE70548FFF7B2F940060028FD
:1014300001D5FFE7F7E706B080BDC04600200F40AA
:1014400010B586B00446089805940491039202935F
:1014500001A90870049805990860039805994860E7
:1014600002980599886001980599087305990020EC
:10147000009048620862059AC143916205994863E9
:101480000863059908684968FFF780F8059880683F
:10149000FFF74AFC0099059A9068127BFFF7E8FB7A
:1014A00006B010BD10B584B0039002A8017001927F
:1014B0000093029803990874019803994861009871
:1014C0000399886104B010BD80B588B0079006917B
:1014D0000698FEF775FE059104900698002100F02D
:1014E000ECFD002807D0FFE7079988680A7B0021F8
:1014F000FFF7BEFB59E00698002100F0F4FD00283C
:1015000012D1FFE70798007C012806D1FFE7079971
:1015100008684968FFF7CEF805E007990868496848
:10152000FFF734F8FFE716E00798007C012806D1A2
:10153000FFE7079908684968FFF728F805E0079969
:1015400008684968FFF7B6F8FFE706980121C90760
:1015500048400690FFE7FFE707988068FFF712FD15
:10156000039007990698FFF71FFD02900420019051
:101570000398029A0199514300F0A4FC401E009088
:1015800068464088002803D0FFE709480090FFE73D
:10159000079880680099FFF7A7FB079A9068009961
:1015A0004908127BFFF764FBFFE708B080BDC04627
:1015B000FFFF000080B582B00B490C480190FFF797
:1015C0002DFC01980A49FFF7D3FB01980021FFF792
:1015D0002EFC0198D0211522FFF7FAFB0198FFF7A6
:1015E000AFFB02B080BDC046042B0000008010405D
:1015F000062B000080B592B0262006210591FFF74A
:1016000039F801200C90410468480E90FEF7D4FF91
:1016100005992720FFF72EF80C990E988904FEF7FC
:10162000CBFF0320069005210491FFF723F80C99C6
:101630000E984907FEF7C0FF049904200390FFF7B6
:1016400019F80C990E988907FEF7B6FF0399212027
:10165000FFF710F80C990E980903FEF7ADFF0499F7
:101660002220FFF707F80C990E984903FEF7A4FF14
:1016700006992D20FEF7D6FF059802210B91FEF763
:10168000D1FF06990C9800230D930193C004079095
:10169000009018461A46FEF7D1FF0699079A0C9853
:1016A0000D9B019300921A46FEF7C8FF0D98FEF7B6
:1016B00077FF0C98FEF774FF07980D9B019300903D
:1016C00014200990082108911A46FEF7B7FF0798E1
:1016D00008990D9B0193009015200A901A46FEF779
:1016E000ADFF0998FEF75CFF0A98FEF759FF0B99CA
:1016F0000B20FEF7BFFF0B990C20FEF793FF0B9911
:101700001220FEF7B7FF0B991320FEF78BFF0B9902
:101710003420FEF7AFFF0B993520FEF783FF0C98BE
:101720000D9B0093020423201946FEF765FF1D2040
:10173000FEF758FF3120FEF755FF3020FEF752FF2D
:101740001E20FEF74FFF1F20FEF74CFF2020FEF764
:1017500049FF0E20FEF746FF2520FEF743FF2A2013
:10176000FEF740FF2B20FEF73DFF2C20FEF73AFF4F
:101770002420FEF737FF2E20FEF734FF2F20FEF740
:1017800031FF0E980A490F91FEF7ECFE0E980F9963
:10179000FEF712FF0748109007491191FEF7E2FE8D
:1017A00010981199FEF708FF12B080BD00000A40A2
:1017B00000C0410000200A4004E07F0080B582B0F4
:1017C000074908480190FFF714F8019803214902DE
:1017D000FEF7FCFF0198FEF785FF02B080BDC04612
:1017E000102B000000000F4080B582B01249134852
:1017F0000190FEF7FEFF019803214902FEF7E6FF84
:101800000198FEF76FFF0198FEF7D8FF01980721B6
:10181000FFF728F8019800210091FFF70FF80099D1
:101820000198FEF7F9FF0198FEF772FF0198FEF7A5
:1018300065FF02B080BDC046122B000000200F40A3
:1018400080B582B00B490C480190FFF7E7FA019888
:101850000A49FFF78DFA01980021FFF7E8FA01988D
:10186000D0211522FFF7B4FA0198FFF769FA02B008
:1018700080BDC046142B000000001040162B000055
:1018800080B582B00B49F1480190FFF7C7FA019883
:101890000949FFF76DFA01980021FFF7C8FA01988E
:1018A000D0211522FFF794FA0198FFF749FA02B008
:1018B00080BDC046202B0000222B000080B586B0E2
:1018C0001F49DA480590FFF7DBF905981D49FFF736
:1018D000ABF805980023029319461A46FFF7DEF984
:1018E000029B0598009319461A46FFF7B5F9029A2C
:1018F00005981146FFF7A2F9029A05987D21890003
:101900000391FFF7B5F9029B05980121049100911D
:1019100019461A46FFF7A0F90299049A0598FFF7AD
:101920008DF90399049A0598FFF7A2F90598FFF736
:1019300043F805980321FFF777F906B080BDC0464C
:101940002C2B0000302B000080B584B00E49BA4823
:101950000390FFF795F9039849214902019100236B
:1019600002931A46FFF702F80199029A039801239D
:10197000FEF7FCFF03980549FFF7ACF90398FFF762
:101980001BF804B080BDC046382B0000FFFF0000EC
:1019900080B586B01F49A6480590FFF771F90598F4
:1019A0001D49FFF741F805980023029319461A468E
:1019B000FFF774F9029B0598009319461A46FFF742
:1019C0004BF9029A05981146FFF738F9029A0598E3
:1019D0007D21C9000391FFF74BF9029B0598012176
:1019E0000491009119461A46FFF736F90299049AB4
:1019F0000598FFF723F90399049A0598FFF738F93A
:101A00000598FEF7D9FF05980321FFF70DF906B0F9
:101A100080BDC0463B2B0000402B000080B582B04B
:101A200000200190FEF762FF0198FEF777FFFEF7B6
:101A30004DFFFEF751FF0198FEF77EFF0198FEF77C
:101A400061FF02B080BD80B57D20000200F000F98A
:101A500080BD000080B586B01F4976480590FFF72D
:101A60000FF905981D49FEF7DFFF05980023029343
:101A700019461A46FFF712F9029B0598009319467A
:101A80001A46FFF7E9F8029A05981146FFF7D6F8CB
:101A9000029A05987D21C9000391FFF7E9F8029B9E
:101AA000059801210491009119461A46FFF7D4F8D0
:101AB0000299049A0598FFF7C1F80399049A0598CA
:101AC000FFF7D6F80598FEF777FF05980321FFF793
:101AD000ABF806B080BDC046482B00004C2B000080
:101AE00080B582B0084955480190FFF7C9F80198C0
:101AF0000649FFF71DF801980121FEF767FF0198DD
:101B0000FEF75AFF02B080BD542B0000582B000096
:101B100080B500F02FF8FFF76DFDFFF77FFFFFF7AF
:101B2000CDFEFFF735FFFFF795FFFFF70DFFFFF73E
:101B3000D7FFFFF743FEFFF757FEFFF73BFDFFF729
:101B40007FFEFFF79DFEFFF77EFF06499C220020E7
:101B5000885405498854054988540549B822885451
:101B600080BDC0462402202064032020C40220201F
:101B70000404202080B58CB0D1480090FEF788FD89
:101B80008D480190FEF784FD28480290FFF744F845
:101B90008A480390FFF740F826480490FFF73CF886
:101BA00025480590FFF738F824480690FFF734F8E9
:101BB00023480790FEF7F6FD63480890FEF7F2FD14
:101BC00020480990FFF7F8F81F480A90FFF7F4F84B
:101BD0001E480B90FFF7F0F80098FEF7F9FC01980B
:101BE000FEF7F6FC0298FEF70BFF0398FEF708FFDE
:101BF0000498FEF705FF0598FEF702FF0698FEF72A
:101C0000FFFE0798FEF790FD0898FEF78DFD0998F6
:101C1000FFF7A2F80A98FFF79FF80B98FFF79CF8D8
:101C20001020FEF772FC0CB080BDC04600A08640BC
:101C300000808640004008400000094000008640C7
:101C400000000F40008010400000104000201040B5
:101C500080B584B002900298401E000E002803D088
:101C6000FFE70120039011E00298401E0949086037
:101C700000200190C043032100F0B6F80198064906
:101C80000860064A072111600390FFE7039804B03B
:101C900080BDC04614E000E018E000E010E000E085
:101CA00080B50C480168491C01600B4A1168491C49
:101CB000116000687D21C900884209D1FFE705490C
:101CC00000200860012081037D48FEF7FFFCFFE74C
:101CD00080BDC046E00020200805202080B584B0EB
:101CE00003A9002008700870FFE703A800781A28ED
:101CF00028DCFFE71448029078210022009202239A
:101D0000FEF7BCFD0298FEF731FD00990298012212
:101D10000192FEF715FD019A029803A90B780B4971
:101D2000C918FEF70DFDFFE70748FEF731FD400635
:101D3000002801D5FFE7F7E7FFE70398401C03A958
:101D40000870D2E704B080BD00200F4000002020C2
:101D500080B58AB001200790010417480490FEF76F
:101D60009FFC04980421FEF79BFC0499079A00202D
:101D7000039000901A4802909203104B0593FFF7CE
:101D80005FFB029803992122530609930C4A08929B
:101D9000FFF788FB0499059B079A0092114806906B
:101DA000D203FFF74DFB06980799089A099BFFF7A6
:101DB00079FB0AB080BDC04600200A400080864002
:101DC0006666E63F80B582B00190009101990448B3
:101DD000FFF77AFB00990348FFF776FB02B080BD5E
:101DE00010052020C804202070B582B0024601A84A
:101DF0000270009100214056002816D4FFE700240D
:101E000001A908570322D3431840174A805809579D
:101E10008C07E50EFF24AC40A043009CA401E4B273
:101E2000AC402043194088501AE001A908780F24DB
:101E3000204008380322D34318400A4A805800251E
:101E400049578D07EE0EFF25B540A843009DAD0113
:101E5000EDB2B54028432140083919408850FFE7CA
:101E600002B070BD1CED00E000E400E080B582B07F
:101E700000200190FFF74CFEFFF7AEF9FFF77BF96A
:101E80000C4A012108230846FFF756FAFFF7B8F875
:101E9000FFF75EFF08480949FFF794FFFFE77D2041
:101EA000C000FEF7D3FF012081030548FEF70EFCBA
:101EB000F5E7C0466C2B00000000F0410000F0C1C7
:101EC00000000A4043088B421AD3002203098B42C8
:101ED00079D3030A8B425ED3030B8B4242D3030CAC
:101EE0008B4227D30902FF2212BA030C8B4202D382
:101EF0001212090203D0030B8B4233D31AE0D3E052
:101F0000411A8041401C704703460B4371D443087B
:101F10008B42F5D3002203098B4254D3030A8B4230
:101F200039D3030B8B421DD3030C8B4202D394464F
:101F30006EE0090AC30B8B4201D3CB03C01A524196
:101F4000830B8B4201D38B03C01A5241430B8B424C
:101F500001D34B03C01A5241030B8B4201D30B0335
:101F6000C01A5241C30A8B4201D3CB02C01A52415C
:101F7000830A8B4201D38B02C01A5241430A8B421F
:101F800001D34B02C01A5241030A8B4201D30B0208
:101F9000C01A5241CDD2C3098B4201D3CB01C01A22
:101FA000524183098B4201D38B01C01A524143092C
:101FB0008B4201D34B01C01A524103098B4201D31A
:101FC0000B01C01A5241C3088B4201D3CB00C01A87
:101FD000524183088B4201D38B00C01A52414308FF
:101FE0008B4201D34B00C01A5241411A524110009A
:101FF0007047CA0F00D04942031000D340425340FB
:1020000000229C4603098B422DD3030A8B4212D334
:102010008901FC2212BA030A8B420CD38901921166
:102020008B4208D3890192118B4204D3890137D0A6
:10203000921100E08909C3098B4201D3CB01C01A78
:10204000524183098B4201D38B01C01A524143098B
:102050008B4201D34B01C01A524103098B4201D379
:102060000B01C01A5241C3088B4201D3CB00C01AE6
:10207000524183088B4201D38B00C01A5241D9D2FE
:1020800043088B4201D34B00C01A5241411A00D27F
:1020900001465241104663465B1000D340427047F0
:1020A00063465B1000D3404201B50021004201D0DD
:1020B000C9430846C046C04602BD10B500F020F82E
:1020C000EFF30080400001D5012010BD002010BDBD
:1020D00010B500F03FF8EFF30080800001D501203B
:1020E00010BD002010BD10B500F05EF8EFF30080C9
:1020F0004000800F012801D0012010BD002010BD3C
:102100000123DB0502000A430DD4DA4203D49A42CC
:1021100007D488427047D84214D4D94212D4884296
:10212000704780427047DA4203D59A42F9D581421E
:1021300070475B004200DA4204D24A00DA4201D220
:102140008142704710B5024AFEF72CF910BD00BF5E
:10215000090012040123DB0502000A430DD4DA4210
:1021600003D49A4207D488427047D84214D4D94243
:1021700012D48842704780427047DA4203D59A42AF
:10218000F9D5814270475B004200DA4204D24A002E
:10219000DA4201D28142704710B5024AFEF702F9D5
:1021A00010BD00BF090013040123DB0502000A4330
:1021B0000DD4DA4203D49A4207D488427047D842F9
:1021C00014D4D94212D48842704780427047DA4210
:1021D00003D59A42F9D5814270475B004200DA424A
:1021E00004D24A00DA4201D28142704710B5024A55
:1021F000FEF7D8F810BD00BF0900160470B5420004
:1022000064414B005C41120E39D01B0E38D0FF2ABE
:102210003CD0FF2B3AD0D2187F3A40024902400A04
:10222000490A4518ED0106004E43000A090A4843D1
:102230000104731A4019190C4318990F04D05B0854
:10224000012149075B1A521CD80904D3401CF5032D
:1022500001D19D0607D0FF2A08D2D50506D0E40794
:102260002043401970BD0125A843F4E7002A01DC92
:10227000E00770BD2402FF202043C00570BD1B0E87
:10228000FF2A03D0FF2B01D0E00770BDFF263606E2
:102290004500B54206D84D00B54203D8D218FF2AF2
:1022A00000D0E7E7004870BD0000C07F81828384D2
:1022B00085868788898B8C8D8E8F91929395969742
:1022C000999A9C9D9FA0A2A3A5A7A8AAACAEB0B2C4
:1022D000B3B5B7B9BCBEC0C2C5C7C9CCCED1D4D7BF
:1022E000D9DCDFE2E6E9ECF0F3F7FAFE00000000EB
:1022F00000000000002F000000000700070000148D
:102300007F147F1400242A7F2A120062640813239A
:1023100000364955225000000503000000001C2231
:102320004100000041221C000014083E081400086F
:10233000083E0808000000A060000008080808081F
:10234000000060600000002010080402003E5149B7
:10235000453E0000427F4000004261514946002155
:1023600041454B31001814127F100027454545396F
:10237000003C4A49493000017109050300364949CA
:10238000493600064949291E000036360000000083
:1023900056360000000814224100001414141414CE
:1023A0000000412214080002015109060032495977
:1023B000513E007C1211127C007F49494936003E93
:1023C00041414122007F4141221C007F494949414E
:1023D000007F09090901003E4149497A007F080848
:1023E000087F0000417F4100002040413F01007F05
:1023F00008142241007F40404040007F020C027FD1
:10240000007F0408107F003E4141413E007F0909E2
:102410000906003E4151215E007F09192946004608
:10242000494949310001017F0101003F4040403FDF
:10243000001F2040201F003F4038403F0063140829
:102440001463000708700807006151494543000004
:102450007F41410000552A552A55000041417F0027
:10246000000402010204004040404040000001021C
:102470000400002054545478007F48444438003805
:102480004444442000384444487F0038545454188D
:1024900000087E0901020018A4A4A47C007F08049F
:1024A00004780000447D4000004080847D00007F6F
:1024B000102844000000417F4000007C041804788C
:1024C000007C0804047800384444443800FC242488
:1024D00024180018242418FC007C08040408004870
:1024E0005454542000043F444020003C4040207C91
:1024F000001C2040201C003C4030403C0044281080
:102500002844001CA0A0A07C004464544C44141433
:10251000141414140000000000000000000000006B
:1025200000000000000000F8000000000000003380
:102530003000000000100C06100C06000000000027
:102540000000000040C07840C0784000043F040410
:102550003F040400007088FC08300000001820FFD1
:10256000211E0000F008F000E018000000211C030C
:102570001E211E0000F00888700000001E21232488
:102580001927211010160E000000000000000000A6
:1025900000000000000000E0180402000000000736
:1025A0001820400000020418E0000000004020183D
:1025B00007000000404080F0804040000202010F10
:1025C00001020200000000F0000000000101011FF4
:1025D00001010100000000000000000080B0700058
:1025E00000000000000000000000000000010101E8
:1025F0000101010100000000000000000030300077
:102600000000000000000000806018040060180650
:102610000100000000E010080810E000000F10208A
:1026200020100F00001010F8000000000020203FD4
:10263000202000000070080808887000003028245E
:1026400022213000003008888848300000182020FF
:1026500020110E000000C02010F800000007042424
:10266000243F240000F80888880808000019212069
:1026700020110E0000E0108888180000000F1120C3
:1026800020110E0000380808C83808000000003F7C
:10269000000000000070880808887000001C2221DB
:1026A00021221C0000E010080810E0000000312288
:1026B00022110F00000000C0C00000000000003028
:1026C000300000000000008000000000000080607A
:1026D00000000000000080402010080000010204FB
:1026E00008102000404040404040400004040404E2
:1026F000040404000008102040800000002010089E
:1027000004020100007048080808F00000000030D2
:1027100036010000C030C828E810E0000718272460
:1027200023140B000000C038E0000000203C23020E
:102730000227382008F8888888700000203F202071
:1027400020110E00C03008080808380007182020A3
:102750002010080008F808080810E000203F20209A
:1027600020100F0008F88888E8081000203F20207B
:102770002320180008F88888E8081000203F20006F
:1027800003000000C03008080838000007182020A7
:10279000221E020008F808000008F808203F210166
:1027A00001213F20000808F8080800000020203F11
:1027B0002020000000000808F8080800C080808081
:1027C0007F00000008F888C028180800203F20017A
:1027D0002638200008F8080000000000203F2020D4
:1027E0002020300008F8F800F8F80800203F003FEB
:1027F000003F200008F830C00008F808203F200003
:1028000007183F00E01008080810E0000F10202013
:1028100020100F0008F808080808F000203F2101E8
:1028200001010000E01008080810E0000F1824243F
:1028300038504F0008F8888888887000203F2000B2
:10284000030C302000708808080838000038202168
:1028500021221C00180808F8080818000000203F72
:102860002000000008F808000008F808001F2020D9
:1028700020201F000878880000C8380800000738AA
:102880000E010000F80800F80008F800033C0700FB
:10289000073C0300081868808068180820302C0363
:1028A000032C30200838C800C83808000000203F3A
:1028B0002000000010080808C83808002038262129
:1028C00020201800000000FE020202000000007F2D
:1028D00040404000000C30C000000000000000013B
:1028E0000638C00000020202FE0000000040404026
:1028F0007F0000000000040202020400000000004B
:1029000000000000000000000000000080808080C7
:1029100080808080000202040000000000000000AF
:102920000000000000008080808000000019242248
:1029300022223F2008F8008080000000003F112084
:1029400020110E000000008080800000000E112089
:1029500020201100000000808088F800000E112067
:1029600020103F200000808080800000001F222275
:1029700022221300008080F0888888180020203FE1
:10298000202000000000808080808000006B9494F4
:102990009493600008F8008080800000203F2100B0
:1029A00000203F2000809898000000000020203F79
:1029B00020200000000000809898000000C0808067
:1029C000807F000008F8000080808000203F240203
:1029D0002D302000000808F8000000000020203FF3
:1029E000202000008080808080808000203F2000A8
:1029F0003F20003F8080008080800000203F210039
:102A000000203F200000808080800000001F2020E8
:102A100020201F00808000808000000080FFA12017
:102A200020110E000000008080808000000E112028
:102A300020A0FF80808080008080800020203F21B7
:102A4000200001000000808080808000003324246A
:102A500024241900008080E0808000000000001F16
:102A6000202000008080000000808000001F2020C7
:102A700020103F20808080000080808000010E3088
:102A80000806010080800080008080800F300C03E9
:102A90000C300F0000808000808080000020312EEC
:102AA0000E312000808080000080808080818E70C8
:102AB0001806010000808080808080000021302C7A
:102AC0002221300000000000807C02020000000093
:102AD000003F404000000000FF0000000000000038
:102AE000FF0000000002027C800000000040403F28
:102AF00000000000000601010202040400000000C2
:102B00000000000008000000180000000030000075
:102B10000800080008000000180000000030000055
:102B20000800000018000000003000000807000046
:102B3000E803000020000100080000080003000076
:102B4000E80300000000000008000000E8030000A7
:102B50000000000008076300020000008F01000071
:102B600001000000000000000000000068656C6CBF
:102B70006F00000000000000982B000000002020E3
:102B80002000000020010000B82B000020002020C1
:102B90003006000048010000AE001040B081FFA1E7
:102BA000A6A83FC8D300D580D805D9F1DA12D8300D
:082BB0008D14AF0000000000CD
:04000005000000C136
:00000001FF
