:020000040000FA
:1000000098192020D5000000D9000000DB00000076
:1000100000000000000000000000000000000000E0
:10002000000000000000000000000000DD000000F3
:100030000000000000000000DF0000003D3600006E
:10004000E300000015190000E3000000E3000000D9
:10005000E3000000E3000000E3000000E300000014
:1000600000000000E3000000E300000000000000CA
:1000700000000000E300000085360000E3000000FF
:10008000E3000000E300000069360000E300000028
:10009000E3000000E300000000000000000000009A
:1000A000E3000000E300000000000000000000008A
:1000B000E300000000000000E3000000E300000097
:1000C0000348854600F09CFD00480047FD400000C5
:1000D0009819202003480047FEE7FEE7FEE7FEE709
:1000E000FEE7FEE7C100000003460B439B0703D079
:1000F00009E008C9121F08C0042AFAD203E00B78ED
:100100000370401C491C521EF9D27047D2B201E064
:100110000270401C491EFBD270470022F6E710B562
:1001200013460A4604461946FFF7F0FF204610BD65
:10013000F8B502464A40D40F42004B0052085B0813
:100140009A4202D20246084611464A0023D0C30D05
:100150004A00DDB2120EAD1A202D35DA4902012611
:10016000490AF6058A19002C00D0524220214F1B63
:100170001146B9402A411018C20D9A4221D0002CD4
:1001800017D0012D08DCDA05801AD20F8019D207AA
:10019000DBB200F0E2FBF8BDDA05801A0123400073
:1001A0001B06C01880185A428018CA0F1043490015
:1001B00007E04908C2071143DA05801A8019400890
:1001C000801800F0C2FBF8BD61000122511A001B2B
:1001D000F7E70122D2075140AAE70122D207504097
:1001E000A6E7024670B54A40D30FDB0740002DD08A
:1001F0004A002AD0010E140E000212020919400A08
:10020000520A8418E50104465443000A120A2E04D7
:100210005043A4194219200CC543AA18120C0125F9
:10022000AD03521C521912047F39240400D0521C11
:10023000104301D44000491EC2B20C06C009201868
:10024000401C4008802A02D003E0002070BD400816
:100250004000002900DA0020184370BD70B5024646
:100260004A40D50F40004A00ED07400852080028D8
:1002700014D0002A12D0C40DD30D41020120C005B4
:100280005202490A520AE41A091812187D3491429E
:1002900001D3641C00E04900002C01DA002070BD8D
:1002A0000023914201D3891A0343400849000028E2
:1002B000F7D100290AD0914202D10121C90705E0F6
:1002C000914201D2012101E00121C943E005C0189A
:1002D000401900F03AFB70BDF0B50746084658409B
:1002E00087B0C00F049048000E46590040084908E6
:1002F000BC1A884105D2384631461E4617460B4681
:1003000002465800400810434CD0300D0390400581
:100310005900400D490D0590401A0290402872DAAC
:1003200018030121000B090508430190049800926D
:10033000002805D001995242002088410092019086
:10034000029840210A1A0199009800F0DBFA05464C
:100350000C466B4607CB00F0E5FAC0197141039AD1
:100360000E0D0023D71756401A467A40164344D044
:10037000049A002A2DD0029A012A039A15DC12054C
:10038000C01A914101263605001C7141D20F059E0D
:10039000D2070093019202962A46234600F042FBC0
:1003A00007B0F0BD38463146FAE71605224A0F4637
:1003B000B218C01AB74101210905001C4F410018AD
:1003C0007F41114618187941E20F10436D196441BD
:1003D00013E0E2076D0815436408C2071443039A4B
:1003E00001261205C01A91413605001C7141CE0745
:1003F000400830434908C01851412A46234600F0BE
:1004000004FBCDE7FFE7049801224000C117121A50
:1004100000238B4104983146C417381AA141EEE7F6
:1004200030B40124E407634030BC55E730B4012404
:10043000E407614030BC4FE70000E0FFF0B51FB4B7
:1004400088B00B990998002448400999C00F4900C9
:1004500049080991C0070B990090490049080B9180
:1004600009990898A64608431CD00B990A98084396
:1004700018D0099801244000420D4800410D099808
:1004800024050003000B204309900B980003000B88
:1004900020430B9050181C4940180022019014462C
:1004A000104605E0002001460DB0F0BD032801DA3A
:1004B000034600E003239C46C11A0AAE0AE05F002F
:1004C00008ADED5B4F00F75B7D430027AA187C4128
:1004D000491C5B1E6145F2DD410004AB5A52210408
:1004E000120C0A43240C401C0828DFDB0198029000
:1004F0000099704601910090059B049A079906980F
:1005000000F090FAD0E700000DFCFFFFF0B50C46BC
:100510005C4085B0E40FE40703944C0000266408B7
:1005200059009446490802460296224321D0624669
:100530000A431ED06200570D4A000E032303550DD7
:10054000012402462C492405781B1B0B360B40184E
:1005500023432643614600901C46501AB44103D3FE
:100560000098401C009002E0921800985B4100281F
:1005700003DA0020014605B0F0BD00200121090585
:100580000746864611E064461D46141BB54106D356
:100590006546521BB341744607430C43A646CD073C
:1005A00040084908284392185B4105460D43EAD1AB
:1005B0001046184313D06046194650407140084316
:1005C00006D06046101AB34106D20122002306E08D
:1005D00000220123DB0702E00122D24353100098DE
:1005E00074460105381C6141029C039D0019694154
:1005F00000F00BFABFE70000FD0300000122D20764
:10060000002800DB101A002900DB511A814201D8B2
:1006100001207047002070470122D207002800DB2C
:10062000101A002900DB511A814201D201207047C3
:10063000002070470122D207002800DB101A002991
:1006400000DB511A814201D301207047002070471E
:100650000122D207002800DB101A002900DB511A02
:10066000814201D9012070470020704710B5002950
:1006700004DB0C460121C9074042A141002B04DBE9
:100680001C460123DB075242A341101A8B4101D3C0
:10069000012010BD002010BD10B5002904DB0C4660
:1006A0000121C9074042A141002B04DB1C46012364
:1006B000DB075242A341801A994101D2012010BDAB
:1006C000002010BD10B5002904DB0C460121C9072C
:1006D0004042A141002B04DB1C460123DB075242B0
:1006E000A34142404B401A4301D0002010BD0120DD
:1006F00010BDC217C10F504010B54018CA0796234D
:10070000002100F02AF910BD10B5002296231146F1
:1007100000F023F910BD00000EB5C217C10F504004
:10072000CA0740180021054B0293019200910A4626
:100730000B4600F077F903B000BD00003304000061
:100740000EB505490291002100910A460B46019120
:1007500000F068F903B000BD33040000C20F41008F
:1007600040020123400ADB05D207090EC0187F2989
:1007700001DA00207047962903DC9623591AC840F5
:1007800001E096398840002AF4D040427047410089
:1007900040020122400AD205090E80187F2901DAA1
:1007A00000207047962903DC9622511AC8407047F2
:1007B000963988407047C20FD207400040080BD0DE
:1007C000C10D0723DB01C91840020905400A114386
:1007D000C208400711437047002001467047CB0F05
:1007E000DB07490010B5490802460A4307D00A0D45
:1007F00007240903E401090B121B002A01DC002075
:1008000010BDC900440F0C43C100E018D205801888
:1008100000F09BF810BD70B50446002903D00020FD
:100820002022012310E0002801D00020C043C04650
:10083000C0460DE02546D5408D4205D30D46954076
:10084000641B1D46954040191546521E002DF1DCD3
:10085000214670BD70B5002504462E46002911D0F2
:10086000002C01DA01254442002901DA012649421F
:100870002046FFF7D0FFB54200D04042002D00D007
:10088000494270BD002C02DA0121C90702E0002CA8
:1008900000DD03490846C046C046214670BD000041
:1008A000FFFFFF7FF0B51FB40646002082B005466B
:1008B0004024019100901BE0019922460F463046EA
:1008C00000F0B6F9049A059B801A994110D310469E
:1008D0001946224600F016F8361A8F410197224633
:1008E00001200021009F00F00DF838184D410090C4
:1008F0002046641E0028DFDC019B00982946324612
:1009000007B0F0BD10B5202A04DB0146203A914023
:10091000002010BD914020239C1A0346E340194358
:10092000904010BD10B5202A06DBCB170846203AB0
:100930001041C1170B4306E00B461341D040202461
:10094000A21A91400843194610BD002904DA401C40
:10095000490001D140084000704770B40024050CE4
:1009600005D11024000402D1002921D01124050E44
:1009700001D100020834050F01D10001241D850FAB
:1009800001D18000A41C002801DB4000641C002968
:1009900008D020252E1B0D46F540A14000D0012196
:1009A0002943084301061B1B000ADB1D02D500205A
:1009B00070BC7047DB05181880180029F8DA401C55
:1009C0004900F5D170BC40084000704710B54100A7
:1009D0000DD04100090E962909DC7E290ADC07DBCF
:1009E000410205D0C00F7F21C007C905401810BDC6
:1009F000002010BD9622541A20210A1B0146914066
:100A0000E040FFF7A2FFA04010BD10B5002B08DAB0
:100A10000024401C614192185B411A4301D14008F7
:100A2000400010BDF0B51FB482B005460C0003D0E5
:100A3000084604F0BDF802E004F0BAF8203002469F
:100A4000009021462846FFF75DFF049B059A044667
:100A50000F4618431143084314D0184610431BD0C7
:100A6000009840210A1A1846059900F0E1F8054659
:100A70000E46009A05990498FFF744FF084305D0F5
:100A8000012004E02046394607B0F0BD0020C11720
:100A900005430E432C43374300990E986305401AD3
:100AA0007905E40A00220C43FD0A0A3002D5002031
:100AB0000146E9E70105101969410C9C0D9D0019DB
:100AC0006941FFF7A2FFDFE770B54B005B08034306
:100AD0000BD04B005C0D002633466542B341D41762
:100AE000AD1AA34102DB0020014670BD120530188B
:100AF000514170BDFEB500231A461B1A8A4103DB23
:100B00000020014603B0F0BD4A000D0301212D0B6A
:100B10000905520D0D43D10702D100186D41521E37
:100B20005110FF31FF310131002704463E4638465F
:100B300000970191024601210020090500F078F894
:100B4000C3197141F818324684468E464A416146BF
:100B50002846611A904104D36046241A954176468E
:100B60001F46241900986D41401C00903428E1DD97
:100B7000F91930467041091BA84103D20022D24323
:100B8000134601E00022134601980105381C71410B
:100B9000FFF73BFFB6E700004A0009030123090BFA
:100BA0001B0519430A4B10B5520D9A4202DA002078
:100BB000014610BD064B34339A4203DC9A1A00F00A
:100BC00037F810BD034BD218FFF79CFE10BD000094
:100BD000FF030000CDFBFFFF10B5002904DB01245B
:100BE000E40740428C412146002B04DB1C460123D4
:100BF000DB075242A341994200D1904210BD000050
:100C00001CB5094800900948019005460126009C42
:100C100005E0E36807CC33430C3C98471034AC4202
:100C2000F7D3FFF751FA00000871000028710000A7
:100C300010B5202A04DB0846203AD040002110BD20
:100C40000B46D340D0402024A21A914008431946B5
:100C500010BD420005D04200120E52428A4201DB12
:100C600000207047C9050818704784B002900191B0
:100C700000200090FFE700980199884210DAFFE712
:100C8000029800994900405A002804D0FFE703A9C0
:100C90000020087008E0FFE70098401C0090EAE799
:100CA00003A901200870FFE703A8007804B070478B
:100CB00080B582B0022000900021019101F090F9EE
:100CC0000098019901F092FF02B080BD80B582B01A
:100CD000124800F035FD014601A80170007800F0CF
:100CE00083FD0F48007801280AD1FFE70C49002056
:100CF00008700C4800F0D8FE0B4800F0DFFEFFE75C
:100D000008480A4A0A4B022102F010FD0648094A27
:100D1000094B082102F00AFD02B080BD00201040FE
:100D2000100520203A0020202C0120200C0020203B
:100D300008002020140020201000202080B584B05E
:100D4000039003980068002801D1FFE718E003989A
:100D500000680290FFE7029840680190029802F054
:100D600013FF01980290FFE70298039909688842EF
:100D7000F1D1FFE703990020086003994860FFE77D
:100D800004B080BD81B000900099002008600099F7
:100D9000486001B07047000080B584B002900191B6
:100DA00002F02AFE0090009800280AD1FFE71648BA
:100DB000164903F0E9FE02F0D7FE0020C04303907D
:100DC0001FE001980099086002980068002809D186
:100DD000FFE700980299086000980299486000981F
:100DE00040600BE0009802994968486000980299B9
:100DF00048600298006800994860FFE7002003906F
:100E0000FFE7039804B080BDAD0220209F6F000073
:100E100010B598B05D480078C007002806D0FFE7FD
:100E2000604817905C4960480860ACE002F0C6FE7C
:100E3000169057480068C117890F41180322914343
:100E4000401A1590032800D99BE01598810001A055
:100E500040588746650E0000BD0E0000F50E0000EC
:100E60004B0F000002F07CFF0F9010914B4801687F
:100E70003F200006FFF7ADF9FFF79DFC02460F98F3
:100E80000B4610990124E407A343FFF7D7FA11900A
:100E900012911698FFF78FFC0246119813920B4699
:100EA00012991493FFF732FB139A149B6140FFF7DA
:100EB0002DFBFFF794FC3849086063E002F050FF17
:100EC0000022374BFFF7BAFA0B900C911698FFF7F8
:100ED00072FC02460B980D920B460C990E93FFF78D
:100EE00015FB0D9A0E9BFFF711FBFFF778FC2A49C3
:100EF000086047E002F034FF05900691274801683A
:100F00003F200006FFF765F9FFF755FC02460598FC
:100F10000B4606990124E407A343FFF78FFA0790D5
:100F200008911698FFF747FC0246079809920B466E
:100F300008990A93FFF7EAFA099A0A9BFFF7E6FA7B
:100F4000FFF74DFC144908601CE002F009FF002285
:100F5000104BFFF773FA019002911698FFF72BFCE4
:100F60000246019803920B4602990493FFF7CEFACA
:100F7000039A049BFFF7CAFAFFF731FC06490860A1
:100F800000E0FFE7FFE718B010BDC046540920207D
:100F9000A80220200000E0BFA0022020240620207C
:100FA0000000E03F00003643000036C3811E091FE9
:100FB00000BFFCD2704784B0039002910192039865
:100FC0000068009000980199884300900098029969
:100FD000019A114008430399086004B0704700006B
:100FE00082B001900091009B0199094A88581843EA
:100FF000885002B07047C04682B001900091009BBB
:101000000199034A88581843885002B07047C04677
:101010004810000082B0019000910098019995223B
:101020005201885002B0704782B001900091009840
:10103000019995225201885002B0704782B0019008
:1010400000910098019995225201885002B0704792
:1010500082B0019000910098019995225201885028
:1010600002B0704782B001900091009B0199BB4A89
:1010700088581843885002B07047C04682B001902B
:10108000009100980199024A885002B07047C0460A
:10109000D012000081B0009000990120C202B54832
:1010A000885001B07047C04682B00190009101980D
:1010B000024940580099084002B0704738100000BB
:1010C00010B584B0069C039002910192009302989F
:1010D00001990843009908430699084303490843C6
:1010E000039989001F4A885004B010BD8100040094
:1010F00081B00090009881001A4A8120885001B088
:101100007047C04610B584B0069C039002910192CE
:1011100000930298019908430099084306990843EF
:1011200081210843039989000E4A885004B010BDFC
:1011300082B0019000910098034908430199890009
:10114000084A885002B070478000040082B00190C5
:10115000009100988021084301998900014A885034
:1011600002B070470480424082B001900091019823
:101170002721C90140580099084002B0704782B049
:101180000190009101982721C90140580099084019
:1011900002B0704782B00190009101982721C901E7
:1011A00040580099084002B0704782B00190009109
:1011B00001982721C90140580099084002B07047A2
:1011C00082B00190009101982721C90140580099EF
:1011D000084002B07047000081B000900099EB4ACF
:1011E000EB48885001B0704782B001900091009B9D
:1011F0000199034A88581843885002B07047C04686
:101200000815000082B001900091009B0199034AEB
:1012100088581843885002B07047C04690130000A9
:1012200082B00190009100980199114A885002B053
:101230007047C04682B001900091009801990C4A15
:10124000885002B07047C04682B00190009100986B
:101250000199074A885002B07047C04682B0019099
:10126000009100980199024A885002B07047C04628
:101270009012000082B001900091009B0199034AF6
:1012800088581843885002B07047C0460C150000BB
:1012900082B001900091009B01999D2042018858E5
:1012A0001843885002B070470649086801229043ED
:1012B00008607047034908680122120290430860E1
:1012C0007047C04608010B4081B001466846017076
:1012D00000780249086001B07047C04608030B401F
:1012E00080B582B0014601A8017001780F480F2235
:1012F000FFF761FE02B080BD80B582B0014601A853
:101300000170017802480322FFF755FE02B080BD4C
:1013100000010B4080B582B0014601A80170017840
:1013200002483022FFF747FE02B080BD04010B40A7
:1013300081B000900099024A0120885001B07047A6
:101340000811000082B001900091009B0199DE4AD3
:1013500088581843885002B07047C04628100000D3
:1013600081B0009000990120C202DD48885001B090
:101370007047C0460100002681B00090009881218E
:1013800049014058C0B201B070470000F0B5C14AF1
:1013900082183B4BC31808794E793A4D764C002E93
:1013A00023D0202804D00526F601002803D003E02E
:1013B000354E002800D18826576F2F403743576796
:1013C000976F2F4037439767566B26405663966B4F
:1013D000264096630026566596658F26F6435F681D
:1013E00037405F609F6837409F608E79096820288A
:1013F0000BD0002819D1491E5160D76E2F4088218B
:101400000F43D7661746703719E0491E5160D16EF9
:1014100029401D4F3943D166116F29403943116767
:1014200001214907194D174609E049085160D76E57
:101430002F400521C9010F43D766174670373C6816
:101440002C400C433C60D16A4B4C2140D162116B63
:10145000214011630021D16411658F21C943D46FEC
:101460000C40D4671C680C401C600643BD20304013
:101470001168074B0B40C018801C1060F0BDC046BF
:101480008418000024493E0001040000FFFFFFCF44
:101490004000FFCFB0B54A686E4BC2507D4A8018FD
:1014A0000A78222A58D8930001A4E3589F46C046E0
:1014B0004F150000591500004F1500005915000088
:1014C0005915000059150000591500005915000064
:1014D0005915000059150000591500005915000054
:1014E0005915000059150000591500005915000044
:1014F0003D150000591500003D150000591500006C
:101500005915000059150000591500005915000023
:101510005915000059150000591500005915000013
:101520005915000059150000591500005915000003
:101530003D150000591500003D15000003231B0751
:1015400004689C4301235B07E318036004E0032362
:101550001B0704689C4304600B69C360CB68054C9F
:101560001C40C36A044D1D402B19C362097A114304
:101570000160B0BD777702008888FDFF81B00090E0
:101580000099784A7848885001B0704704080000F4
:10159000030000B182B001900091009801991122DE
:1015A0001202885002B0704710B507239B041940FF
:1015B00092008018024A84589C436118815010BDE3
:1015C0003018000010B5029CA40000191143194303
:1015D000014A815010BDC04650180000920080188A
:1015E000014A81507047C0461018000010B5012212
:1015F000120383180C789C604B7883508978014AD9
:10160000815010BD0C11000010B586B001930B463F
:1016100001460198059104A90B8003AB1A8002AA28
:10162000108005981B4C001909881B8819431288E3
:101630001143024AFFF7BFFC06B010BD80FF000057
:1016400082B00190009100980199024A885002B03E
:101650007047C0460818000081B0009000990D4AFC
:10166000885801231843885001B0704781B000901A
:101670000099084A885801231843885001B07047E0
:1016800081B000900099034A88580123184388507C
:1016900001B070470418000081B00090009911203B
:1016A0000202885801231843885001B07047000097
:1016B00082B001900091009B0199034A8858184319
:1016C000885002B07047C0462810000081B00090DA
:1016D00000990120C2020248885001B07047C046FC
:1016E0000100002681B000900098812149014058F6
:1016F000C0B201B070470000B0B511221202835889
:101700000124A34383500B888C781C438B8823438C
:10171000094C1C408358094D1D40631983508B7937
:10172000CC791C43097A21437E23194080184268F2
:101730009A4351184160B0BD18670000E798FDFF5B
:1017400081B00090009802494058C0B201B0704783
:101750002411000081B000900099024A024888508C
:1017600001B0704704080000030000B180B584B0E8
:1017700003900291019203980B49401802990B4A79
:10178000FFF719FC03980A49401801993F22FFF717
:1017900012FC0399074A8818895801221140FFF763
:1017A0000AFC04B080BDC04610110000FFFF00001D
:1017B000141100000411000010B501221203831857
:1017C0000C789C604978815010BD80B582B0019042
:1017D0000091019811210902401800990322D203B7
:1017E000FFF7E9FB02B080BD80B584B0014603A8D5
:1017F0000170007812280BD1FFE7304901200870F2
:1018000003982F4B1A78511C19702E49885452E0B6
:101810002A48007800280CD1FFE7DE48006801283C
:1018200001D1FFE747E0DB49032008602749086052
:1018300041E00398224B1A78511C197021498854B1
:1018400003A800785B281AD1FFE71C49002002900A
:1018500008701B49087093481A490191642200924C
:10186000FEF742FC00990198174B01221A70FEF70F
:1018700054FC0298C749086014490860FFE7104803
:101880000078642815DBFFE7C2480068012801D111
:10189000FFE710E0BF49032008600C4908600749D2
:1018A000002008700649087006486421FEF735FCE0
:1018B000FFE7FFE7FFE704B080BDC046310020200E
:1018C000300020207401202010052020140020204A
:1018D00085B00290EFF3108072B604907E480068E5
:1018E000019062B6FFE7EFF3108072B603907A487A
:1018F0000068009062B600980199401A02998842E7
:1019000001D3FFE700E0EEE705B0704781B000903B
:1019100001B0704780B582B091482649FFF7C4FBFB
:10192000019001A80078400700281BD5FFE701209F
:1019300041058B48FFF718FC002809D1FFE71E4935
:1019400048680A680023521E98410A60486008E00F
:10195000194948680A680023521C58410A604860C7
:10196000FFE720E001A88078800600281AD5FFE76D
:101970007B480421FFF7F8FB002809D1FFE70E4957
:1019800048680A680023521C58410A60486008E011
:10199000094948680A680023521E98410A60486055
:1019A000FFE7FFE7FFE76E480249FFF725FB02B0BC
:1019B00080BDC046040020004005202080B582B0D4
:1019C00000900098002809D1FFE72248074903F05A
:1019D000DBF802F0C9F80020019002E00248019013
:1019E000FFE7019802B080BD0048E801C86E000022
:1019F00080B586B0049003910398002809D1FFE7D1
:101A00001448154903F0C0F802F0AEF80020059024
:101A10001CE004980021FEF70DFE002806D1FFE728
:101A200004980121C90748400490FFE704980399EE
:101A300001914969FEF712FC01998969FEF7D1FB12
:101A4000FEF7A5FE029002980590FFE7059806B004
:101A500080BDC046AD0220207F6F000080B584B0FD
:101A600003900291019200200090FFE700980299F4
:101A7000884215DAFFE7009803994218094881184F
:101A8000805C497800F02AF80199009AD30FD218A7
:101A900001239A438852FFE70098801C0090E5E7F5
:101AA00004B080BD5005202080B582B00190019A1D
:101AB00002200821FFF7D2FF02B080BD80B582B0BE
:101AC0000190019A0A201021FFF7C8FF02B080BDE3
:101AD000014800687047C0464C06202082B00A4684
:101AE000014601A8017069460A7000780002097871
:101AF000401802B07047000080B584B0012001900A
:101B00008102009116480290FFF7A8FB0199029804
:101B1000C9020391FFF7A2FB00990298FFF798FA18
:101B20000198FFF7F3FE02980399FFF791FA04B0CA
:101B300080BDC04680B584B0012001908102039130
:101B400007480290FFF784FA01990298C902FFF74B
:101B500085FB02980399FFF781FB04B080BDC04666
:101B600000000A4080B582B00A480068012809D107
:101B7000FFE709480021009101F03CFE009801A90F
:101B8000087003E001A901200870FFE701A80078B0
:101B900002B080BD0C0020200000B4C270B586B039
:101BA0006C493548086001204005486005A90020BF
:101BB0000870FFE705A80078002838DCFFE705A9D2
:101BC00001910A781C23029318465043614A0392FC
:101BD0001418002020720D781C466C43151901243E
:101BE0006C720E781D4675435519AC720D781C4603
:101BF0006C431419E0600D781C466C431419206185
:101C00000D781C466C43141960610D781C466C43BA
:101C1000141920760C786343D21850760A78EF496D
:101C20008854FFE70598401C05A90870C2E704A97D
:101C300000200870FFE704A80078002819DCFFE7FF
:101C400004A80090007800F061F8009A034610782C
:101C50001C210C464443E048041963721278514336
:101C60004118487A8872FFE70498401C04A908705C
:101C7000E1E706B070BDC04600200A4082B00146D0
:101C8000684601700078012804DBFFE701A9002005
:101C9000087013E068460178D048405C042809D1F8
:101CA000FFE768460278CD490020885401A9012049
:101CB000087003E001A900200870FFE701A8007880
:101CC00002B0704782B00146684601700078012872
:101CD00004DBFFE701A90020087013E068460178E3
:101CE000BE48405C032809D1FFE768460278BB493B
:101CF0000020885401A90120087003E001A90020F8
:101D00000870FFE701A8007802B0704780B584B082
:101D1000014602A801700078012804DBFFE703A94F
:101D20000120087012E002A800781C214143AA4853
:101D300040180190019908684968FFF736FA009049
:101D40000098411E884103A90870FFE703A80078A6
:101D500004B080BD1C05202080B582B001A9002000
:101D60000870FFE701A8007800280ADCFFE701A857
:101D7000007800F009F8FFE70198401C01A90870FD
:101D8000F0E702B080BD000080B586B0014605A82E
:101D900001700078012801DBFFE71BE105A8009036
:101DA00000781C2141438C4840180490FFF790FEB6
:101DB0000146009803910078FFF7A8FF0499487244
:101DC0000498007A0190042800D9FFE0019881006E
:101DD00001A040588746C046ED1D0000111E0000BE
:101DE0004D1E0000F91E00003D1F00000498407ABF
:101DF00000280CD1FFE70498807A012807D1FFE77B
:101E000004990120087203980499C860FFE7E1E093
:101E10000498407A002814D1FFE703980499C96810
:101E2000401A14280CD3FFE704990220087205A871
:101E300002786A4901208854049900204876FFE717
:101E400003E0049900200872FFE7C3E00498407A99
:101E5000012832D1FFE70398049908610398049997
:101E6000C968401A02900298322810D3FFE70298FE
:101E7000C0087C280BD8FFE70499087E401C087630
:101E80000398049948610499042008720FE00298AD
:101E9000C0087D2806D3FFE7049900200872049942
:101EA000087603E0049900200872FFE7FFE705A821
:101EB00002784A49022088541DE00498407EC007F9
:101EC000002817D1FFE703980499C968401AC00891
:101ED0007D280FD3FFE70499012048760499032059
:101EE000087205A802783D49042088540398049993
:101EF0004861FFE7FFE76DE00498407A01280BD1C5
:101F0000FFE70499002008720499087605A8027872
:101F100032490220885410E0039804994969401A14
:101F2000C82809D3FFE705A802782C490520885462
:101F3000039804994861FFE7FFE74BE00498407A73
:101F400000282DD1FFE70498807A012828D1FFE7E7
:101F5000039804990969401A4B21890088420FD8D7
:101F6000FFE705A802781D4906208854049900203F
:101F7000087604990120087203980499C8600EE05D
:101F800005A8027815490320885404990020087692
:101F900004990120087203980499C860FFE714E0CF
:101FA000039804990969401AFF212E3188420BD306
:101FB000FFE705A802780949032088540499002006
:101FC000087604990872FFE7FFE703E00499002010
:101FD0000872FFE706B080BD1C05202018052020F0
:101FE00080B582B00A46014601A8017069460A80A0
:101FF000007809882F4A00F04DF902B080BDC04634
:1020000080B582B0014601A801806A4600211170A6
:10201000405E002808D5FFE7694601200870019856
:10202000404201A90880FFE7002101A8405E7349F2
:10203000884205DBFFE77D20C00001A90880FFE79B
:102040006846007801A90988FFF7CAFF02B080BD81
:1020500080B582B00E20019001F01EFC019801F0C5
:1020600045FC02B080BD000080B588B0002004901F
:1020700003900121069102910D4805900190C8043A
:1020800000900C488A040C4B0793194600F0BCF8EA
:10209000049A05980699079B0392029201904804BE
:1020A000009006480A04CA4900F0AEF808B080BDA6
:1020B00000A086405000202000200A40400120203F
:1020C00080B58CB003460BA8079003800AAB19803B
:1020D00009A905910A8042490891424A00210691C6
:1020E0001160405EFEF705FB0699024605983E4BDF
:1020F0001A60405EFEF7FDFA3C49FEF7AFF808991A
:10210000FEF76FF8069902460798394B1A60405E51
:10211000002814D1FFE700210AA8405E00280ED154
:10212000FFE7002109A8405E002808D1FFE7002052
:10213000049000F06DFD0498FFF762FF4EE02A481E
:10214000029000682A4901910968FDF7F1FFFEF746
:1021500005FB019902460298264B03931A6000681A
:102160000968FEF736F8FEF7F9FA01460398224AA5
:10217000116000682149884205DBFFE71D497D2089
:10218000C0000860FFE71B4800681D49884204DC66
:10219000FFE718491B480860FFE717480068174920
:1021A000884205DBFFE714497D20C0000860FFE797
:1021B000114800681249884204DCFFE70E491148C3
:1021C0000860FFE7002100910A48405EFFF718FF12
:1021D00000990948405E00F01BFDFFE70CB080BD90
:1021E0000000E642340620203006202000007A4419
:1021F00038062020280620202C062020E903000095
:1022000017FCFFFF18FCFFFF70B586B00C460546B3
:102210000D980C990B9E0A9E0595049403920293C7
:1022200001AA1170694608800598002804D0FFE7CC
:102230000B98002801D1FFE729E004980599086070
:102240000398059948600298059988600A9805994D
:10225000C8600B9805990861019805990875009860
:102260000599C88205998868C968FEF7DDFE059959
:1022700008684968FEF7D8FE05980069FFF7F6F987
:10228000059A1069D18A127DFFF7A8F9FFE706B019
:1022900070BD000080B584B003AB187002A8018047
:1022A00001920198002801D1FFE74AE003A80078D5
:1022B000009004283BD80098810001A04058874630
:1022C000D5220000EB2200000123000017230000AC
:1022D0002D230000019908684968FEF7A1FF0199C4
:1022E0008868C968FEF7A0FE21E00199086849687E
:1022F000FEF79AFE01998868C968FEF791FF16E01B
:10230000019908684968FEF78BFF01998868C968D8
:10231000FEF786FF0BE0019908684968FEF784FE26
:1023200001998868C968FEF77FFE00E0FFE7029820
:102330000199C882019A1069D18A127DFFF74EF97E
:10234000FFE704B080BD000080B582B001A9002085
:102350000870FFE701A8007807280FDCFFE701A855
:102360000178002000F0F6F80548802100F04FFACF
:10237000FFE70198401C01A90870EBE702B080BD9F
:102380008000202080B584B003A90120009008704F
:10239000810202916E480190FEF760FF009901985A
:1023A000C902FEF75BFF01980299FEF709FF0028BA
:1023B00004D1FFE703A900200870FFE70120C10254
:1023C0006348FEF745FE03A8007804B080BDC04610
:1023D00000000A4080B584B06420FFF779FAAE208F
:1023E0000021039100F094F90399084600F090F958
:1023F0000399102000F08CF903994020019000F01F
:1024000087F90399812000F083F90399CF2000F028
:102410007FF90399A12000F07BF90399C82000F00F
:1024200077F90399A620029000F072F90399A82089
:1024300000F06EF903993F2000F06AF90399D32068
:1024400000F066F90399084600F062F90399D52077
:1024500000F05EF90399802000F05AF90399D92021
:1024600000F056F90399F12000F052F90399DA20AF
:1024700000F04EF90399122000F04AF90399DB208D
:1024800000F046F90198039900F042F903992020E1
:1024900000F03EF90399022000F03AF903998D20EB
:1024A00000F036F90399142000F032F90399A420C2
:1024B00000F02EF90298039900F02AF9FFF744FF83
:1024C0000399AF2000F024F904B080BD80B586B038
:1024D00005A9087004A900200870FFE704A8007887
:1024E000072833DCFFE70120C1021948FEF7B0FDE1
:1024F00005A800780006002806D5FFE70120810224
:102500001348FEF7ABFE05E0012081021048FEF7FC
:102510009FFDFFE701200190FFF7F8F90198C10244
:1025200003910B480290FEF799FE0198FFF7EEF930
:1025300002980399FEF78CFD0598400005A90870E4
:10254000FFE70498401C04A90870C7E706B080BDE7
:1025500000000A4080B584B000910246009803A9AB
:102560000A7002AA1070029AB03201A802700A78AA
:1025700012091032427009780F2211408170032134
:1025800000F0FFF804B080BD10B58CB00BAC20702B
:102590000AA8017009A8027008A8037007AA002100
:1025A00011700278520806AB1A7005AA11800078E3
:1025B000082804D1FFE704A90620088012E008A833
:1025C00001780191C80802904907401C0029039036
:1025D00001D102980390019803994008484304A947
:1025E0000880FFE70998203807A908700BA8007831
:1025F0000AA90978FFF7AEFF05A900200880FFE7C8
:1026000005A8008804A90988884242DAFFE705A8DE
:10261000008806A90978FEF7FEF800290ED1FFE729
:1026200008A80078082809D0FFE70BA800780AABB3
:1026300019784A1C1A70FFF78DFFFFE708A8007889
:1026400008280DD1FFE707A8007806214143134869
:10265000401805A90988405C012100F059F812E0F2
:1026600008A8007810280CD1FFE707A8007801011E
:102670000948401805A90988405C012100F048F884
:1026800000E006E0FFE7FFE70598401C05A9088089
:10269000B6E70CB010BDC046646800003C660000A0
:1026A000B0B586B005AC207004A80170039202A8F2
:1026B000037001A900200870FFE7039801A90978B9
:1026C000405C002822D0FFE705A8007804A909781B
:1026D000039A01AD2B785C1C2C70D25C02AB00938A
:1026E0001B78FFF751FF00980078082805D1FFE715
:1026F0000598801D05A9087007E002A80078410828
:102700000598401805A90870FFE7D6E706B0B0BDE8
:1027100080B582B001AA107068460170FFF7ECF92D
:102720007820FFF7D3FEFFF72DFE002803D0FFE748
:10273000FFF700FA23E068460078002804D0FFE79E
:102740004020FFF7C3FE03E00020FFF7BFFEFFE7D6
:10275000FFF718FE002803D0FFE7FFF7EBF90EE0C4
:1027600001A80078FFF7B2FEFFF70CFE002803D0A7
:10277000FFE7FFF7DFF902E0FFF7DCF9FFE702B060
:1027800080BD80B584B0039002A801700078002855
:1027900001D1FFE739E0FFF7AFF97820FFF796FEA8
:1027A000FFF7F0FD002803D0FFE7FFF7C3F92CE0A7
:1027B0000020FFF78BFEFFF7E5FD002803D0FFE7C1
:1027C000FFF7B8F921E001A900200870FFE701A890
:1027D000007802A90978884214DAFFE7039801A972
:1027E0000978405CFFF772FEFFF7CCFD002803D0AC
:1027F000FFE7FFF79FF908E0FFE70198401C01A9F8
:102800000870E4E7FFF796F9FFE704B080BD80B5F4
:1028100084B0039002A801800088002801D1FFE75E
:1028200027E0FFF769F97820FFF750FEFFF7AAFDD0
:102830004020FFF74BFEFFF7A5FD01A9002008800F
:10284000FFE701A8008802A9098888420EDAFFE79D
:10285000039801A90988405CFFF738FEFFF792FD55
:10286000FFE70198401C01A90880EAE7FFF762F939
:10287000FFE704B080BD000010B58AB00890079152
:10288000069205930898002803D1FFE700200990DD
:1028900036E008984068B449FDF7B0FE002804D13E
:1028A000FFE70899B04848600CE00898406816496E
:1028B000FDF7C0FE002804D1FFE7089912484860E0
:1028C000FFE7FFE7079801900899039108680090D7
:1028D00006984968FDF785FC009902460198029226
:1028E000FDF77FFC0299FDF723FC039904900598FE
:1028F0008968FDF776FC0499FDF71AFC0990FFE75B
:1029000009980AB010BDC04600007AC410B58EB058
:102910000DAC20800C910B920A93002109910D9A25
:1029200008A80280405EFDF7E4FE014630480790AB
:102930000068FDF7FDFB01460798016000682D491E
:10294000FDF75CFE002804D1FFE72949294808600B
:10295000FFE7274800682849FDF76CFE002804D1EE
:10296000FFE7234924480860FFE70021039108A8F6
:10297000405E0490FDF7BDFE01900C9800900B980E
:102980001B490968FDF72DFC009902460198029247
:10299000FDF727FC0299FDF7CBFB039A014604984B
:1029A000059116490691895E401AFDF7A2FE0A9923
:1029B000FDF717FC0599FDF7BBFB069909900898F0
:1029C000088009980E49FDF719FE002803D1FFE79A
:1029D0000B480990FFE709980A49FDF72BFE0028EC
:1029E00003D1FFE707480990FFE709980EB010BD33
:1029F000000120200000FA430000FAC30401202057
:102A000000409C4500409CC581B000900098002883
:102A100001D1FFE707E000990020086000994860B5
:102A200000998860FFE701B07047000080B590B062
:102A300000210F910E9144480D900C910B910A903A
:102A400042480068099042480078C00700280DD02D
:102A5000FFE74848FFF7D8FF4748FFF7D5FF3C4955
:102A60000020087009983F4908606AE0002008903B
:102A7000079038480078C00700280CD1FFE7364897
:102A80000068002807D1FFE7344800680890344800
:102A90000068079040E02F480078C00700283AD02F
:102AA000FFE72C490020087009982E490391096816
:102AB000401AFDF729FE2C49FDF7D0FB06902B4864
:102AC00002902B4901910A680168069B29480490ED
:102AD00000F056F8019902984A684168069B26481A
:102AE000059000F04DF8039A0498099911600F9B26
:102AF0000E9A0D99FFF7C0FE01460120C007FDF7B1
:102B000068FB0146059808910C9B0B9A0A99FFF700
:102B1000B3FE0790FFE7FFE7184800904168079869
:102B2000FDF706FB01460098079101680898FDF73C
:102B3000FFFA08900799089800F05CFE00F08CFE00
:102B4000FFE710B080BDC046CDCC4C3E4C062020E7
:102B50002C002020110520200C0020200C0120201A
:102B6000080120201001202000007A444406202083
:102B7000380520201401202020012020A002202040
:102B800010B588B007900691059204930798002825
:102B900007D0FFE704980021FDF75AFD002801D176
:102BA000FFE721E007980068039006980599FDF774
:102BB00010FB07990860079A0192106804995268FF
:102BC0000092FDF70EFB0099FDF7B2FA01994860FB
:102BD0000798029000680399FDF7FBFA0499FDF746
:102BE0003DFB02998860FFE708B010BD80B582B058
:102BF0000A46014601A8017069460A8000780988E2
:102C0000024AFFF747FB02B080BDC04640012020CA
:102C100080B582B0014601A801806A46002111708A
:102C2000405E002808D5FFE769460120087001983A
:102C3000404201A90880FFE7002101A8405E084941
:102C4000884205DBFFE77D20C00001A90880FFE77F
:102C50006846007801A90988FFF7C8FF02B080BD67
:102C6000E903000085B003900291002001900090DC
:102C7000FFE7009807280EDCFFE700991148405C49
:102C8000002804D1FFE70198401C0190FFE700985D
:102C9000401C0090EDE701980299884209DCFFE7AB
:102CA00001980399884204DBFFE704A9012008701A
:102CB00003E004A900200870FFE704A8007805B02D
:102CC0007047C0463200202010B586B004460898F0
:102CD000059404910392029301A9087005980028B5
:102CE00004D0FFE70298002807D1FFE79E48174964
:102CF00001F04AFF00F038FF26E0049805990860CB
:102D0000039805994860029805998860019805998B
:102D1000087305990020009048620862059AC14333
:102D20009162059948630863059908684968FEF748
:102D300085F905988068FEF7A3FC0099059A9068CC
:102D4000127BFEF74BFCFFE706B010BD0F6F0000D3
:102D500010B584B0039002A801700192009303980B
:102D6000002807D1FFE78048084901F00DFF00F077
:102D7000FBFE09E0029803990874019803994861E1
:102D8000009803998861FFE704B010BD596F0000F7
:102D900080B588B0079006910798002805D0FFE716
:102DA00007988068002807D1FFE76F48484901F07D
:102DB000EBFE00F0D9FE85E00698FDF7FCFC0A4624
:102DC00007994A62086207983F4988420BD1FFE79A
:102DD000079908684968FEF7D2F9002803D1FFE790
:102DE00001200590FFE70698FDF7E5FC0122D207D8
:102DF000914300231A46FDF765FC002807D0FFE742
:102E0000079988680A7B0021FEF7E8FB5AE00698DC
:102E10000021FDF7F3FB002812D1FFE70798007CA3
:102E2000012806D1FFE7079908684968FEF70CFA00
:102E300005E0079908684968FEF700F9FFE716E022
:102E40000798007C012806D1FFE7079908684968C0
:102E5000FEF7F4F805E0079908684968FEF7F4F909
:102E6000FFE706980121C90748400690FFE7FFE702
:102E700007988068FEF7A2FD049007990698FEF770
:102E8000B7FD03900120400202900498039A029932
:102E90005143FDF7C0FC401E019001A84088002866
:102EA00003D0FFE709480190FFE707988068019980
:102EB000FEF7C6FB079A906801994908127BFEF756
:102EC0008DFBFFE708B080BD58092020FFFF000000
:102ED000E36E000080B588B007900798002807D1FE
:102EE000FFE72148214901F04FFE00F03DFE33E0AD
:102EF0000798806A401C002805D1FFE71748006842
:102F00000799886228E0154800680690079905919E
:102F1000086A0190486A02900698896A401AFDF78B
:102F20000FFC024601980B460299FDF787FA059AB5
:102F3000136B0393526B0492094A0A4BFDF77EFA16
:102F4000039A049BFDF7C8F90A4605994A6308638A
:102F5000069807998862FFE708B080BD4C062020DC
:102F6000FCA9F1D24D62503FAD022020376F000026
:102F700080B582B00B490C480190FEF71DFC01980A
:102F80000A49FEF7B9FB01980021FEF71EFC0198E3
:102F9000D0211522FEF7EAFB0198FEF77DFB02B077
:102FA00080BDC046746E000000801040766E000048
:102FB00080B58EB0262006210291FEF7C7F80120C9
:102FC0000990410405917C480A90FEF757F8029950
:102FD0002720FEF7BBF809990A988904FEF74EF8F6
:102FE00003200521FEF7B2F809990A984907FEF770
:102FF00045F804210846FEF7A9F809990A988907B7
:10300000FEF73CF80B2002210191FEF79FF8019991
:103010000C20FEF78DF801993420FEF797F80199FE
:103020003520FEF785F809980023069300930204E3
:10303000039231201946FEF765F8059A069909981A
:103040000091C30404933020FEF73AF8039A069BDC
:1030500000931E201946FEF755F8039A069B00932D
:103060001F201946FEF74EF820200890FEF740F882
:103070000E20FEF73DF8039A069B00932520194683
:10308000FEF740F8039A069B00932A201946FEF7A4
:1030900039F8039A069B00932B201946FEF732F865
:1030A000039A069B00932C201946FEF72BF80298F2
:1030B000049B069A00921146FEF702F8049B069ABA
:1030C00000922D201146FDF7FBFF039A049B069901
:1030D00000911620FDF7F4FF039A049B06990091D6
:1030E0001720FDF7EDFF039A049B06990091182025
:1030F000FDF7E6FF039A049B069900911920FDF75E
:10310000DFFF039A049B069900912120FDF7D8FF69
:10311000039A049B069900913820FDF7D1FF039A8A
:10312000049B069900913220FDF7CAFF039A049B85
:10313000069900912220FDF7C3FF059A069B009394
:1031400014201946FDF7DEFF059A069B0093152013
:103150001946FDF7D7FF0A98432189020791FDF729
:1031600059FF07990A98FDF789FF0A981021FEF781
:1031700049F809990A988902FEF78AF808990A9885
:10318000FEF732F809990A98C902FEF773F80A980F
:103190000A490B91FDF724FF0A980B99FDF762FF8E
:1031A000C3480C9006490D91FDF734FF0C980D991A
:1031B000FDF764FF0EB080BD00000A40040020004F
:1031C00004C04F0080B582B01049BE480190FEF7A0
:1031D000F3FA01980E49FEF78FFA01980021009149
:1031E000FEF7F3FA019811211722FEF7BFFA0198B2
:1031F00003218902FEF75CFA00990E2000F08CFB97
:103200000198FEF749FA02B080BDC046806E00000A
:10321000826E000080B586B01F49A6480590FEF773
:10322000E5F905981D49FEF7B1F8059800230293CA
:1032300019461A46FEF7E8F9029B059800931946CD
:103240001A46FEF7BFF9029A05981146FEF7ACF947
:10325000029A05987D2189000391FEF7BFF9029B30
:10326000059801210491009119461A46FEF7AAF922
:103270000299049A0598FEF797F90399049A05981C
:10328000FEF7ACF90598FEF753F805980321FEF711
:1032900081F906B080BDC0468C6E0000906E0000C3
:1032A00080B584B0144984480390FEF79FF90398D1
:1032B0001249FEF76BF803980023029319461A4649
:1032C000FEF7A2F9029B0398009319461A46FEF7EF
:1032D00079F9029A03981146FEF766F9029A039863
:1032E0001146FEF77BF90398FEF722F803980121B7
:1032F000FEF750F904B080BD986E00009C6E00008F
:1033000080B584B016496D480390FEF76FF90398B5
:103310001449FEF73BF803980122029251039202EE
:103320008023FEF771F9029903980091002301931D
:1033300019461A46FEF746F90199029A0398FEF7D4
:1033400033F90199029A0398FEF748F90398FDF7BB
:10335000EFFF03980221FEF71DF904B080BDC046BF
:10336000A46E0000A86E000080B582B0002001901D
:10337000FDF7AAFF0198FDF7BFFFFDF795FFFDF7E9
:1033800099FF0198FDF7C6FF0198FDF7A9FF019984
:10339000012000F0C1FA02B080BD80B57D2000029E
:1033A00000F024F980BD000080B582B00A49B4481D
:1033B0000190FEF71BF901980849FEF76BF8019898
:1033C0000121FDF7BFFF1220002100F0A5FA0198AE
:1033D000FDF7AEFF02B080BDB06E0000B46E00001D
:1033E00080B500F023F8FFF7E3FDFFF7BDFFFFF71F
:1033F00011FFFFF755FFFFF783FFFFF7D5FFFFF73B
:10340000B7FDFFF7DFFEFFF7C8FF05499C2200204C
:103410008854044988540449B822885480BDC04661
:1034200014032020B40320205404202080B588B049
:103430001E480090FDF7D0FEEA480190FDF7CCFE53
:103440001C480290FEF79AF8E9480390FEF796F8B8
:10345000E5480490FEF792F889480590FEF78EF84B
:1034600017480690FEF776F98C480790FEF772F938
:103470000098FDF70FFE0198FDF70CFE0298FDF78E
:103480006FFF0398FDF76CFF0498FDF769FF05983F
:10349000FDF766FF0698FEF719F90798FEF716F98B
:1034A0001020FDF783FD08B080BDC04600000A4033
:1034B00000200A4000A086400080864000000940AD
:1034C000008010400020104080B582B00146684660
:1034D0000170007830280ADBFFE768460078392859
:1034E00005DCFFE768460078303801900BE068465D
:1034F00002780648064901F047FB00F035FB002042
:10350000C0430190FFE7019802B080BDAD022020CA
:10351000B970000080B582B022480068002813D13D
:10352000FFE7214800908088FDF7EEF801460098FB
:10353000064A01921160C1880F204001401AFDF730
:10354000D8F801994860FFE702B080BD3805202017
:1035500080B582B013480068002820D1FFE71248E8
:10356000008800281BD0FFE70F484088002816D0AD
:10357000FFE70D4800900088FDF7C6F80146009867
:10358000184A0192116041880F204001401AFDF74E
:10359000B0F801994860144901200870FFE702B0B3
:1035A00080BDC0460C0020203A00202080B584B0A9
:1035B0000B480068002811D1FFE7684600F07EFC48
:1035C000019A009902A801F021F806490398486081
:1035D00002980860044901200870FFE704B080BD2C
:1035E00014002020440620201105202080B584B03E
:1035F00002900298401E000E002803D0FFE7012031
:10360000039011E00298401E0949086000200190D3
:10361000C043032100F080F9019806490860064A7A
:10362000072111600390FFE7039804B080BDC046F6
:1036300014E000E018E000E010E000E080B5094888
:103640000168491C0160354A1168491C1160006815
:103650000A2806D1FFE7FEF77FFB02490020086039
:10366000FFE780BD7001202080B50548FDF784FE8E
:10367000012803D1FFE700F06BFAFFE780BDC046E9
:103680000000864080B50548FEF72CF80B2803D1D2
:10369000FFE7FDF71BFB00E0FFE780BD00201040C7
:1036A00010B58AB01D480068099009981C4909683E
:1036B000401A0A282FD3FFE7099819490091096891
:1036C000401AFDF721F81749FCF78BFD0099089087
:1036D0000998086000F044FB039004910898FDF7F6
:1036E0006AF801900291104807900068FDF763F8AE
:1036F000019A029B0446039805940C46049906948B
:10370000FCF79CFE059A069BFCF7E6FDFDF767F8C3
:1037100007990860FFE70AB010BDC0464C0620209C
:10372000D80120206F12833A2406202080B584B06F
:1037300003900291019200930198006803281CD025
:10374000FFE703980299FDF790FA00280ED0FFE7F3
:1037500000980068002804D1FFE701990220086062
:1037600003E0019901200860FFE705E001990020CE
:10377000086000990860FFE7FFE704B080BD000023
:1037800080B588B001200290010416480390FDF72F
:1037900051FD03980421FDF74DFD029A0399009213
:1037A00031480190D203104BFFF78EFA019802992D
:1037B0002122530607930D4A0692FFF7C9FA029A8F
:1037C0000399002005900090284804909203084B2C
:1037D000FFF77AFA04980599069A079BFFF7B8FA5B
:1037E00008B080BD00200A40000009406666E63F40
:1037F0000080864080B584B0039002911B49086B1D
:10380000496B0022124BFCF747FF00280AD1FFE763
:103810001649086B496B00220E4BFCF727FF002866
:103820000AD1FFE7114800210191FFF7B1FA019990
:103830000D48FFF7ADFA08E003990B48FFF7A8FA27
:1038400002990A48FFF7A4FAFFE704B080BDC0461A
:1038500000804640008046C080B50348FFF73AFB31
:103860000248FFF737FB80BD58092020E0052020E3
:1038700081B001466846017000214056002809D4F5
:10388000FFE7684601781F200140012088400C496D
:103890000860FFE701B0704781B0014668460170DB
:1038A00000214056002809D4FFE7684601781F2010
:1038B00001400120884002490860FFE701B07047DD
:1038C00080E200E081B00146684601700021405668
:1038D000002809D4FFE7684601781F200140012035
:1038E00088400C490860FFE701B0704781B001468D
:1038F0006846017000214056002809D4FFE7684659
:1039000001781F2001400120884002490860FFE73C
:1039100001B0704700E100E070B582B0024601A836
:103920000270009100214056002816D4FFE70024C1
:1039300001A908570322D3431840174A8058095752
:103940008C07E50EFF24AC40A043009CA401E4B228
:10395000AC402043194088501AE001A908780F2490
:10396000204008380322D34318400A4A80580025D3
:1039700049578D07EE0EFF25B540A843009DAD01C8
:10398000EDB2B54028432140083919408850FFE77F
:1039900002B070BD1CED00E000E400E080B584B032
:1039A000039002910398002804D0FFE702980028B2
:1039B00003D1FFE700F0D8F81CE0039802990861F2
:1039C00003988068002804D1FFE702980399886073
:1039D00010E0039880680190FFE70198C068002814
:1039E00004D0FFE70198C0680190F6E702980199BA
:1039F000C860FFE704B080BD10B582B01D480078F4
:103A0000C007002803D1FFE700F0B4FAFFE7002069
:103A10000090FFE700980F2826DCFFE700980C21B4
:103A2000414365484018007AC007002817D1FFE7D6
:103A300000980C210A4642435F48831801221A72FB
:103A4000009A0B4653430022C250009C0B4663432E
:103A5000C3185A60009A51434018019007E0FFE7ED
:103A60000098401C0090D5E700200190FFE70198E6
:103A700002B010BD9C02202010B584B002910190CC
:103A800027480078C007002803D1FFE700F09AFA22
:103A9000FFE700200090FFE700981F2834DCFFE7D5
:103AA00000981821414320484018007DC007002895
:103AB00025D1FFE7009818210C4644431A48031902
:103AC000019A0251029A5A60009B0A465A4383188F
:103AD00000229A60009C0B466343C318DA60009C86
:103AE0000B466343C3181A61009B0A465A43831866
:103AF00001221A75009A5143401803900DE0FFE728
:103B00000098401C0090C7E71E48064901F03CF8A9
:103B100000F02AF800200390FFE7039804B010BDDE
:103B200020062020EB7000005006202080B50021E8
:103B30000846FFF797F880BD80B582B0012001905C
:103B4000FFF796FE0198FFF7BDFE02B080BD0000B2
:103B5000D9494868086888608868C00F08730020E1
:103B6000486008607047C04680B5FDF7A1F8FEF7D1
:103B7000EBFB044A002108230846FEF791FDFFE70E
:103B8000FEE7C046AD02202081B0009000980A49AF
:103B900088420ED3FFE700980749C031884208D217
:103BA000FFE70099002008720099086000994860BA
:103BB000FFE701B07047C046DC01202080B592B01D
:103BC000E1480068C117890F411803229143401A48
:103BD0001090032800D999E01098810001A0405866
:103BE0008746C046F53B00003B3C0000813C00009E
:103BF000C73C0000D54801683F200006FCF7E9FA01
:103C0000FCF7D9FD012293070D9300220C9201F0DD
:103C1000ADFE0C9A0D9B0E900F913F49104601F09E
:103C2000A5FE02460E980B460F99FCF755FB02F0D5
:103C300049FCFCF7D4FD11906BE001208307099348
:103C4000354900220892104601F090FE0A900B912F
:103C5000BE4800683F210906FCF76AFAFCF7ABFD95
:103C6000089A099B01F082FE02460A980B460B99BE
:103C7000FCF732FB02F026FCFCF7B1FD119048E0A6
:103C8000B24801683F200006FCF7A3FAFCF793FD59
:103C90000122930705930022049201F067FE049A23
:103CA000059B069007911D49104601F05FFE0246F4
:103CB00006980B460799FCF70FFB02F003FCFCF794
:103CC0008EFD119025E00120830701931249002207
:103CD0000092104601F04AFE029003919B48016851
:103CE000FF208005FCF775FAFCF765FD009A019B43
:103CF00001F03CFE024602980B460399FCF7ECFAF1
:103D000002F0E0FBFCF76BFD119002E00020119047
:103D1000FFE7119812B080BD0000E03F0000F83FBF
:103D200082B000900098002803D1FFE700200190A6
:103D300003E0009880680190FFE7019802B07047A7
:103D400082B000900098002803D1FFE70020019086
:103D500003E00098C0680190FFE7019802B0704747
:103D600080B5B8B006A8C821FCF7D7F900F09CF8D8
:103D700018490391086000F09BF801460020C043F9
:103D8000049001200029059001D004980590039823
:103D90000599114A009211600068FCF7BDFC0F4ABA
:103DA0000F4BFCF74BFB0246009801920291006812
:103DB000FCF7B2FC024601980B460299FCF73EFB69
:103DC000084A094BFCF73AFB084A094BFCF736FB5B
:103DD00038B080BD28002020240020209A779CA2A3
:103DE00023B9AC3FD9CEF753E3A5BB3FCDCCCCCC68
:103DF000CCCCF03F80B584B003902948009040219E
:103E0000FDF7C8F9014600984A425141039AD17121
:103E10008021FDF7BFF9014600984A425141039ABB
:103E20009171012101910902FDF7B4F9019902464E
:103E3000009853425A41039B5A714902FDF7AAF96F
:103E4000014601984A425141039A117101031548F4
:103E50000290FDF79FF901990246009853425A419A
:103E6000039BDA708906FDF795F9019902460098DF
:103E700053425A41039B9A70C905FDF78BF901998A
:103E80000246029853425A41039B5A704903FDF778
:103E900081F9414248410399087004B080BDC04691
:103EA00000200A4000000A40034880687047C0466E
:103EB0000148007B7047C0464005202080B586B091
:103EC000049021480068401EFCF713FC1F49096854
:103ED00000911F49FCF785F90099FCF729F9059035
:103EE0000598FCF768FC1B4A01921B4B0293FCF7F8
:103EF000A5FAFCF774FC01F07DFC18490391FCF76E
:103F000070F9049908600598FCF755FC019A029B2A
:103F1000FCF794FAFCF763FC02F012FA0399FCF741
:103F200060F901460498416000680D49FCF700F90A
:103F300001460498016040680A49FCF7F9F80499C1
:103F4000486006B080BDC046A8022020240620207C
:103F50000000B44244CD7D5F49DF913F00007042D4
:103F600000801D430000D44280B503200621FEF7E7
:103F700079FE80BD10B581B000200090FFE7009869
:103F80000F2815DCFFE700990C22104648430C4926
:103F90000B1800201872009C13466343C850009B06
:103FA0005A4389184860FFE70098401C0090E6E7F4
:103FB00002490120087001B010BDC0469C022020BB
:103FC000DC01202010B581B000200090FFE70098B0
:103FD0001F281BDCFFE700991822104648430F49B1
:103FE0000B1800201875009C13466343CB1898608B
:103FF000009C13466343CB18D860009B5A43891832
:104000000861FFE70098401C0090E0E702490120AA
:10401000087001B010BDC0462006202050062020A8
:1040200070B592B011AC208010910F920E930020C9
:104030000D900C90274A04A978CA78C178CA78C133
:104040000390FFE70398072817DCFFE7039924484C
:10405000405C00280CD1FFE70398810004A8415878
:104060000D98FCF765F80D900C98401C0C90FFE73C
:10407000FFE70398401C0390E4E70C98012813DB4A
:10408000FFE70D9801900C98FCF733FB014601986F
:10409000FCF7E4F8029002983049FCF7A2F8FCF72C
:1040A0005DFB0D49087000E0FFE70B48002100911F
:1040B00040560E9B0F9A1099FEF728FCFCF74EFB1A
:1040C0000099064A106011A8405E525EFDF7F8FFA5
:1040D00012B070BD546E0000AC022020D805202024
:1040E0003200202080B54B208000FF218B05024943
:1040F0000022FFF795FF80BD0000F04180B584B03D
:1041000000200390FFF76CF962B6FFF715FD00F091
:104110009FFC1148FDF7A0FAFDF79AFFFEF75AF948
:10412000FDF7A2FFFDF73AFD00F008F900F018F8DE
:10413000FFE7002001900949FFF75CFB7D20C000EC
:104140000290FDF7C5FB01990846FFF753FB029863
:10415000FDF7BEFBEDE7C0460000864000002041B1
:1041600080B5704800680068804780BD80B588B021
:10417000FEF7EAF86A480390FCF7E0FD0398FCF7C5
:1041800001FE68480068002807D1FFE76A4A00215D
:1041900008230846FEF784FABFE062480068006919
:1041A00000280DD1FFE75F4800688068002807D12C
:1041B000FFE7604A002108230846FEF771FAACE0E9
:1041C000FD4800680069002811D0FFE7FA48006840
:1041D00001695348FCF7E0FD002807D0FFE7544A87
:1041E000002108230846FEF75BFA96E0FFE7F24855
:1041F0000068FFF795FD0790FFE70798002813D0A8
:10420000FFE707994648FCF7C7FD002807D0FFE7FE
:10421000474A002108230846FEF742FA7DE0079846
:10422000FFF78EFD0790E8E73D4800680690002004
:104230000590FFE706980068002824D0FFE706985D
:104240000068406800281ED0FFE706980068DA4939
:1042500009680969884208D1FFE705A80178324A50
:1042600000200823FEF71CFA09E005A8017806984B
:104270000068426800200823FEF712FAFFE705985D
:10428000401C0590FFE7069840680690FFE70698F7
:10429000234909688842CDD1FFE7059804900020A2
:1042A000059005A8017878203C220823FEF76CF9D8
:1042B000FFE70020FDF7E2FC00280BD0FFE706989F
:1042C000006840680078194908700698006800F096
:1042D00031FB22E00020FDF7F5FC00281CD0FFE7B1
:1042E00006984068069005A8029001787820019011
:1042F000202208230093FEF747F90598401C0499F3
:10430000FCF7A8FA009B01980A46029905920978E1
:104310003C22FEF739F9FFE7CBE708B080BDC04685
:104320003C062020B4052020C36F0000040020209C
:1043300079700000AE70000014700000B0B5B6B027
:10434000FFF740FEFFF716FE9A4841683591006876
:10435000349035993498FFF78FFB014696480160F9
:104360000068002807D1FFE79448954900F00CFC4D
:10437000FFF7FAFBFFE790480190016800200790E3
:104380000861FDF7E1FF019907980B688D4A1A60F3
:104390000B688D4A5A6009680861FDF7D5FF8B48A4
:1043A00041683391006832908948416831910068D2
:1043B0003090884841682F9100682E903399329848
:1043C000FFF75AFB2D9031993098FFF755FB2C9051
:1043D0002F992E98FFF750FB014601982B9100680A
:1043E0002D99FFF7DBFA019800682C99FFF7D6FAB0
:1043F000019800682B99FFF7D1FA774841682A9114
:104400000068299075484168289100682790744891
:10441000416826910068259072484168249100689F
:104420002390714841682291006821902D98029054
:1044300022992198FFF720FB01460298FFF7AEFA78
:104440002D9803902A992998FFF716FB01460398A7
:10445000FFF7A4FA2D98049028992798FFF70CFBF2
:1044600001460498FFF79AFA2D9805902699259809
:10447000FFF702FB01460598FFF790FA2D9806908A
:1044800024992398FFF7F8FA01460698FFF786FA71
:1044900056484168209100681F90554841681E9118
:1044A00000681D90534841681C9100681B90524859
:1044B00041681A910068199020991F98FFF7DCFA5B
:1044C00018901E991D98FFF7D7FA17901C991B9802
:1044D000FFF7D2FA16901A991998FFF7CDFA1590AE
:1044E0002C981899FFF75AFA2C981799FFF756FA53
:1044F0002B981699FFF752FA2B981599FFF74EFA59
:1045000007983E4A10A918CA18C138CA38C10F9076
:10451000FFE70F98042822DCFFE73B480D900F9837
:10452000810010A840580E900E990D98FFF7A4FA3C
:104530000C9018980C99FFF731FA0C98002809D1C3
:10454000FFE70F98421C1D482E4900F01DFBFFF7A6
:104550000BFBFFE7FFE70F98401C0F90D9E7002007
:104560000B90FFE70B98012822DCFFE72448099015
:104570000B98810010A840580A900A990998FFF7F3
:104580007BFA089016980899FFF708FA089800280F
:1045900009D1FFE70B98421C08481A4900F0F4FAC9
:1045A000FFF7E2FAFFE7FFE70B98401C0B90D9E713
:1045B00036B0B0BD0C660000B4052020AD0220204E
:1045C000377000006D4100009A700000F065000037
:1045D000D0650000E86500002C660000246600003D
:1045E00014660000346600001C660000C065000010
:1045F000C8650000D8650000E0650000F8650000AF
:1046000075480000F46F0000F947000080B5A8B0BD
:104610001D9027922691269873490191FBF71EFE63
:104620002690279871490291FBF718FE2790704851
:1046300000900088FCF768F8014600986D4A0F92D8
:1046400091614088FCF760F80F9A01460098D161AB
:104650008088FCF759F80F9A014600981161C088CC
:10466000FCF752F80F9A0146009851610089FCF757
:104670004BF80F9A0146009891604089FCF744F886
:104680000F9A01460098D1608089FCF73DF80F9A97
:10469000014600981160C089FCF736F801990F9A1D
:1046A00050602698FBF7DAFD029923902798FBF7D4
:1046B000D5FD2290239903917F20C0051890FBF728
:1046C00088FD0F990246039805920A68049289684A
:1046D000FBF787FD0499024605980692FBF781FDDA
:1046E0000699FBF725FD014618982191239907911A
:1046F000FBF76FFD0F990246079809924A680892E6
:10470000C968FBF76EFD0899024609980A92FBF703
:1047100068FD0A99FBF70CFD014618982091239932
:104720000B91FBF756FD0F9902460B980D928A6983
:104730000C920969FBF755FD0C9902460D980E92F3
:10474000FBF74FFD0E99FBF7F3FC014618981F91FC
:1047500023991091FBF73DFD0F9902461098129294
:10476000CA6911924969FBF73CFD119902461298FA
:104770001392FBF736FD1399FBF7DAFC0146189804
:104780001E9122991491FBF724FD0146149816916D
:10479000219915911F99FBF724FD1599024616984A
:1047A0001792FBF71EFD1799FBF7C2FC1D9A0146F5
:1047B0001898116022991991FBF70BFD0146199881
:1047C0001B9120991A911E99FBF70BFD1A9902462D
:1047D0001B981C92FBF705FD1C99FBF7A9FC1D9982
:1047E000486028B080BDC04600809D43000054430F
:1047F0002C012020B805202080B582B037480078F1
:10480000FEF762FE0190FFE79048FFF7F3FAFEF72C
:1048100047FFFFF7A9FB00280CD0FFE701988100B4
:10482000D8480068401E884204D1FFE7FCF740FAF0
:1048300002B080BD00F018F9002803D1FFE7FFF7B0
:1048400051FCFFE70A20FDF743F8DDE780B5FEF7EE
:1048500097FFFFE7FEF75EFEFEF77AFEFDF782F9AF
:10486000002803D0FFE7FEF7E1F8FFE70A20FDF795
:104870002FF8EFE780B582B018480078FEF724FEE5
:104880000190FEF77DFFFFE77048FFF7B3FAFEF7F0
:1048900007FFFFF769FB00280BD0FFE701988100B5
:1048A000B8480068884204D1FFE7FCF701FA02B07B
:1048B00080BD00F0D9F8002803D1FFE7FFF712FC14
:1048C000FFE7FEF727FEFEF743FEFCF7A1FAFEF72F
:1048D000ADF80A20FCF7FCFFD6E7C0460400202014
:1048E00080B5FEF74DFFFFE75848FFF783FAFEF764
:1048F000D7FEFFF739FB002808D0FFE7A148006882
:10490000042803D1FFE7FCF7D3F980BD00F0ACF831
:10491000002803D1FFE7FFF7E5FBFFE7FEF7FAFD0D
:10492000FEF744FEFCF774FAFEF780F80A20FCF765
:10493000CFFFD9E780B582B001900198002801D15E
:10494000FFE708E0FDF700FD0199044801600068F9
:1049500000688047FFE702B080BDC046B405202054
:1049600080B5FFE7FEF79CFE3848FFF743FA00F0FA
:104970007BF8002803D1FFE7FCF79AF903E00A204F
:10498000FCF7A6FFEEE780BD80B59AB0FFE70020F8
:1049900005900C900B9012480A9009900A9A099978
:1049A00007A8FFF733FE08980C9007980B900B9818
:1049B000FBF701FF039004910C98FBF7FCFE039AB0
:1049C000049B0191009007490DA8069000F0DCF8C7
:1049D0000599069A08230846FDF762FED7E7C04608
:1049E000CDCCCC3DD670000080B5FEF7C9FE07489F
:1049F0000749FEF7FFFEFFE7FEF72EFF05480449D3
:104A0000FEF7F8FE0A20FCF763FFF5E70000F0412F
:104A1000000020410000B44280B5FFE7C720C0433A
:104A2000FDF7EEFAC820FEF7F3F8F7E780B5FFE7E9
:104A30000648FFF7DFF9FFF755FBFFF777F8002887
:104A400003D0FFE7FCF734F980BDF1E73200202006
:104A500080B582B012200190FEF70AFF0198FEF7A0
:104A600031FF02B080BD000080B586B0FFF77CFA50
:104A700000280DD0FFE739480068002808D1FFE77B
:104A80003649012008603648006836490860FFE76B
:104A900032480068012859D1FFE732480068FBF727
:104AA0008AFE314A314BFBF717FC314A314BFBF799
:104AB00013FCFBF794FE04900498FBF77CFE2E4A4F
:104AC0002E4BFBF709FCFBF78AFE03902448006895
:104AD0000499FBF7AFFD00280CD1FFE74B208000C5
:104AE0000290FDF78DFA0298FEF792F805A90120D1
:104AF00008702FE01A4800680499FBF78DFD002824
:104B000017D1FFE7164800680399FBF793FD0028CB
:104B10000FD1FFE71A49012001900870C720C04358
:104B2000FDF76EFAC820FEF773F8019805A9087022
:104B300010E0FFE7124900200870094908600749A2
:104B4000086010490868401C0860FFE705A90020BC
:104B50000870FFE705A8007806B080BD1405202086
:104B60002406202050092020F6285C8FC2F5C83F7B
:104B7000B81E85EB51B8BEBFC0B16F40AE01C73F94
:104B800054092020A80220200FB410B504A9074B17
:104B900002AA039800F08CFA044602A9002000F053
:104BA00023FE204610BC08BC04B01847E95700009B
:104BB0002021020C01D010211046020A01D010461B
:104BC0000839020901D01046091F820801D0104699
:104BD000891E420801D0881E7047081A7047F0B439
:104BE000040C8BB2264682B25E430D0C1046370C85
:104BF0005843360480190021794116466E43370C1C
:104C000036048019794126466E438919F0BC7047F5
:104C10004900CA020243100000D004204A0D01D00E
:104C200001221043044A490D914201D10221084357
:104C3000012800D105207047FF070000410008024D
:104C400000D004200A0E01D001221043090EFF29D2
:104C500001D102210843012800D105207047F8B591
:104C600004464F1EC8000838211815461E4608681D
:104C700049683A4606239A4310D02A463346FBF742
:104C8000DDFB3A46D200083AA3181A687F1E5B681B
:104C9000FBF722FB06223B469343EED1022F23D0A3
:104CA000042F11D0062F2FD12A463346FBF7C6FB1F
:104CB000E36AA26AFBF710FB2A463346FBF7BEFB0A
:104CC000636A226AFBF708FB2A463346FBF7B6FB0A
:104CD000E369A269FBF700FB2A463346FBF7AEFB0C
:104CE00063692269FBF7F8FA2A463346FBF7A6FB0D
:104CF000E368A268FBF7F0FA2A463346FBF79EFB0F
:104D000063682268FBF7E8FAF8BD0000002210B5DE
:104D1000134610460149FBF7F9FB10BD0000F03FB8
:104D200010B5FBF7D9FA10BD002210B51346104696
:104D30001146FBF7EBFB10BD10B50721024A00201E
:104D40000907FBF7C1FE10BD01030000034A10B5BF
:104D500000201107FBF7B8FE10BD000001FDFFFFAA
:104D600010B50121FBF775FF10BD10B500210846F5
:104D7000FBF774FA10BD5E2110B5C9430807FBF7B5
:104D800068FF10BDF0B50E4614465100FF22120612
:104D900087B0914203D31116316007B0F0BD0120F6
:104DA0002502C0070543E00D7838C206D20E202048
:104DB000871A6000000E7838401181004D48784411
:104DC0000B189C464358002A14D060464068934014
:104DD0000146F84003436046806891408646F840AB
:104DE0000143039160467146C0689140F840014319
:104DF0000F4603E0604641680391876818462946DC
:104E0000FFF7EDFE0291049029460398FFF7E7FEB5
:104E10000391069038462946FFF7E1FE0F460698B3
:104E2000029B3D18049A0399BD4201D2012700E07C
:104E300000278818C019002F02D0884202D903E049
:104E4000884201D2012100E0002159180A4620328F
:104E50009709C20C89065203400337601143019041
:104E60000846FBF746FC02900198FBF74DFC122127
:104E7000C943FBF7EEFE01902846FBF745FC2521D0
:104E8000C943FBF7E6FE009001990298FBF750F941
:104E90000099FBF74DF90121C9024018050B2D03BC
:104EA00028460299FBF795F90199FBF792F90099C9
:104EB000FBF793F91049FBF794F900900F49284646
:104EC000FBF78FF90099FBF733F900900C4928465E
:104ED000FBF787F90099FBF72BF9002C00DB5CE767
:104EE00001210907C91B31600121C907484007B0EA
:104EF000F0BD0000DE170000DB0FC92F22AAFD293C
:104F00000000C92F0000000002E008C8121F08C1FD
:104F1000002AFAD17047000070470000000000002E
:104F2000002001E001C1121F002AFBD170470000E0
:104F3000014908607047000000002020F0B51FB450
:104F400086B00998089A030D0021024314D05148F5
:104F5000514A1818504305141198012810981AD076
:104F6000281A401C00264D4F4D490096019104908F
:104F7000002812DA444211E01198012449A30128C3
:104F800001D11098C1430698119A84600360C260F1
:104F900041600BB0F0BD4042E4E70446210500202B
:104FA0003F4A001C51410391029012E0E00707D0F4
:104FB00032463B4601990098FBF740FA0191009078
:104FC00032463B4610461946FBF738FA06460F466E
:104FD0006410002CEAD10498039B0028029A0999D6
:104FE000089806DAFBF72AFA019B009AFBF726FAE3
:104FF00005E0FBF78BFA019B009AFBF787FA044662
:105000000E460022284BFBF7E7FD03D80020C043E3
:10501000014607E00022254B20463146FBF75CF9AC
:10502000FBF7BAFD102409E0002C0ADB0A2200235A
:10503000FBF738FC079B30321A55641E02460A43C0
:10504000F2D11122641C079B121B1C19119B012B0E
:1050500003D0012308430ED10AE0084304D01120F5
:1050600010900020119077E71098151A6D1E0BE034
:105070001098824202DD00236D1C03E0824201DAB7
:1050800000236D1E002BEED0069811998260C1603E
:1050900030C07EE701FCFFFF104D0000000014400F
:1050A0000000F03F300000000000F0430000E03F4F
:1050B000FFB597B00646002518E2252877D10024D1
:1050C0002746FD49049400E00443761C3278012011
:1050D000203A90400842F7D130782A280ED0022298
:1050E000307801463039092916D804990A235943E2
:1050F000303940181443761C0490F1E7189802C820
:1051000004911890002904DA012040030443484226
:10511000049002200443761C30782E2814D10420F9
:1051200004437078761C2A2809D11898761C80C808
:10513000189009E00A214F43303FC719761C307898
:10514000014630390929F5D930786C2810D006DCB1
:105150004C281AD068280ED06A2817D104E0742889
:1051600013D07A2812D110E00120400504430CE04E
:105170000121090501E0032109050C4371788142F1
:1051800003D1012000052418761C761C307811907C
:1051900066280BD013DC58287DD009DC00287BD092
:1051A0004528F6D04628F4D047281AD1A5E118E0C2
:1051B000632835D0642870D0652812D19DE170280D
:1051C0006CD008DC6728F1D069287BD06E280DD020
:1051D0006F2806D1BAE073282ED0752871D07828B0
:1051E00059D01A9A199990476D1C7EE16002400FC0
:1051F000022809D003280DD00428189801680DD082
:105200000D60001D189070E11898EA1701680D6094
:105210004A60F6E7189801680D80F2E70D70F0E734
:1052200018986A4601781172001D1890002050727B
:1052300002A80090012005E0189802C818900020EC
:105240000091C04361070DD5002101E00199491C7F
:105250000191B94212DA8142F8DB009A515C0029CF
:10526000F4D10BE0002101E00199491C0191814238
:10527000FADB019A0099895C0029F5D1019904981B
:105280001A9B471A21463846199A00F097FA019955
:10529000401945180BE04FE02CE113E04EE0009878
:1052A00000990078491C00911A9A19999047019821
:1052B000401E0190401CF2D1214638461A9B199A93
:1052C00010E137E00A200021009001916002410FB7
:1052D000022907D0189A01CA1892C21794460329C6
:1052E00008D00AE01898C01DC108C90005C9189166
:1052F000944607E000B2C2179446042902D140B296
:10530000C1178C4600226146944506DA0A46002100
:10531000404291418C462D2102E0210504D52B21EC
:105320006A461173012103E0E10701D02021F7E76C
:10533000029155E00A200AE0102008E010200090B9
:105340000021042004430191082703E008200021E4
:10535000019100906002410F022907D0189A01CAFA
:10536000189200229446032908D008E01898C01D1E
:10537000C108C90005C91891944603E080B2042908
:1053800000D1C0B200210291210729D511997029BD
:1053900006D0009A1021019B4A401A4305D00EE026
:1053A00040216A461173012108E06146014306D09D
:1053B00030216A4611731199517302210291009AAA
:1053C0000821019B4A401A430AD16146014301D199
:1053D000610705D530216A46117301217F1E0291B4
:1053E0001199582904D035A10E910DA90D910DE008
:1053F00037A1F9E76146019B009AFBF753FA0E9B30
:105400008C469B5C0D9A521E0D92137061460143AF
:10541000F0D10D9805A9081A20300190600703D536
:1054200001200004844300E001270198874201DD48
:10543000381A00E0002001990090411802980918DC
:105440000498401A0490E00306D421461A9B199A46
:10545000049800F0B3F94519002706E003A81A9A4A
:10546000C05D199990476D1C7F1C02988742F5DB3F
:10547000E0030CD521461A9B199A049800F09EF976
:10548000451904E01A9A3020199990476D1C00992B
:10549000481E00900029F5DC08E00D980D99007871
:1054A000491C0D911A9A199990476D1C0199481E33
:1054B00001900029F1DC63E1092801003031323329
:1054C0003435363738396162636465660000000040
:1054D000303132333435363738394142434445462A
:1054E0000000000000F05AF94519761C30780028B9
:1054F00000D0E2E528461BB0F0BD600700D40627C7
:105500001898C01DC108C90048680A680831C30F4F
:10551000DB071891190001D09CA108E0210501D5F5
:105520009BA104E0E10701D09AA100E09AA1430009
:1055300011985B08109165280CD006DC452809D02D
:1055400046281DD0472841D141E0662818D0672859
:105550003CD13CE00021112F01DB112000E0781C40
:105560000191009008A911A8FFF7E8FC1399059193
:105570000021119A15927F1C12980197009150E01A
:105580000120C00703900120019008A9009711A8ED
:10559000FFF7D4FC139A149905920022119B0092F4
:1055A00012981593059A0192002901D0104602E045
:1055B000791C40180190381A01D5019804E0404246
:1055C000401E0090781C0190C01B029043E0012F08
:1055D00000DA01270021112F01DD112000E03846FB
:1055E0000191009008A911A8FFF7A8FC1399059153
:1055F000119A0021129815920091019721070CD45D
:105600000599B94201DB019900E00191012904DD0E
:10561000159A491E515C302906D0B84201DA011DA5
:1056200005DA0121029115E00199491EEDE70028F4
:1056300005DC0099411800910199091A03E0019ACB
:10564000411C914200DD01910099401A401C0290DA
:105650000120C0070390200706D4029901988142D7
:1056600002DB0020C043029000206946C87707AFE4
:10567000012103980337C907884224D002201190E2
:105680002B201290039800280CDA404203902D2022
:10569000129007E00A210398FBF7BDF830317F1E16
:1056A000039039701199481E11900029F2DC03987B
:1056B0000028EFD1791E1298087030782021084018
:1056C0004530BF1E387006A8C01BC01D039010983F
:1056D0000078002800D00120019941180298C017D5
:1056E0000918039809180498401A401E0490E00312
:1056F00006D421461A9B199A049800F05FF84519C0
:1057000010980078002803D01A9A199990476D1CB8
:10571000E00324D521461A9B199A049800F04EF80C
:1057200045191CE00098002807DB0099059888427D
:1057300003DD1598405C199901E0199930201A9AF7
:10574000904700986D1C401C00900298401E0290EB
:10575000002804D11A9A2E20199990476D1C01999E
:10576000481E01900029DDDC05E038781A9A7F1C7C
:10577000199990476D1C0399481E03900029F4DC89
:1057800021461A9B199A0498ACE600002D000000EF
:105790002B0000002000000000000000F8B50446C7
:1057A00000251E461746880404D405E0394620200B
:1057B000B0476D1C641EF9D52846F8BDFFB50446F8
:1057C000002581B01E46C80301D5302700E0202700
:1057D000880404D505E038460399B0476D1C641E63
:1057E000F9D5284605B0F0BD0A68531C0B6010704F
:1057F00070470000F0B5024604464E4B83B04000AF
:105800006946984209D273210906884202D20020D3
:10581000C04300E00020009030E05000464B4008BC
:1058200098426CD245491046FAF7DBFCFBF7CEF8FC
:105830000746FAF793FF8007800F009040493846EB
:10584000FAF7CFFC01903F493846FAF7CAFC064602
:105850003D493846FAF7C5FC05463C493846FAF753
:10586000C0FC2146FAF7B9FC2946FAF7B2FC3146EA
:10587000FAF7AFFC0199FAF7ACFC044625467F27FE
:10588000009CFF05002C3EDBE007314E2946084610
:105890001BD0FAF7A6FC07462E49FAF7A2FC2E49C0
:1058A000FAF746FC3946FAF79CFC2C49FAF740FC1B
:1058B0003946FAF796FC2946FAF793FC2946FAF797
:1058C00037FCA10718D503B0F0BDFAF78AFC0546EE
:1058D0002349FAF786FC2349FAF72AFC2946FAF706
:1058E00080FC2149FAF724FC2946FAF77AFC39466C
:1058F000FAF71EFCA107E6D5704003B0F0BD1046D4
:10590000FFF740FAB9E7FF2168000906884202D292
:10591000384603B0F0BD884206D10120FFF708FBEE
:10592000FFF723FA03B0F0BD2846FFF719FA03B0DA
:10593000F0BD0000B61F927E490E494683F9223F12
:105940001A61342C0020A23300A0FD390000C93FA9
:1059500000000080336D4CB9DA82083CA0AA2ABE50
:10596000B93AB2BACA9F2A3DDDFFFFBEF0B51FB4F7
:1059700094B084460C460246179D16980090490044
:1059800068006300490840080393002A01D00126FB
:1059900000E000269E19FB4BF6185B109E422BD3AD
:1059A0006E00009F0196002F00D00127F719F54ED9
:1059B000F54BBE199E421FD3009E0346F34F33435F
:1059C00009D03B469C4201D1002A04D0039B002A07
:1059D00005D0012604E00020394619B0F0BD0026AC
:1059E0009E19EB4B9E4207D8009F019E002F00D0CE
:1059F0000127F6199E4207D92B4660462146169A82
:105A0000FFF78EF919B0F0BD0023002C29DAE14E22
:105A1000B04226DAE04EB04201DB022321E0DB4E49
:105A2000B0421EDBDD4E070DBE19142E09DD3427F2
:105A3000BF1B009EFE400196BE40009FBE420BD0A1
:105A40000FE0009F002F0CD11427BF1B0646FE401D
:105A50000196BE40864204D1019BDE07F60F022369
:105A60009B1B0E46164318D1002D16DA002C03D0CE
:105A7000022B01D0012B06D00220FFF759FAFFF7C5
:105A800045F919B0F0BD0220FFF752FAFFF73EF9D1
:105A90000122D207514019B0F0BD009E002E61D105
:105AA000BC4EB04220D1BE48844201D1002A08D069
:105AB000B648814209DB002D10DB1698294619B043
:105AC000F0BD0020B14919B0F0BD002D06DA012269
:105AD0002946D2071698514019B0F0BDB149794412
