:020000040000FA
:10000000C80520208D01000091010000930100002F
:1000100000000000000000000000000000000000E0
:10002000000000000000000000000000950100003A
:10003000000000000000000097010000B51800005B
:100040009B0100009B0100009B0100009B01000040
:100050009B0100009B0100009B0100009B01000030
:10006000000000009B0100009B0100000000000058
:10007000000000009B0100009B0100009B010000AC
:100080009B0100009B0100009B0100009B01000000
:100090009B0100009B010000000000000000000028
:1000A0009B0100009B010000000000000000000018
:1000B0009B010000000000009B0100009B0100006C
:1000C00000F002F800F052F812A030C808382418E6
:1000D0002D18AC4201D100F049F80FCCA246AB4636
:1000E0000CA730CF2D1B083F3F197C427F1E544484
:1000F0002D090426F441641EAC4201D300F036F809
:100100000126334200D0FB1A3343984754465D46DC
:10011000DFE70000AC210000CC210000000000005F
:10012000103A02D378C878C1FAD8520701D330C840
:1001300030C101D504680C60704700000000000069
:100140007047000000000000002300240025002666
:10015000103A01D378C1FBD8520700D330C100D583
:100160000B6070471FB51FBD10B510BD00F02CF817
:100170001146FFF7F7FF01F037FC00F044F803B435
:10018000FFF7F2FF03BC00F047F800000648004705
:10019000FEE7FEE7FEE7FEE7FEE7FEE70348044969
:1001A000024A044B70470000C1000000C804202030
:1001B000C8052020C8042020704770477047000001
:1001C00000487047200020207546FFF7F9FFAE4633
:1001D000050069465346C008C000854618B020B5E2
:1001E000FFF7DCFF60BCB64600260027C0C5C0C5CF
:1001F000C0C5C0C5C0C5C0C5C0C5C0C5403D490813
:1002000049008D46704710B50446C046C04620469A
:10021000FFF7B5FF10BD000001491820ABBEFEE797
:10022000260002007047811E091F00BFFCD27047E4
:1002300084B00390029101920398006800900098A6
:1002400001998843009000980299019A114008434F
:100250000399086004B0704784B003900291019242
:1002600003980068009000980199884300900098D6
:100270000299019A114008430399086004B070473D
:1002800082B0019000910098019995225201885006
:1002900002B0704782B001900091009801999522B8
:1002A0005201885002B0704781B0009000988100E0
:1002B000384A885801235B061843885001B07047BC
:1002C00082B00190009100980199024A885002B0D2
:1002D0007047C046D012000081B000900099012004
:1002E000C2025348885001B07047C04681B00090A8
:1002F00000988100274A8120885001B07047C0468D
:1003000010B584B0069C039002910192009302986C
:10031000019908430099084306990843812108433D
:10032000039989001B4A885004B010BD82B0019027
:10033000009100981049084301998900154A885096
:1003400002B0704710B584B0079C069C03900291E0
:100350000192009302980199084300990843069975
:100360000843079908430449084303998900094A47
:10037000885004B010BDC0468000040082B00190D7
:10038000009100988021084301998900014A885012
:1003900002B070470480424081B000900099424A08
:1003A0004248885001B0704782B001900091009897
:1003B0000199024A885002B07047C046901200006E
:1003C00082B00190009100980199024A885002B0D1
:1003D0007047C046B012000081B00090009909201B
:1003E0004202885801231B021843885001B070470D
:1003F00081B000900099084A88580123184388501A
:1004000001B0704781B000900099034A88580423D6
:100410001843885001B070472812000081B0009046
:1004200000990120C202B848885001B07047C04608
:100430000100002610B5002A0FD091235B01C318DC
:100440000020DC692405240F05D00C5C1C60401CD6
:100450008242F6D1104680B210BD002080B210BD9D
:100460003C4A835880210B43835080180F2212028C
:10047000436813400122D2029342F7D102688A43B3
:100480000260704781B0009000980249405801B066
:100490007047C0461812000081B000900099024ACF
:1004A0000248885001B0704704080000030000B102
:1004B00081B000900099404A0020885001B07047F8
:1004C00080B584B0019101460198039102A908808A
:1004D0000398092252028018098803225202FFF76A
:1004E000A7FE04B080BD70B50A780C231A40012421
:1004F000240305196E689E43B2186A604978072282
:100500001140035993435918015170BD80B584B00F
:10051000019101460198039102A9088003980D4AB0
:100520008018098807221202FFF782FE04B080BDFE
:1005300080B584B0019101460198039102A9087029
:100540000398044A801809780722FFF771FE04B067
:1005500080BDC0463812000082B00190684601702C
:1005600000780199014A885002B0704724120000B7
:1005700010B586B00192024601980592049103AA33
:10058000107002A803800598094940180499490091
:1005900012781143074AFFF75FFE05980649401895
:1005A00002990904C91D054AFFF756FE06B010BDA1
:1005B00010120000FF070000141200000700FF0FD8
:1005C000064908680122904308607047034908689B
:1005D00001221202904308607047C04608010B4098
:1005E00081B001466846017000780249086001B098
:1005F0007047C04608030B4080B582B0014601A891
:10060000017001780F480F22FFF712FE02B080BD83
:1006100080B582B0014601A801700178024803222A
:10062000FFF706FE02B080BD00010B4080B582B02E
:10063000014601A80170017802483022FFF7F8FD59
:1006400002B080BD04010B4082B00190009100987F
:100650000199024A885002B07047C0464810000015
:1006600010B585B000930B460099049003A8038051
:10067000029201AB197004991A7892008A18B24C50
:10068000084911510299049A1B789B00D218312312
:10069000DB01D1500088044908430499DA4A8850A4
:1006A00005B010BD010002001200001081B00090E2
:1006B0000099024A0120885001B0704708110000DB
:1006C00082B001900091009B0199094A8858184313
:1006D000885002B07047C04682B001900091009BE4
:1006E0000199034A88581843885002B07047C046A1
:1006F0002810000081B0009000990120C202CE486D
:10070000885001B07047C0460100002681B00090BB
:1007100000980321C902405801B07047F0B5BA4AA9
:1007200082183B4BC31808794E793A4D764C002E0F
:1007300023D0202804D00526F601002803D003E0AA
:10074000354E002800D18826576F2F403743576712
:10075000976F2F4037439767566B26405663966BCB
:10076000264096630026566596658F26F6435F6899
:1007700037405F609F6837409F608E790968202806
:100780000BD0002819D1491E5160D76E2F40882107
:100790000F43D7661746703719E0491E5160D16E76
:1007A00029401D4F3943D166116F294039431167E4
:1007B00001214907194D174609E049085160D76ED4
:1007C0002F400521C9010F43D766174670373C6893
:1007D0002C400C433C60D16A4B4C2140D162116BE0
:1007E000214011630021D16411658F21C943D46F69
:1007F0000C40D4671C680C401C600643BD20304090
:100800001168074B0B40C018801C1060F0BDC0463B
:100810008418000024493E0001040000FFFFFFCFC0
:100820004000FFCFB0B54A686C4BC250764A801882
:100830000A78222A58D8930001A4E3589F46C0465C
:10084000DF080000E9080000DF080000E9080000F8
:10085000E9080000E9080000E9080000E9080000D4
:10086000E9080000E9080000E9080000E9080000C4
:10087000E9080000E9080000E9080000E9080000B4
:10088000CD080000E9080000CD080000E9080000DC
:10089000E9080000E9080000E9080000E908000094
:1008A000E9080000E9080000E9080000E908000084
:1008B000E9080000E9080000E9080000E908000074
:1008C000CD080000E9080000CD08000003231B0745
:1008D00004689C4301235B07E318036004E00323DF
:1008E0001B0704689C4304600B69C360CB68054C1C
:1008F0001C40C36A044D1D402B19C362097A114381
:100900000160B0BD777702008888FDFF81B000905C
:100910000099604A6048885001B0704782B00190E9
:1009200000910098019911221202885002B070477C
:1009300010B507239B04194092008018024A84587E
:100940009C436118815010BD3018000010B5029C06
:10095000A400001911431943014A815010BDC0463B
:100960005018000092008018014A81507047C0461C
:100970001018000010B50122120383180C789C6037
:100980004B7883508978014A815010BD0C110000CA
:1009900010B586B001930B4601460198059104A954
:1009A0000B8003AB1A8002AA10800598164C001920
:1009B00009881B88194312881143024AFFF738FC43
:1009C00006B010BD80FF000082B001900091009839
:1009D0000199024A885002B07047C04608180000CA
:1009E00081B000900099084A885801231843885024
:1009F00001B0704781B000900099034A88580123E4
:100A00001843885001B070470418000081B000906E
:100A1000009911200202885801231843885001B020
:100A20007047000081B0009000990120C202024886
:100A3000885001B07047C04601000026B0B51122B1
:100A4000120283580124A34383500B888C781C43E3
:100A50008B882343094C1C408358094D1D40631962
:100A600083508B79CC791C43097A21437E2319402A
:100A7000801842689A4351184160B0BD1867000061
:100A8000E798FDFF81B000900099024A0248885023
:100A900001B0704704080000030000B180B584B0C5
:100AA00003900291019203980B49401802990B4A56
:100AB000FFF7BEFB03980A49401801993F22FFF750
:100AC000B7FB0399074A8818895801221140FFF79C
:100AD000AFFB04B080BDC04610110000FFFF000056
:100AE000141100000411000010B501221203831834
:100AF0000C789C604978815010BD80B582B001901F
:100B00000091019811210902401800990322D20393
:100B1000FFF78EFB02B080BD80B582B00190FFE789
:100B20000198411E0191002805D0FFE77D20C000FB
:100B300000F004F8F4E702B080BD000082B001903C
:100B40000198400100900098401E0A4908600A4937
:100B500000200860094905200860FFE70748006891
:100B6000C003002801D4FFE7F8E70449002008602B
:100B700002B0704714E000E018E000E010E000E090
:100B800080B588B0079006910592049325480068C7
:100B90000A2801DBFFE742E00798224A0392116826
:100BA0004B0121490291CB189860069812685201B6
:100BB0008918C8600798FFF71DFF06980121019169
:100BC000FFF742FD01990698FFF786FD0698FFF7AB
:100BD00011FF0299039A106840010B1864201861F4
:100BE000106843010020C8501268520189184860FB
:100BF0000798FFF78BFD0399024602980B685B018B
:100C0000C3189A8309684901401814300599049A59
:100C100000F00CF803990868401C0860FFE708B072
:100C200080BDC046C0042020E400202083B0029094
:100C3000019100920298002801D1FFE706E0019897
:100C400002990860009802994860FFE703B0704776
:100C500010B58CB000F064FD41200B9002901E484E
:100C600005900190002400941C4804901C4B0693AE
:100C7000224600F043F80498039401210891029160
:100C8000184A07920192CA0400928A04164B0A93EA
:100C9000194600F053F80598069B0B9902910190B4
:100CA000009412480990224600F028F8079A089903
:100CB00009980A9B0394029401924A0400920A0440
:100CC0000B4900F03BF80B9A5B20830009480A4966
:100CD000FFF756FF0CB010BD00C07240800020200E
:100CE00000003C4000A0864000200A40B0002020C8
:100CF00000000A400000094000008640B0B586B000
:100D000004460B990A980C9D059403930292019155
:100D100000900598002801D1FFE70DE00298039AA2
:100D20000599CA6188610098019A05994A6208622A
:100D30000C9805998862FFE706B0B0BD70B586B023
:100D40000C4605460D980C990B9E0A9E0595049439
:100D50000392029301AA1170694608800598002841
:100D600004D0FFE70B98002801D1FFE729E00498A1
:100D7000059908600398059948600298059988606C
:100D80000A980599C8600B9805990861019805991A
:100D9000087500980599C88205998868C968FFF7A1
:100DA00079FA059908684968FFF774FA05980069A7
:100DB000FFF716FE059A1069D18A127DFFF7D2FD62
:100DC000FFE706B070BD000080B584B003AB1870BB
:100DD00002A8018001920198002801D1FFE74AE0B2
:100DE00003A80078009004283BD80098810001A057
:100DF00040588746090E00001F0E0000350E000007
:100E00004B0E0000610E0000019908684968FFF769
:100E1000CBFA01998868C968FFF73CFA21E001998B
:100E200008684968FFF736FA01998868C968FFF7CA
:100E3000BBFA16E0019908684968FFF7B5FA01990D
:100E40008868C968FFF7B0FA0BE00199086849683B
:100E5000FFF720FA01998868C968FFF71BFA00E0DC
:100E6000FFE702980199C882019A1069D18A127D20
:100E7000FFF778FDFFE704B080BD80B584B003A91B
:100E800000200870FFE703A80078072824DCFFE7AC
:100E90000398B030C0B200F009F90020019000F0D2
:100EA00005F9102000F002F9019802A90870FFE787
:100EB00002A800787F2809DCFFE7002000F01AF97B
:100EC000FFE70298401C02A90870F1E7FFE70398CA
:100ED000401C03A90870D6E704B080BD80B5034864
:100EE000FFF7A1F900F004FD80BDC04600A8610035
:100EF00080B584B003AA0192107002A80170029814
:100F0000B030C0B200F0D2F801980078000910307B
:100F100000F0CCF8019800780F21084000F0C6F8E6
:100F200004B080BD10B586B0044605A8047004ACBA
:100F3000217003A90A7002A90B7001AA0021117087
:100F40006B4619700399203911700078802808DBEE
:100F5000FFE705A9002008700498801C04A9087008
:100F6000FFE702A80078102841D1FFE705A8007824
:100F700004A90978FFF7BCFF694600200870FFE765
:100F800068460078072810DCFFE701A80078000118
:100F90006946097841182848405C00F0ABF8FFE743
:100FA0000098401C69460870EAE705A80078049993
:100FB000491CC9B2FFF79CFF694600200870FFE793
:100FC00068460078072811DCFFE701A800780001D7
:100FD00069460978401818494018007A00F08AF8E4
:100FE000FFE70098401C69460870E9E720E005A883
:100FF000007804A90978FFF77BFF69460020087094
:10100000FFE768460078052811DCFFE701A80078B3
:10101000062141430748401869460978405C00F0C2
:1010200069F8FFE70098401C69460870E9E7FFE7A8
:1010300006B010BD341A00005C1C000010B586B06C
:1010400005AC207004A80170039202A8037001A9E6
:1010500000200870FFE7039801A90978405C002888
:1010600022D0FFE705A80090007804A90978039A28
:1010700001AB1B78D25C02AB1B78FFF753FF0098E3
:101080000599083101700078792808DBFFE705A988
:10109000002008700498801C04A90870FFE70198DC
:1010A000401C01A90870D6E706B010BD80B586B017
:1010B00005A9087004A9029100220A7005984870D9
:1010C000E2480190782102230393FFF751FA019837
:1010D000FFF7C6F901980299039AFFF7ABF9FFE70A
:1010E000DA48FFF7CFF94006002801D5FFE7F7E718
:1010F00006B080BD80B586B005A9087004A902912C
:101100004020087005984870D0480190782100224E
:1011100002230393FFF72CFA0198FFF7A1F9019836
:101120000299039AFFF786F9FFE7C848FFF7AAF983
:101130004006002801D5FFE7F7E706B080BDC046AE
:1011400080B582B00A46014601A8017069460A804E
:1011500000780988024AFFF737FE02B080BDC0461A
:10116000B000202080B582B0014601A801806A4607
:1011700000211170405E002808D5FFE76946012074
:1011800008700198404201A90880FFE7002101A8EA
:10119000405E0849884205DBFFE77D20C00001A9C9
:1011A0000880FFE76846007801A90988FFF7C8FFB3
:1011B00002B080BDE903000080B582B00B490C4845
:1011C0000190FFF791FC01980A49FFF737FC01985D
:1011D0000021FFF792FC0198D0211522FFF75EFC59
:1011E0000198FFF713FC02B080BDC0464C220000FE
:1011F000008010404E22000080B592B026200621CB
:101200000491FFF7BBF801200B9041046B480E904E
:10121000FFF756F804992720FFF7B0F80B990E98BE
:101220008904FFF74DF80320059005210391FFF78E
:10123000A5F80B990E984907FFF742F80399042087
:101240000290FFF79BF80B990E988907FFF738F883
:1012500002992120FFF792F80B990E980903FFF7E6
:101260002FF803992220FFF789F80B990E9849036C
:10127000FFF726F805992D20FFF758F8049802216A
:101280000A91FFF753F805990B9800230D930193EA
:10129000C0040690009018461A46FFF753F80599C7
:1012A000069A0B980D9B019300921A46FFF74AF895
:1012B0000D98FEF7F9FF0B98FEF7F6FF06980D9BC9
:1012C0000193009014200890082107911A46FFF717
:1012D00039F8069807990D9B019300901520099005
:1012E0001A46FFF72FF80898FEF7DEFF0998FEF779
:1012F000DBFF0A990B20FFF741F80A990C20FFF752
:1013000015F80A991220FFF739F80A991320FFF708
:101310000DF80A993420FFF731F80A993520FFF7C4
:1013200005F80B980D9B009302040C92232019469C
:10133000FEF7E6FF1D20FEF7D9FF3120FEF7D6FFAE
:101340003020FEF7D3FF1E20FEF7D0FF1F20FEF750
:10135000CDFF2020FEF7CAFF0E20FEF7C7FF0C9A34
:101360000D9B009325201946FEF7CAFF2A20FEF7A1
:10137000BDFF2B20FEF7BAFF2C20FEF7B7FF24207D
:10138000FEF7B4FF2E20FEF7B1FF2F20FEF7AEFFD1
:101390000E980B490F91FEF773FF0E980F99FEF709
:1013A0008FFF0848109008491191FEF769FF1098C7
:1013B0001199FEF785FF12B080BDC04600000A40BB
:1013C00000C0410000200A4004E07F0080B582B0E8
:1013D000074908480190FFF786F801980321490260
:1013E000FFF76EF80198FEF7F7FF02B080BDC04628
:1013F0005822000000000F4080B582B01249134807
:101400000190FFF770F8019803214902FFF758F89F
:101410000198FEF7E1FF0198FFF74AF801980721CC
:10142000FFF79AF8019800210091FFF781F80099E1
:101430000198FFF76BF80198FEF7E4FF0198FEF7BB
:10144000D7FF02B080BDC0465A22000000200F40E6
:1014500080B582B00B490C480190FFF745FB01981D
:101460000A49FFF7EBFA01980021FFF746FB0198C4
:10147000D0211522FFF712FB0198FFF7C7FA02B03F
:1014800080BDC0465C220000000010405E220000CB
:1014900080B582B00B49F2480190FFF725FB019817
:1014A0000949FFF7CBFA01980021FFF726FB0198C5
:1014B000D0211522FFF7F2FA0198FFF7A7FA02B040
:1014C00080BDC046682200006A22000080B586B058
:1014D0001F49DB480590FFF74DFA05981D49FFF7B6
:1014E0001DF905980023029319461A46FFF750FA92
:1014F000029B0598009319461A46FFF727FA029AAD
:1015000005981146FFF714FA029A05987D21890083
:101510000391FFF727FA029B05980121049100919E
:1015200019461A46FFF712FA0299049A0598FFF72E
:10153000FFF90399049A0598FFF714FA0598FFF745
:10154000B5F805980321FFF7E9F906B080BDC0465C
:10155000742200007822000080B584B00E49BB4898
:101560000390FFF707FA03984921490201910023EC
:1015700002931A46FFF774F80199029A039801231F
:10158000FFF76EF803980549FFF71EFA0398FFF777
:101590008DF804B080BDC04680220000FFFF00002F
:1015A00080B586B01F49A7480590FFF7E3F9059875
:1015B0001D49FFF7B3F805980023029319461A4610
:1015C000FFF7E6F9029B0598009319461A46FFF7C4
:1015D000BDF9029A05981146FFF7AAF9029A0598F3
:1015E0007D21C9000391FFF7BDF9029B05980121F8
:1015F0000491009119461A46FFF7A8F90299049A36
:101600000598FFF795F90399049A0598FFF7AAF949
:101610000598FFF74BF805980321FFF77FF906B00F
:1016200080BDC046832200008822000080B582B0C1
:1016300000200190FEF7D4FF0198FEF7E9FFFEF7C6
:10164000BFFFFEF7C3FF0198FEF7F0FF0198FEF71A
:10165000D3FF02B080BD80B57D20000200F002F90A
:1016600080BD000080B586B01F4977480590FFF720
:1016700081F905981D49FFF751F805980023029359
:1016800019461A46FFF784F9029B059800931946FC
:101690001A46FFF75BF9029A05981146FFF748F9D9
:1016A000029A05987D21C9000391FFF75BF9029B1F
:1016B000059801210491009119461A46FFF746F951
:1016C0000299049A0598FFF733F90399049A05984B
:1016D000FFF748F90598FEF7E9FF05980321FFF7A2
:1016E0001DF906B080BDC046902200009422000083
:1016F00080B582B0084956480190FFF73BF9019840
:101700000649FFF78FF801980121FEF7D9FF0198EC
:10171000FEF7CCFF02B080BD9C220000A02200009A
:1017200080B500F02FF8FFF767FDFFF77FFFFFF7A9
:10173000CDFEFFF735FFFFF795FFFFF70DFFFFF732
:10174000D7FFFFF743FEFFF757FEFFF735FDFFF723
:101750007FFEFFF79DFEFFF77EFF06499C220020DB
:10176000885405498854054988540549B822885445
:1017700080BDC0462402202064032020C402202013
:101780000404202080B58CB0A9480090FEF704FE28
:101790002A480190FEF700FE29480290FFF7B6F8AC
:1017A00028480390FFF7B2F827480490FFF7AEF8F7
:1017B00026480590FFF7AAF825480690FFF7A6F8F7
:1017C00024480790FEF768FE64480890FEF764FE20
:1017D00021480990FFF756F920480A90FFF752F97F
:1017E0001F480B90FFF74EF90098FEF775FD019822
:1017F000FEF772FD0298FEF77DFF0398FEF77AFF71
:101800000498FEF777FF0598FEF774FF0698FEF739
:1018100071FF0798FEF702FE0898FEF7FFFD099892
:10182000FFF700F90A98FFF7FDF80B98FFF7FAF8B1
:101830001020FEF7F8FC0CB080BDC04600200A4026
:1018400000A086400080864000400840000009401B
:101850000000864000000F40008010400000104053
:101860000020104080B584B002900298401E000E07
:10187000002803D0FFE70120039011E00298401EEA
:101880000949086000200190C043032100F06AF874
:10189000019806490860064A072111600390FFE796
:1018A000039804B080BDC04614E000E018E000E0FA
:1018B00010E000E080B50C480168491C01600B4A4B
:1018C0001168491C116000687D21C900884209D156
:1018D000FFE7054900200860012081035448FEF716
:1018E0006FFDFFE780BDC046E0002020C40420203B
:1018F00080B584B003A9002008700870FFE703A832
:1019000000781A2828DCFFE714480290782100228A
:1019100000920223FEF72CFE0298FEF7A1FD00992B
:10192000029801220192FEF785FD019A029803A90F
:101930000B780B49C918FEF77DFDFFE70748FEF756
:10194000A1FD4006002801D5FFE7F7E7FFE7039870
:10195000401C03A90870D2E704B080BD00200F40EE
:101960000000202070B582B0024601A802700091EC
:1019700000214056002816D4FFE7002401A908578B
:101980000322D3431840174A805809578C07E50EA5
:10199000FF24AC40A043009CA401E4B2AC4020432F
:1019A000194088501AE001A908780F24204008380F
:1019B0000322D34318400A4A8058002549578D070F
:1019C000EE0EFF25B540A843009DAD01EDB2B54038
:1019D00028432140083919408850FFE702B070BD04
:1019E0001CED00E000E400E080B582B00020019032
:1019F000FFF796FEFFF772FAFFF73FFA0A4A012156
:101A000008230846FFF71AFBFFF722F90748FFF7FC
:101A1000A9FBFFE77D20C000FFF77EF801208103CE
:101A20000348FEF7CDFCF5E7B4220000D4FEFFFF2B
:101A300000000A400000000000000000002F00002D
:101A400000000700070000147F147F1400242A7F81
:101A50002A12006264081323003649552250000000
:101A60000503000000001C224100000041221C0070
:101A70000014083E08140008083E0808000000A0F2
:101A800060000008080808080000606000000020EE
:101A900010080402003E5149453E0000427F4000CC
:101AA000004261514946002141454B310018141252
:101AB0007F10002745454539003C4A49493000011F
:101AC0007109050300364949493600064949291E6E
:101AD00000003636000000005636000000081422D0
:101AE00041000014141414140000412214080002D0
:101AF0000151090600324959513E007C1211127CF5
:101B0000007F49494936003E41414122007F414121
:101B1000221C007F49494941007F09090901003E13
:101B20004149497A007F0808087F0000417F410051
:101B3000002040413F01007F08142241007F4040C7
:101B40004040007F020C027F007F0408107F003EAF
:101B50004141413E007F09090906003E4151215E95
:101B6000007F091929460046494949310001017F92
:101B70000101003F4040403F001F2040201F003F28
:101B80004038403F006314081463000708700807DA
:101B900000615149454300007F41410000552A55ED
:101BA0002A55000041417F00000402010204004068
:101BB000404040400000010204000020545454788A
:101BC000007F4844443800384444442000384444AA
:101BD000487F00385454541800087E090102001848
:101BE000A4A4A47C007F080404780000447D400085
:101BF000004080847D00007F102844000000417F69
:101C00004000007C04180478007C08040478003844
:101C10004444443800FC242424180018242418FCCC
:101C2000007C0804040800485454542000043F4435
:101C30004020003C4040207C001C2040201C003CF8
:101C40004030403C004428102844001CA0A0A07C48
:101C5000004464544C441414141414140000000080
:101C6000000000000000000000000000000000F87C
:101C700000000000000000333000000000100C06DF
:101C8000100C0600000000000000000040C078407A
:101C9000C0784000043F04043F040400007088FC46
:101CA00008300000001820FF211E0000F008F0009E
:101CB000E018000000211C031E211E0000F008880F
:101CC000700000001E2123241927211010160E0079
:101CD000000000000000000000000000000000E024
:101CE0001804020000000007182040000002041839
:101CF000E00000000040201807000000404080F095
:101D0000804040000202010F01020200000000F0CA
:101D1000000000000101011F01010100000000009E
:101D20000000000080B07000000000000000000013
:101D3000000000000001010101010101000000009C
:101D40000000000000303000000000000000000033
:101D500080601804006018060100000000E0100810
:101D60000810E000000F102020100F00001010F8E5
:101D7000000000000020203F202000000070080824
:101D800008887000003028242221300000300888A4
:101D9000884830000018202020110E000000C020CC
:101DA00010F8000000070424243F240000F80888ED
:101DB000880808000019212020110E0000E010887A
:101DC00088180000000F112020110E0000380808AC
:101DD000C83808000000003F0000000000708808BC
:101DE00008887000001C222121221C0000E010083D
:101DF0000810E0000000312222110F00000000C096
:101E0000C000000000000030300000000000008032
:101E10000000000000008060000000000000804022
:101E2000201008000001020408102000404040403B
:101E3000404040000404040404040400000810208E
:101E400040800000002010080402010000704808D3
:101E50000808F0000000003036010000C030C8283B
:101E6000E810E0000718272423140B000000C038F6
:101E7000E0000000203C23020227382008F8888870
:101E800088700000203F202020110E00C03008087C
:101E900008083800071820202010080008F8080853
:101EA0000810E000203F202020100F0008F888884C
:101EB000E8081000203F20202320180008F8888818
:101EC000E8081000203F200003000000C030080890
:101ED0000838000007182020221E020008F8080019
:101EE0000008F808203F210101213F20000808F8E0
:101EF000080800000020203F202000000000080803
:101F0000F8080800C08080807F00000008F888C0C2
:101F100028180800203F20012638200008F8080073
:101F200000000000203F20202020300008F8F800AA
:101F3000F8F80800203F003F003F200008F830C0BC
:101F40000008F808203F200007183F00E0100808AC
:101F50000810E0000F10202020100F0008F80808DB
:101F60000808F000203F210101010000E0100808EE
:101F70000810E0000F18242438504F0008F8888813
:101F800088887000203F2000030C302000708808F3
:101F9000080838000038202121221C00180808F801
:101FA000080818000000203F2000000008F8080082
:101FB0000008F808001F202020201F000878880053
:101FC00000C83808000007380E010000F80800F8C3
:101FD0000008F800033C0700073C0300081868806D
:101FE0008068180820302C03032C30200838C800E3
:101FF000C83808000000203F200000001008080832
:10200000C83808002038262120201800000000FED3
:10201000020202000000007F40404000000C30C07F
:1020200000000000000000010638C00000020202AB
:10203000FE000000004040407F000000000004025D
:102040000202040000000000000000000000000088
:102050000000000080808080808080800002020478
:102060000000000000000000000000000000808070
:10207000808000000019242222223F2008F80080DE
:1020800080000000003F112020110E0000000080A1
:1020900080800000000E1120202011000000008030
:1020A0008088F800000E112020103F200000808062
:1020B00080800000001F222222221300008080F076
:1020C000888888180020203F2020000000008080A1
:1020D00080808000006B94949493600008F80080E6
:1020E00080800000203F210000203F200080989841
:1020F000000000000020203F2020000000000080A1
:102100009898000000C08080807F000008F80000E0
:1021100080808000203F24022D302000000808F835
:10212000000000000020203F2020000080808080F0
:1021300080808000203F20003F20003F8080008082
:1021400080800000203F210000203F200000808090
:1021500080800000001F202020201F008080008041
:102160008000000080FFA12020110E0000000080F0
:1021700080808000000E112020A0FF8080808000E1
:102180008080800020203F2120000100000080800E
:10219000808080000033242424241900008080E003
:1021A000808000000000001F2020000080800000D0
:1021B00000808000001F202020103F2080808000B1
:1021C0000080808000010E300806010080800080C1
:1021D000008080800F300C030C300F0000808000E6
:1021E000808080000020312E0E3120008080800011
:1021F0000080808080818E701806010000808080C1
:10220000808080000021302C22213000000000005E
:10221000807C020200000000003F404000000000FF
:10222000FF00000000000000FF0000000002027C30
:10223000800000000040403F000000000006010157
:10224000020204040000000000000000080000007A
:10225000180000000030000008000800080000001E
:102260001800000000300000080000001800000006
:102270000030000008070000E80300002000010013
:102280000800000800030000E80300000000000050
:1022900008000000E80300000000000008076300D9
:1022A000020000008F01000001000000000000009B
:1022B0000000000068656C6C6F000000000000000A
:1022C000E02200000000202020000000200100008B
:1022D0000023000020002020A80500004801000085
:1022E000AE001040B081FFA1A6A83FC8D300D580A2
:1022F000D805D9F1DA12D8308D14AF0000000000F3
:04000005000000C136
:00000001FF
