:020000040000FA
:10000000080420206D010000710100007301000050
:1000100000000000000000000000000000000000E0
:10002000000000000000000000000000750100005A
:1000300000000000000000007701000089170000A8
:100040007B0100007B0100007B0100007B010000C0
:100050007B0100007B0100007B0100007B010000B0
:10006000000000007B0100007B0100000000000098
:10007000000000007B0100007B0100007B0100000C
:100080007B0100007B0100007B0100007B01000080
:100090007B0100007B010000000000000000000068
:1000A0007B0100007B010000000000000000000058
:1000B0007B010000000000007B0100007B010000CC
:1000C00000F002F800F042F812A030C808382418F6
:1000D0002D18AC4201D100F039F80FCCA246AB4646
:1000E0000CA730CF2D1B083F3F197C427F1E544484
:1000F0002D090426F441641EAC4201D300F026F819
:100100000126334200D0FB1A3343984754465D46DC
:10011000DFE70000142000002420000000000000A1
:100120007047000000000000002300240025002686
:10013000103A01D378C1FBD8520700D330C100D5A3
:100140000B6070471FB51FBD10B510BD00F028F93A
:100150001146FFF7F7FF01F077FB00F040F903B419
:10016000FFF7F2FF03BC00F043F900000648004728
:10017000FEE7FEE7FEE7FEE7FEE7FEE70348044989
:10018000024A044B70470000C10000000803202011
:100190000804202008032020002203098B4273D387
:1001A000030A8B4258D3030B8B423CD3030C8B4284
:1001B00021D312E003460B437FD4002243088B4235
:1001C00074D303098B425FD3030A8B4244D3030BDE
:1001D0008B4228D3030C8B420DD30902FF2212BAA3
:1001E000030C8B4202D31212090265D0030B8B421F
:1001F00019D300E0090AC30B8B4201D3CB03C01A09
:100200005241830B8B4201D38B03C01A5241430BE3
:100210008B4201D34B03C01A5241030B8B4201D3D3
:100220000B03C01A5241C30A8B4201D3CB02C01A3E
:100230005241830A8B4201D38B02C01A5241430AB6
:100240008B4201D34B02C01A5241030A8B4201D3A5
:100250000B02C01A5241CDD2C3098B4201D3CB014C
:10026000C01A524183098B4201D38B01C01A5241FB
:1002700043098B4201D34B01C01A524103098B42FF
:1002800001D30B01C01A5241C3088B4201D3CB00EA
:10029000C01A524183088B4201D38B00C01A5241CD
:1002A00043088B4201D34B00C01A5241411A00D27D
:1002B00001465241104670475DE0CA0F00D04942E6
:1002C000031000D3404253409C46002203098B4256
:1002D0002DD3030A8B4212D38901FC2212BA030ADE
:1002E0008B420CD3890192118B4208D38901921160
:1002F0008B4204D389013AD0921100E08909C309E5
:100300008B4201D3CB01C01A524183098B4201D3E6
:100310008B01C01A524143098B4201D34B01C01AD1
:10032000524103098B4201D30B01C01A5241C30849
:100330008B4201D3CB00C01A524183088B4201D3B8
:100340008B00C01A5241D9D243088B4201D34B00D3
:10035000C01A5241411A00D201465241104663462A
:100360005B1001D34042002B00D5494270476346E1
:100370005B1000D3404201B50449002802DC491C4F
:10038000084000E00846C046C04602BDFFFFFF7FB0
:1003900070477047704700000048704700002020F9
:1003A0007546FFF7F9FFAE46050069465346C0089B
:1003B000C000854618B020B5FFF7E0FE60BCB64629
:1003C00000260027C0C5C0C5C0C5C0C5C0C5C0C5C2
:1003D000C0C5C0C5403D490849008D46704710B5AD
:1003E0000446C046C0462046FFF7B9FE10BD0000D7
:1003F00001491820ABBEFEE7260002007047811EAF
:10040000091F00BFFCD2704784B003900291019293
:100410000398006800900098019988430090009824
:100420000299019A114008430399086004B070478B
:1004300082B0019000910098019995225201885054
:1004400002B0704782B00190009100980199952206
:100450005201885002B0704781B00090009881002E
:10046000384A885801235B061843885001B070470A
:1004700082B00190009100980199024A885002B020
:100480007047C046D012000081B000900099012052
:10049000C202A748885001B07047C04681B00090A2
:1004A00000988100274A8120885001B07047C046DB
:1004B00010B584B0069C03900291019200930298BB
:1004C000019908430099084306990843812108438C
:1004D000039989001B4A885004B010BD82B0019076
:1004E000009100981049084301998900154A8850E5
:1004F00002B0704710B584B0079C069C039002912F
:1005000001920093029801990843009908430699C3
:100510000843079908430449084303998900094A95
:10052000885004B010BDC0468000040082B0019025
:10053000009100988021084301998900014A885060
:1005400002B070470480424081B0009000991D4A7B
:100550001D48885001B0704782B00190009100980A
:100560000199024A885002B07047C04690120000BC
:1005700082B00190009100980199024A885002B01F
:100580007047C046B012000081B000900099092069
:100590004202885801231B021843885001B070475B
:1005A00081B0009000990120C2026148885001B0DA
:1005B0007047C04681B000900099DE4ADE488850FE
:1005C00001B0704704080000030000B180B584B09A
:1005D000019101460198039102A90880039809221C
:1005E00052028018098803225202FFF70DFF04B05F
:1005F00080BD70B50A780C231A4001242403051924
:100600006E689E43B2186A60497807221140035908
:1006100093435918015170BD06490868012290435F
:10062000086070470349086801221202904308607D
:100630007047C04608010B4081B001466846017012
:1006400000780249086001B07047C04608030B40BB
:1006500080B582B0014601A8017001780F480F22D1
:10066000FFF7D2FE02B080BD80B582B0014601A87E
:100670000170017802480322FFF7C6FE02B080BD78
:1006800000010B4080B582B0014601A801700178DD
:1006900002483022FFF7B8FE02B080BD04010B40D3
:1006A00010B585B000930B460099049003A8038011
:1006B000029201AB197004991A7892008A18AA4C18
:1006C000084911510299049A1B789B00D2183123D2
:1006D000DB01D1500088044908430499CD4A885071
:1006E00005B010BD010002001200001081B00090A2
:1006F0000099024A0120885001B07047081100009B
:1007000082B001900091009B0199034A88581843D8
:10071000885002B07047C0462810000081B0009099
:1007200000990120C202C748885001B07047C046F6
:1007300001000026F0B5B74A82183B4BC318087970
:100740004E793A4D764C002E23D0202804D0052631
:10075000F601002803D003E0354E002800D188269A
:10076000576F2F4037435767976F2F40374397672F
:10077000566B26405663966B264096630026566558
:1007800096658F26F6435F6837405F609F68374005
:100790009F608E79096820280BD0002819D1491E46
:1007A0005160D76E2F4088210F43D76617467037A8
:1007B00019E0491E5160D16E29401D4F3943D16661
:1007C000116F29403943116701214907194D174617
:1007D00009E049085160D76E2F400521C9010F4338
:1007E000D766174670373C682C400C433C60D16A92
:1007F0004B4C2140D162116B214011630021D16427
:1008000011658F21C943D46F0C40D4671C680C401C
:100810001C600643BD2030401168074B0B40C018D8
:10082000801C1060F0BDC0468418000024493E00C2
:1008300001040000FFFFFFCF4000FFCFB0B54A68C2
:100840006E4BC250734A80180A78222A58D89300F7
:1008500001A4E3589F46C046F708000001090000C4
:10086000F70800000109000001090000010900006B
:100870000109000001090000010900000109000050
:100880000109000001090000010900000109000040
:100890000109000001090000E5080000010900004D
:1008A000E50800000109000001090000010900003D
:1008B0000109000001090000010900000109000010
:1008C0000109000001090000010900000109000000
:1008D0000109000001090000E5080000010900000D
:1008E000E508000003231B0704689C4301235B0702
:1008F000E318036004E003231B0704689C430460BF
:100900000B69C360CB68054C1C40C36A044D1D4095
:100910002B19C362097A11430160B0BD77770200D9
:100920008888FDFF81B0009000995D4A5D4888503D
:1009300001B0704704080000030000B182B00190CC
:1009400000910098019911221202885002B070475C
:1009500010B507239B04194092008018024A84585E
:100960009C436118815010BD3018000010B5029CE6
:10097000A400001911431943014A815010BDC0461B
:100980005018000092008018014A81507047C046FC
:100990001018000010B50122120383180C789C6017
:1009A0004B7883508978014A815010BD0C110000AA
:1009B00010B586B001930B4601460198059104A934
:1009C0000B8003AB1A8002AA10800598114C001905
:1009D00009881B88194312881143024AFFF714FD46
:1009E00006B010BD80FF000082B001900091009819
:1009F0000199024A885002B07047C04608180000AA
:100A000081B000900099034A885801231843885008
:100A100001B070470418000081B0009000991120C7
:100A20000202885801231843885001B07047000023
:100A300081B0009000990120C2020248885001B0A4
:100A40007047C04601000026B0B51122120283583B
:100A50000124A34383500B888C781C438B88234349
:100A6000094C1C408358094D1D40631983508B79F4
:100A7000CC791C43097A21437E23194080184268AF
:100A80009A4351184160B0BD18670000E798FDFF18
:100A900081B000900099024A0248885001B0704726
:100AA00004080000030000B180B584B003900291F7
:100AB000019203980B49401802990B4AFFF7A4FCD6
:100AC00003980A49401801993F22FFF79DFC0399BA
:100AD000074A8818895801221140FFF795FC04B095
:100AE00080BDC04610110000FFFF0000141100007F
:100AF0000411000010B50122120383180C789C60C9
:100B00004978815010BD80B582B001900091019864
:100B100011210902401800990322D203FFF774FC47
:100B200002B080BD80B582B00190FFE70198411E00
:100B30000191002805D0FFE77D20C00000F004F8F7
:100B4000F4E702B080BD000082B00190019840013E
:100B500000900098401E0A4908600A490020086079
:100B6000094905200860FFE707480068C00300281E
:100B700001D4FFE7F8E704490020086002B070479D
:100B800014E000E018E000E010E000E070B586B08E
:100B90000C4605460D980C990B9E0A9E05950494EB
:100BA0000392029301AA11706946088005980028F3
:100BB00004D0FFE70B98002801D1FFE729E0049853
:100BC000059908600398059948600298059988601E
:100BD0000A980599C8600B980599086101980599CC
:100BE000087500980599C88205998868C968FFF753
:100BF00029FC059908684968FFF724FC05980069F5
:100C0000FFF7FEFE059A1069D18A127DFFF7BAFE42
:100C1000FFE706B070BD000080B584B003AB18706C
:100C200002A8018001920198002801D1FFE74AE063
:100C300003A80078009004283BD80098810001A008
:100C400040588746590C00006F0C0000850C0000CE
:100C50009B0C0000B10C0000019908684968FFF77F
:100C60007BFC01998868C968FFF7ECFB21E00199DA
:100C700008684968FFF7E6FB01998868C968FFF7CB
:100C80006BFC16E0019908684968FFF765FC01995B
:100C90008868C968FFF760FC0BE00199086849683B
:100CA000FFF7D0FB01998868C968FFF7CBFB00E02C
:100CB000FFE702980199C882019A1069D18A127DD2
:100CC000FFF760FEFFE704B080BD80B584B002A9E5
:100CD00000200870FFE702A8007807281EDCFFE765
:100CE00002A800780021019100F0E0F8019803A922
:100CF0000870FFE703A800787F2809DCFFE70020E1
:100D000000F0CBF9FFE70398401C03A90870F1E756
:100D1000FFE70298401C02A90870DCE704B080BD20
:100D2000704780B582B001A908706946002008703C
:100D3000FFE768460078072815DCFFE701A8007880
:100D400069460A788021D140084000F08CF90120E2
:100D500000F084F9002000F081F9FFE70098401CC2
:100D600069460870E5E7012000F078F9002000F0FE
:100D700075F902B080BD80B582B00120009000F00E
:100D800072F9009800F06AF90020019000F06BF908
:100D9000019800F063F902B080BD80B582B00020F8
:100DA00000F061F90120019000F058F9019800F07D
:100DB0005AF902B080BD80B582B000200190FFE7F3
:100DC0000198C0087C2812D8FFE700200090FFE7B8
:100DD0000098C0087C2805D8FFE7FFE70098401C72
:100DE0000090F5E7FFE70198401C0190E8E7FFF766
:100DF00097FFAE2000F03CF9D52000F039F98020B3
:100E000000F036F9A82000F033F93F2000F030F967
:100E1000D32000F02DF9002000F02AF9402000F046
:100E200027F9A12000F024F9C82000F021F9DA20E8
:100E300000F01EF9122000F01BF9812000F018F9D3
:100E4000CF2000F015F9D92000F012F9F12000F0C0
:100E50000FF9DB2000F00CF9302000F009F9A42094
:100E600000F006F9A62000F003F98D2000F000F94B
:100E7000142000F0FDF8AF2000F0FAF8FFF725FF8E
:100E800002B080BD83B00290019101200090FFE785
:100E90000198411E0191002805D0FFE702980099B2
:100EA00048430090F4E7009803B0704780B584B0E1
:100EB000024603A8027002AA019211700078B021C4
:100EC000084300F0D5F8019800780009103000F0D0
:100ED000CFF8019800780F21084000F0C9F804B05D
:100EE00080BD000080B584B003AB187002A801700B
:100EF00001A8027003984000801E0299C9000839B9
:100F0000C0B2C9B2FFF7D2FF694600200870FFE700
:100F100068460078072812DCFFE701A80078000186
:100F20001A4940186946097840181A49405C00F08F
:100F3000B4F8FFE70098401C69460870E8E703989A
:100F40004000401E0299C9000839C0B2C9B2FFF77B
:100F5000ADFF694600200870FFE768460078072863
:100F600012DCFFE701A80078000108494018694633
:100F7000097840180649405C00F08FF8FFE70098B8
:100F8000401C69460870E8E704B080BDC61A00003E
:100F900008FEFFFF00FEFFFF10B58AB009AC20700D
:100FA00008A80170079206A8037005A90020087020
:100FB000FFE705A8007806A90978884227DAFFE745
:100FC00009A800780390089905A8007809180491E9
:100FD0000799019106A90978C04341180A20029097
:100FE000FFF750FF0146019800F072FC0299FFF7ED
:100FF000D3F803980A46049930231A43C9B2FFF77D
:1010000071FFFFE70598401C05A90870D1E70AB0F9
:1010100010BD80B584B003AB187002A801700192B6
:10102000694600200870FFE7019869460978405C2E
:10103000002811D0FFE703A8007802996A461378C8
:10104000C918019AD25CC9B2FFF74CFFFFE70098BC
:10105000401C69460870E7E704B080BD81B069466E
:10106000087001B0704781B06946087001B07047E0
:1010700080B582B001A900910870FFF77CFE78204E
:10108000FFF74FFE0020FFF74CFE00980078FFF7B7
:1010900048FEFFF782FE02B080BD80B582B001A994
:1010A00000910870FFF767FE7820FFF73AFE4020B6
:1010B000FFF737FE00980078FFF733FEFFF76DFE6D
:1010C00002B080BD80B582B00B490C480190FFF79B
:1010D00011FD01980A49FFF7B7FC01980021FFF7BD
:1010E00012FD0198D0211522FFF7DEFC0198FFF7D1
:1010F00093FC02B080BDC046B620000000801040C6
:10110000B820000080B592B0262006210591FFF797
:101110000DFA01200C90410468480E90FFF7A8F9E1
:1011200005992720FFF702FA0C990E988904FFF71A
:101130009FF90320069005210491FFF7F7F90C9918
:101140000E984907FFF794F9049904200390FFF7DC
:10115000EDF90C990E988907FFF78AF90399212078
:10116000FFF7E4F90C990E980903FFF781F9049948
:101170002220FFF7DBF90C990E984903FFF778F965
:1011800006992D20FFF7AAF9059802210B91FFF788
:10119000A5F906990C9800230D930193C0040790BC
:1011A000009018461A46FFF7A5F90699079A0C9879
:1011B0000D9B019300921A46FFF79CF90D98FFF7DB
:1011C0004BF90C98FFF748F907980D9B0193009095
:1011D00014200990082108911A46FFF78BF9079807
:1011E00008990D9B0193009015200A901A46FFF76D
:1011F00081F90998FFF730F90A98FFF72DF90B9953
:101200000B20FFF793F90B990C20FFF767F90B9967
:101210001220FFF78BF90B991320FFF75FF90B9959
:101220003420FFF783F90B993520FFF757F90C9815
:101230000D9B0093020423201946FFF739F91D2066
:10124000FFF72CF93120FFF729F93020FFF726F9B5
:101250001E20FFF723F91F20FFF720F92020FFF7BA
:101260001DF90E20FFF71AF92520FFF717F92A209C
:10127000FFF714F92B20FFF711F92C20FFF70EF9D7
:101280002420FFF70BF92E20FFF708F92F20FFF796
:1012900005F90E980A490F91FFF7CAF80E980F99B1
:1012A000FFF7E6F80748109007491191FFF7C0F8DB
:1012B00010981199FFF7DCF812B080BD00000A40C9
:1012C00000C0410000200A4004E07F0080B582B0E9
:1012D000074908480190FFF78CF90198032149025A
:1012E000FFF774F90198FFF74FF902B080BDC046CF
:1012F000C220000000000F4080B582B007490848B6
:101300000190FFF776F9019803214902FFF75EF992
:101310000198FFF739F902B080BDC046C420000033
:1013200000200F4080B582B00B490C480190FFF7B8
:10133000E1FB01980A49FFF787FB01980021FFF7BD
:10134000E2FB0198D0211522FFF7AEFB0198FFF7D1
:1013500063FB02B080BDC046C62000000000104004
:10136000C820000080B582B00B49F2480190FFF719
:10137000C1FB01980949FFF767FB01980021FFF7BE
:10138000C2FB0198D0211522FFF78EFB0198FFF7D1
:1013900043FB02B080BDC046D2200000D420000034
:1013A00080B586B01F49DA480590FFF7F3FA059833
:1013B0001D49FFF7BFF905980023029319461A4605
:1013C000FFF7F6FA029B0598009319461A46FFF7B5
:1013D000CDFA029A05981146FFF7BAFA029A0598D3
:1013E0007D2189000391FFF7CDFA029B0598012129
:1013F0000491009119461A46FFF7B8FA0299049A27
:101400000598FFF7A5FA0399049A0598FFF7BAFA29
:101410000598FFF76BF905980321FFF78FFA06B0DF
:1014200080BDC046DE200000E420000080B584B00E
:101430000E49BA480390FFF7ADFA039849214902D3
:101440000191002302931A46FFF72AF90199029AA3
:1014500003980123FFF724F903980549FFF7C4FA1D
:101460000398FFF743F904B080BDC046EC200000AC
:10147000FFFF000080B586B01F49A6480590FFF722
:1014800089FA05981D49FFF755F90598002302933D
:1014900019461A46FFF78CFA029B059800931946E5
:1014A0001A46FFF763FA029A05981146FFF750FAB9
:1014B000029A05987D21C9000391FFF763FA029B08
:1014C000059801210491009119461A46FFF74EFA3A
:1014D0000299049A0598FFF73BFA0399049A059834
:1014E000FFF750FA0598FFF701F905980321FFF778
:1014F00025FA06B080BDC046EF200000F4200000B1
:1015000080B582B000200190FFF796F80198FFF7B0
:10151000ABF8FFF781F8FFF785F80198FFF7B2F80D
:101520000198FFF795F802B080BD80B57D200002DC
:1015300000F002F980BD000080B586B01F497648F2
:101540000590FFF727FA05981D49FFF7F3F805986E
:101550000023029319461A46FFF72AFA029B0598C0
:10156000009319461A46FFF701FA029A05981146A8
:10157000FFF7EEF9029A05987D21C9000391FFF764
:1015800001FA029B059801210491009119461A461F
:10159000FFF7ECF90299049A0598FFF7D9F9039936
:1015A000049A0598FFF7EEF90598FFF79FF805985C
:1015B0000321FFF7C3F906B080BDC046FC20000040
:1015C0000021000080B582B0084955480190FFF71E
:1015D000E1F901980649FFF731F901980121FFF778
:1015E0008FF80198FFF782F802B080BD0821000053
:1015F0000C21000080B500F02FF8FFF783FDFFF706
:101600007FFFFFF7CDFEFFF735FFFFF795FFFFF7F1
:101610000DFFFFF7D7FFFFF759FEFFF76DFEFFF74E
:1016200051FDFFF77FFEFFF79DFEFFF77EFF0649A6
:101630009C2200208854054988540549885405494E
:10164000B822885480BDC04668002020A801202010
:10165000080120204802202080B58CB099480090D5
:10166000FEF772FF98480190FEF76EFF94480290D3
:10167000FFF758F927480390FFF754F926480490DC
:10168000FFF750F925480590FFF74CF924480690DC
:10169000FFF748F923480790FEF78CFF224808908F
:1016A000FEF788FF21480990FFF7F2F920480A90D9
:1016B000FFF7EEF91F480B90FFF7EAF90098FEF7E5
:1016C000E3FE0198FEF7E0FE0298FFF727F8039883
:1016D000FFF724F80498FFF721F80598FFF71EF8A4
:1016E0000698FFF71BF80798FEF75AFF0898FEF7D1
:1016F00057FF0998FFF79CF90A98FFF799F90B989B
:10170000FFF796F91020FEF77AFE0CB080BDC046B8
:1017100000A086400080864000400840000009404C
:101720000000864000000F4000200F400080104065
:10173000000010400020104080B584B00290029854
:10174000401E000E002803D0FFE70120039011E0A7
:101750000298401E0949086000200190C0430321FF
:1017600000F030F8019806490860064A0721116028
:101770000390FFE7039804B080BDC04614E000E08A
:1017800018E000E010E000E080B50C480168491C5A
:1017900001600B4A1168491C116000687D21C90075
:1017A000884209D1FFE70549002008600120810334
:1017B0004448FEF7DDFEFFE780BDC0466000202004
:1017C0000403202070B582B0024601A80270009187
:1017D00000214056002816D4FFE7002401A908572D
:1017E0000322D3431840174A805809578C07E50E47
:1017F000FF24AC40A043009CA401E4B2AC402043D1
:10180000194088501AE001A908780F2420400838B0
:101810000322D34318400A4A8058002549578D07B0
:10182000EE0EFF25B540A843009DAD01EDB2B540D9
:1018300028432140083919408850FFE702B070BDA5
:101840001CED00E000E400E080B596B000200690BA
:101850001590FFF7CFFEFFF7AEFAFFF736FA174AFB
:10186000012107910846FFF7D4FB069907980391D9
:1018700002911349019141040091020408A8114901
:10188000114BFFF783F9FFE74B208100002008AAE6
:10189000FFF7C2F97D20C000FFF744F90120059051
:1018A00081030848FEF764FE0599084B1A68501C2E
:1018B000186002200323FFF76FFBE5E720210000FB
:1018C00000A0864000000A4000200A40640020205A
:1018D00043088B421AD3002203098B4279D3030AAF
:1018E0008B425ED3030B8B4242D3030C8B4227D334
:1018F0000902FF2212BA030C8B4202D31212090210
:1019000003D0030B8B4233D31AE0D3E0411A80415A
:10191000401C704703460B4371D443088B42F5D3F8
:10192000002203098B4254D3030A8B4239D3030BA1
:101930008B421DD3030C8B4202D394466EE0090AFE
:10194000C30B8B4201D3CB03C01A5241830B8B4292
:1019500001D38B03C01A5241430B8B4201D34B037B
:10196000C01A5241030B8B4201D30B03C01A5241E0
:10197000C30A8B4201D3CB02C01A5241830A8B4265
:1019800001D38B02C01A5241430A8B4201D34B024E
:10199000C01A5241030A8B4201D30B02C01A5241B2
:1019A000CDD2C3098B4201D3CB01C01A5241830966
:1019B0008B4201D38B01C01A524143098B4201D3A0
:1019C0004B01C01A524103098B4201D30B01C01ACB
:1019D0005241C3088B4201D3CB00C01A5241830845
:1019E0008B4201D38B00C01A524143088B4201D372
:1019F0004B00C01A5241411A524110007047CA0FA1
:101A000000D04942031000D34042534000229C467C
:101A100003098B422DD3030A8B4212D38901FC2286
:101A200012BA030A8B420CD3890192118B4208D35C
:101A3000890192118B4204D3890137D0921100E0C1
:101A40008909C3098B4201D3CB01C01A52418309D2
:101A50008B4201D38B01C01A524143098B4201D3FF
:101A60004B01C01A524103098B4201D30B01C01A2A
:101A70005241C3088B4201D3CB00C01A52418308A4
:101A80008B4201D38B00C01A5241D9D243088B42FA
:101A900001D34B00C01A5241411A00D201465241B3
:101AA000104663465B1000D34042704763465B10AC
:101AB00000D3404201B50021004201D0C94308468D
:101AC000C046C04602BD000000000000000000004B
:101AD000000000000000000000F80000000000000E
:101AE00000333000000000100C06100C060000004F
:101AF00000000000000040C07840C0784000043F73
:101B000004043F040400007088FC08300000001842
:101B100020FF211E0000F008F000E0180000002166
:101B20001C031E211E0000F00888700000001E210A
:101B300023241927211010160E00000000000000B9
:101B4000000000000000000000E018040200000097
:101B500000071820400000020418E00000000040C8
:101B6000201807000000404080F080404000020242
:101B7000010F01020200000000F00000000001015E
:101B8000011F01010100000000000000000080B002
:101B900070000000000000000000000000000001D4
:101BA00001010101010100000000000000000030FF
:101BB0003000000000000000000080601804006099
:101BC00018060100000000E010080810E000000FF7
:101BD000102020100F00001010F80000000000205E
:101BE000203F2020000000700808088870000030A6
:101BF000282422213000003008888848300000184E
:101C0000202020110E000000C02010F80000000766
:101C10000424243F240000F80888880808000019DC
:101C2000212020110E0000E0108888180000000F0D
:101C3000112020110E0000380808C83808000000E4
:101C4000003F000000000070880808887000001C39
:101C5000222121221C0000E010080810E0000000F2
:101C6000312222110F00000000C0C000000000005F
:101C70000030300000000000008000000000000084
:101C8000806000000000000080402010080000017B
:101C9000020408102000404040404040400004043E
:101CA0000404040404000008102040800000002008
:101CB000100804020100007048080808F000000045
:101CC000003036010000C030C828E810E0000718D6
:101CD000272423140B000000C038E0000000203C43
:101CE00023020227382008F8888888700000203FE7
:101CF000202020110E00C0300808080838000718FE
:101D000020202010080008F808080810E000203FF4
:101D1000202020100F0008F88888E8081000203FD5
:101D200020202320180008F88888E8081000203FA9
:101D3000200003000000C030080808380000071821
:101D40002020221E020008F808000008F808203FA2
:101D5000210101213F20000808F8080800000020A8
:101D6000203F2020000000000808F8080800C0807C
:101D700080807F00000008F888C028180800203FF5
:101D800020012638200008F8080000000000203F4D
:101D900020202020300008F8F800F8F80800203F44
:101DA000003F003F200008F830C00008F808203F3E
:101DB000200007183F00E01008080810E0000F108E
:101DC000202020100F0008F808080808F000203F25
:101DD000210101010000E01008080810E0000F18C0
:101DE000242438504F0008F8888888887000203FE5
:101DF0002000030C302000708808080838000038E4
:101E0000202121221C00180808F8080818000000EA
:101E1000203F2000000008F808000008F808001F14
:101E2000202020201F000878880000C83808000003
:101E300007380E010000F80800F80008F800033C1D
:101E40000700073C030008186880806818082030E5
:101E50002C03032C30200838C800C83808000000C4
:101E6000203F2000000010080808C838080020386B
:101E7000262120201800000000FE020202000000BF
:101E8000007F40404000000C30C000000000000017
:101E900000010638C00000020202FE0000000040FF
:101EA00040407F0000000000040202020400000025
:101EB0000000000000000000000000000000808022
:101EC000808080808080000202040000000000000A
:101ED00000000000000000008080808000000019E9
:101EE000242222223F2008F8008080000000003FCA
:101EF000112020110E000000008080800000000EE4
:101F0000112020201100000000808088F800000EC1
:101F1000112020103F200000808080800000001FE2
:101F2000222222221300008080F088888818002056
:101F3000203F202000000000808080808000006B17
:101F400094949493600008F8008080800000203F03
:101F5000210000203F200080989800000000002011
:101F6000203F20200000000000809898000000C062
:101F70008080807F000008F8000080808000203F83
:101F800024022D302000000808F800000000002086
:101F9000203F202000008080808080808000203FC3
:101FA00020003F20003F8080008080800000203F94
:101FB000210000203F200000808080800000001F62
:101FC000202020201F00808000808000000080FFF3
:101FD000A12020110E000000008080808000000EF3
:101FE000112020A0FF808080800080808000202041
:101FF0003F212000010000008080808080000033AD
:10200000242424241900008080E080800000000047
:10201000001F202000008080000000808000001F42
:10202000202020103F2080808000008080800001E0
:102030000E300806010080800080008080800F3014
:102040000C030C300F000080800080808000002096
:10205000312E0E31200080808000008080808081C1
:102060008E70180601000080808080808000002132
:10207000302C2221300000000000807C0202000091
:102080000000003F404000000000FF000000000092
:102090000000FF0000000002027C80000000004001
:1020A000403F00000000000601010202040400009D
:1020B00000000000000008000000180000000030D0
:1020C00000000800080008000000180000000030B0
:1020D00000000800000018000000003000000807A1
:1020E00000000000E80300002000010008000008D4
:1020F00000000000E80300000000000008000000ED
:10210000E803000000000000080763000200000070
:102110003F9C0000010000000000000000000000E3
:1021200068656C6C6F000000382100000000202002
:08213000080400002801000072
:04000005000000C136
:00000001FF
