:020000040000FA
:10000000B8152020D5000000D9000000DB0000005A
:1000100000000000000000000000000000000000E0
:10002000000000000000000000000000DD000000F3
:100030000000000000000000DF0000002934000084
:10004000E300000049180000E3000000E3000000A6
:10005000E3000000E3000000E3000000E300000014
:1000600000000000E3000000E300000000000000CA
:1000700000000000E300000071340000E300000015
:10008000E3000000E300000055340000E30000003E
:10009000E3000000E300000000000000000000009A
:1000A000E3000000E300000000000000000000008A
:1000B000E300000000000000E3000000E300000097
:1000C0000348854600F074FD004800472D3C0000C1
:1000D000B815202003480047FEE7FEE7FEE7FEE7ED
:1000E000FEE7FEE7C100000003460B439B0703D079
:1000F00009E008C9121F08C0042AFAD203E00B78ED
:100100000370401C491C521EF9D27047D2B201E064
:100110000270401C491EFBD270470022F6E710B562
:1001200013460A4604461946FFF7F0FF204610BD65
:10013000F8B502464A40D40F42004B0052085B0813
:100140009A4202D20246084611464A0023D0C30D05
:100150004A00DDB2120EAD1A202D35DA4902012611
:10016000490AF6058A19002C00D0524220214F1B63
:100170001146B9402A411018C20D9A4221D0002CD4
:1001800017D0012D08DCDA05801AD20F8019D207AA
:10019000DBB200F0BAFBF8BDDA05801A012340009B
:1001A0001B06C01880185A428018CA0F1043490015
:1001B00007E04908C2071143DA05801A8019400890
:1001C000801800F09AFBF8BD61000122511A001B53
:1001D000F7E70122D2075140AAE70122D207504097
:1001E000A6E7024670B54A40D30FDB0740002DD08A
:1001F0004A002AD0010E140E000212020919400A08
:10020000520A8418E50104465443000A120A2E04D7
:100210005043A4194219200CC543AA18120C0125F9
:10022000AD03521C521912047F39240400D0521C11
:10023000104301D44000491EC2B20C06C009201868
:10024000401C4008802A02D003E0002070BD400816
:100250004000002900DA0020184370BD70B5024646
:100260004A40D50F40004A00ED07400852080028D8
:1002700014D0002A12D0C40DD30D41020120C005B4
:100280005202490A520AE41A091812187D3491429E
:1002900001D3641C00E04900002C01DA002070BD8D
:1002A0000023914201D3891A0343400849000028E2
:1002B000F7D100290AD0914202D10121C90705E0F6
:1002C000914201D2012101E00121C943E005C0189A
:1002D000401900F012FB70BDF0B5074608465840C3
:1002E00087B0C00F049048000E46590040084908E6
:1002F000BC1A884105D2384631461E4617460B4681
:1003000002465800400810434CD0300D0390400581
:100310005900400D490D0590401A0290402872DAAC
:1003200018030121000B090508430190049800926D
:10033000002805D001995242002088410092019086
:10034000029840210A1A0199009800F0B3FA054674
:100350000C466B4607CB00F0BDFAC0197141039AF9
:100360000E0D0023D71756401A467A40164344D044
:10037000049A002A2DD0029A012A039A15DC12054C
:10038000C01A914101263605001C7141D20F059E0D
:10039000D2070093019202962A46234600F01AFBE8
:1003A00007B0F0BD38463146FAE71605224A0F4637
:1003B000B218C01AB74101210905001C4F410018AD
:1003C0007F41114618187941E20F10436D196441BD
:1003D00013E0E2076D0815436408C2071443039A4B
:1003E00001261205C01A91413605001C7141CE0745
:1003F000400830434908C01851412A46234600F0BE
:10040000DCFACDE7FFE7049801224000C117121A79
:1004100000238B4104983146C417381AA141EEE7F6
:1004200030B40124E407634030BC55E730B4012404
:10043000E407614030BC4FE70000E0FFF0B51FB4B7
:1004400088B00B990998002448400999C00F4900C9
:1004500049080991C0070B990090490049080B9180
:1004600009990898A64608431CD00B990A98084396
:1004700018D0099801244000420D4800410D099808
:1004800024050003000B204309900B980003000B88
:1004900020430B9050181C4940180022019014462C
:1004A000104605E0002001460DB0F0BD032801DA3A
:1004B000034600E003239C46C11A0AAE0AE05F002F
:1004C00008ADED5B4F00F75B7D430027AA187C4128
:1004D000491C5B1E6145F2DD410004AB5A52210408
:1004E000120C0A43240C401C0828DFDB0198029000
:1004F0000099704601910090059B049A079906980F
:1005000000F068FAD0E700000DFCFFFFF0B50C46E4
:100510005C4085B0E40FE40703944C0000266408B7
:1005200059009446490802460296224321D0624669
:100530000A431ED06200570D4A000E032303550DD7
:10054000012402462C492405781B1B0B360B40184E
:1005500023432643614600901C46501AB44103D3FE
:100560000098401C009002E0921800985B4100281F
:1005700003DA0020014605B0F0BD00200121090585
:100580000746864611E064461D46141BB54106D356
:100590006546521BB341744607430C43A646CD073C
:1005A00040084908284392185B4105460D43EAD1AB
:1005B0001046184313D06046194650407140084316
:1005C00006D06046101AB34106D20122002306E08D
:1005D00000220123DB0702E00122D24353100098DE
:1005E00074460105381C6141029C039D0019694154
:1005F00000F0E3F9BFE70000FD0300000122D2078D
:10060000002800DB101A002900DB511A814201D8B2
:1006100001207047002070470122D207002800DB2C
:10062000101A002900DB511A814201D201207047C3
:10063000002070470122D207002800DB101A002991
:1006400000DB511A814201D301207047002070471E
:100650000122D207002800DB101A002900DB511A02
:10066000814201D9012070470020704710B5002950
:1006700004DB0C460121C9074042A141002B04DBE9
:100680001C460123DB075242A341101A8B4101D3C0
:10069000012010BD002010BD10B5002904DB0C4660
:1006A0000121C9074042A141002B04DB1C46012364
:1006B000DB075242A341801A994101D2012010BDAB
:1006C000002010BD10B5002904DB0C460121C9072C
:1006D0004042A141002B04DB1C460123DB075242B0
:1006E000A34142404B401A4301D0002010BD0120DD
:1006F00010BDC217C10F504010B54018CA0796234D
:10070000002100F002F910BD10B500229623114619
:1007100000F0FBF810BD00000EB5C217C10F50402D
:10072000CA0740180021054B0293019200910A4626
:100730000B4600F04FF903B000BD00003304000089
:100740000EB505490291002100910A460B46019120
:1007500000F040F903B000BD33040000C20F4100B7
:1007600040020123400ADB05D207090EC0187F2989
:1007700001DA00207047962903DC9623591AC840F5
:1007800001E096398840002AF4D040427047410089
:1007900040020122400AD205090E80187F2901DAA1
:1007A00000207047962903DC9622511AC8407047F2
:1007B000963988407047C20FD207400040080BD0DE
:1007C000C10D0723DB01C91840020905400A114386
:1007D000C208400711437047002001467047CB0F05
:1007E000DB07490010B5490802460A4307D00A0D45
:1007F00007240903E401090B121B002A01DC002075
:1008000010BDC900440F0C43C100E018D205801888
:1008100000F073F810BD70B50446002903D0002025
:100820002022012310E0002801D00020C043C04650
:10083000C0460DE02546D5408D4205D30D46954076
:10084000641B1D46954040191546521E002DF1DCD3
:10085000214670BDF0B51FB40646002082B00546A3
:100860004024019100901BE0019922460F4630463A
:1008700000F0B6F9049A059B801A994110D31046EE
:100880001946224600F016F8361A8F410197224683
:1008900001200021009F00F00DF838184D41009014
:1008A0002046641E0028DFDC019B00982946324662
:1008B00007B0F0BD10B5202A04DB0146203A914074
:1008C000002010BD914020239C1A0346E3401943A9
:1008D000904010BD10B5202A06DBCB170846203A01
:1008E0001041C1170B4306E00B461341D0402024B2
:1008F000A21A91400843194610BD002904DA401C91
:10090000490001D140084000704770B40024050C34
:1009100005D11024000402D1002921D01124050E94
:1009200001D100020834050F01D10001241D850FFB
:1009300001D18000A41C002801DB4000641C0029B8
:1009400008D020252E1B0D46F540A14000D00121E6
:100950002943084301061B1B000ADB1D02D50020AA
:1009600070BC7047DB05181880180029F8DA401CA5
:100970004900F5D170BC40084000704710B54100F7
:100980000DD04100090E962909DC7E290ADC07DB1F
:10099000410205D0C00F7F21C007C905401810BD16
:1009A000002010BD9622541A20210A1B01469140B6
:1009B000E040FFF7A2FFA04010BD10B5002B08DA01
:1009C0000024401C614192185B411A4301D1400848
:1009D000400010BDF0B51FB482B005460C0003D036
:1009E000084603F03BFB02E003F038FB20300246F0
:1009F000009021462846FFF75DFF049B059A0446B8
:100A00000F4618431143084314D0184610431BD017
:100A1000009840210A1A1846059900F0E1F80546A9
:100A20000E46009A05990498FFF744FF084305D045
:100A3000012004E02046394607B0F0BD0020C11770
:100A400005430E432C43374300990E986305401A23
:100A50007905E40A00220C43FD0A0A3002D5002081
:100A60000146E9E70105101969410C9C0D9D00192B
:100A70006941FFF7A2FFDFE770B54B005B08034356
:100A80000BD04B005C0D002633466542B341D417B2
:100A9000AD1AA34102DB0020014670BD12053018DB
:100AA000514170BDFEB500231A461B1A8A4103DB73
:100AB0000020014603B0F0BD4A000D0301212D0BBB
:100AC0000905520D0D43D10702D100186D41521E88
:100AD0005110FF31FF310131002704463E463846B0
:100AE00000970191024601210020090500F078F8E5
:100AF000C3197141F818324684468E464A41614610
:100B00002846611A904104D36046241A95417646DE
:100B10001F46241900986D41401C00903428E1DDE7
:100B2000F91930467041091BA84103D20022D24373
:100B3000134601E00022134601980105381C71415B
:100B4000FFF73BFFB6E700004A0009030123090B4A
:100B50001B0519430A4B10B5520D9A4202DA0020C8
:100B6000014610BD064B34339A4203DC9A1A00F05A
:100B700037F810BD034BD218FFF79CFE10BD0000E4
:100B8000FF030000CDFBFFFF10B5002904DB0124AB
:100B9000E40740428C412146002B04DB1C46012324
:100BA000DB075242A341994200D1904210BD0000A0
:100BB0001CB5094800900948019005460126009C93
:100BC00005E0E36807CC33430C3C98471034AC4253
:100BD000F7D3FFF779FA0000EC6300000C64000023
:100BE00010B5202A04DB0846203AD040002110BD71
:100BF0000B46D340D0402024A21A91400843194606
:100C000010BD420005D04200120E52428A4201DB62
:100C100000207047C9050818704784B00290019100
:100C200000200090FFE700980199884210DAFFE762
:100C3000029800994900405A002804D0FFE703A910
:100C40000020087008E0FFE70098401C0090EAE7E9
:100C500003A901200870FFE703A8007804B07047DB
:100C600080B582B0022000900021019101F0ECF8E3
:100C70000098019901F000FF02B080BD80B582B0FC
:100C8000124800F0F5FC014601A80170007800F060
:100C900043FD0F48007801280AD1FFE70C490020E6
:100CA00008700C4800F09AFE0B4800F0A1FEFFE728
:100CB00008480A4A0A4B022102F02EFC0648094A5B
:100CC000094B082102F028FC02B080BD0020104032
:100CD0003C0420202A0020201C0120200800202085
:100CE00004002020100020200C00202010B598B017
:100CF00062480078C00700280BD0FFE766481790CD
:100D0000624966480860012081055D4800F02AFAC2
:100D1000B1E0012081055A4800F00AF902F05CFDBB
:100D2000169058480068C117890F41180322914353
:100D3000401A1590032800D99BE01598810001A066
:100D400040588746550D0000AD0D0000E50D000030
:100D50003B0E000002F0F2FD0F9010914C4801682C
:100D60003F200006FFF735FAFFF725FD02460F98F2
:100D70000B4610990124E407A343FFF75FFB119092
:100D800012911698FFF717FD0246119813920B4621
:100D900012991493FFF7BAFB139A149B6140FFF763
:100DA000B5FBFFF71CFD3949086063E002F0C6FDA2
:100DB0000022384BFFF742FB0B900C911698FFF77F
:100DC000FAFC02460B980D920B460C990E93FFF716
:100DD0009DFB0D9A0E9BFFF799FBFFF700FD2B493A
:100DE000086047E002F0AAFD0590069128480168D6
:100DF0003F200006FFF7EDF9FFF7DDFC02460598FE
:100E00000B4606990124E407A343FFF717FB07905D
:100E100008911698FFF7CFFC0246079809920B46F7
:100E200008990A93FFF772FB099A0A9BFFF76EFB7A
:100E3000FFF7D5FC154908601CE002F07FFD002299
:100E4000114BFFF7FBFA019002911698FFF7B3FCE4
:100E50000246019803920B4602990493FFF756FB52
:100E6000039A049BFFF752FBFFF7B9FC07490860A0
:100E700000E0FFE7FFE718B010BDC0467005202076
:100E800000200A40D40120200000E0BFCC01202037
:100E9000480520200000E03F0000F0420000F0C2C2
:100EA000811E091F00BFFCD2704784B003900291DD
:100EB000019203980068009000980199884300907F
:100EC00000980299019A114008430399086004B000
:100ED0007047000082B001900091009B0199094A7F
:100EE00088581843885002B07047C04682B00190BD
:100EF0000091009B0199034A88581843885002B01A
:100F00007047C0464810000082B0019000910098E0
:100F1000019995225201885002B0704782B0019029
:100F200000910098019995225201885002B07047B3
:100F300082B0019000910098019995225201885049
:100F400002B0704782B001900091009801999522FB
:100F50005201885002B0704782B001900091009811
:100F6000019995225201885002B0704782B00190D9
:100F700000910098019995225201885002B0704763
:100F800082B001900091009B0199C04A8858184393
:100F9000885002B07047C04682B00190009100981E
:100FA0000199024A885002B07047C046D012000032
:100FB00081B0009000990120C202BA48885001B067
:100FC0007047C04682B00190009101980249405894
:100FD0000099084002B070473810000010B584B086
:100FE000069C039002910192009302980199084394
:100FF0000099084306990843034908430399890067
:101000001F4A885004B010BD8100040081B00090D8
:10101000009881001A4A8120885001B07047C0466C
:1010200010B584B0069C039002910192009302983F
:101030000199084300990843069908438121084310
:10104000039989000E4A885004B010BD82B0019007
:10105000009100980349084301998900084A885083
:1010600002B070478000040082B0019000910098A7
:101070008021084301998900014A885002B07047D5
:101080000480424082B00190009101982721C9015B
:1010900040580099084002B0704782B0019000911A
:1010A00001982721C90140580099084002B07047B3
:1010B00082B00190009101982721C9014058009900
:1010C000084002B0704782B001900091019827213A
:1010D000C90140580099084002B0704782B00190A1
:1010E000009101982721C90140580099084002B099
:1010F0007047000081B000900099F04AF048885095
:1011000001B0704782B001900091009B0199034AA1
:1011100088581843885002B07047C0460815000030
:1011200082B001900091009B0199034A88581843AE
:10113000885002B07047C0469013000082B0019002
:10114000009100980199164A885002B07047C04635
:1011500082B00190009100980199114A885002B024
:101160007047C04682B001900091009801990C4AE6
:10117000885002B07047C04682B00190009100983C
:101180000199074A885002B07047C04682B001906A
:10119000009100980199024A885002B07047C046F9
:1011A0009012000082B001900091009B0199034AC7
:1011B00088581843885002B07047C0460C1500008C
:1011C00082B001900091009B01999D2042018858B6
:1011D0001843885002B070470649086801229043BE
:1011E00008607047034908680122120290430860B2
:1011F0007047C04608010B4081B001466846017047
:1012000000780249086001B07047C04608030B40EF
:1012100080B582B0014601A8017001780F480F2205
:10122000FFF743FE02B080BD80B582B0014601A841
:101230000170017802480322FFF737FE02B080BD3B
:1012400000010B4080B582B0014601A80170017811
:1012500002483022FFF729FE02B080BD04010B4096
:1012600081B000900099024A0120885001B0704777
:101270000811000082B001900091009B0199DE4AA4
:1012800088581843885002B07047C04628100000A4
:1012900081B0009000990120C202DD48885001B061
:1012A0007047C0460100002681B00090009881215F
:1012B00049014058C0B201B070470000F0B5C14AC2
:1012C00082183B4BC31808794E793A4D764C002E64
:1012D00023D0202804D00526F601002803D003E0FF
:1012E000354E002800D18826576F2F403743576767
:1012F000976F2F4037439767566B26405663966B20
:10130000264096630026566596658F26F6435F68ED
:1013100037405F609F6837409F608E79096820285A
:101320000BD0002819D1491E5160D76E2F4088215B
:101330000F43D7661746703719E0491E5160D16ECA
:1013400029401D4F3943D166116F29403943116738
:1013500001214907194D174609E049085160D76E28
:101360002F400521C9010F43D766174670373C68E7
:101370002C400C433C60D16A4B4C2140D162116B34
:10138000214011630021D16411658F21C943D46FBD
:101390000C40D4671C680C401C600643BD203040E4
:1013A0001168074B0B40C018801C1060F0BDC04690
:1013B0008418000024493E0001040000FFFFFFCF15
:1013C0004000FFCFB0B54A686E4BC2507D4A8018CE
:1013D0000A78222A58D8930001A4E3589F46C046B1
:1013E0007F140000891400007F140000891400009D
:1013F0008914000089140000891400008914000079
:101400008914000089140000891400008914000068
:101410008914000089140000891400008914000058
:101420006D140000891400006D1400008914000080
:101430008914000089140000891400008914000038
:101440008914000089140000891400008914000028
:101450008914000089140000891400008914000018
:101460006D140000891400006D14000003231B0795
:1014700004689C4301235B07E318036004E0032333
:101480001B0704689C4304600B69C360CB68054C70
:101490001C40C36A044D1D402B19C362097A1143D5
:1014A0000160B0BD777702008888FDFF81B00090B1
:1014B0000099784A7848885001B0704704080000C5
:1014C000030000B182B001900091009801991122AF
:1014D0001202885002B0704710B507239B041940D0
:1014E00092008018024A84589C436118815010BDB4
:1014F0003018000010B5029CA400001911431943D4
:10150000014A815010BDC04650180000920080185A
:10151000014A81507047C0461018000010B50122E2
:10152000120383180C789C604B7883508978014AA9
:10153000815010BD0C11000010B586B001930B4610
:1015400001460198059104A90B8003AB1A8002AAF9
:10155000108005981B4C001909881B8819431288B4
:101560001143024AFFF7A1FC06B010BD80FF000046
:1015700082B00190009100980199024A885002B00F
:101580007047C0460818000081B0009000990D4ACD
:10159000885801231843885001B0704781B00090EB
:1015A0000099084A885801231843885001B07047B1
:1015B00081B000900099034A88580123184388504D
:1015C00001B070470418000081B00090009911200C
:1015D0000202885801231843885001B07047000068
:1015E00082B001900091009B0199034A88581843EA
:1015F000885002B07047C0462810000081B00090AB
:1016000000990120C2020248885001B07047C046CC
:101610000100002681B000900098812149014058C6
:10162000C0B201B070470000B0B511221202835859
:101630000124A34383500B888C781C438B8823435D
:10164000094C1C408358094D1D40631983508B7908
:10165000CC791C43097A21437E23194080184268C3
:101660009A4351184160B0BD18670000E798FDFF2C
:1016700081B00090009802494058C0B201B0704754
:101680002411000081B000900099024A024888505D
:1016900001B0704704080000030000B180B584B0B9
:1016A00003900291019203980B49401802990B4A4A
:1016B000FFF7FBFB03980A49401801993F22FFF707
:1016C000F4FB0399074A8818895801221140FFF753
:1016D000ECFB04B080BDC04610110000FFFF00000D
:1016E000141100000411000010B501221203831828
:1016F0000C789C604978815010BD80B582B0019013
:101700000091019811210902401800990322D20387
:10171000FFF7CBFB02B080BD80B584B0014603A8C3
:101720000170007812280BD1FFE7304901200870C2
:1017300003982F4B1A78511C19702E49885452E087
:101740002A48007800280CD1FFE72C4800680128BF
:1017500001D1FFE747E029490320086028490860D4
:1017600041E00398224B1A78511C19702149885482
:1017700003A800785B281AD1FFE71C4900200290DB
:1017800008701B49087094481A490191642200921C
:10179000FEF7AAFC00990198174B01221A70FEF778
:1017A000BCFC02981549086015490860FFE710481D
:1017B0000078642815DBFFE710480068012801D194
:1017C000FFE710E00D49032008600D490860074954
:1017D000002008700649087006486421FEF79DFC49
:1017E000FFE7FFE7FFE704B080BDC04621002020EF
:1017F00020002020640120203C042020080020201C
:101800001000202085B00290EFF3108072B6049093
:101810007E480068019062B6FFE7EFF3108072B671
:1018200003907A480068009062B600980199401AC7
:101830000299884201D3FFE700E0EEE705B0704768
:1018400081B0009001B0704780B582B091482649C0
:10185000FFF7B8FB019001A80078400700281BD5CE
:10186000FFE7012041058B48FFF70CFC002809D158
:10187000FFE71E4948680A680023521E98410A6023
:10188000486008E0194948680A680023521C58411A
:101890000A604860FFE720E001A880788006002801
:1018A0001AD5FFE77B480421FFF7ECFB002809D19C
:1018B000FFE70E4948680A680023521C58410A6035
:1018C000486008E0094948680A680023521E9841A8
:1018D0000A604860FFE7FFE7FFE76E480249FFF74D
:1018E00005FB02B080BDC04604002000700420202B
:1018F00080B582B000900098002809D1FFE7224807
:10190000074902F097FB01F057FF0020019002E029
:1019100002480190FFE7019802B080BD0048E8014D
:101920001363000080B586B00490039103980028EB
:1019300009D1FFE71448154902F07CFB01F03CFF98
:10194000002005901CE004980021FEF773FE00289B
:1019500006D1FFE704980121C90748400490FFE73A
:101960000498039901914969FEF778FC0199896906
:10197000FEF737FCFEF70BFF029002980590FFE799
:10198000059806B080BDC046D9012020CA6300007A
:1019900080B584B003900291019200200090FFE78F
:1019A00000980299884215DAFFE7009803994218D7
:1019B00009488118805C497800F02AF80199009A5A
:1019C000D30FD21801239A438852FFE70098801C56
:1019D0000090E5E704B080BD8004202080B582B08F
:1019E0000190019A02200821FFF7D2FF02B080BDCA
:1019F00080B582B00190019A0A201021FFF7C8FF3C
:101A000002B080BD014800687047C04668052020CC
:101A100082B00A46014601A8017069460A70007842
:101A200000020978401802B07047000080B584B009
:101A3000012001908102009116480290FFF7A6FB59
:101A400001990298C9020391FFF7A0FB009902983F
:101A5000FFF78CFA0198FFF7F3FE02980399FFF75E
:101A600085FA04B080BDC04680B584B001200190E5
:101A70008102039107480290FFF778FA01990298D2
:101A8000C902FFF783FB02980399FFF77FFB04B0BD
:101A900080BDC04600000A4070B586B0E8493548B0
:101AA000086001204005486005A900200870FFE794
:101AB00005A80078002838DCFFE705A901910A781D
:101AC0001C23029318465043DD4A03921418002049
:101AD00020720D781C466C43151901246C720E7827
:101AE0001D4675435519AC720D781C466C4314198C
:101AF000E0600D781C466C43141920610D781C467B
:101B00006C43141960610D781C466C4314192076DF
:101B10000C786343D21850760A78CA498854FFE794
:101B20000598401C05A90870C2E704A900200870A8
:101B3000FFE704A80078002819DCFFE704A800905C
:101B4000007800F019F8009A034610781C210C4622
:101B50004443BB4804196372127851434118487AD0
:101B60008872FFE70498401C04A90870E1E706B0FA
:101B700070BDC04600200A4080B584B0014602A86E
:101B800001700078012804DBFFE703A90120087039
:101B900012E002A800781C214143A9484018019096
:101BA000019908684968FFF78EFA00900098411E75
:101BB000884103A90870FFE703A8007804B080BD3E
:101BC00080B582B001A900200870FFE701A8007865
:101BD00000280ADCFFE701A8007800F009F8FFE719
:101BE0000198401C01A90870F0E702B080BD000018
:101BF00080B586B0014605A801700078012801DB98
:101C0000FFE71BE105A8009000781C2141438C48A8
:101C100040180490FFF7F6FE014600980391007803
:101C2000FFF7AAFF049948720498007A01900428EB
:101C300000D9FFE00198810001A040588746C046C6
:101C4000551C0000791C0000B51C0000611D00003F
:101C5000A51D00000498407A00280CD1FFE70498E5
:101C6000807A012807D1FFE70499012008720398C0
:101C70000499C860FFE7E1E00498407A002814D195
:101C8000FFE703980499C968401A14280CD3FFE7AA
:101C900004990220087205A802786A490120885434
:101CA000049900204876FFE703E0049900200872B9
:101CB000FFE7C3E00498407A012832D1FFE7039898
:101CC0000499086103980499C968401A029002981F
:101CD000322810D3FFE70298C0087C280BD8FFE712
:101CE0000499087E401C0876039804994861049979
:101CF000042008720FE00298C0087D2806D3FFE791
:101D00000499002008720499087603E004990020E1
:101D10000872FFE7FFE705A802784A4902208854C5
:101D20001DE00498407EC007002817D1FFE7039804
:101D30000499C968401AC0087D280FD3FFE70499A9
:101D40000120487604990320087205A802783D49CD
:101D500004208854039804994861FFE7FFE76DE089
:101D60000498407A01280BD1FFE7049900200872FB
:101D70000499087605A8027832490220885410E0B8
:101D8000039804994969401AC82809D3FFE705A8B0
:101D900002782C4905208854039804994861FFE78C
:101DA000FFE74BE00498407A00282DD1FFE7049824
:101DB000807A012828D1FFE7039804990969401A1D
:101DC0004B21890088420FD8FFE705A802781D49FA
:101DD000062088540499002008760499012008728E
:101DE00003980499C8600EE005A8027815490320FD
:101DF00088540499002008760499012008720398F9
:101E00000499C860FFE714E0039804990969401A2F
:101E1000FF212E3188420BD3FFE705A8027809493C
:101E20000320885404990020087604990872FFE77B
:101E3000FFE703E0049900200872FFE706B080BDC9
:101E4000480420204404202080B582B00A46014680
:101E500001A8017069460A80007809882F4A00F0BD
:101E60004DF902B080BDC04680B582B0014601A8E0
:101E700001806A4600211170405E002808D5FFE706
:101E80006946012008700198404201A90880FFE7D7
:101E9000002101A8405E7349884205DBFFE77D20F1
:101EA000C00001A90880FFE76846007801A90988F9
:101EB000FFF7CAFF02B080BD80B582B00E2001904E
:101EC00001F0E0FB019801F007FC02B080BD0000CA
:101ED00080B588B000200490039001210691029102
:101EE0000D4805900190C80400900C488A040C4BE2
:101EF0000793194600F0BCF8049A05980699079BC9
:101F00000392029201904804009006480A04CA49CC
:101F100000F0AEF808B080BD00A086404000202050
:101F200000200A403001202080B58CB003460BA869
:101F3000079003800AAB198009A905910A804249DC
:101F40000891424A002106911160405EFEF7D1FBE4
:101F50000699024605983E4B1A60405EFEF7C9FBA3
:101F60003C49FEF77BF90899FEF73BF906990246D2
:101F70000798394B1A60405E002814D1FFE7002112
:101F80000AA8405E00280ED1FFE7002109A8405EA4
:101F9000002808D1FFE70020049000F07FFD04989E
:101FA000FFF762FF4EE02A48029000682A4901913B
:101FB0000968FEF7BDF8FEF7D1FB019902460298C9
:101FC000264B03931A6000680968FEF702F9FEF7D2
:101FD000C5FB01460398224A1160006821498842E6
:101FE00005DBFFE71D497D20C0000860FFE71B48B7
:101FF00000681D49884204DCFFE718491B48086057
:10200000FFE7174800681749884205DBFFE71449D6
:102010007D20C0000860FFE711480068124988422F
:1020200004DCFFE70E4911480860FFE7002100913A
:102030000A48405EFFF718FF00990948405E00F02B
:102040002DFDFFE70CB080BD0000E64258052020C2
:102050005405202000007A445C0520204C052020F7
:1020600050052020E903000017FCFFFF18FCFFFFCC
:1020700070B586B00C4605460D980C990B9E0A9ECD
:10208000059504940392029301AA11706946088091
:102090000598002804D0FFE70B98002801D1FFE73E
:1020A00029E004980599086003980599486002980A
:1020B000059988600A980599C8600B980599086188
:1020C00001980599087500980599C882059988684E
:1020D000C968FEF723FF059908684968FEF71EFFE7
:1020E00005980069FFF75AFA059A1069D18A127D9E
:1020F000FFF70CFAFFE706B070BD000080B584B0B2
:1021000003AB187002A8018001920198002801D148
:10211000FFE74AE003A80078009004283BD8009825
:10212000810001A0405887463D2100005321000056
:10213000692100007F2100009521000001990868B5
:102140004968FEF7FBFF01998868C968FEF7E6FE5B
:1021500021E0019908684968FEF7E0FE0199886866
:10216000C968FEF7EBFF16E0019908684968FEF7B9
:10217000E5FF01998868C968FEF7E0FF0BE0019967
:1021800008684968FEF7CAFE01998868C968FEF7C1
:10219000C5FE00E0FFE702980199C882019A106924
:1021A000D18A127DFFF7B2F9FFE704B080BD0000CD
:1021B00080B582B001A900200870FFE701A800786F
:1021C00007280FDCFFE701A80178002000F0F6F8EF
:1021D0000548802100F04FFAFFE70198401C01A953
:1021E0000870EBE702B080BD7000202080B584B09D
:1021F00003A9012000900870810202916E480190AD
:10220000FEF7C4FF00990198C902FEF7BFFF0198CD
:102210000299FEF763FF002804D1FFE703A900201D
:102220000870FFE70120C1026348FEF79FFE03A884
:10223000007804B080BDC04600000A4080B584B07C
:102240006420FFF7DFFAAE200021039100F094F93B
:102250000399084600F090F90399102000F08CF9DA
:1022600003994020019000F087F90399812000F044
:1022700083F90399CF2000F07FF90399A12000F0A2
:102280007BF90399C82000F077F90399A620029002
:1022900000F072F90399A82000F06EF903993F202D
:1022A00000F06AF90399D32000F066F90399084613
:1022B00000F062F90399D52000F05EF903998020BF
:1022C00000F05AF90399D92000F056F90399F1204A
:1022D00000F052F90399DA2000F04EF90399122028
:1022E00000F04AF90399DB2000F046F901980399C0
:1022F00000F042F90399202000F03EF903990220F2
:1023000000F03AF903998D2000F036F90399142072
:1023100000F032F90399A42000F02EF902980399F5
:1023200000F02AF9FFF744FF0399AF2000F024F9E9
:1023300004B080BD80B586B005A9087004A900204E
:102340000870FFE704A80078072833DCFFE70120C6
:10235000C1021948FEF70AFE05A800780006002809
:1023600006D5FFE7012081021348FEF70FFF05E0C5
:10237000012081021048FEF7F9FDFFE701200190DE
:10238000FFF75EFA0198C10203910B480290FEF735
:10239000FDFE0198FFF754FA02980399FEF7E6FD57
:1023A0000598400005A90870FFE70498401C04A99F
:1023B0000870C7E706B080BD00000A4080B584B051
:1023C00000910246009803A90A7002AA1070029AAE
:1023D000B03201A802700A781209103242700978EE
:1023E0000F2211408170032100F0FFF804B080BD7E
:1023F00010B58CB00BAC20700AA8017009A802704F
:1024000008A8037007AA002111700278520806ABD1
:102410001A7005AA11800078082804D1FFE704A9E2
:102420000620088012E008A801780191C8080290EF
:102430004907401C0029039001D10298039001989C
:1024400003994008484304A90880FFE70998203809
:1024500007A908700BA800780AA90978FFF7AEFF52
:1024600005A900200880FFE705A8008804A90988BD
:10247000884242DAFFE705A8008806A90978FEF736
:10248000CAF900290ED1FFE708A80078082809D06A
:10249000FFE70BA800780AAB19784A1C1A70FFF7FF
:1024A0008DFFFFE708A8007808280DD1FFE707A8EF
:1024B0000078062141431348401805A90988405C6B
:1024C000012100F059F812E008A8007810280CD17A
:1024D000FFE707A8007801010948401805A9098805
:1024E000405C012100F048F800E006E0FFE7FFE76C
:1024F0000598401C05A90880B6E70CB010BDC04681
:10250000A05C0000785A0000B0B586B005AC207021
:1025100004A80170039202A8037001A900200870AA
:10252000FFE7039801A90978405C002822D0FFE763
:1025300005A8007804A90978039A01AD2B785C1CE2
:102540002C70D25C02AB00931B78FFF751FF009810
:102550000078082805D1FFE70598801D05A90870B7
:1025600007E002A8007841080598401805A90870FE
:10257000FFE7D6E706B0B0BD80B582B001AA107003
:1025800068460170FFF752FA7820FFF7D3FEFFF795
:102590002DFE002803D0FFE7FFF766FA23E0684628
:1025A0000078002804D0FFE74020FFF7C3FE03E0D7
:1025B0000020FFF7BFFEFFE7FFF718FE002803D05B
:1025C000FFE7FFF751FA0EE001A80078FFF7B2FE2F
:1025D000FFF70CFE002803D0FFE7FFF745FA02E003
:1025E000FFF742FAFFE702B080BD80B584B00390E8
:1025F00002A801700078002801D1FFE739E0FFF759
:1026000015FA7820FFF796FEFFF7F0FD002803D0BB
:10261000FFE7FFF729FA2CE00020FFF78BFEFFF71A
:10262000E5FD002803D0FFE7FFF71EFA21E001A92E
:1026300000200870FFE701A8007802A90978884205
:1026400014DAFFE7039801A90978405CFFF772FEEE
:10265000FFF7CCFD002803D0FFE7FFF705FA08E0FD
:10266000FFE70198401C01A90870E4E7FFF7FCF9B7
:10267000FFE704B080BD80B584B0039002A801805C
:102680000088002801D1FFE727E0FFF7CFF9782085
:10269000FFF750FEFFF7AAFD4020FFF74BFEFFF7C4
:1026A000A5FD01A900200880FFE701A8008802A974
:1026B000098888420EDAFFE7039801A90988405C7F
:1026C000FFF738FEFFF792FDFFE70198401C01A9D4
:1026D0000880EAE7FFF7C8F9FFE704B080BD000013
:1026E00010B58AB0089007910692059308980028C3
:1026F00003D1FFE70020099036E008984068BC4904
:10270000FDF77CFF002804D1FFE70899B84848602E
:102710000CE0089840681649FDF78CFF002804D1AA
:10272000FFE7089912484860FFE7FFE70798019024
:10273000089903910868009006984968FDF751FDD3
:102740000099024601980292FDF74BFD0299FDF7B0
:10275000EFFC0399049005988968FDF742FD049900
:10276000FDF7E6FC0990FFE709980AB010BDC046E6
:1027700000007AC410B58EB00DAC20800C910B9285
:102780000A93002109910D9A08A80280405EFDF786
:10279000B0FF0146304807900068FDF7C9FC0146CC
:1027A0000798016000682D49FDF728FF002804D133
:1027B000FFE7294929480860FFE7274800682849BA
:1027C000FDF738FF002804D1FFE7234924480860BB
:1027D000FFE70021039108A8405E0490FDF789FF00
:1027E00001900C9800900B981B490968FDF7F9FCC3
:1027F0000099024601980292FDF7F3FC0299FDF759
:1028000097FC039A01460498059116490691895E42
:10281000401AFDF76EFF0A99FDF7E3FC0599FDF7F5
:1028200087FC069909900898088009980E49FDF7D9
:10283000E5FE002803D1FFE70B480990FFE7099860
:102840000A49FDF7F7FE002803D1FFE70748099082
:10285000FFE709980EB010BDF00020200000FA43F9
:102860000000FAC3F400202000409C4500409CC5B5
:1028700081B000900098002801D1FFE707E000999F
:10288000002008600099486000998860FFE701B067
:102890007047000080B5A0B000211F911E914C48E8
:1028A0001D901C911B911A904A48006819904A4843
:1028B0000078C00700280DD0FFE75048FFF7D8FF89
:1028C0004F48FFF7D5FF4449002008701998474941
:1028D00008607BE000201890179040480078C007FF
:1028E00000280CD1FFE73E480068002807D1FFE729
:1028F0003C48006818903C480068179040E0374812
:102900000078C00700283AD0FFE73449002008705B
:102910001998364906910968401AFDF7F5FE3449C1
:10292000FDF79CFC169033480590334904910A68E2
:102930000168169B3148079000F068F804990598E3
:102940004A684168169B2E48089000F05FF8069A86
:102950000798199911601F9B1E9A1D99FFF7C0FED9
:1029600001460120C007FDF734FC01460898189184
:102970001C9B1B9A1A99FFF7B3FE1790FFE7FFE71E
:102980002048029041681798FDF7D2FB0146029853
:10299000179101681898FDF7CBFB18901898FDF770
:1029A0000AFF01910090184A09A80390322101F012
:1029B00025FB039A002004210823FFF7A5FD1799A2
:1029C000189800F00DFE00F03DFEFFE720B080BD3E
:1029D000CDCC4C3E680520201C0020203D0420204A
:1029E00008002020FC002020F800202000012020EA
:1029F00000007A4460052020640420200401202087
:102A000010012020CC0120200463000010B588B004
:102A100007900691059204930798002807D0FFE7D6
:102A200004980021FDF714FE002801D1FFE721E002
:102A300007980068039006980599FDF7CAFB079967
:102A40000860079A01921068049952680092FDF795
:102A5000C8FB0099FDF76CFB01994860079802904C
:102A600000680399FDF7B5FB0499FDF7F7FB0299A0
:102A70008860FFE708B010BD80B582B00A46014605
:102A800001A8017069460A8000780988024AFFF7A8
:102A900035FB02B080BDC0463001202080B582B039
:102AA000014601A801806A4600211170405E00289D
:102AB00008D5FFE76946012008700198404201A946
:102AC0000880FFE7002101A8405E0849884205DB35
:102AD000FFE77D20C00001A90880FFE76846007875
:102AE00001A90988FFF7C8FF02B080BDE903000013
:102AF00085B003900291002001900090FFE70098BC
:102B000007280EDCFFE700991148405C002804D13B
:102B1000FFE70198401C0190FFE70098401C0090DF
:102B2000EDE701980299884209DCFFE701980399D3
:102B3000884204DBFFE704A90120087003E004A930
:102B400000200870FFE704A8007805B07047C04671
:102B50002200202010B586B0044608980594049100
:102B60000392029301A908700598002804D0FFE79A
:102B70000298002807D1FFE79E48174901F05AFA4A
:102B800000F01AFE26E0049805990860039805995C
:102B9000486002980599886001980599087305991D
:102BA0000020009048620862059AC143916205992D
:102BB00048630863059908684968FEF7C3F90598F2
:102BC0008068FEF7F5FC0099059A9068127BFEF785
:102BD0009DFCFFE706B010BD5A63000010B584B03D
:102BE000039002A80170019200930398002807D176
:102BF000FFE78048084901F01DFA00F0DDFD09E01B
:102C00000298039908740198039948610098039900
:102C10008861FFE704B010BDA463000080B588B0F0
:102C2000079006910798002805D0FFE7079880686D
:102C3000002807D1FFE76F48484901F0FBF900F091
:102C4000BBFD85E00698FDF7B6FD0A4607994A6286
:102C5000086207983F4988420BD1FFE70799086847
:102C60004968FEF71AFA002803D1FFE70120059012
:102C7000FFE70698FDF79FFD0122D207914300234D
:102C80001A46FDF71FFD002807D0FFE7079988685F
:102C90000A7B0021FEF73AFC5AE006980021FDF776
:102CA000ADFC002812D1FFE70798007C012806D16F
:102CB000FFE7079908684968FEF75EFA05E007999B
:102CC00008684968FEF73EF9FFE716E00798007CC0
:102CD000012806D1FFE7079908684968FEF732F92D
:102CE00005E0079908684968FEF746FAFFE7069885
:102CF0000121C90748400690FFE7FFE70798806871
:102D0000FEF7F6FD049007990698FEF70BFE039078
:102D10000120400202900498039A02995143FDF762
:102D20007AFD401E019001A84088002803D0FFE7EB
:102D300009480190FFE7079880680199FEF718FCA1
:102D4000079A906801994908127BFEF7DFFBFFE7BD
:102D500008B080BD78052020FFFF00002E63000032
:102D600080B588B007900798002807D1FFE7214871
:102D7000214901F05FF900F01FFD33E00798806AF8
:102D8000401C002805D1FFE71748006807998862B2
:102D900028E015480068069007990591086A019097
:102DA000486A02900698896A401AFDF7C9FC0246F3
:102DB00001980B460299FDF741FB059A136B0393AB
:102DC000526B0492094A0A4BFDF738FB039A049BA5
:102DD000FDF782FA0A4605994A630863069807993F
:102DE0008862FFE708B080BD68052020FCA9F1D209
:102DF0004D62503FD90120208263000080B582B02F
:102E00000B490C480190FEF76FFC01980A49FEF748
:102E10000BFC01980021FEF770FC0198D0211522CF
:102E2000FEF73CFC0198FEF7CFFB02B080BDC04628
:102E3000B062000000801040B262000080B58EB029
:102E4000262006210291FEF70FF901200990410486
:102E500005917C480A90FEF79FF802992720FEF71B
:102E600003F909990A988904FEF796F803200521C9
:102E7000FEF7FAF809990A984907FEF78DF8042138
:102E80000846FEF7F1F809990A988907FEF784F8D1
:102E90000B2002210191FEF7E7F801990C20FEF7C3
:102EA000D5F801993420FEF7DFF801993520FEF7B7
:102EB000CDF8099800230693009302040392312071
:102EC0001946FEF7ADF8059A069909980091C304D2
:102ED00004933020FEF782F8039A069B00931E208D
:102EE0001946FEF79DF8039A069B00931F2019468A
:102EF000FEF796F820200890FEF788F80E20FEF7DF
:102F000085F8039A069B009325201946FEF788F85A
:102F1000039A069B00932A201946FEF781F8039A2C
:102F2000069B00932B201946FEF77AF8039A069B1E
:102F300000932C201946FEF773F80298049B069A1A
:102F400000921146FEF74AF8049B069A00922D2043
:102F50001146FEF743F8039A049B06990091162048
:102F6000FEF73CF8039A049B069900911720FEF7A0
:102F700035F8039A049B069900911820FEF72EF865
:102F8000039A049B069900911920FEF727F8039AEB
:102F9000049B069900912120FEF720F8039A049BD8
:102FA000069900913820FEF719F8039A049B0699B8
:102FB00000913220FEF712F8039A049B06990091C3
:102FC0002220FEF70BF8059A069B00931420194661
:102FD000FEF726F8059A069B009315201946FEF782
:102FE0001FF80A98432189020791FDF78DFF079981
:102FF0000A98FDF7D1FF0A981021FEF791F8099978
:103000000A988902FEF7DCF808990A98FEF77AF820
:1030100009990A98C902FEF7C5F80A980A490B915E
:10302000FDF758FF0A980B99FDF7AAFFC3480C90CB
:1030300006490D91FDF768FF0C980D99FDF7ACFF5F
:103040000EB080BD00000A400400200004C04F0004
:1030500080B582B01049BE480190FEF745FB01984B
:103060000E49FEF7E1FA019800210091FEF745FBB9
:10307000019811211722FEF711FB01980321890203
:10308000FEF7AEFA00990E2000F03CFB0198FEF727
:103090009BFA02B080BDC046BC620000BE62000068
:1030A00080B586B01F49A6480590FEF737FA059807
:1030B0001D49FEF703F905980023029319461A46A5
:1030C000FEF73AFA029B0598009319461A46FEF756
:1030D00011FA029A05981146FEF7FEF9029A059830
:1030E0007D2189000391FEF711FA029B05980121C9
:1030F0000491009119461A46FEF7FCF90299049AC8
:103100000598FEF7E9F90399049A0598FEF7FEF988
:103110000598FEF7A5F805980321FEF7D3F906B048
:1031200080BDC046C8620000CC62000080B584B09B
:10313000144984480390FEF7F1F903981249FEF709
:10314000BDF803980023029319461A46FEF7F4F9D6
:10315000029B0398009319461A46FEF7CBF9029A90
:1031600003981146FEF7B8F9029A03981146FEF744
:10317000CDF90398FEF774F803980121FEF7A2F940
:1031800004B080BDD4620000D862000080B584B075
:1031900016496D480390FEF7C1F903981449FEF7EC
:1031A0008DF8039801220292510392028023FEF7C8
:1031B000C3F90299039800910023019319461A4616
:1031C000FEF798F90199029A0398FEF785F901999B
:1031D000029A0398FEF79AF90398FEF741F80398CC
:1031E0000221FEF76FF904B080BDC046E062000026
:1031F000E462000080B582B000200190FDF7FCFF82
:103200000198FEF711F8FDF7E7FFFDF7EBFF0198D6
:10321000FEF718F80198FDF7FBFF0199012000F077
:1032200071FA02B080BD80B57D20000200F0D4F8B4
:1032300080BD000080B582B00A498C480190FEF73D
:103240006DF901980849FEF7BDF801980121FEF7D4
:1032500011F81220032100F055FA0198FEF700F84A
:1032600002B080BDEC620000F062000080B500F0AA
:1032700023F8FFF7E3FDFFF7BDFFFFF711FFFFF7AF
:1032800055FFFFF783FFFFF7D5FFFFF7B7FDFFF708
:10329000DFFEFFF7C8FF05499C220020885404493F
:1032A00088540449B822885480BDC046400220207A
:1032B000E00220208003202080B588B01E480090C6
:1032C000FDF718FFC2480190FDF714FF1C4802905B
:1032D000FEF7ECF8C1480390FEF7E8F8BD4804900B
:1032E000FEF7E4F861480590FEF7E0F8174806900D
:1032F000FEF7C8F964480790FEF7C4F90098FDF797
:1033000057FE0198FDF754FE0298FDF7C1FF0398A0
:10331000FDF7BEFF0498FDF7BBFF0598FDF7B8FF6A
:103320000698FEF76BF90798FEF768F91020FDF78D
:10333000B7FD08B080BDC04600000A4000200A402A
:1033400000A08640008086400000094000801040B8
:103350000020104080B582B00C480068002813D1CE
:10336000FFE70B4800908088FDF7CEF901460098F2
:10337000084A01921160C1880F204001401AFDF7F0
:10338000B8F901994860FFE702B080BD080020202D
:103390002A0020206404202080B584B00B480068F7
:1033A000002811D1FFE7684600F076FB019A0099EA
:1033B00002A800F057FC064903984860029808608C
:1033C000044901200870FFE704B080BD10002020F0
:1033D000600520203D04202080B584B00290029832
:1033E000401E000E002803D0FFE70120039011E0EB
:1033F0000298401E0949086000200190C043032143
:1034000000F080F9019806490860064A072111601A
:103410000390FFE7039804B080BDC04614E000E0CD
:1034200018E000E010E000E080B509480168491CA0
:103430000160354A1168491C116000680A2806D1EC
:10344000FFE7FEF7BDFB024900200860FFE780BDF3
:103450006001202080B50548FDF726FF012803D133
:10346000FFE700F09DF9FFE780BDC0460000864001
:1034700080B50548FEF7CEF80B2803D1FFE7FDF72E
:10348000FDFB00E0FFE780BD0020104010B58AB0D2
:103490001D480068099009981C490968401A0A28C3
:1034A0002FD3FFE70998194900910968401AFDF7E1
:1034B0002BF91749FCF795FE0099089009980860C8
:1034C00000F03CFA039004910898FDF774F901901C
:1034D0000291104807900068FDF76DF9019A029B70
:1034E0000446039805940C4604990694FCF7A6FF3D
:1034F000059A069BFCF7F0FEFDF771F90799086045
:10350000FFE70AB010BDC04668052020C801202092
:103510006F12833A4805202080B584B00390029151
:10352000019200930198006803281CD0FFE70398DC
:103530000299FDF772FB00280ED0FFE700980068A3
:10354000002804D1FFE701990220086003E00199F7
:1035500001200860FFE705E001990020086000995C
:103560000860FFE7FFE704B080BD000080B588B0C9
:1035700001200290010416480390FDF7E9FD03982D
:103580000421FDF7E5FD029A03990092314801906C
:10359000D203104BFFF7DEFA01980299212253065D
:1035A00007930D4A0692FFF719FB029A0399002030
:1035B00005900090284804909203084BFFF7CAFA40
:1035C00004980599069A079BFFF708FB08B080BD91
:1035D00000200A40000009406666E63F0080864001
:1035E00080B584B0039002911B49086B496B00229F
:1035F000124BFDF751F800280AD1FFE71649086B76
:10360000496B00220E4BFDF731F800280AD1FFE785
:10361000114800210191FFF701FB01990D48FFF7C7
:10362000FDFA08E003990B48FFF7F8FA02990A48F7
:10363000FFF7F4FAFFE704B080BDC04600804640C3
:10364000008046C080B50348FFF78AFB0248FFF7B9
:1036500087FB80BD780520200805202081B0014629
:103660006846017000214056002809D4FFE76846EB
:1036700001781F200140012088400C490860FFE7C5
:1036800001B0704781B00146684601700021405684
:10369000002809D4FFE7684601781F200140012077
:1036A000884002490860FFE701B0704780E200E00F
:1036B00081B001466846017000214056002809D4B7
:1036C000FFE7684601781F200140012088400C492F
:1036D0000860FFE701B0704781B00146684601709D
:1036E00000214056002809D4FFE7684601781F20D2
:1036F00001400120884002490860FFE701B070479F
:1037000000E100E070B582B0024601A802700091AD
:1037100000214056002816D4FFE7002401A90857CD
:103720000322D3431840174A805809578C07E50EE7
:10373000FF24AC40A043009CA401E4B2AC40204371
:10374000194088501AE001A908780F242040083851
:103750000322D34318400A4A8058002549578D0751
:10376000EE0EFF25B540A843009DAD01EDB2B5407A
:1037700028432140083919408850FFE702B070BD46
:103780001CED00E000E400E080B582B00120019073
:10379000FFF764FF0198FFF78BFF02B080BD0000C8
:1037A000BC494868086888608868C00F08730020B2
:1037B000486008607047C04680B5FDF751FAFEF7D3
:1037C000F7FC044A002108230846FEF79DFEFFE7A8
:1037D000FEE7C046D901202080B592B0D1480068EC
:1037E000C117890F411803229143401A10900328F2
:1037F00000D999E01098810001A040588746C04642
:1038000011380000573800009D380000E3380000F0
:10381000C54801683F200006FCF7DBFCFCF7CBFF46
:10382000012293070D9300220C9201F0FDFA0C9AED
:103830000D9B0E900F913F49104601F0F5FA02469C
:103840000E980B460F99FCF747FD02F099F8FCF72C
:10385000C6FF11906BE001208307099335490022D0
:103860000892104601F0E0FA0A900B91AE48006809
:103870003F210906FCF75CFCFCF79DFF089A099BB9
:1038800001F0D2FA02460A980B460B99FCF724FD88
:1038900002F076F8FCF7A3FF119048E0A248016817
:1038A0003F200006FCF795FCFCF785FF01229307FB
:1038B00005930022049201F0B7FA049A059B069042
:1038C00007911D49104601F0AFFA024606980B46D3
:1038D0000799FCF701FD02F053F8FCF780FF119007
:1038E00025E001208307019312490022009210462F
:1038F00001F09AFA029003918B480168FF2080053D
:10390000FCF767FCFCF757FF009A019B01F08CFA6B
:10391000024602980B460399FCF7DEFC02F030F8F1
:10392000FCF75DFF119002E000201190FFE7119875
:1039300012B080BD0000E03F0000F83F80B5B8B095
:1039400006A8C821FCF7E9FB00F09CF81849039190
:10395000086000F09BF801460020C043049001205D
:103960000029059001D00498059003980599114A03
:10397000009211600068FCF7CFFE0F4A0F4BFCF776
:103980005DFD02460098019202910068FCF7C4FEBA
:10399000024601980B460299FCF750FD084A094B74
:1039A000FCF74CFD084A094BFCF748FD38B080BDD8
:1039B00018002020140020209A779CA223B9AC3F45
:1039C000D9CEF753E3A5BB3FCDCCCCCCCCCCF03F8C
:1039D00080B584B00390294800904021FDF768FB32
:1039E000014600984A425141039AD1718021FDF766
:1039F0005FFB014600984A425141039A91710121AF
:103A000001910902FDF754FB0199024600985342C7
:103A10005A41039B5A714902FDF74AFB014601983E
:103A20004A425141039A1171010315480290FDF772
:103A30003FFB01990246009853425A41039BDA70BA
:103A40008906FDF735FB01990246009853425A4119
:103A5000039B9A70C905FDF72BFB0199024602985A
:103A600053425A41039B5A704903FDF721FB4142DF
:103A700048410399087004B080BDC04600200A4048
:103A800000000A40034880687047C0460148007B38
:103A90007047C0467004202080B586B0049021484D
:103AA0000068401EFCF725FE1F49096800911F4968
:103AB000FCF797FB0099FCF73BFB05900598FCF79A
:103AC0007AFE1B4A01921B4B0293FCF7B7FCFCF7F2
:103AD00086FE01F0EDF818490391FCF782FB04998A
:103AE00008600598FCF767FE019A029BFCF7A6FCAC
:103AF000FCF775FE01F082FE0399FCF772FB0146AC
:103B00000498416000680D49FCF712FB01460498D7
:103B1000016040680A49FCF70BFB0499486006B055
:103B200080BDC046D4012020480520200000B442BA
:103B300044CD7D5F49DF913F0000704200801D430E
:103B40000000D44280B503200621FEF7D1FF80BDDE
:103B500070B592B011AC208010910F920E9300209E
:103B60000D900C90274A04A978CA78C178CA78C108
:103B70000390FFE70398072817DCFFE70399CF4876
:103B8000405C00280CD1FFE70398810004A841584D
:103B90000D98FCF7CDFA0D900C98401C0C90FFE7A7
:103BA000FFE70398401C0390E4E70C98012813DB1F
:103BB000FFE70D9801900C98FCF79BFD01460198DA
:103BC000FCF74CFB029002980F49FCF70AFBFCF74C
:103BD000C5FD0E49087000E0FFE70C480021009188
:103BE00040560E9B0F9A1099FEF7C4FDFCF7B6FDE8
:103BF0000099074A106011A8405E525EFEF794F9E2
:103C000012B070BD9062000000002041D801202059
:103C10000405202080B5AF204000FF218B0502491C
:103C20000022FFF795FF80BD0000F04180B582B013
:103C300000200190FFF71AFB62B6FFF7A5FD00F028
:103C400041F90748FDF7A0FCFEF736F9FEF7F6FA52
:103C5000FEF73EF9FDF720FF00F0FAF8FFE7FEE778
:103C60000000864080B5A8B01D9027922691269826
:103C700073490191FCF7F2FA269027987149029155
:103C8000FCF7ECFA2790704800900088FCF73CFDA8
:103C9000014600986D4A0F9291614088FCF734FD0F
:103CA0000F9A01460098D1618088FCF72DFD0F9A8C
:103CB000014600981161C088FCF726FD0F9A014665
:103CC000009851610089FCF71FFD0F9A014600988A
:103CD00091604089FCF718FD0F9A01460098D16069
:103CE0008089FCF711FD0F9A014600981160C08988
:103CF000FCF70AFD01990F9A50602698FCF7AEFA7E
:103D0000029923902798FCF7A9FA2290239903910E
:103D10007F20C0051890FCF75CFA0F9902460398C3
:103D200005920A6804928968FCF75BFA04990246D6
:103D300005980692FCF755FA0699FCF7F9F9014641
:103D40001898219123990791FCF743FA0F9902469D
:103D5000079809924A680892C968FCF742FA0899DC
:103D6000024609980A92FCF73CFA0A99FCF7E0F936
:103D700001461898209123990B91FCF72AFA0F9984
:103D800002460B980D928A690C920969FCF729FA90
:103D90000C9902460D980E92FCF723FA0E99FCF747
:103DA000C7F9014618981F9123991091FCF711FA51
:103DB0000F99024610981292CA6911924969FCF74C
:103DC00010FA1199024612981392FCF70AFA139905
:103DD000FCF7AEF9014618981E9122991491FCF750
:103DE000F8F9014614981691219915911F99FCF73D
:103DF000F8F91599024616981792FCF7F2F91799F7
:103E0000FCF796F91D9A01461898116022991991AC
:103E1000FCF7DFF9014619981B9120991A911E9918
:103E2000FCF7DFF91A9902461B981C92FCF7D9F9A6
:103E30001C99FCF77DF91D99486028B080BDC046EB
:103E400000809D43000054431C012020E4042020F6
:103E500080B582B0FFF78AFBFFE71848FFF7B8FD8F
:103E6000FFF714FBFFF76EFE002813D0FFE7624850
:103E7000006804280ED1FFE7FCF7F2FE01200104E0
:103E80000F480190FDF768F801980421FDF764F8E8
:103E900002B080BD00F022F8002803D1FFE7FFF751
:103EA000B9FEFFE7FFF756FAFFF776FAFCF71EFFB9
:103EB000FEF7F0FC0A20FDF7A5FCCEE7220020204B
:103EC00000200A4080B582B012200190FFF7C6FBA7
:103ED0000198FFF7EDFB02B080BD000080B586B011
:103EE000FFF730FE00280DD0FFE7394800680028B2
:103EF00008D1FFE736490120086036480068364996
:103F00000860FFE732480068012858D1FFE73248CF
:103F10000068FCF750FC314A314BFCF7DDF9314ABF
:103F2000314BFCF7D9F9FCF75AFC04900498FCF7E4
:103F300042FC2E4A2E4BFCF7CFF9FCF750FC0390C5
:103F4000244800680499FCF775FB00280BD1FFE7B3
:103F5000C8200290FDF788FF0298FEF79FFD05A993
:103F6000012008702FE01B4800680499FCF754FBFF
:103F7000002817D1FFE7174800680399FCF75AFBA0
:103F800000280FD1FFE71B4901200190087077201E
:103F9000C043FDF769FF7820FEF780FD019805A971
:103FA000087010E0FFE71349002008700949086015
:103FB0000749086010490868401C0860FFE705A928
:103FC00000200870FFE705A8007806B080BDC04655
:103FD00040042020480520206C052020F6285C8F16
:103FE000C2F5C83FB81E85EB51B8AEBF88E2E9F014
:103FF0006B7FC23F70052020D40120200FB47CB518
:104000000C0009AD01D0611E00E00021019100907B
:10401000074B6A462946089800F09EFA002C02D009
:10402000009A002111707CBC08BC04B01847000045
:10403000914C00000FB410B504A9074B02AA0398D5
:1040400000F08AFA044602A9002000F02CFE204667
:1040500010BC08BC04B01847A74C00002021020C7B
:1040600001D010211046020A01D010460839020979
:1040700001D01046091F820801D01046891E42084F
:1040800001D0881E7047081A7047F0B4040C8BB238
:10409000264682B25E430D0C1046370C5843360458
:1040A00080190021794116466E43370C3604801979
:1040B000794126466E438919F0BC70474900CA020F
:1040C0000243100000D004204A0D01D00122104309
:1040D000044A490D914201D102210843012800D12F
:1040E00005207047FF0700004100080200D00420AF
:1040F0000A0E01D001221043090EFF2901D102212D
:104100000843012800D105207047F8B504464F1E2A
:10411000C8000838211815461E46086849683A46FE
:1041200006239A4310D02A463346FCF787F93A46CD
:10413000D200083AA3181A687F1E5B68FCF7CCF817
:1041400006223B469343EED1022F23D0042F11D0F9
:10415000062F2FD12A463346FCF770F9E36AA26A8C
:10416000FCF7BAF82A463346FCF768F9636A226A14
:10417000FCF7B2F82A463346FCF760F9E369A26916
:10418000FCF7AAF82A463346FCF758F96369226916
:10419000FCF7A2F82A463346FCF750F9E368A26818
:1041A000FCF79AF82A463346FCF748F96368226818
:1041B000FCF792F8F8BD0000002210B51346104637
:1041C0000149FCF7A3F910BD0000F03F10B5FCF762
:1041D00083F810BD002210B5134610461146FCF7B7
:1041E00095F910BD10B50721024A00200907FCF718
:1041F00043FC10BD01030000034A10B50020110765
:10420000FCF73AFC10BD000001FDFFFF10B50121D5
:10421000FCF7F7FC10BD10B500210846FCF71EF8AE
:1042200010BD5E2110B5C9430807FCF7EAFC10BDBC
:10423000F0B50E4614465100FF22120687B0914297
:1042400003D31116316007B0F0BD01202502C0076D
:104250000543E00D7838C206D20E2020871A600090
:10426000000E7838401181004D4878440B189C4668
:104270004358002A14D06046406893400146F840F5
:1042800003436046806891408646F84001430391AD
:1042900060467146C0689140F84001430F4603E014
:1042A000604641680391876818462946FFF7EDFE8E
:1042B0000291049029460398FFF7E7FE03910690C8
:1042C00038462946FFF7E1FE0F460698029B3D1847
:1042D000049A0399BD4201D2012700E00027881803
:1042E000C019002F02D0884202D903E0884201D2CF
:1042F000012100E0002159180A4620329709C20C1A
:104300008906520340033760114301900846FCF7C9
:10431000F0F902900198FCF7F7F91221C943FCF774
:1043200070FC01902846FCF7EFF92521C943FCF702
:1043300068FC009001990298FBF7FAFE0099FBF7E0
:10434000F7FE0121C9024018050B2D0328460299EA
:10435000FBF73FFF0199FBF73CFF0099FBF73DFF9F
:104360001049FBF73EFF00900F492846FBF739FF45
:104370000099FBF7DDFE00900C492846FBF731FF62
:104380000099FBF7D5FE002C00DB5CE70121090753
:10439000C91B31600121C907484007B0F0BD0000CA
:1043A000EA170000DB0FC92F22AAFD290000C92F40
:1043B00002E008C8121F08C1002AFAD170470000A5
:1043C0007047000000000000002001E001C1121F42
:1043D000002AFBD1704700000149086070470000C7
:1043E00000002020F0B51FB486B00998089A030D8C
:1043F0000021024314D05148514A18185043051463
:104400001198012810981AD0281A401C00264D4FE8
:104410004D49009601910490002812DA444211E0BF
:104420001198012449A3012801D11098C14306988D
:10443000119A84600360C26041600BB0F0BD4042DD
:10444000E4E70446210500203F4A001C5141039146
:10445000029012E0E00707D032463B4601990098EF
:10446000FBF7ECFF0191009032463B46104619469F
:10447000FBF7E4FF06460F466410002CEAD10498CF
:10448000039B0028029A0999089806DAFBF7D6FFE1
:10449000019B009AFBF7D2FF05E0FCF737F8019B80
:1044A000009AFCF733F804460E460022284BFCF72E
:1044B0006BFB03D80020C043014607E00022254BD8
:1044C00020463146FBF708FFFCF73EFB102409E0CD
:1044D000002C0ADB0A220023FCF7BCF9079B3032D0
:1044E0001A55641E02460A43F2D11122641C079B2E
:1044F000121B1C19119B012B03D0012308430ED161
:104500000AE0084304D0112010900020119077E7B2
:104510001098151A6D1E0BE01098824202DD0023E0
:104520006D1C03E0824201DA00236D1E002BEED0E9
:10453000069811998260C16030C07EE701FCFFFFE0
:10454000104D0000000014400000F03F300000005B
:104550000000F0430000E03FFFB597B0064600259D
:1045600018E2252877D100242746FD49049400E06D
:104570000443761C32780120203A90400842F7D15B
:1045800030782A280ED002223078014630390929A5
:1045900016D804990A235943303940181443761C1D
:1045A0000490F1E7189802C804911890002904DAE1
:1045B0000120400304434842049002200443761C37
:1045C00030782E2814D1042004437078761C2A28D1
:1045D00009D11898761C80C8189009E00A214F4329
:1045E000303FC719761C3078014630390929F5D992
:1045F00030786C2810D006DC4C281AD068280ED0F1
:104600006A2817D104E0742813D07A2812D110E058
:104610000120400504430CE00121090501E00321CC
:1046200009050C437178814203D10120000524184B
:10463000761C761C3078119066280BD013DC582835
:104640007DD009DC00287BD04528F6D04628F4D060
:1046500047281AD1A5E118E0632835D0642870D026
:10466000652812D19DE170286CD008DC6728F1D054
:1046700069287BD06E280DD06F2806D1BAE0732848
:104680002ED0752871D0782859D01A9A1999904748
:104690006D1C7EE16002400F022809D003280DD076
:1046A0000428189801680DD00D60001D189070E165
:1046B0001898EA1701680D604A60F6E718980168D3
:1046C0000D80F2E70D70F0E718986A4601781172D4
:1046D000001D18900020507202A80090012005E0F3
:1046E000189802C8189000200091C04361070DD5AA
:1046F000002101E00199491C0191B94212DA81427D
:10470000F8DB009A515C0029F4D10BE0002101E0B4
:104710000199491C01918142FADB019A0099895C57
:104720000029F5D1019904981A9B471A2146384669
:10473000199A00F097FA0199401945180BE04FE0DB
:104740002CE113E04EE0009800990078491C00919C
:104750001A9A199990470198401E0190401CF2D175
:10476000214638461A9B199A10E137E00A200021A9
:10477000009001916002410F022907D0189A01CAE6
:104780001892C2179446032908D00AE01898C01D51
:10479000C108C90005C91891944607E000B2C217C4
:1047A0009446042902D140B2C1178C4600226146CA
:1047B000944506DA0A460021404291418C462D215B
:1047C00002E0210504D52B216A461173012103E083
:1047D000E10701D02021F7E7029155E00A200AE025
:1047E000102008E0102000900021042004430191D3
:1047F000082703E008200021019100906002410F8A
:10480000022907D0189A01CA189200229446032957
:1048100008D008E01898C01DC108C90005C9189142
:10482000944603E080B2042900D1C0B20021029175
:10483000210729D51199702906D0009A1021019BD2
:104840004A401A4305D00EE040216A461173012107
:1048500008E06146014306D030216A461173119980
:10486000517302210291009A0821019B4A401A4388
:104870000AD16146014301D1610705D530216A465D
:10488000117301217F1E02911199582904D035A17D
:104890000E910DA90D910DE037A1F9E76146019B3D
:1048A000009AFBF7D7FF0E9B8C469B5C0D9A521E1D
:1048B0000D92137061460143F0D10D9805A9081AB5
:1048C00020300190600703D501200004844300E0FC
:1048D00001270198874201DD381A00E00020019984
:1048E00000904118029809180498401A0490E003B7
:1048F00006D421461A9B199A049800F0B3F9451979
:10490000002706E003A81A9AC05D199990476D1C0C
:104910007F1C02988742F5DBE0030CD521461A9BE9
:10492000199A049800F09EF9451904E01A9A30206B
:10493000199990476D1C0099481E00900029F5DCDC
:1049400008E00D980D990078491C0D911A9A199953
:1049500090476D1C0199481E01900029F1DC63E12C
:104960000928010030313233343536373839616245
:104970006364656600000000303132333435363709
:1049800038394142434445460000000000F05AF9DE
:104990004519761C3078002800D0E2E528461BB087
:1049A000F0BD600700D406271898C01DC108C900D3
:1049B00048680A680831C30FDB071891190001D055
:1049C0009CA108E0210501D59BA104E0E10701D0ED
:1049D0009AA100E09AA1430011985B081091652804
:1049E0000CD006DC452809D046281DD0472841D1E7
:1049F00041E0662818D067283CD13CE00021112F07
:104A000001DB112000E0781C0191009008A911A899
:104A1000FFF7E8FC139905910021119A15927F1C6C
:104A200012980197009150E00120C00703900120E7
:104A3000019008A9009711A8FFF7D4FC139A1499C4
:104A400005920022119B009212981593059A0192EB
:104A5000002901D0104602E0791C40180190381A54
:104A600001D5019804E04042401E0090781C01905E
:104A7000C01B029043E0012F00DA01270021112F13
:104A800001DD112000E038460191009008A911A82D
:104A9000FFF7A8FC13990591119A0021129815921D
:104AA0000091019721070CD40599B94201DB0199C6
:104AB00000E00191012904DD159A491E515C30295D
:104AC00006D0B84201DA011D05DA0121029115E094
:104AD0000199491EEDE7002805DC00994118009175
:104AE0000199091A03E0019A411C914200DD0191EC
:104AF0000099401A401C02900120C0070390200733
:104B000006D402990198814202DB0020C043029042
:104B100000206946C87707AF012103980337C9070A
:104B2000884224D0022011902B2012900398002854
:104B30000CDA404203902D20129007E00A210398DE
:104B4000FBF769FE30317F1E039039701199481EC2
:104B500011900029F2DC03980028EFD1791E1298F9
:104B600008703078202108404530BF1E387006A8F4
:104B7000C01BC01D039010980078002800D00120B1
:104B8000019941180298C017091803980918049848
:104B9000401A401E0490E00306D421461A9B199A3D
:104BA000049800F05FF8451910980078002803D0A9
:104BB0001A9A199990476D1CE00324D521461A9B37
:104BC000199A049800F04EF845191CE00098002846
:104BD00007DB00990598884203DD1598405C199918
:104BE00001E0199930201A9A904700986D1C401CDA
:104BF00000900298401E0290002804D11A9A2E209C
:104C0000199990476D1C0199481E01900029DDDC1F
:104C100005E038781A9A7F1C199990476D1C039902
:104C2000481E03900029F4DC21461A9B199A049827
:104C3000ACE600002D0000002B000000200000006A
:104C400000000000F8B5044600251E4617468804FB
:104C500004D405E039462020B0476D1C641EF9D508
:104C60002846F8BDFFB50446002581B01E46C8039E
:104C700001D5302700E02027880404D505E0384618
:104C80000399B0476D1C641EF9D5284605B0F0BDE8
:104C90004A68002A06D00A68531C0B6010704868E6
:104CA000401E486070470A68531C0B6010707047C4
:104CB000F0B5024604464E4B83B040006946984228
:104CC00009D273210906884202D20020C04300E0C5
:104CD0000020009030E05000464B400898426CD2D3
:104CE00045491046FBF77DFAFBF748FE0746FBF700
:104CF00035FD8007800F009040493846FBF771FA78
:104D000001903F493846FBF76CFA06463D49384664
:104D1000FBF767FA05463C493846FBF762FA21463D
:104D2000FBF75BFA2946FBF754FA3146FBF751FAD9
:104D30000199FBF74EFA044625467F27009CFF05A4
:104D4000002C3EDBE007314E294608461BD0FBF71E
:104D500048FA07462E49FBF744FA2E49FBF7E8F9D3
:104D60003946FBF73EFA2C49FBF7E2F93946FBF7E7
:104D700038FA2946FBF735FA2946FBF7D9F9A10796
:104D800018D503B0F0BDFBF72CFA05462349FBF715
:104D900028FA2349FBF7CCF92946FBF722FA2149E7
:104DA000FBF7C6F92946FBF71CFA3946FBF7C0F9B1
:104DB000A107E6D5704003B0F0BD1046FFF738FA02
:104DC000B9E7FF2168000906884202D2384603B0DD
:104DD000F0BD884206D10120FFF7FEFAFFF71BFA6B
:104DE00003B0F0BD2846FFF711FA03B0F0BD000094
:104DF000B61F927E490E494683F9223F1A61342C30
:104E00000020A23300A0FD390000C93F000000804F
:104E1000336D4CB9DA82083CA0AA2ABEB93AB2BABC
:104E2000CA9F2A3DDDFFFFBEF0B51FB494B0844693
:104E30000C460246179D16980090490068006300D2
:104E4000490840080393002A01D0012600E000260B
:104E50009E19FB4BF6185B109E422BD36E00009FF1
:104E60000196002F00D00127F719F54EF54BBE191A
:104E70009E421FD3009E0346F34F334309D03B4667
:104E80009C4201D1002A04D0039B002A05D00126B0
:104E900004E00020394619B0F0BD00269E19EB4B06
:104EA0009E4207D8009F019E002F00D00127F619CF
:104EB0009E4207D92B4660462146169AFFF786F98F
:104EC00019B0F0BD0023002C29DAE14EB04226DAF9
:104ED000E04EB04201DB022321E0DB4EB0421EDB9C
:104EE000DD4E070DBE19142E09DD3427BF1B009EB1
:104EF000FE400196BE40009FBE420BD00FE0009FD7
:104F0000002F0CD11427BF1B0646FE400196BE4061
:104F1000864204D1019BDE07F60F02239B1B0E463F
:104F2000164318D1002D16DA002C03D0022B01D025
:104F3000012B06D00220FFF74FFAFFF73DF919B019
:104F4000F0BD0220FFF748FAFFF736F90122D20739
:104F5000514019B0F0BD009E002E61D1BC4EB04250
:104F600020D1BE48844201D1002A08D0B6488142EF
:104F700009DB002D10DB1698294619B0F0BD002082
:104F8000B14919B0F0BD002D06DA01222946D20739
:104F90001698514019B0F0BDB14979440868496884
:104FA00019B0F0BDA84FB84225D1002D1FDA002955
:104FB00004D0B14212D1002A09D018E0002A72D1DF
:104FC000A349E20F0020D207114319B0F0BD002021
:104FD000E20F0146D207114319B0F0BDB14206DA23
:104FE000234600203946FBF791FA19B0F0BD104670
:104FF000214619B0F0BDB14212DA0126B607B5421A
:1050000003D1234610461946EFE3964EB54207D129
:10501000261E05DB1046314600F0B2FC19B0F0BD8B
:1050200067007F081646002A40D100290AD0884A26
:10503000914229D1002C0EDD002D1CDB00201146F1
:1050400019B0F0BD022B16D0002C14D0012B12D1B8
:10505000002C14DB0FE0002C28DA002D09DB012BDB
:1050600003D000207A4919B0F0BD00207E4919B064
:10507000F0BD012B03D00020014619B0F0BD002087
:105080000121C90719B0F0BD6F4A91420ED1002C21
:1050900001DA002B17D0022B06D00020C043FBF70B
:1050A0003BFB19B0F0BD7AE20120F8E7E217521C91
:1050B00094461A4307D000220692634C62465B1E58
:1050C0001A4307D009E00120FFF786F9FFF782F8BD
:1050D00019B0F0BD0022614C0692644A90427DDD19
:1050E000634B644A98420ADD914202DC002D10DBDA
:1050F00025E05548814202DB002D0ADC1FE0914289
:1051000002DA002D05DB1AE04F4B994223DD002D1A
:1051100015DD0220FFF760F9FFF764F805460E463B
:1051200000224B4B21460698FBF788F90846710090
:105130004908C00FC0070143284619B0F0BD02203E
:10514000FFF74AF9FFF758F849004908E20FD2077C
:10515000114319B0F0BD002230463946FBF760F923
:10516000012205460E46D243FBF786FC424A434BDA
:10517000FBF75CF92A463346FBF760F90022394B0E
:10518000FBF754F907462A46334601911046194663
:10519000FBF754F93A46019BFBF750F90746032009
:1051A00007912A46334640073549FBF747F90191F5
:1051B0000890344A324B38460799FBF73FF90746C7
:1051C0000291314A314B28463146FBF737F93A46CE
:1051D000029BFBF725F907460B4600E013E0024669
:1051E000079101990898FBF777F800250E462846A5
:1051F000019B089AFBF714F93A46079BFBF716F94F
:1052000002460B468DE1012500202D05A94207DA53
:10521000352230463946FBF72FFC06463420C04382
:105220000A1512180C48084F101803900803000BB9
:10523000014639430491164988422BDC00202DE0B9
:10524000FFFF1F00FFFF0F000000F03F0000E0FF26
:105250000000F07F0000404301FCFFFF0000F0BFB2
:10526000B20A00000000E03F0000F0FF0000E04153
:105270000000F043FFFFEF3F555555555555D53FBD
:105280004715F73FFE822B6544DF5DF80BAE543EB9
:105290008E980300FE49884202DA01200F9007E051
:1052A00000200F900398401C03900498401B04902A
:1052B000049909910F98F749C00079440D90081896
:1052C0004368026830460999FBF7AAF80191F24950
:1052D000089079440D980818436802683046099987
:1052E000FAF7FAFF02460B4600203946FBF70EF9A3
:1052F00007910A90019B089AFBF7A0F81090E748E5
:105300000F4600257844006804990C90481001214C
:10531000490708430F99890440180121C90441181D
:105320000491DF4979440D9808184368026804998C
:105330000C98FBF775F83246099BFBF777F82A467D
:105340003B46FBF77BF80991064628463946049B05
:105350000C9AFBF773F8019B089AFBF767F8324643
:10536000099BFBF75DF8079B0A9AFBF767F80F911B
:10537000109A00903B4610461946FBF75FF8064628
:105380000246C8480B46079106217844FEF7BDFE49
:10539000079B32460191049010461946FBF74EF8E0
:1053A000019B049AFBF74AF8019106463B462846C2
:1053B0001946109AFAF790FF0F9B009AFBF73EF8F8
:1053C0003246019BFAF788FF2A463B460191089036
:1053D00010461946FBF732F802460B4607910A9031
:1053E0000020B149FAF778FF019B089AFAF774FF99
:1053F0000E462A46AC4B2846FBF712F8079B0A9A42
:10540000FBF70EF8019B089AFBF710F82A46099162
:105410001290334610463946FBF710F80191089078
:105420003B46109A09991298FBF708F8074607912E
:1054300033462A460F990098FBF700F83A46079B37
:10544000FAF74AFF07460B4602460791019908986A
:10545000FAF742FF0E462846019B089AFAF7E0FF4A
:105460003A46079BFAF7E2FF0746072007912A46CC
:10547000334640078D49FAF7E1FF029000918C4ACC
:105480008A4B38460799FAF7D9FF074601912A4611
:10549000334688488849FAF7D1FF3A46019BFAF724
:1054A0001BFF864A05467A440D9810184368026827
:1054B0002846FAF711FF089001910398FBF72CF9A1
:1054C0000B910746019B089A00990298FAF704FF8E
:1054D0007B4A05467A440D981018436802682846AE
:1054E000FAF7FAFE3A460B9BFAF7F6FE00250E464F
:1054F0003A4628460B9BFAF793FF724A07467A44CE
:105500000D981018436802683846FAF789FF009B27
:10551000029AFAF785FF019B089AFAF787FF02467D
:105520000B461799002002900F461698FAF786FF4F
:10553000039100903B46029A17991698FAF770FF6C
:105540002A463346FAF77AFF039B009AFAF7C4FE1D
:1055500007910C902A46334639460298FAF76EFFB7
:1055600006460F46079B0C9AFAF7B6FE564A0D46BA
:10557000914220DB5242AA18024310D132463B46E8
:10558000FAF74EFF03910890504A514B07990C9837
:10559000FAF7A2FE039B089AFBF7F6FA1ED2022046
:1055A000FEF71AFFFEF71EFE49004908E20FD20778
:1055B000114319B0F0BD6A00464B52089A420DD310
:1055C000454AAA18024300D0B9E532463B46FAF7ED
:1055D00027FF079B0C9AFBF7D7FAF5D96A0000233F
:1055E00052083E480393110D3D4B09189A4223DDA2
:1055F00001221205491CCA4052195100490D0818D0
:1056000038497944096813468C463749C1408B4371
:1056100012030121120B090551181422101AC1405E
:105620000391002D01DA4842039062463046394624
:10563000FAF7F6FE06460F4632463B4607990C98A7
:10564000FAF74AFE00252A46284B28460B91FAF71E
:10565000F5FE01910890264A264B28460B99FAF749
:10566000EDFE0291009032463B4628460B99FAF730
:10567000D7FE079B0C9AFAF7D9FE1F4A1F4BFAF781
:10568000DDFE029B009AFAF727FE07460B4637E03D
:105690007AB60B000A070000F20600004807000077
:1056A000A00600006A0600000000084009C7EE3F9F
:1056B000FD033ADCF5015B14E02F3EBE3E05000021
:1056C00000050000D604000000009040FE822B651B
:1056D0004715973C00CC904000346F3F01FCFFFF22
:1056E0000000E03F4A040000FFFF0F00432EE63FAA
:1056F000396CA80C615C20BEEF39FAFE422EE63F01
:105700000246079101990898FAF7E6FD0E4605460C
:10571000019B089AFAF784FE3A46079BFAF786FE41
:1057200007912A4633460C9010461946FAF786FE32
:10573000074602462F480B460B9105217844FEF799
:10574000E4FC3A460B9BFAF779FE2A463346FAF711
:105750006DFE0746099128463146079B0C9AFAF7D9
:105760006DFE079B0C9AFAF7B7FD01230191089093
:1057700000229B0738460999FAF752FE07910A90D2
:105780003A4628463146099BFAF758FE079B0A9A83
:10579000FAF7BCFE019B089AFAF742FE2A46334606
:1057A000FAF73EFE0022144BFAF740FE0546039836
:1057B0000E46000581190915002911DC28463146DD
:1057C000039AFBF759F9FEF779FC042801D1FEF79B
:1057D00013FD28463146039AFBF74EF9054600E0D3
:1057E00031180B462A4621460698FAF727FE19B0CB
:1057F000F0BD0000E80200000000F03FF0B50246F6
:105800000446514B83B040006946984209D2732147
:105810000906884202D20020C04300E00020009028
:1058200030E05000494B400898426BD2484910463E
:10583000FAF7D7FCFBF7A2F80746FAF78FFF8007C5
:10584000800F009043493846FAF7CBFC019042495B
:105850003846FAF7C6FC064640493846FAF7C1FC16
:1058600005463F493846FAF7BCFC2146FAF7B5FC35
:105870002946FAF7AEFC3146FAF7ABFC0199FAF784
:10588000A8FC04462546009C002C3FDBE007354E73
:10589000294608461AD0FAF7A4FC05463249FAF719
:1058A000A0FC3249FAF744FC2946FAF79AFC304941
:1058B000FAF73EFC2946FAF794FC7F21C905FAF76E
:1058C00037FCA10700D5704003B0F0BDFAF789FCA2
:1058D00007462849FAF785FC2749FAF729FC394693
:1058E000FAF77FFC2549FAF723FC3946FAF779FCE9
:1058F0002946FAF776FC2946FAF71AFCA107E2D402
:1059000003B0F0BD1046FEF793FCBAE7FF21680034
:105910000906884209D22846FEF7E6FB042801D191
:10592000FEF77FFC284603B0F0BD884206D1012077
:10593000FEF752FDFEF76FFC03B0F0BD2846FEF700
:1059400065FC03B0F0BD0000B61F927E490E4946CB
:1059500083F9223F1A61342C0020A23300A0FD39C4
:105960000000C93F00000080B93AB2BACA9F2A3D80
:10597000DDFFFFBE336D4CB9DA82083CA0AA2ABE17
:10598000F8B506460C46FBF78DF8051E0F4600D00D
:105990000120014349000B484908411AC90F0DD0A5
:1059A000002E01D0012100E000210C4361004908D4
:1059B000401AC00F02D10120FEF70EFD28463946DD
:1059C000F8BD00000000F07F000000000000F03F84
:1059D000000000000000F83F000000000000000090
:1059E0000000004003B8E23F00000000000000009B
:1059F00006D0CF43EBFD4C3E033333333333E33F29
:105A0000FFAB6FDBB66DDB3F4D268F515555D53F54
:105A100001411DA96074D13F65DBC9934A86CD3F22
:105A2000EF4E454A287ECA3F3E5555555555C53F10
:105A300093BDBE166CC166BF2CDE25AF6A56113F02
:105A4000F16BD2C541BDBBBED0A4BE726937663E04
:105A50000000000000000000000000006E83F9A2BA
:105A60002915444ED15727FCC0DD34F5999562DBEA
:105A70004190433CAB6351FE000000000000000079
:105A8000002F000000000700070000147F147F149F
:105A900000242A7F2A120062640813230036495525
:105AA000225000000503000000001C2241000000FD
:105AB00041221C000014083E08140008083E080893
:105AC000000000A0600000080808080800006060EE
:105AD0000000002010080402003E5149453E00002D
