:020000040000FA
:1000000050052020D5000000D9000000DB000000D2
:1000100000000000000000000000000000000000E0
:10002000000000000000000000000000DD000000F3
:100030000000000000000000DF0000009515000037
:10004000E3000000E3000000E3000000E300000024
:10005000E3000000E3000000E3000000E300000014
:1000600000000000E3000000E300000000000000CA
:1000700000000000E3000000E3000000E3000000D7
:10008000E3000000E3000000E3000000E3000000E4
:10009000E3000000E300000000000000000000009A
:1000A000E3000000E300000000000000000000008A
:1000B000E300000000000000E3000000E300000097
:1000C0000348854600F010F8004800473517000047
:1000D0005005202003480047FEE7FEE7FEE7FEE765
:1000E000FEE7FEE7C10000001CB509480090094882
:1000F000019005460126009C05E0E36807CC3343E8
:100100000C3C98471034AC42F7D3FFF7DDFF0000FA
:100110001420000024200000811E091F00BFFCD213
:10012000704784B003900291019203980068009098
:10013000009801998843009000980299019A114013
:1001400008430399086004B0704784B0039002919B
:1001500001920398006800900098019988430090EC
:1001600000980299019A114008430399086004B06D
:10017000704782B001900091009801999522520138
:10018000885002B0704782B00190009100980199A8
:1001900095225201885002B07047000081B0009053
:1001A00000988100444A885801235B061843885010
:1001B00001B0704782B00190009100980199024A05
:1001C000885002B07047C046D012000081B0009045
:1001D00000990120C2025948885001B07047C046BA
:1001E00010B584B0069C039002910192009302988E
:1001F00001990843009908430699084303490843B5
:10020000039989002C4A885004B010BD8100040075
:1002100081B0009000988100274A8120885001B069
:100220007047C04610B584B0069C039002910192BD
:1002300000930298019908430099084306990843DE
:1002400081210843039989001B4A885004B010BDDE
:1002500082B00190009100981049084301998900EB
:10026000154A885002B0704710B584B0079C069CB0
:10027000039002910192009302980199084300991A
:10028000084306990843079908430449084303991A
:100290008900094A885004B010BDC046800004009F
:1002A00082B0019000910098802108430199890053
:1002B000014A885002B070470480424082B00190E9
:1002C000009101982721C90140580099084002B0C7
:1002D0007047000081B000900099364A3648885037
:1002E00001B0704781B000900099092042028858FF
:1002F00001231B021843885001B0704781B0009061
:100300000099084A885801231843885001B0704763
:1003100081B000900099034A8858042318438850FC
:1003200001B070472812000081B0009000990120B0
:10033000C202C048885001B07047C0460100002684
:1003400010B5002A0FD091235B01C3180020DC698F
:100350002405240F05D00C5C1C60401C8242F6D1A1
:10036000104680B210BD002080B210BD3C4A8358B8
:1003700080210B43835080180F22120243681340E0
:100380000122D2029342F7D102688A430260704789
:1003900081B0009000980249405801B07047C046B3
:1003A0001812000081B000900099024A024888505B
:1003B00001B0704704080000030000B181B0009054
:1003C0000099494A0020885001B0704780B584B038
:1003D000019101460198039102A90880039809221E
:1003E00052028018098803225202FFF79AFE04B0D5
:1003F00080BD70B50A780C231A4001242403051926
:100400006E689E43B2186A6049780722114003590A
:1004100093435918015170BD80B584B001910146D4
:100420000198039102A9088003980D4A8018098851
:1004300007221202FFF775FE04B080BD80B584B0BC
:10044000019101460198039102A908700398044A9A
:10045000801809780722FFF764FE04B080BDC0460B
:100460003812000080B584B00191014601980391D3
:1004700002A90870039809225202801809780722FD
:10048000FFF74FFE04B080BD82B001906846017056
:1004900000780199014A885002B070472412000088
:1004A00010B586B00192024601980592049103AA04
:1004B000107002A803800598094940180499490062
:1004C00012781143074AFFF740FE05980649401885
:1004D00002990904C91D054AFFF737FE06B010BD91
:1004E00010120000FF070000141200000700FF0FA9
:1004F000064908680122904308607047034908686C
:1005000001221202904308607047C04608010B4068
:1005100081B001466846017000780249086001B068
:100520007047C04608030B4080B582B0014601A861
:10053000017001780F480F22FFF7F3FD02B080BD74
:1005400080B582B0014601A80170017802480322FB
:10055000FFF7E7FD02B080BD00010B4080B582B01F
:10056000014601A80170017802483022FFF7D9FD49
:1005700002B080BD04010B4082B001900091009850
:100580000199024A885002B07047C04648100000E6
:1005900010B585B000930B460099049003A8038022
:1005A000029201AB197004991A7892008A18B14C22
:1005B000084911510299049A1B789B00D2183123E3
:1005C000DB01D1500088044908430499D94A885076
:1005D00005B010BD010002001200001081B00090B3
:1005E0000099024A0120885001B0704708110000AC
:1005F00082B001900091009B0199DB4A8858184312
:10060000885002B07047C04682B001900091009BB4
:100610000199D54A88581843885002B07047C0469F
:1006200081B0009000990120C202D548885001B0E5
:100630007047C0460100002681B000900098032159
:10064000C902405801B07047F0B5BA4A82183B4B16
:10065000C31808794E793A4D764C002E23D02028C5
:1006600004D00526F601002803D003E0354E00280B
:1006700000D18826576F2F4037435767976F2F4019
:1006800037439767566B26405663966B26409663B2
:100690000026566596658F26F6435F6837405F6093
:1006A0009F6837409F608E79096820280BD000280A
:1006B00019D1491E5160D76E2F4088210F43D7664C
:1006C0001746703719E0491E5160D16E29401D4F01
:1006D0003943D166116F2940394311670121490718
:1006E000194D174609E049085160D76E2F40052182
:1006F000C9010F43D766174670373C682C400C433E
:100700003C60D16A4B4C2140D162116B2140116396
:100710000021D16411658F21C943D46F0C40D46787
:100720001C680C401C600643BD2030401168074B1C
:100730000B40C018801C1060F0BDC046841800003B
:1007400024493E0001040000FFFFFFCF4000FFCF1F
:10075000B0B54A686C4BC250764A80180A78222A93
:1007600058D8930001A4E3589F46C0460B080000E8
:10077000150800000B08000015080000150800000F
:1007800015080000150800001508000015080000F5
:1007900015080000150800001508000015080000E5
:1007A000150800001508000015080000F9070000F2
:1007B00015080000F90700001508000015080000E2
:1007C00015080000150800001508000015080000B5
:1007D00015080000150800001508000015080000A5
:1007E000150800001508000015080000F9070000B2
:1007F00015080000F907000003231B0704689C4349
:1008000001235B07E318036004E003231B0704686C
:100810009C4304600B69C360CB68054C1C40C36AF1
:10082000044D1D402B19C362097A11430160B0BD0C
:10083000777702008888FDFF81B0009000996D4AAB
:100840006D48885001B0704782B0019000910098C7
:10085000019911221202885002B0704710B5072387
:100860009B04194092008018024A84589C436118E6
:10087000815010BD3018000010B5029CA400001972
:1008800011431943014A815010BDC0465018000061
:1008900092008018014A81507047C046101800002D
:1008A00010B50122120383180C789C604B7883509A
:1008B0008978014A815010BD0C11000010B586B036
:1008C00001930B4601460198059104A90B8003ABE7
:1008D0001A8002AA10800598164C001909881B88F6
:1008E000194312881143024AFFF71BFC06B010BDE2
:1008F00080FF000082B00190009100980199024AA7
:10090000885002B07047C0460818000081B00090BF
:100910000099084A885801231843885001B070474D
:1009200081B000900099034A8858012318438850E9
:1009300001B070470418000081B0009000991120A8
:100940000202885801231843885001B07047000004
:1009500082B001900091009B0199034A8858184386
:10096000885002B07047C0462810000081B0009047
:1009700000990120C2020248885001B07047C04669
:1009800001000026B0B51122120283580124A343AE
:1009900083500B888C781C438B882343094C1C4064
:1009A0008358094D1D40631983508B79CC791C43C2
:1009B000097A21437E231940801842689A435118CE
:1009C0004160B0BD18670000E798FDFF81B000905E
:1009D0000098034940580121084001B07047C046C3
:1009E0000811000081B000900099024A0248885026
:1009F00001B0704704080000030000B180B584B066
:100A000003900291019203980B49401802990B4AF6
:100A1000FFF787FB03980A49401801993F22FFF727
:100A200080FB0399074A8818895801221140FFF773
:100A300078FB04B080BDC04610110000FFFF00002D
:100A4000141100000411000010B5012212038318D4
:100A50000C789C604978815010BD80B582B00190BF
:100A60000091019811210902401800990322D20334
:100A7000FFF757FB02B080BD82B00190684601705D
:100A80000078019989225201885002B0704780B5E0
:100A900082B00190FFE70198411E0191002805D026
:100AA000FFE77D20C00000F003F8F4E702B080BD4E
:100AB00082B001900198400100900098401E0A49C0
:100AC00008600A4900200860094905200860FFE71E
:100AD00007480068C003002801D4FFE7F8E704498D
:100AE0000020086002B0704714E000E018E000E069
:100AF00010E000E080B588B007900691059204935D
:100B0000254800680A2801DBFFE742E00798224AEF
:100B1000039211684B0121490291CB189860069805
:100B2000126852018918C8600798FFF7F9FE069805
:100B300001210191FFF720FD01990698FFF764FD5F
:100B40000698FFF7EDFE0299039A106840010B1812
:100B500064201861106843010020C85012685201D7
:100B6000891848600798FFF767FD039902460298C5
:100B70000B685B01C3189A83096849014018143057
:100B80000599049A00F00CF803990868401C086065
:100B9000FFE708B080BDC046480420206C0020203C
:100BA00083B00290019100920298002801D1FFE7E2
:100BB00006E0019802990860009802994860FFE7F2
:100BC00003B0704780B50648FFF700FF002805D145
:100BD000FFE703484C21FFF74FFFFFE780BDC0460A
:100BE0000020104080B582B00E20019000F0EAFC99
:100BF000019800F0FDFC02B080BD000010B58CB083
:100C000000F01EFC41200B9002901E4805900190C0
:100C1000002400941C4804901C4B0693224600F0CC
:100C200043F804980394012108910291184A07920D
:100C30000192CA0400928A04164B0A93194600F0E6
:100C400053F80598069B0B99029101900094124865
:100C50000990224600F028F8079A089909980A9BFB
:100C60000394029401924A0400920A040B4900F092
:100C70003BF80B9A5B20830009480A49FFF73AFFCB
:100C80000CB010BD00C072400800202000003C40A5
:100C900000A0864000200A403800202000000A40C2
:100CA0000000094000008640B0B586B004460B99AC
:100CB0000A980C9D05940393029201910090059867
:100CC000002801D1FFE70DE00298039A0599CA6157
:100CD00088610098019A05994A6208620C98059902
:100CE0008862FFE706B0B0BD70B586B00C46054619
:100CF0000D980C990B9E0A9E0595049403920293FD
:100D000001AA1170694608800598002804D0FFE701
:100D10000B98002801D1FFE729E0049805990860A5
:100D20000398059948600298059988600A98059982
:100D3000C8600B9805990861019805990875009895
:100D40000599C88205998868C968FFF71CFA059952
:100D500008684968FFF717FA05980069FFF7D6FD9C
:100D6000059A1069D18A127DFFF792FDFFE706B060
:100D700070BD80B584B003AA0192107002A8017002
:100D80000298B030C0B200F0D3F8019800780009A2
:100D9000103000F0CDF8019800780F21084000F0E5
:100DA000C7F804B080BD000010B586B0044605A8A1
:100DB000047004AC217003A90A7002A90B7001AA87
:100DC000002111706B461970039920391170007859
:100DD000802808DBFFE705A9002008700498801C24
:100DE00004A90870FFE702A80078102841D1FFE7A6
:100DF00005A8007804A90978FFF7BBFF6946002021
:100E00000870FFE768460078072810DCFFE701A8B4
:100E1000007800016946097841182848405C00F0D4
:100E2000ABF8FFE70098401C69460870EAE705A8A0
:100E300000780499491CC9B2FFF79BFF694600205E
:100E40000870FFE768460078072811DCFFE701A873
:100E50000078000169460978401818494018007A5E
:100E600000F08AF8FFE70098401C69460870E9E73F
:100E700020E005A8007804A90978FFF77AFF694601
:100E800000200870FFE768460078052811DCFFE7BE
:100E900001A80078062141430748401869460978AF
:100EA000405C00F069F8FFE70098401C6946087054
:100EB000E9E7FFE706B010BD9E170000C619000065
:100EC00010B586B005AC207004A80170039202A88A
:100ED000037001A900200870FFE7039801A90978B1
:100EE000405C002822D0FFE705A80090007804A904
:100EF0000978039A01AB1B78D25C02AB1B78FFF731
:100F000053FF00980599083101700078792808DBB3
:100F1000FFE705A9002008700498801C04A9087048
:100F2000FFE70198401C01A90870D6E706B010BD84
:100F300080B586B005A9087004A9029100220A7044
:100F400005984870BA480190782102230393FFF76F
:100F5000A7FA0198FFF70AFA01980299039AFFF796
:100F6000EFF9FFE7B248FFF713FA4006002801D572
:100F7000FFE7F7E706B080BD80B586B005A9087029
:100F800004A902914020087005984870A848019073
:100F90007821002202230393FFF782FA0198FFF7DA
:100FA000E5F901980299039AFFF7CAF9FFE7A0480B
:100FB000FFF7EEF94006002801D5FFE7F7E706B096
:100FC00080BDC04680B582B00B490C480190FFF748
:100FD0003BFD01980A49FFF7D5FC01980021FFF776
:100FE0003CFD0198D0211522FFF708FD0198FFF77D
:100FF000A3FC02B080BDC046B61F000000801040B8
:10100000B81F000080B590B0262006210491FFF79C
:1010100047F90120099041046B480C90FFF7CAF88A
:1010200004992720FFF73CF909990C988904FFF7E8
:10103000C1F80320039005210291FFF731F90999C6
:101040000C984907FFF7B6F802990420FFF728F932
:1010500009990C988907FFF7ADF803992D20FFF740
:10106000F7F8049802210891FFF7F2F80998002395
:101070000A930193C0040B9000901420069008215D
:1010800005911A46FFF7F0F805990A9B0B98019312
:101090000090152007901A46FFF7E6F80698FFF72C
:1010A0007DF80798FFF77AF808990B20FFF7F8F812
:1010B00008990C20FFF7CCF808993420FFF7F0F8D6
:1010C00008993520FFF7C4F809980A9B0093020499
:1010D0000D9231201946FFF7A5F83020FFF798F858
:1010E0001E20FFF795F81F20FFF792F82020FFF74A
:1010F0008FF80E20FFF78CF80A9B0D9A009325209D
:101100001946FFF78FF80A9B0D9A00932A2019467B
:10111000FFF788F80A9B0D9A00932B201946FFF7DA
:1011200081F80A9B0D9A00932C201946FFF77AF854
:101130000A990B9B0D9A00911620FFF751F80A9916
:101140000B9B0D9A00911720FFF74AF80A990B9B09
:101150000D9A00911820FFF743F80A990B9B0D9AFE
:1011600000911920FFF73CF80A990B9B0D9A00910A
:101170002120FFF735F80A990B9B0D9A0091382032
:10118000FFF72EF80A990B9B0D9A00913220FFF77A
:1011900027F80A990B9B0D9A00912220FFF720F85F
:1011A0000C980D99FEF7E5FF0C980D99FFF702F8E2
:1011B000DC480E9005490F91FEF7DBFF0E980F9962
:1011C000FEF7F8FF10B080BD00000A4004C06F00B9
:1011D00080B584B01549D8480390FFF70AF9039801
:1011E000032101914902FFF7F1F80398FFF77AF81C
:1011F00003980121FFF736F90398FFF7DFF801990B
:101200000398FFF741F9039807210291FFF716F9B8
:10121000029903980902FFF7FFF80398FFF778F89F
:101220000398FFF76BF804B080BDC046C21F0000F2
:1012300000200F4080B582B00D49C1480190FFF7F2
:1012400003FC01980B49FFF79DFB01980021FFF774
:1012500004FC019811211722FFF7D0FB019803210C
:101260008902FFF775FB0198FFF766FB02B080BDAE
:10127000C41F0000C61F000080B586B01F49AA48E1
:101280000590FFF70DFB05981D49FFF7DDF905985F
:101290000023029319461A46FFF710FB029B05989C
:1012A000009319461A46FFF7E7FA029A0598114685
:1012B000FFF7D4FA029A05987D2189000391FFF780
:1012C000E7FA029B059801210491009119461A46FC
:1012D000FFF7D2FA0299049A0598FFF7BFFA03992B
:1012E000049A0598FFF7D4FA0598FFF777F905985F
:1012F0000321FFF7A9FA06B080BDC046D01F000049
:10130000D41F000080B584B00E4989480390FFF7D0
:10131000C7FA0398492149020191002302931A4612
:10132000FFF736F90199029A03980123FFF730F984
:1013300003980549FFF7DEFA0398FFF74FF904B069
:1013400080BDC046DC1F0000FFFF000080B586B0F6
:101350001F4976480590FFF7A3FA05981D49FFF746
:1013600073F905980023029319461A46FFF7A6FA67
:10137000029B0598009319461A46FFF77DFA029AD8
:1013800005981146FFF76AFA029A05987D21C9006F
:101390000391FFF77DFA029B0598012104910091CA
:1013A00019461A46FFF768FA0299049A0598FFF75A
:1013B00055FA0399049A0598FFF76AFA0598FFF71A
:1013C0000DF905980321FFF73FFA06B080BDC0462E
:1013D000DF1F0000E41F000080B582B000200190F4
:1013E000FFF796F80198FFF7ABF8FFF781F8FFF7E2
:1013F00085F80198FFF7B2F80198FFF795F802B069
:1014000080BD80B57D20000200F09CF880BD00000A
:1014100080B582B0084947480190FFF741FA01982A
:101420000649FFF795F901980121FFF7E1F80198C6
:10143000FFF7D4F802B080BDEC1F0000F01F0000E1
:1014400080B500F029F8FFF7DDFDFFF7C5FFFFF7D6
:1014500013FFFFF77BFFFFF755FFFFF7D9FFFFF7FC
:10146000B7FEFFF7AFFDFFF7E5FEFFF7CAFF06493E
:101470009C22002088540549885405498854054910
:10148000B822885480BDC046AC012020EC02202048
:101490004C0220208C03202080B58AB0A448019003
:1014A000FEF718FFA1480290FEF714FF1E480390B4
:1014B000FFF7C2F91D480490FFF7BEF91C480590DC
:1014C000FFF7BAF91B480690FFF7B6F91A480790DC
:1014D000FEF768FF19480890FFF784FA184809904A
:1014E000FFF780FA0198FEF771FE0298FEF76EFE94
:1014F0000398FFF795F80498FFF792F80598FFF71F
:101500008FF80698FFF78CF80798FEF70DFF0898FC
:10151000FFF72CFA0998FFF729FA1020FEF7FCFDD7
:101520000AB080BD00200A4000A0864000808640AE
:10153000000009400000864000200F40008010405D
:101540000020104080B584B002900298401E000E2A
:10155000002803D0FFE70120039011E00298401E0D
:101560000949086000200190C043032100F056F8AB
:10157000019806490860064A072111600390FFE7B9
:10158000039804B080BDC04614E000E018E000E01D
:1015900010E000E009480168491C0160084A116830
:1015A000491C116000687D21C900884204D1FFE711
:1015B000024900200860FFE77047C046680020200D
:1015C0004C04202081B0014668460170002140563D
:1015D000002809D4FFE7684601781F200140012058
:1015E000884002490860FFE701B0704780E200E0F0
:1015F00081B001466846017000214056002809D498
:10160000FFE7684601781F20014001208840024919
:101610000860FFE701B0704700E100E070B582B0FC
:10162000024601A80270009100214056002816D4FD
:10163000FFE7002401A908570322D3431840174AA3
:10164000805809578C07E50EFF24AC40A043009C4E
:10165000A401E4B2AC402043194088501AE001A92B
:1016600008780F24204008380322D34318400A4A40
:101670008058002549578D07EE0EFF25B540A84339
:10168000009DAD01EDB2B540284321400839194015
:101690008850FFE702B070BD1CED00E000E400E000
:1016A00080B584B00390214800904021FEF706FEEB
:1016B00001460098039A11708021FEF7FFFD014654
:1016C0000098039A5170012101910902FEF7F6FD7D
:1016D000019902460098039B9A704902FEF7EEFDBD
:1016E00001460198039AD170010311480290FEF758
:1016F000E5FD019902460098039B1A718906FEF7E1
:10170000DDFD019902460098039B5A71C905FEF759
:10171000D5FD019902460298039B9A714903FEF791
:10172000CDFD0399C87104B080BDC04600200A40B9
:1017300000000A4080B582B000200190FFF780FED3
:10174000FFF75CFAFFF74EFAFFF73CFA0748FFF79E
:10175000A7FFFFE77D20C000FFF799F9044A0021A9
:1017600008231846FFF7ACFBF4E7C0460000202032
:10177000042000000000000002E008C8121F08C199
:10178000002AFAD1704700007047000000000000F6
:10179000002001E001C1121F002AFBD170470000A8
:1017A000000000000000002F0000000007000700FC
:1017B00000147F147F1400242A7F2A120062640818
:1017C0001323003649552250000005030000000095
:1017D0001C224100000041221C000014083E081495
:1017E0000008083E0808000000A060000008080883
:1017F0000808000060600000002010080402003E9D
:101800005149453E0000427F400000426151494637
:10181000002141454B31001814127F100027454527
:101820004539003C4A494930000171090503003639
:101830004949493600064949291E0000363600004C
:101840000000563600000008142241000014141451
:10185000141400004122140800020151090600324C
:101860004959513E007C1211127C007F494949368A
:10187000003E41414122007F4141221C007F4949F5
:101880004941007F09090901003E4149497A007F29
:101890000808087F0000417F4100002040413F01CF
:1018A000007F08142241007F40404040007F020C2E
:1018B000027F007F0408107F003E4141413E007FCF
:1018C00009090906003E4151215E007F0919294698
:1018D0000046494949310001017F0101003F404074
:1018E000403F001F2040201F003F4038403F006322
:1018F0001408146300070870080700615149454344
:1019000000007F41410000552A552A550000414101
:101910007F000004020102040040404040400000FB
:1019200001020400002054545478007F4844443895
:1019300000384444442000384444487F003854541C
:10194000541800087E0901020018A4A4A47C007F9A
:10195000080404780000447D4000004080847D003D
:10196000007F102844000000417F4000007C0418E4
:101970000478007C0804047800384444443800FCAF
:10198000242424180018242418FC007C08040408CB
:1019900000485454542000043F444020003C404040
:1019A000207C001C2040201C003C4030403C004477
:1019B00028102844001CA0A0A07C004464544C447F
:1019C000141414141414000000000000000000009F
:1019D000000000000000000000F80000000000000F
:1019E00000333000000000100C06100C0600000050
:1019F00000000000000040C07840C0784000043F74
:101A000004043F040400007088FC08300000001843
:101A100020FF211E0000F008F000E0180000002167
:101A20001C031E211E0000F00888700000001E210B
:101A300023241927211010160E00000000000000BA
:101A4000000000000000000000E018040200000098
:101A500000071820400000020418E00000000040C9
:101A6000201807000000404080F080404000020243
:101A7000010F01020200000000F00000000001015F
:101A8000011F01010100000000000000000080B003
:101A900070000000000000000000000000000001D5
:101AA0000101010101010000000000000000003000
:101AB000300000000000000000008060180400609A
:101AC00018060100000000E010080810E000000FF8
:101AD000102020100F00001010F80000000000205F
:101AE000203F2020000000700808088870000030A7
:101AF000282422213000003008888848300000184F
:101B0000202020110E000000C02010F80000000767
:101B10000424243F240000F80888880808000019DD
:101B2000212020110E0000E0108888180000000F0E
:101B3000112020110E0000380808C83808000000E5
:101B4000003F000000000070880808887000001C3A
:101B5000222121221C0000E010080810E0000000F3
:101B6000312222110F00000000C0C0000000000060
:101B70000030300000000000008000000000000085
:101B8000806000000000000080402010080000017C
:101B9000020408102000404040404040400004043F
:101BA0000404040404000008102040800000002009
:101BB000100804020100007048080808F000000046
:101BC000003036010000C030C828E810E0000718D7
:101BD000272423140B000000C038E0000000203C44
:101BE00023020227382008F8888888700000203FE8
:101BF000202020110E00C0300808080838000718FF
:101C000020202010080008F808080810E000203FF5
:101C1000202020100F0008F88888E8081000203FD6
:101C200020202320180008F88888E8081000203FAA
:101C3000200003000000C030080808380000071822
:101C40002020221E020008F808000008F808203FA3
:101C5000210101213F20000808F8080800000020A9
:101C6000203F2020000000000808F8080800C0807D
:101C700080807F00000008F888C028180800203FF6
:101C800020012638200008F8080000000000203F4E
:101C900020202020300008F8F800F8F80800203F45
:101CA000003F003F200008F830C00008F808203F3F
:101CB000200007183F00E01008080810E0000F108F
:101CC000202020100F0008F808080808F000203F26
:101CD000210101010000E01008080810E0000F18C1
:101CE000242438504F0008F8888888887000203FE6
:101CF0002000030C302000708808080838000038E5
:101D0000202121221C00180808F8080818000000EB
:101D1000203F2000000008F808000008F808001F15
:101D2000202020201F000878880000C83808000004
:101D300007380E010000F80800F80008F800033C1E
:101D40000700073C030008186880806818082030E6
:101D50002C03032C30200838C800C83808000000C5
:101D6000203F2000000010080808C838080020386C
:101D7000262120201800000000FE020202000000C0
:101D8000007F40404000000C30C000000000000018
:101D900000010638C00000020202FE000000004000
:101DA00040407F0000000000040202020400000026
:101DB0000000000000000000000000000000808023
:101DC000808080808080000202040000000000000B
:101DD00000000000000000008080808000000019EA
:101DE000242222223F2008F8008080000000003FCB
:101DF000112020110E000000008080800000000EE5
:101E0000112020201100000000808088F800000EC2
:101E1000112020103F200000808080800000001FE3
:101E2000222222221300008080F088888818002057
:101E3000203F202000000000808080808000006B18
:101E400094949493600008F8008080800000203F04
:101E5000210000203F200080989800000000002012
:101E6000203F20200000000000809898000000C063
:101E70008080807F000008F8000080808000203F84
:101E800024022D302000000808F800000000002087
:101E9000203F202000008080808080808000203FC4
:101EA00020003F20003F8080008080800000203F95
:101EB000210000203F200000808080800000001F63
:101EC000202020201F00808000808000000080FFF4
:101ED000A12020110E000000008080808000000EF4
:101EE000112020A0FF808080800080808000202042
:101EF0003F212000010000008080808080000033AE
:101F0000242424241900008080E080800000000048
:101F1000001F202000008080000000808000001F43
:101F2000202020103F2080808000008080800001E1
:101F30000E300806010080800080008080800F3015
:101F40000C030C300F000080800080808000002097
:101F5000312E0E31200080808000008080808081C2
:101F60008E70180601000080808080808000002133
:101F7000302C2221300000000000807C0202000092
:101F80000000003F404000000000FF000000000093
:101F90000000FF0000000002027C80000000004002
:101FA000403F00000000000601010202040400009E
:101FB00000000000000008000000180000000030D1
:101FC00000000800080000001800000000300000B9
:101FD00008070000E80300002000010008000008D6
:101FE00000030000E8030000000000000807630091
:101FF000020000008F01000001000000000000004E
:102000000000000048656C6C6F204E55454443212C
:1020100000000000242000000000202050050000E7
:042020009017000015
:04000005000000C136
:00000001FF
