:020000040000FA
:10000000480320206D010000710100007301000011
:1000100000000000000000000000000000000000E0
:10002000000000000000000000000000750100005A
:100030000000000000000000770100002116000011
:100040007B0100007B0100007B0100007B010000C0
:100050007B0100007B0100007B0100007B010000B0
:10006000000000007B0100007B0100000000000098
:10007000000000007B0100007B0100007B0100000C
:100080007B0100007B0100007B0100007B01000080
:100090007B0100007B010000000000000000000068
:1000A0007B0100007B010000000000000000000058
:1000B0007B010000000000007B0100007B010000CC
:1000C00000F002F800F042F812A030C808382418F6
:1000D0002D18AC4201D100F039F80FCCA246AB4646
:1000E0000CA730CF2D1B083F3F197C427F1E544484
:1000F0002D090426F441641EAC4201D300F026F819
:100100000126334200D0FB1A3343984754465D46DC
:10011000DFE700008C1E00009C1E000000000000B5
:100120007047000000000000002300240025002686
:10013000103A01D378C1FBD8520700D330C100D5A3
:100140000B6070471FB51FBD10B510BD00F023F93F
:100150001146FFF7F7FF01F0BDFA00F03BF903B4D9
:10016000FFF7F2FF03BC00F041F90000064800472A
:10017000FEE7FEE7FEE7FEE7FEE7FEE70348044989
:10018000024A044B70470000C100000048022020D2
:100190004803202048022020002203098B4273D309
:1001A000030A8B4258D3030B8B423CD3030C8B4284
:1001B00021D312E003460B437FD4002243088B4235
:1001C00074D303098B425FD3030A8B4244D3030BDE
:1001D0008B4228D3030C8B420DD30902FF2212BAA3
:1001E000030C8B4202D31212090265D0030B8B421F
:1001F00019D300E0090AC30B8B4201D3CB03C01A09
:100200005241830B8B4201D38B03C01A5241430BE3
:100210008B4201D34B03C01A5241030B8B4201D3D3
:100220000B03C01A5241C30A8B4201D3CB02C01A3E
:100230005241830A8B4201D38B02C01A5241430AB6
:100240008B4201D34B02C01A5241030A8B4201D3A5
:100250000B02C01A5241CDD2C3098B4201D3CB014C
:10026000C01A524183098B4201D38B01C01A5241FB
:1002700043098B4201D34B01C01A524103098B42FF
:1002800001D30B01C01A5241C3088B4201D3CB00EA
:10029000C01A524183088B4201D38B00C01A5241CD
:1002A00043088B4201D34B00C01A5241411A00D27D
:1002B00001465241104670475DE0CA0F00D04942E6
:1002C000031000D3404253409C46002203098B4256
:1002D0002DD3030A8B4212D38901FC2212BA030ADE
:1002E0008B420CD3890192118B4208D38901921160
:1002F0008B4204D389013AD0921100E08909C309E5
:100300008B4201D3CB01C01A524183098B4201D3E6
:100310008B01C01A524143098B4201D34B01C01AD1
:10032000524103098B4201D30B01C01A5241C30849
:100330008B4201D3CB00C01A524183088B4201D3B8
:100340008B00C01A5241D9D243088B4201D34B00D3
:10035000C01A5241411A00D201465241104663462A
:100360005B1001D34042002B00D5494270476346E1
:100370005B1000D3404201B50449002802DC491C4F
:10038000084000E00846C046C04602BDFFFFFF7FB0
:10039000704770477047754600F024F8AE46050078
:1003A00069465346C008C000854618B020B5FFF71F
:1003B000E5FE60BCB64600260027C0C5C0C5C0C566
:1003C000C0C5C0C5C0C5C0C5C0C5403D490849007D
:1003D0008D46704710B50446C046C0462046FFF71C
:1003E000BEFE10BD004870470000202001491820C3
:1003F000ABBEFEE7260002007047811E091F00BF4A
:10040000FCD2704784B00390029101920398006877
:100410000090009801998843009000980299019AF1
:10042000114008430399086004B0704782B00190FE
:1004300000910098019995225201885002B07047AE
:1004400082B0019000910098019995225201885044
:1004500002B0704781B0009000988100384A8858F7
:1004600001235B061843885001B0704782B00190A9
:10047000009100980199024A885002B07047C04626
:10048000D012000081B0009000990120C2029E4865
:10049000885001B07047C04681B00090009881003C
:1004A000274A8120885001B07047C04610B584B0FB
:1004B000069C0390029101920093029801990843CF
:1004C000009908430699084381210843039989004C
:1004D0001B4A885004B010BD82B001900091009872
:1004E0001049084301998900154A885002B07047A5
:1004F00010B584B0079C069C039002910192009372
:1005000002980199084300990843069908430799FE
:1005100008430449084303998900094A885004B0F4
:1005200010BDC0468000040082B001900091009888
:100530008021084301998900014A885002B0704720
:100540000480424081B000900099B74AB748885073
:1005500001B0704782B00190009100980199024A61
:10056000885002B07047C0469012000082B00190DF
:10057000009100980199024A885002B07047C04625
:10058000B012000081B00090009909204202885802
:1005900001231B021843885001B0704781B00090BE
:1005A00000990120C202E448885001B07047C0465B
:1005B00081B000900099F74A9C48885001B070477C
:1005C00080B584B0019101460198039102A9088089
:1005D0000398092252028018098803225202FFF769
:1005E00011FF04B080BD70B50A780C231A400124B5
:1005F000240305196E689E43B2186A604978072281
:100600001140035993435918015170BD06490868B8
:1006100001229043086070470349086801221202D2
:10062000904308607047C04608010B4081B0014606
:100630006846017000780249086001B07047C04602
:1006400008030B4080B582B0014601A80170017813
:100650000F480F22FFF7D6FE02B080BD80B582B0F2
:10066000014601A80170017802480322FFF7CAFE83
:1006700002B080BD00010B4080B582B0014601A8E8
:100680000170017802483022FFF7BCFE02B080BD45
:1006900004010B4010B585B000930B4600990490FF
:1006A00003A80380029201AB197004991A78920092
:1006B0008A186A4C084911510299049A1B789B00C8
:1006C000D2183123DB01D150008804490843049932
:1006D0008D4A885005B010BD0100020012000010C4
:1006E00081B000900099024A0120885001B0704703
:1006F0000811000081B0009000990120C2028E48CC
:10070000885001B07047C04601000026F0B57E4A0F
:1007100082183B4BC31808794E793A4D3A4C002E5B
:1007200023D0202804D00526F601002803D003E0BA
:10073000364E002800D18826576F2F403743576721
:10074000976F2F4037439767566B26405663966BDB
:10075000264096630026566596658F26F6435F68A9
:1007600037405F609F6837409F608E790968202816
:100770000BD0002819D1491E5160D76E2F40882117
:100780000F43D7661746703719E0491E5160D16E86
:1007900029401E4F3943D166116F294039431167F3
:1007A000012149071A4D174609E049085160D76EE3
:1007B0002F400521C9010F43D766174670373C68A3
:1007C0002C400C433C60D16A0F4C2140D162116B2C
:1007D000214011630021D16411658F21C943D46F79
:1007E0000C40D4671C680C401C600643BD203040A0
:1007F0001168084B0B40C018801C1060F0BDC0464B
:100800008418000024493E008888FDFF0104000090
:10081000FFFFFFCF4000FFCF81B0009000995D4AFD
:100820005D48885001B0704704080000030000B123
:1008300082B0019000910098019911221202885013
:1008400002B0704710B507239B041940920080182E
:10085000024A84589C436118815010BD3018000032
:1008600010B5029CA400001911431943014A81509C
:1008700010BDC0465018000092008018014A8150F7
:100880007047C0461018000010B5012212038318EB
:100890000C789C604B7883508978014A815010BD58
:1008A0000C11000010B586B001930B46014601986B
:1008B000059104A90B8003AB1A8002AA1080059849
:1008C000114C001909881B88194312881143024AE8
:1008D000FFF798FD06B010BD80FF000082B00190C8
:1008E000009100980199024A885002B07047C046B2
:1008F0000818000081B000900099034A885801232D
:100900001843885001B070470418000081B000906F
:10091000009911200202885801231843885001B021
:100920007047000081B0009000990120C202024887
:10093000885001B07047C04601000026B0B51122B2
:10094000120283580124A34383500B888C781C43E4
:100950008B882343094C1C408358094D1D40631963
:1009600083508B79CC791C43097A21437E2319402B
:10097000801842689A4351184160B0BD1867000062
:10098000E798FDFF81B000900099024A0248885024
:1009900001B0704704080000030000B180B584B0C6
:1009A00003900291019203980B49401802990B4A57
:1009B000FFF728FD03980A49401801993F22FFF7E5
:1009C00021FD0399074A8818895801221140FFF731
:1009D00019FD04B080BDC04610110000FFFF0000EB
:1009E000141100000411000010B501221203831835
:1009F0000C789C604978815010BD80B582B0019020
:100A00000091019811210902401800990322D20394
:100A1000FFF7F8FC02B080BD80B582B00190FFE71F
:100A20000198411E0191002805D0FFE77D20C000FC
:100A300000F004F8F4E702B080BD000082B001903D
:100A40000198400100900098401E0A4908600A4938
:100A500000200860094905200860FFE70748006892
:100A6000C003002801D4FFE7F8E70449002008602C
:100A700002B0704714E000E018E000E010E000E091
:100A800070B586B00C4605460D980C990B9E0A9ED3
:100A9000059504940392029301AA11706946088097
:100AA0000598002804D0FFE70B98002801D1FFE744
:100AB00029E0049805990860039805994860029810
:100AC000059988600A980599C8600B98059908618E
:100AD00001980599087500980599C8820599886854
:100AE000C968FFF7ADFC059908684968FFF7A8FCDD
:100AF00005980069FFF7FEFE059A1069D18A127DFC
:100B0000FFF7BAFEFFE706B070BD000080B584B005
:100B100003AB187002A8018001920198002801D14E
:100B2000FFE74AE003A80078009004283BD800982B
:100B3000810001A0405887464D0B0000630B000068
:100B4000790B00008F0B0000A50B000001990868CD
:100B50004968FFF7FFFC01998868C968FFF770FCD6
:100B600021E0019908684968FFF76AFC01998868E3
:100B7000C968FFF7EFFC16E0019908684968FFF7BC
:100B8000E9FC01998868C968FFF7E4FC0BE001996A
:100B900008684968FFF754FC01998868C968FFF73D
:100BA0004FFC00E0FFE702980199C882019A1069A2
:100BB000D18A127DFFF760FEFFE704B080BD80B5EB
:100BC00084B002A900200870FFE702A80078072877
:100BD0001EDCFFE702A800780021019100F0E0F898
:100BE000019803A90870FFE703A800787F2809DCB3
:100BF000FFE7002000F0CBF9FFE70398401C03A9B2
:100C00000870F1E7FFE70298401C02A90870DCE7D2
:100C100004B080BD704780B582B001A908706946F4
:100C200000200870FFE768460078072815DCFFE71A
:100C300001A8007869460A788021D140084000F078
:100C40008CF9012000F084F9002000F081F9FFE721
:100C50000098401C69460870E5E7012000F078F92B
:100C6000002000F075F902B080BD80B582B001208F
:100C7000009000F072F9009800F06AF900200190ED
:100C800000F06BF9019800F063F902B080BD80B507
:100C900082B0002000F061F90120019000F058F9C5
:100CA000019800F05AF902B080BD80B582B00020F2
:100CB0000190FFE70198C0087C2812D8FFE70020C8
:100CC0000090FFE70098C0087C2805D8FFE7FFE701
:100CD0000098401C0090F5E7FFE70198401C019048
:100CE000E8E7FFF797FFAE2000F03CF9D52000F0D1
:100CF00039F9802000F036F9A82000F033F93F20C0
:100D000000F030F9D32000F02DF9002000F02AF98E
:100D1000402000F027F9A12000F024F9C82000F0BD
:100D200021F9DA2000F01EF9122000F01BF98120D1
:100D300000F018F9CF2000F015F9D92000F012F9D1
:100D4000F12000F00FF9DB2000F00CF9302000F06A
:100D500009F9A42000F006F9A62000F003F98D207F
:100D600000F000F9142000F0FDF8AF2000F0FAF8D0
:100D7000FFF725FF02B080BD83B0029001910120F2
:100D80000090FFE70198411E0191002805D0FFE780
:100D90000298009948430090F4E7009803B0704728
:100DA00080B584B0024603A8027002AA01921170B5
:100DB0000078B021084300F0D5F8019800780009C8
:100DC000103000F0CFF8019800780F21084000F0B3
:100DD000C9F804B080BD000080B584B003AB1870C2
:100DE00002A8017001A8027003984000801E0299B9
:100DF000C9000839C0B2C9B2FFF7D2FF6946002066
:100E00000870FFE768460078072812DCFFE701A8B2
:100E1000007800011A4940186946097840181A49B3
:100E2000405C00F0B4F8FFE70098401C6946087089
:100E3000E8E703984000401E0299C9000839C0B293
:100E4000C9B2FFF7ADFF694600200870FFE76846AA
:100E50000078072812DCFFE701A8007800010849A4
:100E600040186946097840180649405C00F08FF840
:100E7000FFE70098401C69460870E8E704B080BDB1
:100E80005219000008FEFFFF00FEFFFF10B58AB0F8
:100E900009AC207008A80170079206A8037005A984
:100EA00000200870FFE705A8007806A909788842A5
:100EB00027DAFFE709A800780390089905A80078C9
:100EC000091804910799019106A90978C0434118AE
:100ED0000A200290FFF750FF0146019800F03EFC07
:100EE0000299FFF759F903980A46049930231A43E7
:100EF000C9B2FFF771FFFFE70598401C05A908700C
:100F0000D1E70AB010BD80B584B003AB187002A859
:100F100001700192694600200870FFE70198694658
:100F20000978405C002811D0FFE703A800780299F7
:100F30006A461378C918019AD25CC9B2FFF74CFF10
:100F4000FFE70098401C69460870E7E704B080BDE1
:100F500081B06946087001B0704781B06946087079
:100F600001B0704780B582B001A900910870FFF709
:100F70007CFE7820FFF74FFE0020FFF74CFE009824
:100F80000078FFF748FEFFF782FE02B080BD80B513
:100F900082B001A900910870FFF767FE7820FFF783
:100FA0003AFE4020FFF737FE00980078FFF733FE47
:100FB000FFF76DFE02B080BD80B582B00B490C48D2
:100FC0000190FFF711FD01980A49FFF7B7FC01985E
:100FD0000021FFF712FD0198D0211522FFF7DEFC5A
:100FE0000198FFF793FC02B080BDC046421F00008D
:100FF00000801040441F000080B592B026200621DA
:101000000591FFF791FA01200C90410468480E9079
:10101000FFF72CFA05992720FFF786FA0C990E980E
:101020008904FFF723FA0320069005210491FFF7B6
:101030007BFA0C990E984907FFF718FA04990420D7
:101040000390FFF771FA0C990E988907FFF70EFAD3
:1010500003992120FFF768FA0C990E980903FFF70E
:1010600005FA04992220FFF75FFA0C990E984903BC
:10107000FFF7FCF906992D20FFF72EFA05980221BB
:101080000B91FFF729FA06990C9800230D93019311
:10109000C0040790009018461A46FFF729FA0699EF
:1010A000079A0C980D9B019300921A46FFF720FABD
:1010B0000D98FFF7CFF90C98FFF7CCF907980D9B27
:1010C0000193009014200990082108911A46FFF717
:1010D0000FFA079808990D9B0193009015200A902C
:1010E0001A46FFF705FA0998FFF7B4F90A98FFF7CF
:1010F000B1F90B990B20FFF717FA0B990C20FFF7AA
:10110000EBF90B991220FFF70FFA0B991320FFF759
:10111000E3F90B993420FFF707FA0B993520FFF715
:10112000DBF90C980D9B0093020423201946FFF76E
:10113000BDF91D20FFF7B0F93120FFF7ADF93020E0
:10114000FFF7AAF91E20FFF7A7F91F20FFF7A4F960
:101150002020FFF7A1F90E20FFF79EF92520FFF7C9
:101160009BF92A20FFF798F92B20FFF795F92C20FF
:10117000FFF792F92420FFF78FF92E20FFF78CF963
:101180002F20FFF789F90E980A490F91FFF74EF9C2
:101190000E980F99FFF76AF90748109007491191C7
:1011A000FFF744F910981199FFF760F912B080BD6C
:1011B00000000A4000C0410000200A4004E07F0017
:1011C00080B582B0074908480190FFF70CFA0198F2
:1011D00003214902FFF7F4F90198FFF7D3F902B0B0
:1011E00080BDC0464E1F000000000F4080B582B099
:1011F0000749F3480190FFF7F6F9019803214902E6
:10120000FFF7DEF90198FFF7BDF902B080BDC046D7
:10121000501F000080B582B00B49EB480190FFF7EA
:10122000E3FB01980949FFF789FB01980021FFF7CB
:10123000E4FB0198D0211522FFF7B0FB0198FFF7DE
:1012400065FB02B080BDC046521F0000541F000065
:1012500080B582B00B49DD480190FFF7C5FB0198CE
:101260000949FFF76BFB01980021FFF7C6FB0198C6
:10127000D0211522FFF792FB0198FFF747FB02B040
:1012800080BDC0465E1F0000601F000080B586B0B4
:101290001F49C6480590FFF7F7FA05981D49FFF763
:1012A00035FA05980023029319461A46FFF7FAFA11
:1012B000029B0598009319461A46FFF7D1FA029A45
:1012C00005981146FFF7BEFA029A05987D2189001C
:1012D0000391FFF7D1FA029B059801210491009137
:1012E00019461A46FFF7BCFA0299049A0598FFF7C7
:1012F000A9FA0399049A0598FFF7BEFA0598FFF733
:10130000EFF905980321FFF793FA06B080BDC046B8
:101310006A1F0000701F000080B584B00E49A64807
:101320000390FFF7B1FA0398492149020191002384
:1013300002931A46FFF7AEF90199029A0398012326
:10134000FFF7A8F903980549FFF7C8FA0398FFF7D4
:10135000C7F904B080BDC046781F0000FFFF000041
:1013600080B586B01F4992480590FFF78DFA059821
:101370001D49FFF7CBF905980023029319461A4639
:10138000FFF790FA029B0598009319461A46FFF75B
:1013900067FA029A05981146FFF754FA029A0598DF
:1013A0007D21C9000391FFF767FA029B059801218F
:1013B0000491009119461A46FFF752FA0299049ACD
:1013C0000598FFF73FFA0399049A0598FFF754FA36
:1013D0000598FFF785F905980321FFF729FA06B06C
:1013E00080BDC0467B1F0000801F000080B582B01A
:1013F00000200190FFF71AF90198FFF72FF9FFF786
:1014000005F9FFF709F90198FFF736F90198FFF799
:1014100019F902B080BD80B57D20000200F0D8F837
:1014200080BD000080B586B01F4962480590FFF777
:101430002BFA05981D49FFF769F9059800230293D7
:1014400019461A46FFF72EFA029B05980093194693
:101450001A46FFF705FA029A05981146FFF7F2F9C6
:10146000029A05987D21C9000391FFF705FA029BB6
:10147000059801210491009119461A46FFF7F0F9E9
:101480000299049A0598FFF7DDF90399049A0598E3
:10149000FFF7F2F90598FFF723F905980321FFF705
:1014A000C7F906B080BDC046881F00008C1F000031
:1014B00080B500F027F8FFF79FFDFFF797FFFFF7D4
:1014C000E5FEFFF74DFFFFF7ADFFFFF725FFFFF745
:1014D00077FEFFF78BFEFFF76FFDFFF79BFEFFF731
:1014E000B7FEFFF798FF04499C2200208854034967
:1014F00088540349885480BD68002020A80120201A
:101500000801202080B58CB091480190FFF71AF8AF
:1015100090480290FFF716F88C480390FFF77CF98B
:1015200023480490FFF778F922480590FFF774F9F3
:1015300021480690FFF770F920480790FFF738F828
:101540001F480890FFF734F81E480990FFF71AFA71
:101550001D480A90FFF716FA1C480B90FFF712FA85
:101560000198FEF78FFF0298FEF78CFF0398FFF7B4
:10157000C1F80498FFF7BEF80598FFF7BBF8069886
:10158000FFF7B8F80798FFF709F80898FFF706F88B
:101590000998FFF7C7F90A98FFF7C4F90B98FFF706
:1015A000C1F91020FEF729FF0CB080BD00A08640D5
:1015B00000808640004008400000094000000F40C5
:1015C00000200F400080104000001040002010401C
:1015D00080B584B002900298401E000E002803D00F
:1015E000FFE70120039011E00298401E09490860BE
:1015F00000200190C043032100F02AF80198064919
:101600000860064A072111600390FFE7039804B0C1
:1016100080BDC04614E000E018E000E010E000E00B
:1016200080B50A480168491C016000687D21C90035
:10163000884209D1FFE705490020086001208103A5
:101640004348FEF793FFFFE780BDC04660002020BF
:1016500070B582B0024601A8027000910021405688
:10166000002816D4FFE7002401A908570322D3431A
:101670001840174A805809578C07E50EFF24AC40E4
:10168000A043009CA401E4B2AC4020431940885020
:101690001AE001A908780F24204008380322D34318
:1016A00018400A4A8058002549578D07EE0EFF253D
:1016B000B540A843009DAD01EDB2B540284321409F
:1016C000083919408850FFE702B070BD1CED00E0FA
:1016D00000E400E080B596B0002006901590FFF77A
:1016E000E7FEFFF7E2FAFFF76AFA174A01210791CE
:1016F0000846FFF708FC06990798039102911349E1
:10170000019141040091020408A81149114BFFF70F
:10171000B7F9FFE74B208100002008AAFFF7F6F990
:101720007D20C000FFF778F901200590810308486B
:10173000FEF71CFF0599084B1A68501C1860022020
:101740000323FFF7A3FBE5E7941F000000A08640FA
:1017500000000A4000200A406400202043088B4219
:101760001AD3002203098B4279D3030A8B425ED33A
:10177000030B8B4242D3030C8B4227D30902FF2277
:1017800012BA030C8B4202D31212090203D0030BCC
:101790008B4233D31AE0D3E0411A8041401C70479A
:1017A00003460B4371D443088B42F5D3002203094F
:1017B0008B4254D3030A8B4239D3030B8B421DD384
:1017C000030C8B4202D394466EE0090AC30B8B4292
:1017D00001D3CB03C01A5241830B8B4201D38B033D
:1017E000C01A5241430B8B4201D34B03C01A5241E2
:1017F000030B8B4201D30B03C01A5241C30A8B4225
:1018000001D3CB02C01A5241830A8B4201D38B020F
:10181000C01A5241430A8B4201D34B02C01A5241B3
:10182000030A8B4201D30B02C01A5241CDD2C30925
:101830008B4201D3CB01C01A524183098B4201D3A1
:101840008B01C01A524143098B4201D34B01C01A8C
:10185000524103098B4201D30B01C01A5241C30804
:101860008B4201D3CB00C01A524183088B4201D373
:101870008B00C01A524143088B4201D34B00C01A5F
:101880005241411A524110007047CA0F00D04942DC
:10189000031000D34042534000229C4603098B4270
:1018A0002DD3030A8B4212D38901FC2212BA030AF8
:1018B0008B420CD3890192118B4208D3890192117A
:1018C0008B4204D3890137D0921100E08909C30902
:1018D0008B4201D3CB01C01A524183098B4201D301
:1018E0008B01C01A524143098B4201D34B01C01AEC
:1018F000524103098B4201D30B01C01A5241C30864
:101900008B4201D3CB00C01A524183088B4201D3D2
:101910008B00C01A5241D9D243088B4201D34B00ED
:10192000C01A5241411A00D2014652411046634644
:101930005B1000D34042704763465B1000D34042C7
:1019400001B50021004201D0C9430846C046C04647
:1019500002BD0000000000000000000000000000C8
:101960000000000000F8000000000000003330001C
:10197000000000100C06100C060000000000000023
:10198000000040C07840C0784000043F04043F0499
:101990000400007088FC08300000001820FF211EA1
:1019A0000000F008F000E018000000211C031E21D8
:1019B0001E0000F00888700000001E212324192753
:1019C000211010160E0000000000000000000000B2
:1019D0000000000000E018040200000000071820CA
:1019E000400000020418E00000000040201807003A
:1019F0000000404080F0804040000202010F0102E0
:101A00000200000000F0000000000101011F0101C0
:101A10000100000000000000000080B07000000025
:101A200000000000000000000000000101010101B1
:101A30000101000000000000000000303000000044
:101A4000000000000000806018040060180601001B
:101A5000000000E010080810E000000F1020201027
:101A60000F00001010F8000000000020203F202090
:101A70000000007008080888700000302824222127
:101A800030000030088888483000001820202011DD
:101A90000E000000C02010F8000000070424243FBE
:101AA000240000F808888808080000192120201167
:101AB0000E0000E0108888180000000F112020118F
:101AC0000E0000380808C83808000000003F000079
:101AD00000000070880808887000001C2221212264
:101AE0001C0000E010080810E00000003122221164
:101AF0000F00000000C0C0000000000000303000F7
:101B00000000000000800000000000008060000075
:101B100000000000804020100800000102040810AE
:101B200020004040404040404000040404040404BD
:101B3000040000081020408000000020100804026B
:101B40000100007048080808F0000000003036016D
:101B50000000C030C828E810E0000718272423142C
:101B60000B000000C038E0000000203C23020227E8
:101B7000382008F8888888700000203F2020201135
:101B80000E00C03008080808380007182020201070
:101B9000080008F808080810E000203F2020201066
:101BA0000F0008F88888E8081000203F2020232034
:101BB000180008F88888E8081000203F200003007B
:101BC0000000C03008080838000007182020221E36
:101BD000020008F808000008F808203F2101012150
:101BE0003F20000808F8080800000020203F2020BF
:101BF000000000000808F8080800C08080807F000E
:101C0000000008F888C028180800203F2001263866
:101C1000200008F8080000000000203F20202020BD
:101C2000300008F8F800F8F80800203F003F003FB7
:101C3000200008F830C00008F808203F20000718EE
:101C40003F00E01008080810E0000F1020202010CE
:101C50000F0008F808080808F000203F21010101E2
:101C60000000E01008080810E0000F182424385085
:101C70004F0008F8888888887000203F2000030CF7
:101C80003020007088080808380000382021212200
:101C90001C00180808F8080818000000203F200061
:101CA000000008F808000008F808001F2020202085
:101CB0001F000878880000C83808000007380E01A7
:101CC0000000F80800F80008F800033C0700073C93
:101CD0000300081868808068180820302C03032C43
:101CE00030200838C800C83808000000203F200015
:101CF000000010080808C8380800203826212020D5
:101D00001800000000FE020202000000007F4040B8
:101D10004000000C30C00000000000000001063848
:101D2000C00000020202FE000000004040407F00B0
:101D30000000000004020202040000000000000095
:101D40000000000000000000000080808080808093
:101D5000808000020204000000000000000000007B
:101D600000000000808080800000001924222222D0
:101D70003F2008F8008080000000003F1120201163
:101D80000E000000008080800000000E1120202046
:101D90001100000000808088F800000E1120201043
:101DA0003F200000808080800000001F222222222D
:101DB0001300008080F0888888180020203F2020B1
:101DC00000000000808080808000006B94949493D9
:101DD000600008F8008080800000203F2100002083
:101DE0003F2000809898000000000020203F202025
:101DF0000000000000809898000000C08080807F74
:101E0000000008F8000080808000203F24022D3070
:101E10002000000808F8000000000020203F2020DB
:101E200000008080808080808000203F20003F2054
:101E3000003F8080008080800000203F2100002043
:101E40003F200000808080800000001F2020202094
:101E50001F00808000808000000080FFA1202011F2
:101E60000E000000008080808000000E112020A065
:101E7000FF80808080008080800020203F21200023
:101E8000010000008080808080000033242424240E
:101E90001900008080E0808000000000001F2020EA
:101EA00000008080000000808000001F20202010A3
:101EB0003F20808080000080808000010E30080676
:101EC000010080800080008080800F300C030C3087
:101ED0000F0000808000808080000020312E0E31B5
:101EE0002000808080000080808080818E701806B5
:101EF000010000808080808080000021302C222121
:101F0000300000000000807C020200000000003F62
:101F1000404000000000FF00000000000000FF0043
:101F200000000002027C800000000040403F0000F2
:101F3000000000060101020204040000000000008D
:101F40000000080000001800000000300000080039
:101F50000800080000001800000000300000080021
:101F6000000018000000003000000807000000001A
:101F7000E803000020000100080000080000000045
:101F8000E80300000000000008000000E803000073
:101F90000000000068656C6C6F000000000000002D
:101FA000B01F0000000020204803000028010000AE
:04000005000000C136
:00000001FF
