:020000040000FA
:10000000480E20206D010000710100007301000006
:1000100000000000000000000000000000000000E0
:10002000000000000000000000000000750100005A
:100030000000000000000000770100004D190000E2
:100040007B0100007B0100007B0100007B010000C0
:100050007B0100007B0100007B0100007B010000B0
:10006000000000007B0100007B0100000000000098
:10007000000000007B0100007B0100007B0100000C
:100080007B0100007B0100007B0100007B01000080
:100090007B0100007B010000000000000000000068
:1000A0007B0100007B010000000000000000000058
:1000B0007B010000000000007B0100007B010000CC
:1000C00000F002F800F042F812A030C808382418F6
:1000D0002D18AC4201D100F039F80FCCA246AB4646
:1000E0000CA730CF2D1B083F3F197C427F1E544484
:1000F0002D090426F441641EAC4201D300F026F819
:100100000126334200D0FB1A3343984754465D46DC
:10011000DFE700008C1A0000AC1A000000000000AD
:100120007047000000000000002300240025002686
:10013000103A01D378C1FBD8520700D330C100D5A3
:100140000B6070471FB51FBD10B510BD00F028F93A
:100150001146FFF7F7FF01F0C9FC00F040F903B4C6
:10016000FFF7F2FF03BC00F043F900000648004728
:10017000FEE7FEE7FEE7FEE7FEE7FEE70348044989
:10018000024A044B70470000C1000000480D2020C7
:10019000480E2020480D2020002203098B4273D3F3
:1001A000030A8B4258D3030B8B423CD3030C8B4284
:1001B00021D312E003460B437FD4002243088B4235
:1001C00074D303098B425FD3030A8B4244D3030BDE
:1001D0008B4228D3030C8B420DD30902FF2212BAA3
:1001E000030C8B4202D31212090265D0030B8B421F
:1001F00019D300E0090AC30B8B4201D3CB03C01A09
:100200005241830B8B4201D38B03C01A5241430BE3
:100210008B4201D34B03C01A5241030B8B4201D3D3
:100220000B03C01A5241C30A8B4201D3CB02C01A3E
:100230005241830A8B4201D38B02C01A5241430AB6
:100240008B4201D34B02C01A5241030A8B4201D3A5
:100250000B02C01A5241CDD2C3098B4201D3CB014C
:10026000C01A524183098B4201D38B01C01A5241FB
:1002700043098B4201D34B01C01A524103098B42FF
:1002800001D30B01C01A5241C3088B4201D3CB00EA
:10029000C01A524183088B4201D38B00C01A5241CD
:1002A00043088B4201D34B00C01A5241411A00D27D
:1002B00001465241104670475DE0CA0F00D04942E6
:1002C000031000D3404253409C46002203098B4256
:1002D0002DD3030A8B4212D38901FC2212BA030ADE
:1002E0008B420CD3890192118B4208D38901921160
:1002F0008B4204D389013AD0921100E08909C309E5
:100300008B4201D3CB01C01A524183098B4201D3E6
:100310008B01C01A524143098B4201D34B01C01AD1
:10032000524103098B4201D30B01C01A5241C30849
:100330008B4201D3CB00C01A524183088B4201D3B8
:100340008B00C01A5241D9D243088B4201D34B00D3
:10035000C01A5241411A00D201465241104663462A
:100360005B1001D34042002B00D5494270476346E1
:100370005B1000D3404201B50449002802DC491C4F
:10038000084000E00846C046C04602BDFFFFFF7FB0
:1003900070477047704700000048704718082020D9
:1003A0007546FFF7F9FFAE46050069465346C0089B
:1003B000C000854618B020B5FFF7E0FE60BCB64629
:1003C00000260027C0C5C0C5C0C5C0C5C0C5C0C5C2
:1003D000C0C5C0C5403D490849008D46704710B5AD
:1003E0000446C046C0462046FFF7B9FE10BD0000D7
:1003F00001491820ABBEFEE726000200704770B529
:100400008C180578401C6B075B0F01D10378401CEA
:100410002A1106D10278401C03E00678401C0E70B9
:10042000491C5B1EF9D12B0705D40023521E0DD4A5
:100430000B70491CFAE70378401CCB1A921C03E0AE
:100440001D780D70491C5B1C521EF9D5A142D8D3F2
:10045000002070BD811E091F00BFFCD2704784B010
:10046000039002910192039800680090009801990E
:100470008843009000980299019A1140084303991B
:10048000086004B0704782B0019000910098019913
:1004900095225201885002B0704782B001900091BD
:1004A0000098019995225201885002B0704782B09D
:1004B000019000910098019995225201885002B054
:1004C0007047000082B00190009100980199024AA3
:1004D000885002B07047C046D012000081B0009032
:1004E00000990120C2029248885001B07047C0466E
:1004F00010B584B0069C039002910192009302987B
:1005000001990843009908430699084303490843A1
:10051000039989001F4A885004B010BD810004006F
:1005200081B00090009881001A4A8120885001B063
:100530007047C04610B584B0069C039002910192AA
:1005400000930298019908430099084306990843CB
:1005500081210843039989000E4A885004B010BDD8
:1005600082B00190009100980349084301998900E5
:10057000084A885002B070478000040082B00190A1
:10058000009100988021084301998900014A885010
:1005900002B070470480424082B0019000910198FF
:1005A0002721C90140580099084002B0704782B025
:1005B0000190009101982721C901405800990840F5
:1005C00002B0704781B000900099DE4ADE48885042
:1005D00001B0704782B00190009100980199024AE1
:1005E000885002B07047C046901200000649086863
:1005F00001229043086070470349086801221202F3
:10060000904308607047C04608010B4081B0014626
:100610006846017000780249086001B07047C04622
:1006200008030B4080B582B0014601A80170017833
:100630000F480F22FFF713FF02B080BD80B582B0D4
:10064000014601A80170017802480322FFF707FF65
:1006500002B080BD00010B4080B582B0014601A808
:100660000170017802483022FFF7F9FE02B080BD28
:1006700004010B4082B00190009100980199024A58
:10068000885002B07047C0464810000010B585B0D1
:1006900000930B460099049003A80380029201ABDB
:1006A000197004991A7892008A18B34C08491151AC
:1006B0000299049A1B789B00D2183123DB01D15098
:1006C0000088044908430499DB4A885005B010BDEE
:1006D000010002001200001081B000900099024A4F
:1006E0000120885001B070470811000082B00190CD
:1006F0000091009B0199DD4A88581843885002B048
:100700007047C04682B001900091009B0199D74A82
:1007100088581843885002B07047C04681B0009096
:1007200000990120C202D748885001B07047C046E6
:100730000100002681B0009000980321C9024058B2
:1007400001B07047F0B5BC4A82183B4BC31808791A
:100750004E793A4D764C002E23D0202804D0052621
:10076000F601002803D003E0354E002800D188268A
:10077000576F2F4037435767976F2F40374397671F
:10078000566B26405663966B264096630026566548
:1007900096658F26F6435F6837405F609F683740F5
:1007A0009F608E79096820280BD0002819D1491E36
:1007B0005160D76E2F4088210F43D7661746703798
:1007C00019E0491E5160D16E29401D4F3943D16651
:1007D000116F29403943116701214907194D174607
:1007E00009E049085160D76E2F400521C9010F4328
:1007F000D766174670373C682C400C433C60D16A82
:100800004B4C2140D162116B214011630021D16416
:1008100011658F21C943D46F0C40D4671C680C400C
:100820001C600643BD2030401168074B0B40C018C8
:10083000801C1060F0BDC0468418000024493E00B2
:1008400001040000FFFFFFCF4000FFCFB0B54A68B2
:100850006E4BC250784A80180A78222A58D89300E2
:1008600001A4E3589F46C046070900001109000093
:10087000070900001109000011090000110900001A
:100880001109000011090000110900001109000000
:1008900011090000110900001109000011090000F0
:1008A0001109000011090000F508000011090000FD
:1008B000F5080000110900001109000011090000ED
:1008C00011090000110900001109000011090000C0
:1008D00011090000110900001109000011090000B0
:1008E0001109000011090000F508000011090000BD
:1008F000F508000003231B0704689C4301235B07E2
:10090000E318036004E003231B0704689C430460AE
:100910000B69C360CB68054C1C40C36A044D1D4085
:100920002B19C362097A11430160B0BD77770200C9
:100930008888FDFF81B0009000996F4A6F48885009
:1009400001B0704704080000030000B182B00190BC
:1009500000910098019911221202885002B070474C
:1009600010B507239B04194092008018024A84584E
:100970009C436118815010BD3018000010B5029CD6
:10098000A400001911431943014A815010BDC0460B
:100990005018000092008018014A81507047C046EC
:1009A0001018000010B50122120383180C789C6007
:1009B0004B7883508978014A815010BD0C1100009A
:1009C00010B586B001930B4601460198059104A924
:1009D0000B8003AB1A8002AA10800598164C0019F0
:1009E00009881B88194312881143024AFFF737FD13
:1009F00006B010BD80FF000082B001900091009809
:100A00000199024A885002B07047C0460818000099
:100A100081B000900099084A8858012318438850F3
:100A200001B0704781B000900099034A88580123B3
:100A30001843885001B070470418000081B000903E
:100A4000009911200202885801231843885001B0F0
:100A50007047000082B001900091009B0199034A09
:100A600088581843885002B07047C04628100000CC
:100A700081B0009000990120C2020248885001B064
:100A80007047C04601000026B0B5112212028358FB
:100A90000124A34383500B888C781C438B88234309
:100AA000094C1C408358094D1D40631983508B79B4
:100AB000CC791C43097A21437E231940801842686F
:100AC0009A4351184160B0BD18670000E798FDFFD8
:100AD00081B000900098034940580121084001B0BE
:100AE0007047C0460811000081B000900099024A8A
:100AF0000248885001B0704704080000030000B1AC
:100B000080B584B003900291019203980B4940187C
:100B100002990B4AFFF7A3FC03980A494018019970
:100B20003F22FFF79CFC0399074A88188958012245
:100B30001140FFF794FC04B080BDC04610110000C6
:100B4000FFFF0000141100000411000010B5012285
:100B5000120383180C789C604978815010BD80B5D1
:100B600082B001900091019811210902401800996A
:100B70000322D203FFF773FC02B080BD82B0019064
:100B8000684601700078019989225201885002B0AC
:100B9000704780B582B00190FFE70198411E019136
:100BA000002805D0FFE77D20C00000F003F8F4E73F
:100BB00002B080BD82B00190019840010090009881
:100BC000401E0A4908600A490020086009490520BA
:100BD0000860FFE707480068C003002801D4FFE76A
:100BE000F8E704490020086002B0704714E000E014
:100BF00018E000E010E000E080B588B007900691B2
:100C000005920493254800680A2801DBFFE742E0CB
:100C10000798224A039211684B0121490291CB188F
:100C200098600698126852018918C8600798FFF703
:100C3000F9FE069801210191FFF71CFD0199069824
:100C4000FFF760FD0698FFF7EDFE0299039A106822
:100C500040010B1864201861106843010020C8503F
:100C600012685201891848600798FFF763FD0399DD
:100C7000024602980B685B01C3189A830968490110
:100C8000401814300599049A00F00CF8039908688C
:100C9000401C0860FFE708B080BDC046400D202022
:100CA0006409202083B002900191009202980028EC
:100CB00001D1FFE706E001980299086000980299C7
:100CC0004860FFE703B0704780B584B00120019011
:100CD00081020091A3480290FFF77CFC01990298E1
:100CE000C9020391FFF776FC00990298FFF7DFFB3A
:100CF0000198FFF75FFF02980399FFF7D8FB04B054
:100D000080BDC04680B584B001200190810203916E
:100D1000F3480290FFF7CBFB01990298C902FFF755
:100D200059FC02980399FFF755FC04B080BDC046FA
:100D300080B50648FFF7CCFE002805D1FFE7034841
:100D40004C21FFF71BFFFFE780BDC046002010408D
:100D500080B582B00E20019000F010FE019800F0E6
:100D600023FE02B080BD000010B58CB000F04EFD37
:100D700041200B9002901E480590019000240094A1
:100D80001C4804901C4B0693224600F041F804983E
:100D90000394012108910291184A07920192CA0412
:100DA00000928A04164B0A93194600F051F80598F0
:100DB000069B0B99029101900094124809902246DB
:100DC00000F026F8079A089909980A9B0394029460
:100DD00001924A0400920A04C14900F039F80B9AC2
:100DE0005B20830008480949FFF706FF0CB010BDDF
:100DF00000C072408008202000003C4000A08640D7
:100E000000200A40300920200000094000008640F0
:100E1000B0B586B004460B990A980C9D05940393CF
:100E20000292019100900598002801D1FFE70DE0A2
:100E30000298039A0599CA6188610098019A0599F8
:100E40004A6208620C9805998862FFE706B0B0BD57
:100E500070B586B00C4605460D980C990B9E0A9EFF
:100E6000059504940392029301AA117069460880C3
:100E70000598002804D0FFE70B98002801D1FFE770
:100E800029E004980599086003980599486002983C
:100E9000059988600A980599C8600B9805990861BA
:100EA00001980599087500980599C8820599886880
:100EB000C968FFF7F2FA059908684968FFF7EDFA83
:100EC00005980069FFF7A4FD059A1069D18A127D83
:100ED000FFF760FDFFE706B070BD000080B582B08F
:100EE00001A900200870FFE701A8007807280FDC9F
:100EF000FFE701A80178002000F0F4F80548802100
:100F000000F04DFAFFE70198401C01A90870EBE7DB
:100F100002B080BDB008202080B584B003A90120B4
:100F200000900870810202916D480190FFF752FB1A
:100F300000990198C902FFF74DFB01980299FFF74C
:100F400036FB002804D1FFE703A900200870FFE763
:100F50000120C1026248FFF7AAFA03A8007804B092
:100F600080BDC04600000A4080B584B0AE2000219C
:100F7000039100F095F90399084600F091F903995F
:100F8000102000F08DF903994020019000F088F9BD
:100F90000399812000F084F90399CF2000F080F9B3
:100FA0000399A12000F07CF90399C82000F078F99A
:100FB0000399A620029000F073F90399A82000F08D
:100FC0006FF903993F2000F06BF90399D32000F0EB
:100FD00067F90399084600F063F90399D52000F0FA
:100FE0005FF90399802000F05BF90399D92000F0A4
:100FF00057F90399F12000F053F90399DA2000F032
:101000004FF90399122000F04BF90399DB2000F00F
:1010100047F90198039900F043F90399202000F063
:101020003FF90399022000F03BF903998D2000F06D
:1010300037F90399142000F033F90399A42000F044
:101040002FF90298039900F02BF9FFF747FF039956
:10105000AF2000F025F904B080BD000080B586B057
:1010600005A9087004A900200870FFE704A800780B
:10107000072833DCFFE70120C1021948FFF717FA00
:1010800005A800780006002806D5FFE701208102A8
:101090001348FFF79FFA05E0012081021048FFF78F
:1010A00006FAFFE701200190FFF784FD0198C102D5
:1010B00003910B480290FFF78DFA0198FFF77AFD34
:1010C00002980399FFF7F3F90598400005A9087005
:1010D000FFE70498401C04A90870C7E706B080BD6C
:1010E00000000A4080B584B000910246009803A930
:1010F0000A7002AA1070029AB03201A802700A782F
:1011000012091032427009780F22114081700321B8
:1011100000F0FFF804B080BD10B58CB00BAC2070AF
:101120000AA8017009A8027008A8037007AA002184
:1011300011700278520806AB1A7005AA1180007867
:10114000082804D1FFE704A90620088012E008A8B7
:1011500001780191C80802904907401C00290390BA
:1011600001D102980390019803994008484304A9CB
:101170000880FFE70998203807A908700BA80078B5
:101180000AA90978FFF7AEFF05A900200880FFE74C
:1011900005A8008804A90988884242DAFFE705A863
:1011A000008806A90978FEF7F7FF00290ED1FFE7AE
:1011B00008A80078082809D0FFE70BA800780AAB38
:1011C00019784A1C1A70FFF78DFFFFE708A800780E
:1011D00008280DD1FFE707A80078062141431348EE
:1011E000401805A90988405C012100F059F812E077
:1011F00008A8007810280CD1FFE707A800780101A3
:101200000948401805A90988405C012100F048F808
:1012100000E006E0FFE7FFE70598401C05A908800D
:10122000B6E70CB010BDC0462802202000002020E8
:10123000B0B586B005AC207004A80170039202A876
:10124000037001A900200870FFE7039801A909783D
:10125000405C002822D0FFE705A8007804A909789F
:10126000039A01AD2B785C1C2C70D25C02AB00930E
:101270001B78FFF751FF00980078082805D1FFE799
:101280000598801D05A9087007E002A800784108AC
:101290000598401805A90870FFE7D6E706B0B0BD6D
:1012A00080B582B001AA107068460170FFF70CFD8E
:1012B0007820FFF7D3FEFFF72FFE002803D0FFE7CB
:1012C000FFF720FD23E068460078002804D0FFE700
:1012D0004020FFF7C3FE03E00020FFF7BFFEFFE75B
:1012E000FFF71AFE002803D0FFE7FFF70BFD0EE023
:1012F00001A80078FFF7B2FEFFF70EFE002803D02A
:10130000FFE7FFF7FFFC02E0FFF7FCFCFFE702B09E
:1013100080BD80B584B0039002A8017000780028D9
:1013200001D1FFE739E0FFF7CFFC7820FFF796FE09
:10133000FFF7F2FD002803D0FFE7FFF7E3FC2CE006
:101340000020FFF78BFEFFF7E7FD002803D0FFE743
:10135000FFF7D8FC21E001A900200870FFE701A8F1
:10136000007802A90978884214DAFFE7039801A9F6
:101370000978405CFFF772FEFFF7CEFD002803D02E
:10138000FFE7FFF7BFFC08E0FFE70198401C01A959
:101390000870E4E7FFF7B6FCFFE704B080BD80B556
:1013A00084B0039002A801800088002801D1FFE7E3
:1013B00027E0FFF789FC7820FFF750FEFFF7ACFD30
:1013C0004020FFF74BFEFFF7A7FD01A90020088092
:1013D000FFE701A8008802A9098888420EDAFFE722
:1013E000039801A90988405CFFF738FEFFF794FDD8
:1013F000FFE70198401C01A90880EAE7FFF782FC9B
:10140000FFE704B080BD000080B582B00B490C48F6
:101410000190FFF79BFB01980A49FFF735FB019804
:101420000021FFF79CFB0198D0211522FFF768FBF4
:101430000198FFF703FB02B080BDC046401B0000CF
:1014400000801040421B000080B58EB0262006218F
:101450000391FFF793F80120059041040891664835
:101460000A90FFF72FF803992720FFF787F80599CF
:101470000A988904FFF726F80320029005210191BC
:10148000FFF77CF805990A984907FFF71BF80199BF
:101490000420FFF773F805990A988907FFF712F8F7
:1014A00002992D20FFF75CF8039802210491FFF7C1
:1014B00057F804990B20FFF761F804990C20FFF707
:1014C0004FF804993420FFF759F804993520FFF7B5
:1014D00047F80598002309930093020406923120EF
:1014E0001946FFF727F83020FFF71AF81E20FFF7FC
:1014F00017F81F20FFF714F82020FFF711F80E202F
:10150000FFF70EF8069A099B009325201946FFF76E
:1015100011F8069A099B00932A201946FFF70AF84A
:10152000069A099B00932B201946FFF703F8069AA9
:10153000099B00932C201946FEF7FCFF0598069A9C
:1015400009990091C30407931620FEF7D1FF069A6C
:10155000079B099900911720FEF7CAFF069A079B7F
:10156000099900911820FEF7C3FF069A079B099975
:1015700000911920FEF7BCFF069A079B099900917C
:101580002120FEF7B5FF069A079B099900913820A4
:10159000FEF7AEFF069A079B099900913220FEF7ED
:1015A000A7FF069A079B099900912220FEF7A0FF4A
:1015B000089A099B009314201946FEF7BBFF089A6E
:1015C000099B009315201946FEF7B4FF0A984321A2
:1015D00089020B91FEF757FF0A980B99FEF772FFED
:1015E000BF480C9005490D91FEF74DFF0C980D99E1
:1015F000FEF768FF0EB080BD00000A4004C06F0017
:1016000080B582B00D49BC480190FFF79FFA019860
:101610000B49FFF739FA01980021FFF7A0FA01986A
:1016200011211722FFF76CFA019803218902FFF7B5
:1016300011FA0198FFF702FA02B080BD4C1B0000BE
:101640004E1B000080B586B01F49A6480590FFF7E5
:10165000A9F905981D49FFF775F80598002302932D
:1016600019461A46FFF7ACF9029B059800931946F4
:101670001A46FFF783F9029A05981146FFF770F9A9
:10168000029A05987D2189000391FFF783F9029B57
:10169000059801210491009119461A46FFF76EF949
:1016A0000299049A0598FFF75BF90399049A059843
:1016B000FFF770F90598FFF70FF805980321FFF77A
:1016C00045F906B080BDC046581B00005C1B0000F9
:1016D00080B584B00E4985480390FFF763F90398FD
:1016E000492149020191002302931A46FEF7CEFFD9
:1016F0000199029A03980123FEF7C8FF0398054950
:10170000FFF77AF90398FEF7E7FF04B080BDC04603
:10171000641B0000FFFF000080B586B01F497248BF
:101720000590FFF73FF905981D49FFF70BF805985D
:101730000023029319461A46FFF742F9029B0598C7
:10174000009319461A46FFF719F9029A05981146AF
:10175000FFF706F9029A05987D21C9000391FFF76A
:1017600019F9029B059801210491009119461A4626
:10177000FFF704F90299049A0598FFF7F1F8039925
:10178000049A0598FFF706F90598FEF7A5FF059856
:101790000321FFF7DBF806B080BDC046671B0000E1
:1017A0006C1B000080B582B000200190FEF72EFF78
:1017B0000198FEF743FFFEF719FFFEF71DFF0198A2
:1017C000FEF74AFF0198FEF72DFF02B080BD80B5FD
:1017D0007D20000200F092F880BD000080B582B04C
:1017E000084943480190FFF7DDF801980649FFF7E3
:1017F0002DF801980121FEF779FF0198FEF76CFFA3
:1018000002B080BD741B0000781B000080B500F0A2
:1018100027F8FFF719FEFFF7C5FFFFF713FFFFF7E4
:101820007BFFFFF755FFFFF7D9FFFFF7EDFDFFF750
:10183000E7FEFFF7CCFF06499C22002088540549AB
:101840008854054988540549B822885480BDC0464B
:10185000A40A2020E40B2020440B2020840C20200C
:1018600080B588B0A0480090FEF7ACFE9D4801907E
:10187000FEF7A8FE1B480290FFF75CF81A48039099
:10188000FFF758F819480490FFF754F818480590E6
:10189000FFF750F817480690FFF726F9164807900B
:1018A000FFF722F90098FEF719FE0198FEF716FEE1
:1018B0000298FEF733FF0398FEF730FF0498FEF717
:1018C0002DFF0598FEF72AFF0698FFF7D1F8079835
:1018D000FFF7CEF81020FEF7BDFD08B080BDC04672
:1018E00000200A4000A08640008086400000094099
:1018F00000008640008010400020104080B584B079
:1019000002900298401E000E002803D0FFE701203D
:10191000039011E00298401E0949086000200190E0
:10192000C043032100F056F8019806490860064AB2
:10193000072111600390FFE7039804B080BDC04603
:1019400014E000E018E000E010E000E00948016861
:10195000491C0160084A1168491C116000687D211A
:10196000C900884204D1FFE7024900200860FFE770
:101970007047C04660092020440D202081B00146F8
:101980006846017000214056002809D4FFE76846E8
:1019900001781F2001400120884002490860FFE7CC
:1019A00001B0704780E200E081B0014668460170F6
:1019B00000214056002809D4FFE7684601781F201F
:1019C00001400120884002490860FFE701B07047EC
:1019D00000E100E070B582B0024601A802700091FB
:1019E00000214056002816D4FFE7002401A908571B
:1019F0000322D3431840174A805809578C07E50E35
:101A0000FF24AC40A043009CA401E4B2AC402043BE
:101A1000194088501AE001A908780F24204008389E
:101A20000322D34318400A4A8058002549578D079E
:101A3000EE0EFF25B540A843009DAD01EDB2B540C7
:101A400028432140083919408850FFE702B070BD93
:101A50001CED00E000E400E080B584B00390214874
:101A600000904021FEF798FD01460098039A1170FE
:101A70008021FEF791FD01460098039A51700121E3
:101A800001910902FEF788FD019902460098039B27
:101A90009A704902FEF780FD01460198039AD170C1
:101AA000010311480290FEF777FD01990246009864
:101AB000039B1A718906FEF76FFD01990246009893
:101AC000039B5A71C905FEF767FD0199024602980A
:101AD000039B9A714903FEF75FFD0399C87104B037
:101AE00080BDC04600200A4000000A4080B582B098
:101AF000002000900190FFF789FEFFF735FAFFF70D
:101B0000EDF900990C4A14200823FFF791FBFFF729
:101B10002BF9FFF71DF9FFF70BF90848FFF79CFFBA
:101B2000FFE77D20C000FFF734F8034A18200121A9
:101B30000823FFF77DFBF4E78C1B000078082020CA
:101B4000080000001800000000300000080000003D
:101B5000180000000030000008070000E803000043
:101B6000200001000800000800030000E803000056
:101B70000000000008076300020000008F01000061
:101B800001000000000000000000000048656C6CCF
:101B90006F204E5545444321000000000000000026
:101BA000C01B00000000202018080000FE030000F9
:101BB000F020000018082020300600002801000056
:101BC00091422F1A0702111B147F021116242A7F3B
:101BD0002A121662640813232636495522504305FB
:101BE00003341C22411C41221C2A15083E08141AE9
:101BF0000806320823A0602A0801211A600B11167A
:101C00002010080402263E5149453E1C427F4005F3
:101C10001561514946162141454B31161814127F62
:101C200010162745454539163C4A4949301C017173
:101C3000096216364949493626064949291E43365E
:101C4000362A56062B0814782A1401297E13140804
:101C500016020151090616324959513E167C1211DD
:101C6000127C3A7F3C163E414141221A7F053A1CC4
:101C70001212411E7F09090901181449497A1A7F75
:101C8000A11A7F421A7F4E1E2040413F0112295B5C
:101C90001B7F400111167F020C027F3E7F0408105B
:101CA0007F483A3E3C1A060C1C51215E0C1419293F
:101CB000461A465412311601017F01011A3F3512AE
:101CC0003F1E1F2040201F0C1A380C1663140814E6
:101CD0006316070870080719EF234543198B211B6A
:101CE000552A0219781A417D16040201020429714D
:101CF0002240290B11162054545478167F4844442E
:101D0000382E38444444200613487F1A38181218D5
:101D100016087E0901021D18A4A4A4E425080404E1
:101D2000781B447D3B1D4080847D5F341028441B1C
:101D3000417F121C7C04181E3A7C24294812381654
:101D4000FC242424181A18053AFC1812081A4854BE
:101D5000122016043F444020163C4040207C1A1CB0
:101D6000C01A1C0C1430403C2B44284F161CA0A059
:101D7000A07C3F4464544C441401011372F8433373
:101D8000301C100C0603912C40C0780319672A04FC
:101D900003212D7088FC0829261820FF211E14F02D
:101DA00008F033E0184D211C031E11338870000C1D
:101DB000101E2123241927211010160E45E01804A7
:101DC000021C071820EA3D020418E0692C201807BD
:101DD00007174080F08040403F0202010F010228B7
:101DE00042F01D0101011F04912B80B066B1191D45
:101DF0002901913A30CE492C146018043C60180631
:101E00001D1EE010080810721F0F102020100FF088
:101E10005310F83620203F20203C700808C21E30A6
:101E200028242221441E3008888848082E182020A3
:101E30002011CC3BC0203227070424243F241AF869
:101E4000202308084B19212036E0108888184B0FF2
:101E500011101E380808C8382021523F1A702E2948
:101E6000608F1C222121221C90111D3122221190F1
:101E70001961CAC0C26A80C659081C402010501798
:101E80000102040810204A4001114A0401211915D9
:101E90002A403219251B0402F21B7048D13AF05037
:101EA0001A360F1EC030C828E870280807182724E3
:101EB00023140B6F2A387E280D203C23020227387A
:101EC0002008F888889F4B203FF01BC0303F1B083C
:101ED0003830191019781B08F80F194039201B10D9
:101EE0000F103E8888E8081010AC23201810112A23
:101EF000035E2940223829402C221E024019A418D2
:101F000009F808203F21010121252A0852298129A9
:101F1000424149112EC08080807F0E2FF888C02852
:101F20001808501C0126382F2940292F29801B20F2
:101F3000301012F81AF81413203F190229204B30E0
:101F4000C0601A2074123F4BE010B06B0F10B02924
:101F5000D01AF0301980220179203F1824243850FB
:101F60004FC04C888870C0140C30204B7088C1174B
:101F700038202121221C3A189F4A188239A049D0C2
:101F8000112A1F90121F240878881BC838151C07B7
:101F9000380E60191A1AF8201114033C0714073C74
:101FA000034814081868808068180820302C030340
:101FB0002C30200838C82F5950298F29102F20384D
:101FC00026212020681145FE020202257F40404064
:101FD0001A0CE0611C0106380B191D42FE191D5236
:101FE0007F1A04120211045A80011930D91D3916C2
:101FF00021180819242222223F20AB390F115F3FFC
:10200000112020110E21311A0E104B2011104B8877
:10201000F8102A10B359401A1F3F2B22130F16F045
:10202000888888181A20D029D1497A21176B94946E
:102030009493603960190F4C203F21F35480989895
:10204000793059121AC02719D1193039311F203F60
:1020500024022D30212A0812893069D7294B2903FF
:10206000190BC96079A019BF2B201FDD390F9C8087
:10207000FFA1E0191229D03BA0FF0C3950194112E1
:10208000208A01C01B3324012A190F3AE04139523A
:10209000290F392349603C103F202C29053F010EB0
:1020A0003008060170291038080F300C030C300F6F
:1020B0002C49A14E312E0E31200C29621D818E70CB
:1020C000183059D1215721302C22213055807C02E3
:1020D00002443F404072FF39083C02027C8F54406A
:1020E000403F8008060101020204040000000000D5
:04000005000000C136
:00000001FF
