:020000040000FA
:100000006801202055010000590100005B0100003B
:1000100000000000000000000000000000000000E0
:100020000000000000000000000000005D01000072
:1000300000000000000000005F010000610E0000F1
:100040006301000063010000630100006301000020
:100050006301000063010000630100006301000010
:1000600000000000630100006301000000000000C8
:100070000000000063010000630100006301000054
:1000800063010000630100006301000063010000E0
:100090006301000063010000000000000000000098
:1000A0006301000063010000000000000000000088
:1000B0006301000000000000630100006301000014
:1000C00000F002F800F036F80CA030C80838241808
:1000D0002D18671EA246AB4654465D46AC4201D180
:1000E00000F028F87E460F3EB6460FCC012633427C
:1000F00000D0FB1A3343A246AB4618475C160000FB
:100100006C160000000000000023002400250026DB
:10011000103A01D378C1FBD8520700D330C100D5C3
:100120000B6070471FB50FBC00F072F90FB41FBD14
:1001300010B510BD00F01BF91146FFF7F3FF00F0FA
:10014000F1FE00F033F903B4FFF7F2FF03BC00F057
:100150003FF9000006480047FEE7FEE7FEE7FEE73E
:10016000FEE7FEE703480449024A044B70470000DB
:10017000C1000000680020206801202068002020C5
:10018000002203098B4273D3030A8B4258D3030B1B
:100190008B423CD3030C8B4221D312E003460B432A
:1001A0007FD4002243088B4274D303098B425FD370
:1001B000030A8B4244D3030B8B4228D3030C8B429C
:1001C0000DD30902FF2212BA030C8B4202D3121282
:1001D000090265D0030B8B4219D300E0090AC30B57
:1001E0008B4201D3CB03C01A5241830B8B4201D304
:1001F0008B03C01A5241430B8B4201D34B03C01AED
:100200005241030B8B4201D30B03C01A5241C30A64
:100210008B4201D3CB02C01A5241830A8B4201D3D5
:100220008B02C01A5241430A8B4201D34B02C01ABF
:100230005241030A8B4201D30B02C01A5241CDD264
:10024000C3098B4201D3CB01C01A524183098B42AF
:1002500001D38B01C01A524143098B4201D34B0198
:10026000C01A524103098B4201D30B01C01A5241FB
:10027000C3088B4201D3CB00C01A524183088B4282
:1002800001D38B00C01A524143088B4201D34B006B
:10029000C01A5241411A00D20146524110467047DD
:1002A0005DE0CA0F00D04942031000D340425340E2
:1002B0009C46002203098B422DD3030A8B4212D3A2
:1002C0008901FC2212BA030A8B420CD389019211D4
:1002D0008B4208D3890192118B4204D389013AD011
:1002E000921100E08909C3098B4201D3CB01C01AE6
:1002F000524183098B4201D38B01C01A52414309F9
:100300008B4201D34B01C01A524103098B4201D3E6
:100310000B01C01A5241C3088B4201D3CB00C01A53
:10032000524183088B4201D38B00C01A5241D9D26B
:1003300043088B4201D34B00C01A5241411A00D2EC
:1003400001465241104663465B1001D34042002BE8
:1003500000D54942704763465B1000D3404201B567
:100360000020C046C04602BD7047704770477546C2
:1003700000F024F8AE46050069465346C008C000A8
:10038000854618B020B5FFF7EDFE60BCB6460026E6
:100390000027C0C5C0C5C0C5C0C5C0C5C0C5C0C593
:1003A000C0C5403D490849008D46704710B5044618
:1003B000C046C0462046FFF7C6FE10BD0048704745
:1003C0000000202010B5002801D000F001F810BD79
:1003D00001491820ABBEFEE72600020070B50546B5
:1003E0000C460A2000E06D1C00F016F8002D06D027
:1003F00028780028F7D102E0641C00F00DF8002CEA
:1004000002D020780028F7D10A2000F005F870BD4E
:1004100010B500F019F810BD08B569460870032042
:10042000ABBE08BD70470246C91C09CA8908083A14
:1004300089001B1A8B4201D2002070474118C91D48
:10044000C908C90011607047F3B587B00027694635
:10045000FF240097013407A80F732146FFF7E3FF3D
:100460000028029001D100F0AFF80298214600F078
:1004700073F806000AD0029D012006900195347899
:10048000761C002F0DD05C2C12D018E00299084683
:1004900008300860002048600C682070012009B016
:1004A000F0BD222C01D0272C0FD12746009431E03B
:1004B0003078222807D05C2805D0272803D0BC42FA
:1004C00003D1002726E0761C0446002C0AD0002F1A
:1004D00005D1202C06D020460938042802D92C70DA
:1004E0006D1CCCE70198854202D10098002811D0FC
:1004F00000202870009A01996D1C03A8C046C046D0
:100500006846007B00280FD0019D002000900698CF
:10051000401C0690002CB2D10698810007A8FFF776
:1005200082FF040002D004E00195EEE7002000F015
:100530004BF802982060029A002006E01178521CC5
:10054000002902D1401C81006250AA42F6D300214A
:100550008200A1502146A2E71CB504460090152058
:1005600001916946ABBE002801D000201CBD204689
:100570001CBD70477047000010B5012805D0002150
:1005800003A0FFF72BFF012010BD09A1F8E7000031
:1005900053494752544D454D3A204F7574206F666C
:1005A0002068656170206D656D6F727900000000D4
:1005B0003A2048656170206D656D6F727920636FB8
:1005C000727275707465640010B5FFF7D5FFFFF7A0
:1005D000F9FE10BD811E091F00BFFCD27047B0B5E7
:1005E00087B013460C46054606900591049206987E
:1005F0000068039003980499884303900398059931
:10060000049A1140084306990860029301940095EA
:1006100007B0B0BD10B584B00A46034603900291FE
:10062000029803999524640108510192009304B043
:1006300010BD10B584B00A4603460390029102989B
:1006400003999524640108510192009304B010BDF0
:1006500010B584B00A4603460390029102980399AC
:10066000024C08510192009304B010BDD01200005A
:1006700082B00146019001980122D202024B8350C0
:10068000009102B07047C0460100002682B00146CA
:10069000019001988000134A81238350009102B099
:1006A0007047C046F0B58AB00F9C1D4616460F46EF
:1006B000059004900598099008910792069308996F
:1006C000079A1143069A11430F9A1143812211434D
:1006D000099A9200034BD15003950296019700941A
:1006E0000AB0F0BD0480424082B0014601900198FA
:1006F000024A034B8350009102B070470408000087
:10070000030000B110B584B00A460346039002917D
:1007100002980399094C08510192009304B010BD4E
:1007200010B584B00A4603460390029102980399DB
:10073000024C08510192009304B010BD90120000C9
:1007400010B584B00A4603460390029102980399BB
:10075000024C08510192009304B010BDB012000089
:10076000064801680122914301607047034801680F
:1007700001221202914301607047C04608010B40FC
:1007800082B0014601AA10701078024A10600091F0
:1007900002B0704708030B4080B584B0014603AA3D
:1007A00010701078184A0F2302901046029A019197
:1007B00011461A46FFF713FF04B080BD80B584B020
:1007C000014603AA10701078054A032302901046D0
:1007D000029A019111461A46FFF701FF04B080BD4D
:1007E00000010B4080B584B0014603AA1070107858
:1007F000054A302302901046029A019111461A468A
:10080000FFF7EDFE04B080BD04010B4080B582B05F
:10081000014601900091FFE70198411E01910028D7
:1008200005D0FFE77D20C00000F004F8F4E702B037
:1008300080BD000083B00146029002984001019003
:100840000198401E0A4A10600A48002202600A48C5
:10085000052202600091FFE707480068C0030028F6
:1008600001D4FFE7F8E704480021016003B07047B6
:1008700014E000E018E000E010E000E080B584B093
:1008800002A800210170FFE702A8007807281EDCFB
:10089000FFE702A800780021019100F0E6F803A824
:1008A00001990170FFE703A800787F2809DCFFE7C2
:1008B000002000F02AFAFFE70398401C03A9087003
:1008C000F1E7FFE70298401C02A90870DCE704B0DA
:1008D00080BD704780B584B0014603AA107002A89D
:1008E000002202700191FFE702A80078072815DCBA
:1008F000FFE703A8007802A909788022CA401040C7
:1009000000F0D0F9012000F0B1F9002000F0AEF9BC
:10091000FFE70298401C02A90870E5E7012000F0FB
:10092000A5F9002000F0A2F904B080BD80B582B026
:100930000120019000F0B6F9019800F097F900202D
:10094000009000F0AFF9009800F090F902B080BD7F
:1009500080B582B0002000F0A5F90120019000F0E0
:1009600085F9019800F09EF902B080BD80B582B093
:1009700000200190FFE70198C0087C2812D8FFE70B
:1009800000200090FFE70098C0087C2805D8FFE70A
:10099000FFE70098401C0090F5E7FFE70198401C36
:1009A0000190E8E7FFF795FFAE2000F097F9D5201A
:1009B00000F094F9802000F091F9A82000F08EF961
:1009C0003F2000F08BF9D32000F088F9002000F0E0
:1009D00085F9402000F082F9A12000F07FF9C820BD
:1009E00000F07CF9DA2000F079F9122000F076F9B5
:1009F000812000F073F9CF2000F070F9D92000F0C9
:100A00006DF9F12000F06AF9DB2000F067F9302081
:100A100000F064F9A42000F061F9A62000F05EF96E
:100A20008D2000F05BF9142000F058F9AF2000F0A1
:100A300055F9FFF723FF02B080BD85B00A46034693
:100A4000049003910120029001920093FFE7039824
:100A5000411E0391002805D0FFE7049802994843FE
:100A60000290F4E7029805B0704710B586B00A46C8
:100A7000034605AC207004A801702178B0242143FE
:100A8000039008460292019300F028F90398017838
:100A900009091031084600F021F9039801780F2266
:100AA0001140084600F01AF906B010BD70B588B0C4
:100AB00013460C46054607AE307006A8017005A81F
:100AC000027007984000801E0699C9000839C0B21C
:100AD000C9B2039302940195FFF7C7FF04A8002150
:100AE0000170FFE704A80078072812DCFFE705A8DB
:100AF000007800011B49081804A9097840181B490F
:100B0000405C00F002F9FFE70498401C04A908705B
:100B1000E8E707984000801E401C0699C900083984
:100B2000C9B2C0B2FFF7A1FF04A800210170FFE71E
:100B300004A80078072812DCFFE705A80078000168
:100B40000849081804A9097840180749405C00F0D2
:100B5000DCF8FFE70498401C04A90870E8E708B037
:100B600070BDC0465E11000008FEFFFF00FEFFFFE3
:100B7000F0B593B01C4615460E4607460D9012A8D8
:100B80000C900D980B910C99087011A90B98087096
:100B900010920FA90B700EA900220A700A950996EF
:100BA00008970794FFE70EA800780FA909788842F4
:100BB0002FDAFFE712A8007811990EAA1278891887
:100BC000109B0FAC2478A21A521E0A2406902046CD
:100BD0000591114604940393FFF72FFF03990290A8
:100BE0000846029900F0C4F90499FFF7C9FA3022C7
:100BF0001143059AD2B2069B019018460091114606
:100C0000009AFFF753FFFFE70E98401C0EA90870EB
:100C1000C9E713B0F0BD70B588B013460C46054661
:100C200007AE307006A80170059204A8002101707B
:100C3000039302940195FFE7059804A90978405CA5
:100C4000002811D0FFE707A80078069904AA1278B7
:100C50008918059B9A5CC9B2FFF728FFFFE7049843
:100C6000401C04A90870E7E708B070BD80B582B0E9
:100C7000014601AA107010780028009106D0FFE705
:100C8000012001078248FFF74BFD05E00120010725
:100C90007F48FFF7CEFCFFE70120FFF7CBFD02B056
:100CA00080BDC04680B582B0014601AA10701078A0
:100CB0000028009106D0FFE70120C1077448FFF724
:100CC0002FFD05E00120C1077148FFF7B2FCFFE7E7
:100CD0000120FFF7AFFD02B080BDC04680B584B0F3
:100CE000014603AA107002920191FFF71FFE7820BF
:100CF000FFF7F0FD0020FFF7EDFD02980078FFF709
:100D0000E9FDFFF725FE04B080BD80B584B0014643
:100D100003AA107002920191FFF708FE7820FFF7F6
:100D2000D9FD4020FFF7D6FD02980078FFF7D2FDED
:100D3000FFF70EFE04B080BD80B584B06846002188
:100D40000160012002042323039018460291029BB4
:100D5000FFF7A8FC0220FFF799FC0520FFF796FC9F
:100D6000039881034A4A10460192FFF753FC092079
:100D700001070198FFF7C6FC02490198FFF768FCDC
:100D800004B080BD0040009080B582B0002001908A
:100D9000FFF7F6FC0198FFF711FDFFF7E1FCFFF705
:100DA000E5FC0198FFF71EFD0198FFF7F5FC02B086
:100DB00080BD80B582B07D20000200F025F8019052
:100DC00002B080BD80B500F007F8FFF7B5FFFFF770
:100DD000DBFFFFF7EEFF80BD80B582B02C480190AD
:100DE000FFF782FC07480090FFF77EFC0198FFF7B1
:100DF0003FFC0098FFF73CFC1020FFF7EBFB02B034
:100E000080BDC04600200A4080B584B001460290F3
:100E10000298401E000E0028019103D0FFE7012038
:100E2000039013E00298401E0A4908600020C14365
:100E3000032200900846114600F02CF8064800995D
:100E400001600648072202600391FFE7039804B09F
:100E500080BDC04614E000E018E000E010E000E0D3
:100E600080B50A480168491C016000687D21C900FD
:100E7000884209D1FFE70548002101600120810374
:100E80000348FFF75DFCFFE780BDC04660002020FF
:100E900000000A4070B584B00A46034603AC2070D7
:100EA0000291207840B200280193009218DBFFE7FE
:100EB00003A8017849B20322D3431940184C0959B9
:100EC000007840B205461540EA00FF259540A94349
:100ED000029DAD01EDB295402943184001511BE040
:100EE00003A801780F22114008390323DC43214075
:100EF0000A4D4959007840B206461E40F300FF26CD
:100F00009E40B143029EB601F6B29E40314310406E
:100F1000083820404151FFE704B070BD1CED00E0EF
:100F200000E400E080B584B000200390FFF74AFFA2
:100F3000FFF71CFDFFF7A2FC0B4A0120029002996B
:100F4000FFF769FEFFE77D20C000FFF75FFC074861
:100F500001684A1C0260022001220323019111460C
:100F6000019AFFF705FEEEE74E170000640020200F
:100F700043088B421AD3002203098B4279D3030A18
:100F80008B425ED3030B8B4242D3030C8B4227D39D
:100F90000902FF2212BA030C8B4202D31212090279
:100FA00003D0030B8B4233D31AE0D3E0411A8041C4
:100FB000401C704703460B4371D443088B42F5D362
:100FC000002203098B4254D3030A8B4239D3030B0B
:100FD0008B421DD3030C8B4202D394466EE0090A68
:100FE000C30B8B4201D3CB03C01A5241830B8B42FC
:100FF00001D38B03C01A5241430B8B4201D34B03E5
:10100000C01A5241030B8B4201D30B03C01A524149
:10101000C30A8B4201D3CB02C01A5241830A8B42CE
:1010200001D38B02C01A5241430A8B4201D34B02B7
:10103000C01A5241030A8B4201D30B02C01A52411B
:10104000CDD2C3098B4201D3CB01C01A52418309CF
:101050008B4201D38B01C01A524143098B4201D309
:101060004B01C01A524103098B4201D30B01C01A34
:101070005241C3088B4201D3CB00C01A52418308AE
:101080008B4201D38B00C01A524143088B4201D3DB
:101090004B00C01A5241411A524110007047CA0F0A
:1010A00000D04942031000D34042534000229C46E6
:1010B00003098B422DD3030A8B4212D38901FC22F0
:1010C00012BA030A8B420CD3890192118B4208D3C6
:1010D000890192118B4204D3890137D0921100E02B
:1010E0008909C3098B4201D3CB01C01A524183093C
:1010F0008B4201D38B01C01A524143098B4201D369
:101100004B01C01A524103098B4201D30B01C01A93
:101110005241C3088B4201D3CB00C01A524183080D
:101120008B4201D38B00C01A5241D9D243088B4263
:1011300001D34B00C01A5241411A00D2014652411C
:10114000104663465B1000D34042704763465B1015
:1011500000D3404201B50020C046C04602BD000099
:10116000000000000000000000000000000000007F
:1011700000F8000000000000003330000000001004
:101180000C06100C0600000000000000000040C02B
:101190007840C0784000043F04043F04040000701D
:1011A00088FC08300000001820FF211E0000F00815
:1011B000F000E018000000211C031E211E0000F0BA
:1011C0000888700000001E21232419272110101602
:1011D0000E00000000000000000000000000000001
:1011E00000E0180402000000000718204000000280
:1011F0000418E000000000402018070000004040F4
:1012000080F0804040000202010F01020200000055
:1012100000F0000000000101011F010101000000B9
:1012200000000000000080B070000000000000001E
:1012300000000000000000010101010101010000A7
:10124000000000000000003030000000000000003E
:10125000000080601804006018060100000000E033
:1012600010080810E000000F102020100F000010E0
:1012700010F8000000000020203F20200000007037
:10128000080808887000003028242221300000302F
:101290000888884830000018202020110E00000027
:1012A000C02010F8000000070424243F240000F8A8
:1012B0000888880808000019212020110E0000E08D
:1012C000108888180000000F112020110E0000382F
:1012D0000808C83808000000003F00000000007047
:1012E000880808887000001C222121221C0000E0D0
:1012F00010080810E0000000312222110F00000049
:1013000000C0C000000000000030300000000000FD
:10131000008000000000000080600000000000006D
:101320008040201008000001020408102000404006
:101330004040404040000404040404040400000849
:1013400010204080000000201008040201000070FE
:1013500048080808F0000000003036010000C030E6
:10136000C828E810E0000718272423140B00000009
:10137000C038E0000000203C23020227382008F893
:10138000888888700000203F202020110E00C03087
:10139000080808083800071820202010080008F85E
:1013A00008080810E000203F202020100F0008F857
:1013B0008888E8081000203F20202320180008F823
:1013C0008888E8081000203F200003000000C0309B
:1013D00008080838000007182020221E020008F81C
:1013E00008000008F808203F210101213F200008E3
:1013F00008F8080800000020203F2020000000001E
:101400000808F8080800C08080807F00000008F805
:1014100088C028180800203F20012638200008F83E
:10142000080000000000203F20202020300008F8A5
:10143000F800F8F80800203F003F003F200008F8BF
:1014400030C00008F808203F200007183F00E010D7
:1014500008080810E0000F10202020100F0008F8E6
:1014600008080808F000203F210101010000E010F9
:1014700008080810E0000F18242438504F0008F81E
:10148000888888887000203F2000030C302000707E
:101490008808080838000038202121221C0018087C
:1014A00008F8080818000000203F2000000008F895
:1014B00008000008F808001F202020201F000878DE
:1014C000880000C83808000007380E010000F8083E
:1014D00000F80008F800033C0700073C0300081868
:1014E00068808068180820302C03032C30200838CE
:1014F000C800C83808000000203F20000000100885
:101500000808C838080020382621202018000000CC
:1015100000FE020202000000007F40404000000C7C
:1015200030C000000000000000010638C0000002CA
:101530000202FE000000004040407F00000000006A
:10154000040202020400000000000000000000008D
:101550000000000000008080808080808080000289
:101560000204000000000000000000000000000075
:101570008080808000000019242222223F2008F869
:10158000008080000000003F112020110E000000AC
:10159000008080800000000E11202020110000003B
:1015A00000808088F800000E112020103F200000ED
:1015B000808080800000001F2222222213000080F1
:1015C00080F0888888180020203F2020000000003C
:1015D000808080808000006B94949493600008F871
:1015E000008080800000203F210000203F200080FC
:1015F0009898000000000020203F202000000000FC
:1016000000809898000000C08080807F000008F86B
:10161000000080808000203F24022D302000000840
:1016200008F8000000000020203F202000008080FB
:10163000808080808000203F20003F20003F80800D
:10164000008080800000203F210000203F2000001B
:10165000808080800000001F202020201F008080CC
:1016600000808000000080FFA12020110E000000FB
:10167000008080808000000E112020A0FF808080EC
:1016800080008080800020203F2120000100000099
:10169000808080808000003324242424190000806E
:1016A00080E0808000000000001F2020000080807B
:1016B000000000808000001F202020103F2080803C
:1016C00080000080808000010E30080601008080CC
:1016D0000080008080800F300C030C300F000080F1
:1016E0008000808080000020312E0E31200080801C
:1016F00080000080808080818E701806010000804C
:101700008080808080000021302C22213000000069
:101710000000807C020200000000003F404000000A
:101720000000FF00000000000000FF0000000002B9
:10173000027C800000000040403F000000000006E6
:1017400001010202040400000000000000006865BE
:101750006C6C6F0000000000681700000000202083
:0817600068010000080100000F
:04000005000000C136
:00000001FF
