:020000040000FA
:1000000050152020D5000000D9000000DB000000C2
:1000100000000000000000000000000000000000E0
:10002000000000000000000000000000DD000000F3
:100030000000000000000000DF000000E9230000D5
:10004000E3000000E5120000E3000000E300000010
:10005000E3000000E3000000E3000000E300000014
:1000600000000000E3000000E300000000000000CA
:1000700000000000E300000035240000E300000061
:10008000E3000000E300000019240000E30000008A
:10009000E3000000E300000000000000000000009A
:1000A000E3000000E300000000000000000000008A
:1000B000E300000000000000E3000000E300000097
:1000C0000348854600F028FC00480047452700000B
:1000D0005015202003480047FEE7FEE7FEE7FEE755
:1000E000FEE7FEE7C100000003460B439B0703D079
:1000F00009E008C9121F08C0042AFAD203E00B78ED
:100100000370401C491C521EF9D27047D2B201E064
:100110000270401C491EFBD270470022F6E710B562
:1001200013460A4604461946FFF7F0FF204610BD65
:10013000024670B54A40D30FDB0740002DD04A007D
:100140002AD0010E140E000212020919400A520AA6
:100150008418E50104465443000A120A2E04504351
:10016000A4194219200CC543AA18120C0125AD038D
:10017000521C521912047F39240400D0521C10431F
:1001800001D44000491EC2B20C06C0092018401C10
:100190004008802A02D003E0002070BD40084000E3
:1001A000002900DA0020184370BD70B502464A40AD
:1001B000D50F40004A00ED0740085208002814D02F
:1001C000002A12D0C40DD30D41020120C0055202F5
:1001D000490A520AE41A091812187D34914201D3CF
:1001E000641C00E04900002C01DA002070BD0023EF
:1001F000914201D3891A0343400849000028F7D1EE
:1002000000290AD0914202D10121C90705E091429B
:1002100001D2012101E00121C943E005C0184019C4
:1002200000F0A3FA70BD0000F0B50746084658403C
:1002300087B0C00F049048000E4659004008490896
:10024000BC1A884105D2384631461E4617460B4631
:1002500002465800400810434CD0300D0390400532
:100260005900400D490D0590401A0290402872DA5D
:1002700018030121000B090508430190049800921E
:10028000002805D001995242002088410092019037
:10029000029840210A1A0199009800F032FA0546A6
:1002A0000C466B4607CB00F04DFAC0197141039A1A
:1002B0000E0D0023D71756401A467A40164344D0F5
:1002C000049A002A2DD0029A012A039A15DC1205FD
:1002D000C01A914101263605001C7141D20F059EBE
:1002E000D2070093019202962A46234600F08BFA29
:1002F00007B0F0BD38463146FAE71605224A0F46E8
:10030000B218C01AB74101210905001C4F4100185D
:100310007F41114618187941E20F10436D1964416D
:1003200013E0E2076D0815436408C2071443039AFB
:1003300001261205C01A91413605001C7141CE07F5
:10034000400830434908C01851412A46234600F06E
:100350004DFACDE7FFE7049801224000C117121AB9
:1003600000238B4104983146C417381AA141EEE7A7
:1003700030B40124E407634030BC55E730B40124B5
:10038000E407614030BC4FE70000E0FFF0B51FB468
:1003900088B00B990998002448400999C00F49007A
:1003A00049080991C0070B990090490049080B9131
:1003B00009990898A64608431CD00B990A98084347
:1003C00018D0099801244000420D4800410D0998B9
:1003D00024050003000B204309900B980003000B39
:1003E00020430B9050181C494018002201901446DD
:1003F000104605E0002001460DB0F0BD032801DAEB
:10040000034600E003239C46C11A0AAE0AE05F00DF
:1004100008ADED5B4F00F75B7D430027AA187C41D8
:10042000491C5B1E6145F2DD410004AB5A522104B8
:10043000120C0A43240C401C0828DFDB01980290B0
:100440000099704601910090059B049A07990698BF
:1004500000F0D9F9D0E700000DFCFFFFF0B50C4625
:100460005C4085B0E40FE40703944C000026640868
:1004700059009446490802460296224321D062461A
:100480000A431ED06200570D4A000E032303550D88
:10049000012402462C492405781B1B0B360B4018FF
:1004A00023432643614600901C46501AB44103D3AF
:1004B0000098401C009002E0921800985B410028D0
:1004C00003DA0020014605B0F0BD00200121090536
:1004D0000746864611E064461D46141BB54106D307
:1004E0006546521BB341744607430C43A646CD07ED
:1004F00040084908284392185B4105460D43EAD15C
:100500001046184313D060461946504071400843C6
:1005100006D06046101AB34106D20122002306E03D
:1005200000220123DB0702E00122D243531000988E
:1005300074460105381C6141029C039D0019694104
:1005400000F054F9BFE70000FD0300000122D207CC
:10055000002800DB101A002900DB511A814201D863
:1005600001207047002070470122D207002800DBDD
:10057000101A002900DB511A814201D30120704773
:10058000002070470122D207002800DB101A002942
:1005900000DB511A814201D10120704700207047D1
:1005A00010B5002904DB0C460121C9074042A141D6
:1005B000002B04DB1C460123DB075242A341101A27
:1005C0008B4101D3012010BD002010BD10B50029C2
:1005D00004DB0C460121C9074042A141002B04DB8A
:1005E0001C460123DB075242A341801A994101D2E4
:1005F000012010BD002010BD0EB50549029100215B
:1006000000910A460B46019100F0FDF803B000BDD1
:1006100033040000410040020122400AD205090EC5
:1006200080187F2901DA00207047962903DC962282
:10063000511AC8407047963988407047C20FD20798
:10064000400040080BD0C10D0723DB01C918400250
:100650000905400A1143C2084007114370470020B2
:100660000146704770B50446002903D000202022BF
:10067000012310E0002801D00020C043C046C0463E
:100680000DE02546D5408D4205D30D469540641BAF
:100690001D46954040191546521E002DF1DC21469D
:1006A00070BDF0B51FB40646002082B00546402458
:1006B000019100901BE0019922460F46304600F060
:1006C00030F8049A059B801A994110D310461946B8
:1006D000224600F016F8361A8F4101972246012073
:1006E0000021009F00F00DF838184D410090204681
:1006F000641E0028DFDC019B00982946324607B0C3
:10070000F0BD10B5202A04DB0146203A91400020BC
:1007100010BD914020239C1A0346E34019439040AA
:1007200010BD10B5202A04DB0846203AD040002135
:1007300010BD0B46D340D0402024A21A914008435C
:10074000194610BD10B5202A06DBCB170846203A03
:100750001041C1170B4306E00B461341D040202443
:10076000A21A91400843194610BD002904DA401C22
:10077000490001D140084000704770B40024050CC6
:1007800005D11024000402D1002921D01124050E26
:1007900001D100020834050F01D10001241D850F8D
:1007A00001D18000A41C002801DB4000641C00294A
:1007B00008D020252E1B0D46F540A14000D0012178
:1007C0002943084301061B1B000ADB1D02D500203C
:1007D00070BC7047DB05181880180029F8DA401C37
:1007E0004900F5D170BC40084000704710B5002B9F
:1007F00008DA0024401C614192185B411A4301D180
:100800004008400010BDF0B51FB482B005460C0092
:1008100003D0084601F0DEFF02E001F0DBFF2030EC
:100820000246009021462846FFF76BFF049B059A7D
:1008300004460F4618431143084314D0184610438A
:100840001BD0009840210A1A18460599FFF769FF46
:1008500005460E46009A05990498FFF752FF084393
:1008600005D0012004E02046394607B0F0BD002045
:10087000C11705430E432C43374300990E98630577
:10088000401A7905E40A00220C43FD0A0A3002D519
:1008900000200146E9E70105101969410C9C0D9DF6
:1008A00000196941FFF7A2FFDFE700004A000903D2
:1008B0000123090B1B0519430A4B10B5520D9A422F
:1008C00002DA0020014610BD064B34339A4203DCA5
:1008D0009A1AFFF726FF10BD034BD218FFF711FF3E
:1008E00010BD0000FF030000CDFBFFFF10B5002985
:1008F00004DB0124E40740428C412146002B04DB49
:100900001C460123DB075242A341994200D1904289
:1009100010BD0000000000001CB509480090094807
:10092000019005460126009C05E0E36807CC3343AF
:100930000C3C98471034AC42F7D3FFF7C5FB0000DE
:10094000383A0000583A000084B00290019100202B
:100950000090FFE700980199884210DAFFE70298BB
:1009600000994900405A002804D0FFE703A900205D
:10097000087008E0FFE70098401C0090EAE703A930
:1009800001200870FFE703A8007804B0704780B525
:1009900082B0022000900021019100F0C3FD009878
:1009A000019901F041F902B080BD000080B582B02C
:1009B000134800F0C1FB014601A80170007800F067
:1009C0000FFC1048007801280AD1FFE70D490020EC
:1009D00008700D4800F050FD0C4800F057FDFFE78F
:1009E00009480B4A0B4B0421009101F031FD00999D
:1009F0000648094A094B01F02BFD02B080BDC046F4
:100A000000201040E803202012002020D8002020E1
:100A100004002020000020200C00202008002020BE
:100A2000811E091F00BFFCD2704784B00390029161
:100A30000192039800680090009801998843009003
:100A400000980299019A114008430399086004B084
:100A50007047000082B001900091009B0199094A03
:100A600088581843885002B07047C04682B0019041
:100A70000091009B0199034A88581843885002B09E
:100A80007047C0464810000082B001900091009865
:100A9000019995225201885002B0704782B00190AE
:100AA00000910098019995225201885002B0704738
:100AB00082B00190009100980199952252018850CE
:100AC00002B0704782B00190009100980199952280
:100AD0005201885002B0704782B001900091009B93
:100AE00001999C4A88581843885002B07047C04604
:100AF00082B00190009100980199024A885002B09A
:100B00007047C046D012000081B0009000990120CB
:100B1000C2029648885001B07047C04682B001902A
:100B200000910198024940580099084002B070476E
:100B30003810000010B584B0069C03900291019219
:100B400000930298019908430099084306990843C5
:100B500003490843039989001F4A885004B010BD17
:100B60008100040081B00090009881001A4A812021
:100B7000885001B07047C04610B584B0069C039001
:100B80000291019200930298019908430099084349
:100B90000699084381210843039989000E4A885029
:100BA00004B010BD82B00190009100980349084341
:100BB00001998900084A885002B0704780000400FB
:100BC00082B001900091009880210843019989002A
:100BD000014A885002B070470480424082B00190C0
:100BE000009101982721C90140580099084002B09E
:100BF000704782B00190009101982721C9014058A7
:100C00000099084002B0704781B000900099DD4A19
:100C1000DD48885001B0704782B001900091009B80
:100C20000199034A88581843885002B07047C0465B
:100C30009013000082B00190009100980199114A30
:100C4000885002B07047C04682B001900091009871
:100C500001990C4A885002B07047C04682B001909A
:100C6000009100980199074A885002B07047C04629
:100C700082B00190009100980199024A885002B018
:100C80007047C0469012000082B001900091009B16
:100C900001999D20420188581843885002B070473E
:100CA00006490868012290430860704703490868B4
:100CB00001221202904308607047C04608010B40B1
:100CC00081B001466846017000780249086001B0B1
:100CD0007047C04608030B4080B582B0014601A8AA
:100CE000017001780F480F22FFF79FFE02B080BD10
:100CF00080B582B0014601A8017001780248032244
:100D0000FFF793FE02B080BD00010B4080B582B0BA
:100D1000014601A80170017802483022FFF785FEE4
:100D200002B080BD04010B4081B000900099024ADE
:100D30000120885001B070470811000082B0019076
:100D40000091009B0199DE4A88581843885002B0F0
:100D50007047C0462810000081B000900099012023
:100D6000C202DD48885001B07047C046010000262D
:100D700081B000900098812149014058C0B201B073
:100D800070470000F0B5C14A82183B4BC318087980
:100D90004E793A4D764C002E23D0202804D00526DB
:100DA000F601002803D003E0354E002800D1882644
:100DB000576F2F4037435767976F2F4037439767D9
:100DC000566B26405663966B264096630026566502
:100DD00096658F26F6435F6837405F609F683740AF
:100DE0009F608E79096820280BD0002819D1491EF0
:100DF0005160D76E2F4088210F43D7661746703752
:100E000019E0491E5160D16E29401D4F3943D1660A
:100E1000116F29403943116701214907194D1746C0
:100E200009E049085160D76E2F400521C9010F43E1
:100E3000D766174670373C682C400C433C60D16A3B
:100E40004B4C2140D162116B214011630021D164D0
:100E500011658F21C943D46F0C40D4671C680C40C6
:100E60001C600643BD2030401168074B0B40C01882
:100E7000801C1060F0BDC0468418000024493E006C
:100E800001040000FFFFFFCF4000FFCFB0B54A686C
:100E90006E4BC2507D4A80180A78222A58D8930097
:100EA00001A4E3589F46C046470F0000510F0000C1
:100EB000470F0000510F0000510F0000510F0000BC
:100EC000510F0000510F0000510F0000510F0000A2
:100ED000510F0000510F0000510F0000510F000092
:100EE000510F0000510F0000350F0000510F00009E
:100EF000350F0000510F0000510F0000510F00008E
:100F0000510F0000510F0000510F0000510F000061
:100F1000510F0000510F0000510F0000510F000051
:100F2000510F0000510F0000350F0000510F00005D
:100F3000350F000003231B0704689C4301235B0754
:100F4000E318036004E003231B0704689C43046068
:100F50000B69C360CB68054C1C40C36A044D1D403F
:100F60002B19C362097A11430160B0BD7777020083
:100F70008888FDFF81B000900099784A78488850B1
:100F800001B0704704080000030000B182B0019076
:100F900000910098019911221202885002B0704706
:100FA00010B507239B04194092008018024A845808
:100FB0009C436118815010BD3018000010B5029C90
:100FC000A400001911431943014A815010BDC046C5
:100FD0005018000092008018014A81507047C046A6
:100FE0001018000010B50122120383180C789C60C1
:100FF0004B7883508978014A815010BD0C11000054
:1010000010B586B001930B4601460198059104A9DD
:101010000B8003AB1A8002AA108005981B4C0019A4
:1010200009881B88194312881143024AFFF7FDFC07
:1010300006B010BD80FF000082B0019000910098C2
:101040000199024A885002B07047C0460818000053
:1010500081B0009000990D4A8858012318438850A8
:1010600001B0704781B000900099084A8858012368
:101070001843885001B0704781B000900099034A2E
:10108000885801231843885001B0704704180000A5
:1010900081B0009000991120020288580123184362
:1010A000885001B07047000082B001900091009B11
:1010B0000199034A88581843885002B07047C046C7
:1010C0002810000081B0009000990120C20202485F
:1010D000885001B07047C0460100002681B00090E2
:1010E0000098812149014058C0B201B0704700000A
:1010F000B0B51122120283580124A34383500B88F8
:101100008C781C438B882343094C1C408358094D21
:101110001D40631983508B79CC791C43097A214394
:101120007E231940801842689A4351184160B0BD2F
:1011300018670000E798FDFF81B000900098024911
:101140004058C0B201B070472411000081B0009037
:101150000099024A0248885001B070470408000014
:10116000030000B180B584B003900291019203980E
:101170000B49401802990B4AFFF757FC03980A499C
:10118000401801993F22FFF750FC0399074A88183D
:10119000895801221140FFF748FC04B080BDC046C9
:1011A00010110000FFFF00001411000004110000E6
:1011B00010B50122120383180C789C604978815085
:1011C00010BD80B582B001900091019811210902F3
:1011D000401800990322D203FFF727FC02B080BD1C
:1011E00080B584B0014603A80170007812280BD1A5
:1011F000FFE72A49012008700398294B1A78511CEF
:1012000019702849885446E024480078002806D1FF
:10121000FFE7264903200860254908603BE0039862
:101220001F4B1A78511C19701E49885403A8007866
:101230005B281AD1FFE7194900200290087018496D
:1012400008708C481749019164220092FEF74CFF08
:1012500000990198144B01221A70FEF75EFF029864
:101260001249086012490860FFE70D4800786428B9
:101270000FDBFFE70D49032008600D4908600749AF
:10128000002008700649087006486421FEF745FFF3
:10129000FFE7FFE7FFE704B080BDC0461100202054
:1012A0001000202024012020E8032020040020201A
:1012B0000C00202082B00190074800680090FFE7F2
:1012C000054800680099019A8918884201D2FFE711
:1012D000F6E702B07047C0460805202081B00090B4
:1012E00001B0704780B582B0B2482649FFF716FCBE
:1012F000019001A80078400700281BD5FFE70120D6
:101300004105AC48FFF76AFC002809D1FFE71E49F8
:1013100048680A680023521E98410A60486008E045
:10132000194948680A680023521C58410A604860FD
:10133000FFE720E001A88078800600281AD5FFE7A3
:101340009C480421FFF74AFC002809D1FFE70E4919
:1013500048680A680023521C58410A60486008E047
:10136000094948680A680023521E98410A6048608B
:10137000FFE7FFE7FFE78F480249FFF777FB02B07F
:1013800080BDC046040020005004202080B582B0FB
:1013900000900098002809D1FFE72248074901F092
:1013A00005FA01F0BFF90020019002E00248019027
:1013B000FFE7019802B080BD0048E8015F390000F6
:1013C00080B586B0049003910398002809D1FFE707
:1013D0001448154901F0EAF901F0A4F9002005903C
:1013E0001CE004980021FFF7BFF8002806D1FFE7B2
:1013F00004980121C90748400490FFE70498039925
:1014000001914969FEF7D1FE01998969FEF790FEC5
:10141000FFF700F9029002980590FFE7059806B0E3
:1014200080BDC04688012020163A000080B584B0F7
:1014300003900291019200200090FFE7009802992A
:10144000884215DAFFE70098039942180948811885
:10145000805C497800F024F80199009AD30FD218E3
:1014600001239A438852FFE70098801C0090E5E72B
:1014700004B080BD6004202080B582B00190019A44
:1014800002200821FFF7D2FF02B080BD80B582B0F4
:101490000190019A0A200821FFF7C8FF02B080BD21
:1014A00082B00A46014601A8017069460A700078B8
:1014B00000020978401802B07047000080B584B07F
:1014C0000120019081020091AD480290FFF7D0FB0E
:1014D00001990298C9020391FFF7CAFB009902988B
:1014E000FFF7F0FA0198FFF7F9FE02980399FFF76A
:1014F000E9FA04B080BDC04680B584B001200190F7
:10150000810203919E480290FFF7DCFA019902984C
:10151000C902FFF7ADFB02980399FFF7A9FB04B0DE
:1015200080BDC04680B582B00A46014601A8017060
:1015300069460A80007809881B4A00F083F802B0E7
:1015400080BDC04680B582B00E20019001F04EF8FB
:10155000019801F075F802B080BD000080B588B038
:101560000020049003900121069102910D480590FE
:101570000190C80400900C488A040C4B079319464C
:1015800000F01AF8049A05980699079B03920292B4
:1015900001904804009006480A04D94900F00CF86C
:1015A00008B080BD00A086402800202000200A400E
:1015B000F000202000000A4070B586B00C460546B9
:1015C0000D980C990B9E0A9E059504940392029324
:1015D00001AA1170694608800598002804D0FFE729
:1015E0000B98002801D1FFE729E0049805990860CD
:1015F0000398059948600298059988600A980599AA
:10160000C8600B98059908610198059908750098BC
:101610000599C88205998868C968FFF73FFA059956
:1016200008684968FFF73AFA05980069FFF71AFD5C
:10163000059A1069D18A127DFFF7CCFCFFE706B04E
:1016400070BD000080B584B003AB187002A80180A3
:1016500001920198002801D1FFE74AE003A8007831
:10166000009004283BD80098810001A0405887468C
:10167000851600009B160000B1160000C71600007A
:10168000DD160000019908684968FFF7D3FA01994F
:101690008868C968FFF702FA21E00199086849687B
:1016A000FFF7FCF901998868C968FFF7C3FA16E0EB
:1016B000019908684968FFF7BDFA01998868C96807
:1016C000FFF7B8FA0BE0019908684968FFF7E6F9F7
:1016D00001998868C968FFF7E1F900E0FFE702981F
:1016E0000199C882019A1069D18A127DFFF772FCB4
:1016F000FFE704B080BD000080B582B001A90020E2
:101700000870FFE701A8007807280FDCFFE701A8B1
:101710000178002000F0F6F80548802100F04FFA2B
:10172000FFE70198401C01A90870EBE702B080BDFB
:101730005800202080B584B003A9012000900870D3
:10174000810202916E480190FFF792FA0099019888
:10175000C902FFF78DFA01980299FFF74AFA0028AB
:1017600004D1FFE703A900200870FFE70120C102B0
:101770006348FFF7A7F903A8007804B080BDC0460E
:1017800000000A4080B584B06420FFF793FDAE20CE
:101790000021039100F094F90399084600F090F9B4
:1017A0000399102000F08CF903994020019000F07B
:1017B00087F90399812000F083F90399CF2000F085
:1017C0007FF90399A12000F07BF90399C82000F06C
:1017D00077F90399A620029000F072F90399A820E6
:1017E00000F06EF903993F2000F06AF90399D320C5
:1017F00000F066F90399084600F062F90399D520D4
:1018000000F05EF90399802000F05AF90399D9207D
:1018100000F056F90399F12000F052F90399DA200B
:1018200000F04EF90399122000F04AF90399DB20E9
:1018300000F046F90198039900F042F9039920203D
:1018400000F03EF90399022000F03AF903998D2047
:1018500000F036F90399142000F032F90399A4201E
:1018600000F02EF90298039900F02AF9FFF744FFDF
:101870000399AF2000F024F904B080BD80B586B094
:1018800005A9087004A900200870FFE704A80078E3
:10189000072833DCFFE70120C1021948FFF712F9DE
:1018A00005A800780006002806D5FFE70120810280
:1018B0001348FFF7DDF905E0012081021048FFF72A
:1018C00001F9FFE701200190FFF708FD0198C1022F
:1018D00003910B480290FFF7CBF90198FFF7FEFC4C
:1018E00002980399FFF7EEF80598400005A90870E3
:1018F000FFE70498401C04A90870C7E706B080BD44
:1019000000000A4080B584B000910246009803A907
:101910000A7002AA1070029AB03201A802700A7806
:1019200012091032427009780F2211408170032190
:1019300000F0FFF804B080BD10B58CB00BAC207087
:101940000AA8017009A8027008A8037007AA00215C
:1019500011700278520806AB1A7005AA118000783F
:10196000082804D1FFE704A90620088012E008A88F
:1019700001780191C80802904907401C0029039092
:1019800001D102980390019803994008484304A9A3
:101990000880FFE70998203807A908700BA800788D
:1019A0000AA90978FFF7AEFF05A900200880FFE724
:1019B00005A8008804A90988884242DAFFE705A83B
:1019C000008806A90978FEF74DFE00290ED1FFE731
:1019D00008A80078082809D0FFE70BA800780AAB10
:1019E00019784A1C1A70FFF78DFFFFE708A80078E6
:1019F00008280DD1FFE707A80078062141431348C6
:101A0000401805A90988405C012100F059F812E04E
:101A100008A8007810280CD1FFE707A8007801017A
:101A20000948401805A90988405C012100F048F8E0
:101A300000E006E0FFE7FFE70598401C05A90880E5
:101A4000B6E70CB010BDC0460E330000E630000013
:101A5000B0B586B005AC207004A80170039202A84E
:101A6000037001A900200870FFE7039801A9097815
:101A7000405C002822D0FFE705A8007804A9097877
:101A8000039A01AD2B785C1C2C70D25C02AB0093E6
:101A90001B78FFF751FF00980078082805D1FFE771
:101AA0000598801D05A9087007E002A80078410884
:101AB0000598401805A90870FFE7D6E706B0B0BD45
:101AC00080B582B001AA107068460170FFF7F6FC7D
:101AD0007820FFF7D3FEFFF72DFE002803D0FFE7A5
:101AE000FFF70AFD23E068460078002804D0FFE7EE
:101AF0004020FFF7C3FE03E00020FFF7BFFEFFE733
:101B0000FFF718FE002803D0FFE7FFF7F5FC0EE013
:101B100001A80078FFF7B2FEFFF70CFE002803D003
:101B2000FFE7FFF7E9FC02E0FFF7E6FCFFE702B0A2
:101B300080BD80B584B0039002A8017000780028B1
:101B400001D1FFE739E0FFF7B9FC7820FFF796FEF7
:101B5000FFF7F0FD002803D0FFE7FFF7CDFC2CE0F6
:101B60000020FFF78BFEFFF7E5FD002803D0FFE71D
:101B7000FFF7C2FC21E001A900200870FFE701A8DF
:101B8000007802A90978884214DAFFE7039801A9CE
:101B90000978405CFFF772FEFFF7CCFD002803D008
:101BA000FFE7FFF7A9FC08E0FFE70198401C01A947
:101BB0000870E4E7FFF7A0FCFFE704B080BD80B544
:101BC00084B0039002A801800088002801D1FFE7BB
:101BD00027E0FFF773FC7820FFF750FEFFF7AAFD20
:101BE0004020FFF74BFEFFF7A5FD01A9002008806C
:101BF000FFE701A8008802A9098888420EDAFFE7FA
:101C0000039801A90988405CFFF738FEFFF792FDB1
:101C1000FFE70198401C01A90880EAE7FFF76CFC88
:101C2000FFE704B080BD000080B582B00A460146DF
:101C300001A8017069460A8000780988024AFFF706
:101C400001FD02B080BDC046F000202010B586B076
:101C500004460898059404910392029301A9087020
:101C60000598002804D0FFE70298002807D1FFE775
:101C70009148174900F09AFD00F054FD26E00498C1
:101C8000059908600398059948600298059988604D
:101C90000198059908730599002000904862086230
:101CA000059AC143916205994863086305990868DC
:101CB0004968FEF7FDFE05988068FFF7DDF9009999
:101CC000059A9068127BFFF785F9FFE706B010BD13
:101CD000A639000010B584B0039002A801700192EB
:101CE00000930398002807D1FFE77348084900F0E4
:101CF0005DFD00F017FD09E0029803990874019852
:101D000003994861009803998861FFE704B010BD0A
:101D1000F039000080B588B0079006910798002838
:101D200005D0FFE707988068002807D1FFE76248E1
:101D30003B4900F03BFD00F0F5FC6CE00698FEF737
:101D40007DFC0591049006980021FEF71BFC0028FD
:101D500007D0FFE7079988680A7B0021FFF73AF967
:101D600059E006980021FEF7F1FB002812D1FFE7A9
:101D70000798007C012806D1FFE7079908684968A1
:101D8000FEF76CFF05E0079908684968FEF790FECA
:101D9000FFE716E00798007C012806D1FFE70799C6
:101DA00008684968FEF784FE05E0079908684968F5
:101DB000FEF754FFFFE706980121C9074840069047
:101DC000FFE7FFE707988068FFF7E0FA03900799BD
:101DD0000698FFF7F5FA0290042001900398029A02
:101DE00001995143FEF73EFC401E00906846408832
:101DF000002803D0FFE709480090FFE707988068B4
:101E00000099FFF719F9079A906800994908127B21
:101E1000FFF7E0F8FFE708B080BDC046FFFF000015
:101E20007A39000080B588B007900798002807D15C
:101E3000FFE72148214900F0B9FC00F073FC33E0D2
:101E40000798806A401C002805D1FFE71748006802
:101E50000799886228E0154800680690079905915F
:101E6000086A0190486A02900698896A401AFEF74B
:101E7000C3FB024601980B460299FEF787FA059AC2
:101E8000136B0393526B0492094A0A4BFEF77EFAD6
:101E9000039A049BFEF7C8F90A4605994A6308634A
:101EA000069807998862FFE708B080BD08052020E2
:101EB000FCA9F1D24D62503F88012020CE390000AC
:101EC00080B582B00B490C480190FFF771F9019879
:101ED0000A49FFF70DF901980021FFF772F90198FF
:101EE000D0211522FFF73EF90198FFF7D1F802B093
:101EF00080BDC046FE380000008010400039000060
:101F000080B58EB0262006210391FEF759FE0120F0
:101F100009904104069174480A90FEF7E9FD03997F
:101F20002720FEF74DFE09990A988904FEF7E0FD87
:101F3000032005210191FEF743FE09990A984907FC
:101F4000FEF7D6FD01990420FEF73AFE09990A989A
:101F50008907FEF7CDFD0B2002210291FEF730FE2E
:101F600002990C20FEF71EFE02993420FEF728FE8F
:101F700002993520FEF716FE099800230793009377
:101F80000204049231201946FEF7F6FD069A0799DD
:101F900009980091C30405933020FEF7CBFD1E2065
:101FA000FEF7E0FD1F20FEF7DDFD2020FEF7DAFD45
:101FB0000E20FEF7D7FD049A079B009325201946B3
:101FC000FEF7DAFD049A079B00932A201946FEF7D4
:101FD000D3FD049A079B00932B201946FEF7CCFDF6
:101FE000049A079B00932C201946FEF7C5FD039821
:101FF000059B079A00921146FEF79CFD059B079AE8
:1020000000922D201146FEF795FD049A059B079935
:1020100000911620FEF78EFD049A059B079900910A
:102020001720FEF787FD049A059B07990091182059
:10203000FEF780FD049A059B079900911920FEF791
:1020400079FD049A059B079900912120FEF772FD06
:10205000049A059B079900913820FEF76BFD049ABE
:10206000059B079900913220FEF764FD049A059BB9
:10207000079900912220FEF75DFD069A079B0093C9
:1020800014201946FEF778FD069A079B0093152049
:102090001946FEF771FD0A98432189020891FEF75F
:1020A000F3FC08990A98FEF723FD0A981021FEF721
:1020B000B3FD09990A988902FEF7E6FD0A980B49D3
:1020C0000B91FEF7C7FC0A980B99FEF705FDAF4888
:1020D0000C9007490D91FEF7D7FC0C980D99FEF76F
:1020E00007FD0EB080BDC04600000A40040020007D
:1020F00004C04F0080B582B01049D4480190FFF76A
:1021000057F801980E49FEF7F3FF0198002100915E
:10211000FFF757F8019811211722FFF723F80198CC
:1021200003218902FEF7C0FF00990E2000F09EFAFD
:102130000198FEF7ADFF02B080BDC0460A3900002D
:102140000C39000080B586B01F4991480590FEF714
:1021500049FF05981D49FEF715FE059800230293D7
:1021600019461A46FEF74CFF029B05980093194644
:102170001A46FEF723FF029A05981146FEF710FF54
:10218000029A05987D2189000391FEF723FF029BA7
:10219000059801210491009119461A46FEF70EFF99
:1021A0000299049A0598FEF7FBFE0399049A059894
:1021B000FEF710FF0598FEF7B7FD05980321FEF71F
:1021C000E5FE06B080BDC046163900001C3900008F
:1021D00080B584B01E49CE480390FEF703FF0398F4
:1021E0001C49FEF7CFFD03980023019319461A46B8
:1021F000FEF706FF019B0398009319461A46FEF767
:10220000DDFE019A03981146FEF7CAFE019A039873
:102210001146FEF7DFFE019B039801210291009118
:1022200019461A46FEF7CAFE0199029A0398FEF76C
:10223000B7FE0199029A0398FEF7CCFE0398FEF7C9
:1022400073FD03980321FEF7A1FE04B080BDC046D4
:10225000243900002839000080B582B000200190A8
:10226000FEF72EFD0198FEF743FDFEF719FDFEF780
:102270001DFD0198FEF74AFD0198FEF72DFD01991D
:10228000012000F0F3F902B080BD80B57D2000028E
:1022900000F082F880BD000080B582B00A49644831
:1022A0000190FEF79FFE01980849FEF7EFFD0198A7
:1022B0000121FEF743FD1220032100F0D7F9019818
:1022C000FEF732FD02B080BD303900003439000025
:1022D00080B500F021F8FFF713FEFFF7BDFFFFF711
:1022E00031FFFFF775FFFFF7D7FFFFF7E9FDFFF7B6
:1022F00001FFFFF7CAFF05499C22002088540449CA
:1023000088540449B822885480BDC046EC0120207E
:102310008C0220202C03202080B588B01A48019020
:10232000FEF772FC79480290FEF76EFC18480390A5
:10233000FEF720FE76480490FEF71CFE3C48059010
:10234000FEF718FE13480690FEF700FF3F4807907F
:10235000FEF7FCFE0198FEF7D7FB0298FEF7D4FBD0
:102360000398FEF7F9FC0498FEF7F6FC0598FEF7D3
:10237000F3FC0698FEF7A6FE0798FEF7A3FE1020D2
:10238000FEF74EFB08B080BD00000A4000200A4066
:1023900000A086400080104080B584B00290029872
:1023A000401E000E002803D0FFE70120039011E03B
:1023B0000298401E0949086000200190C043032193
:1023C00000F054F9019806490860064A0721116097
:1023D0000390FFE7039804B080BDC04614E000E01E
:1023E00018E000E010E000E009480168491C0160C5
:1023F000084A1168491C116000687D21C9008842A3
:1024000004D1FFE7024900200860FFE77047C0469B
:10241000200120200805202080B5D648FEF7A8FC22
:10242000012803D1FFE700F06FF9FFE780BDC04648
:102430000000864080B50548FEF750FE0B2803D10A
:10244000FFE7FEF7B3FA00E0FFE780BD0020104091
:1024500080B584B0039002910192009301980068C6
:1024600003281CD0FFE703980299FEF76DFA0028B5
:102470000ED0FFE700980068002804D1FFE701991B
:102480000220086003E0019901200860FFE705E0F1
:1024900001990020086000990860FFE7FFE704B099
:1024A00080BD000080B58AB0012007900104174864
:1024B0000490FEF7C9FB04980421FEF7C5FB0499BC
:1024C000079A0020039000903C4802909203104B22
:1024D0000593FFF7BBFB029803992122530609934A
:1024E0000C4A0892FFF7F6FB0499059B079A0092A5
:1024F00033480690D203FFF7A9FB06980799089A7C
:10250000099BFFF7E7FB0AB080BDC04600200A40E8
:10251000008086406666E63F80B588B007900691E9
:102520002749086B496B00221C4BFEF74FF8002827
:102530000AD1FFE72249086B496B0022184BFEF7CE
:102540002FF800280AD1FFE71D4800210591FFF769
:10255000E1FB05991948FFF7DDFB1DE017480390E3
:1025600017490491436B026B086B496B0191009012
:102570000C4802900C4900F019F9029A0021082336
:102580000846FFF765FA03980799FFF7C3FB04981D
:102590000699FFF7BFFBFFE708B080BD008046400B
:1025A000008046C0E90320204839000080B5034878
:1025B000FFF738FC0248FFF735FC80BD10052020EE
:1025C000C804202081B001466846017000214056B1
:1025D000002809D4FFE7684601781F200140012048
:1025E00088400C490860FFE701B0704781B00146A0
:1025F0006846017000214056002809D4FFE768466C
:1026000001781F2001400120884002490860FFE74F
:1026100001B0704780E200E081B001466846017079
:1026200000214056002809D4FFE7684601781F20A2
:102630000140012088400C490860FFE701B0704765
:1026400081B001466846017000214056002809D437
:10265000FFE7684601781F200140012088400249B9
:102660000860FFE701B0704700E100E070B582B09C
:10267000024601A80270009100214056002816D49D
:10268000FFE7002401A908570322D3431840174A43
:10269000805809578C07E50EFF24AC40A043009CEE
:1026A000A401E4B2AC402043194088501AE001A9CB
:1026B00008780F24204008380322D34318400A4AE0
:1026C0008058002549578D07EE0EFF25B540A843D9
:1026D000009DAD01EDB2B5402843214008391940B5
:1026E0008850FFE702B070BD1CED00E000E400E0A0
:1026F00080B582B001200190FFF764FF0198FFF7D9
:102700008BFF02B080BD00000549486808688860FA
:102710008868C00F08730020486008607047C04692
:102720005004202080B5FEF732F9FEF7E5FF044A99
:10273000002108230846FFF78BF9FFE7FEE7C046B4
:102740008801202080B582B000200190FFF7C0FDF5
:1027500062B6FFF7CDFF00F01DF80648FEF778FCE3
:10276000FEF7F0FEFFF70EF8FEF7F8FE00F004F8B3
:10277000FFE7FEE70000864080B5FFF793FE0021EB
:102780000846FFF7C9FEFFE7FFF710FF0A20FEF734
:1027900091FDF9E780B582B012200190FFF712FF9A
:1027A0000198FFF739FF02B080BD00000FB410B5EB
:1027B00004A9074B02AA039800F0F4F8044602A902
:1027C000002000F08BFC204610BC08BC04B0184769
:1027D000DD3000002021020C01D010211046020A39
:1027E00001D010460839020901D01046091F82089D
:1027F00001D01046891E420801D0881E7047081A71
:10280000704700000000000002E008C8121F08C165
:10281000002AFAD170470000704700000000000055
:10282000002001E001C1121F002AFBD17047000007
:10283000F0B51FB486B00998089A030D0021024331
:1028400014D05148514A18185043051411980128C2
:1028500010981AD0281A401C00264D4F4D4900965A
:1028600001910490002812DA444211E011980124E9
:1028700049A3012801D11098C1430698119A846098
:102880000360C26041600BB0F0BD4042E4E7044623
:10289000210500203F4A001C51410391029012E0A3
:1028A000E00707D032463B4601990098FDF76EFDE0
:1028B0000191009032463B4610461946FDF766FDF1
:1028C00006460F466410002CEAD10498039B0028AA
:1028D000029A0999089806DAFDF758FD019B009ABB
:1028E000FDF754FD05E0FDF7B9FD019B009AFDF7EA
:1028F000B5FD04460E460022284BFDF7F7FF03D82E
:102900000020C043014607E00022254B2046314607
:10291000FDF78AFCFDF7CAFF102409E0002C0ADB52
:102920000A220023FDF7BDFE079B30321A55641EB4
:1029300002460A43F2D11122641C079B121B1C1988
:10294000119B012B03D0012308430ED10AE0084359
:1029500004D0112010900020119077E71098151ADC
:102960006D1E0BE01098824202DD00236D1C03E017
:10297000824201DA00236D1E002BEED006981199D9
:102980008260C16030C07EE701FCFFFF104D000097
:10299000000014400000F03F300000000000F04351
:1029A0000000E03FFFB597B00646002518E2252855
:1029B00077D100242746FD49049400E00443761CA7
:1029C00032780120203A90400842F7D130782A2806
:1029D0000ED00222307801463039092916D80499E0
:1029E0000A235943303940181443761C0490F1E708
:1029F000189802C804911890002904DA01204003B5
:102A000004434842049002200443761C30782E2868
:102A100014D1042004437078761C2A2809D1189810
:102A2000761C80C8189009E00A214F43303FC7192F
:102A3000761C3078014630390929F5D930786C2870
:102A400010D006DC4C281AD068280ED06A2817D17E
:102A500004E0742813D07A2812D110E00120400538
:102A600004430CE00121090501E0032109050C43A1
:102A70007178814203D1012000052418761C761C50
:102A80003078119066280BD013DC58287DD009DCF3
:102A900000287BD04528F6D04628F4D047281AD104
:102AA000A5E118E0632835D0642870D0652812D1DC
:102AB0009DE170286CD008DC6728F1D069287BD0B4
:102AC0006E280DD06F2806D1BAE073282ED0752855
:102AD00071D0782859D01A9A199990476D1C7EE1C7
:102AE0006002400F022809D003280DD0042818984E
:102AF00001680DD00D60001D189070E11898EA175C
:102B000001680D604A60F6E7189801680D80F2E7E9
:102B10000D70F0E718986A4601781172001D189040
:102B20000020507202A80090012005E0189802C809
:102B3000189000200091C04361070DD5002101E0ED
:102B40000199491C0191B94212DA8142F8DB009ADD
:102B5000515C0029F4D10BE0002101E00199491CEE
:102B600001918142FADB019A0099895C0029F5D133
:102B7000019904981A9B471A21463846199A00F081
:102B800097FA0199401945180BE04FE02CE113E04A
:102B90004EE0009800990078491C00911A9A199902
:102BA00090470198401E0190401CF2D121463846C2
:102BB0001A9B199A10E137E00A2000210090019138
:102BC0006002410F022907D0189A01CA1892C21751
:102BD0009446032908D00AE01898C01DC108C9000E
:102BE00005C91891944607E000B2C217944604291B
:102BF00002D140B2C1178C4600226146944506DAE4
:102C00000A460021404291418C462D2102E02105D7
:102C100004D52B216A461173012103E0E10701D09D
:102C20002021F7E7029155E00A200AE0102008E091
:102C3000102000900021042004430191082703E0A4
:102C400008200021019100906002410F022907D065
:102C5000189A01CA189200229446032908D008E065
:102C60001898C01DC108C90005C91891944603E011
:102C700080B2042900D1C0B200210291210729D5D8
:102C80001199702906D0009A1021019B4A401A43DD
:102C900005D00EE040216A461173012108E061462B
:102CA000014306D030216A461173119951730221F4
:102CB0000291009A0821019B4A401A430AD16146B9
:102CC000014301D1610705D530216A461173012105
:102CD0007F1E02911199582904D035A10E910DA99A
:102CE0000D910DE037A1F9E76146019B009AFDF7D0
:102CF000D8FC0E9B8C469B5C0D9A521E0D92137055
:102D000061460143F0D10D9805A9081A20300190C1
:102D1000600703D501200004844300E001270198E7
:102D2000874201DD381A00E0002001990090411827
:102D3000029809180498401A0490E00306D421462A
:102D40001A9B199A049800F0B3F94519002706E078
:102D500003A81A9AC05D199990476D1C7F1C0298B0
:102D60008742F5DBE0030CD521461A9B199A04989B
:102D700000F09EF9451904E01A9A302019999047FD
:102D80006D1C0099481E00900029F5DC08E00D98A4
:102D90000D990078491C0D911A9A199990476D1C4C
:102DA0000199481E01900029F1DC63E10928010026
:102DB00030313233343536373839616263646566B1
:102DC0000000000030313233343536373839414273
:102DD000434445460000000000F05AF94519761CAE
:102DE0003078002800D0E2E528461BB0F0BD60072F
:102DF00000D406271898C01DC108C90048680A6891
:102E00000831C30FDB071891190001D09CA108E01D
:102E1000210501D59BA104E0E10701D09AA100E0C2
:102E20009AA1430011985B08109165280CD006DC2C
:102E3000452809D046281DD0472841D141E06628C1
:102E400018D067283CD13CE00021112F01DB112074
:102E500000E0781C0191009008A911A8FFF7E8FC98
:102E6000139905910021119A15927F1C12980197D0
:102E7000009150E00120C00703900120019008A9B3
:102E8000009711A8FFF7D4FC139A14990592002219
:102E9000119B009212981593059A0192002901D076
:102EA000104602E0791C40180190381A01D50198AB
:102EB00004E04042401E0090781C0190C01B02902C
:102EC00043E0012F00DA01270021112F01DD11203D
:102ED00000E038460191009008A911A8FFF7A8FC6E
:102EE00013990591119A002112981592009101975A
:102EF00021070CD40599B94201DB019900E0019149
:102F0000012904DD159A491E515C302906D0B842CA
:102F100001DA011D05DA0121029115E00199491E2E
:102F2000EDE7002805DC0099411800910199091A84
:102F300003E0019A411C914200DD01910099401A81
:102F4000401C02900120C0070390200706D402997C
:102F50000198814202DB0020C043029000206946B4
:102F6000C87707AF012103980337C907884224D0E7
:102F7000022011902B201290039800280CDA404276
:102F800003902D20129007E00A210398FDF76AFBB9
:102F900030317F1E039039701199481E119000291D
:102FA000F2DC03980028EFD1791E1298087030786F
:102FB000202108404530BF1E387006A8C01BC01D28
:102FC000039010980078002800D001200199411842
:102FD0000298C0170918039809180498401A401E4F
:102FE0000490E00306D421461A9B199A049800F035
:102FF0005FF8451910980078002803D01A9A19999B
:1030000090476D1CE00324D521461A9B199A049819
:1030100000F04EF845191CE00098002807DB0099E5
:103020000598884203DD1598405C199901E01999CB
:1030300030201A9A904700986D1C401C009002980E
:10304000401E0290002804D11A9A2E201999904708
:103050006D1C0199481E01900029DDDC05E03878DF
:103060001A9A7F1C199990476D1C0399481E03906A
:103070000029F4DC21461A9B199A0498ACE600005A
:103080002D0000002B0000002000000000000000C8
:10309000F8B5044600251E461746880404D405E00A
:1030A00039462020B0476D1C641EF9D52846F8BD6E
:1030B000FFB50446002581B01E46C80301D5302760
:1030C00000E02027880404D505E038460399B0477E
:1030D0006D1C641EF9D5284605B0F0BD0A68531C66
:1030E0000B60107070470000000000000000002F0F
:1030F000000000000700070000147F147F14002464
:103100002A7F2A1200626408132300364955225090
:1031100000000503000000001C22410000004122C5
:103120001C000014083E08140008083E08080000AF
:1031300000A06000000808080808000060600000A7
:10314000002010080402003E5149453E0000427F25
:103150004000004261514946002141454B31001871
:1031600014127F10002745454539003C4A49493033
:1031700000017109050300364949493600064949ED
:10318000291E0000363600000000563600000008F8
:1031900014224100001414141414000041221408D5
:1031A00000020151090600324959513E007C1211BA
:1031B000127C007F49494936003E41414122007F4F
:1031C0004141221C007F49494941007F0909090109
:1031D000003E4149497A007F0808087F0000417F8E
:1031E0004100002040413F01007F08142241007F40
:1031F00040404040007F020C027F007F0408107FA7
:10320000003E4141413E007F09090906003E41510F
:10321000215E007F091929460046494949310001CC
:10322000017F0101003F4040403F001F2040201F20
:10323000003F4038403F00631408146300070870E3
:10324000080700615149454300007F414100005596
:103250002A552A55000041417F0000040201020462
:10326000004040404040000001020400002054544F
:103270005478007F4844443800384444442000389F
:103280004444487F00385454541800087E09010211
:103290000018A4A4A47C007F080404780000447DE6
:1032A0004000004080847D00007F10284400000022
:1032B000417F4000007C04180478007C08040478F6
:1032C00000384444443800FC2424241800182424E2
:1032D00018FC007C080404080048545454200004DE
:1032E0003F444020003C4040207C001C2040201CEB
:1032F000003C4030403C004428102844001CA0A062
:10330000A07C004464544C4414141414141400009D
:1033100000000000000000000000000000000000AD
:1033200000F8000000000000003330000000001032
:103330000C06100C0600000000000000000040C059
:103340007840C0784000043F04043F04040000704B
:1033500088FC08300000001820FF211E0000F00843
:10336000F000E018000000211C031E211E0000F0E8
:103370000888700000001E21232419272110101630
:103380000E0000000000000000000000000000002F
:1033900000E01804020000000007182040000002AE
:1033A0000418E00000000040201807000000404022
:1033B00080F0804040000202010F01020200000084
:1033C00000F0000000000101011F010101000000E8
:1033D00000000000000080B070000000000000004D
:1033E00000000000000000010101010101010000D6
:1033F000000000000000003030000000000000006D
:10340000000080601804006018060100000000E061
:1034100010080810E000000F102020100F0000100E
:1034200010F8000000000020203F20200000007065
:10343000080808887000003028242221300000305D
:103440000888884830000018202020110E00000055
:10345000C02010F8000000070424243F240000F8D6
:103460000888880808000019212020110E0000E0BB
:10347000108888180000000F112020110E0000385D
:103480000808C83808000000003F00000000007075
:10349000880808887000001C222121221C0000E0FE
:1034A00010080810E0000000312222110F00000077
:1034B00000C0C0000000000000303000000000002C
:1034C000008000000000000080600000000000009C
:1034D0008040201008000001020408102000404035
:1034E0004040404040000404040404040400000878
:1034F000102040800000002010080402010000702D
:1035000048080808F0000000003036010000C03014
:10351000C828E810E0000718272423140B00000037
:10352000C038E0000000203C23020227382008F8C1
:10353000888888700000203F202020110E00C030B5
:10354000080808083800071820202010080008F88C
:1035500008080810E000203F202020100F0008F885
:103560008888E8081000203F20202320180008F851
:103570008888E8081000203F200003000000C030C9
:1035800008080838000007182020221E020008F84A
:1035900008000008F808203F210101213F20000811
:1035A00008F8080800000020203F2020000000004C
:1035B0000808F8080800C08080807F00000008F834
:1035C00088C028180800203F20012638200008F86D
:1035D000080000000000203F20202020300008F8D4
:1035E000F800F8F80800203F003F003F200008F8EE
:1035F00030C00008F808203F200007183F00E01006
:1036000008080810E0000F10202020100F0008F814
:1036100008080808F000203F210101010000E01027
:1036200008080810E0000F18242438504F0008F84C
:10363000888888887000203F2000030C30200070AC
:103640008808080838000038202121221C001808AA
:1036500008F8080818000000203F2000000008F8C3
:1036600008000008F808001F202020201F0008780C
:10367000880000C83808000007380E010000F8086C
:1036800000F80008F800033C0700073C0300081896
:1036900068808068180820302C03032C30200838FC
:1036A000C800C83808000000203F200000001008B3
:1036B0000808C838080020382621202018000000FB
:1036C00000FE020202000000007F40404000000CAB
:1036D00030C000000000000000010638C0000002F9
:1036E0000202FE000000004040407F000000000099
:1036F00004020202040000000000000000000000BC
:1037000000000000000080808080808080800002B7
:1037100002040000000000000000000000000000A3
:103720008080808000000019242222223F2008F897
:10373000008080000000003F112020110E000000DA
:10374000008080800000000E112020201100000069
:1037500000808088F800000E112020103F2000001B
:10376000808080800000001F22222222130000801F
:1037700080F0888888180020203F2020000000006A
:10378000808080808000006B94949493600008F89F
:10379000008080800000203F210000203F2000802A
:1037A0009898000000000020203F2020000000002A
:1037B00000809898000000C08080807F000008F89A
:1037C000000080808000203F24022D30200000086F
:1037D00008F8000000000020203F2020000080802A
:1037E000808080808000203F20003F20003F80803C
:1037F000008080800000203F210000203F2000004A
:10380000808080800000001F202020201F008080FA
:1038100000808000000080FFA12020110E00000029
:10382000008080808000000E112020A0FF8080801A
:1038300080008080800020203F21200001000000C7
:10384000808080808000003324242424190000809C
:1038500080E0808000000000001F202000008080A9
:10386000000000808000001F202020103F2080806A
:1038700080000080808000010E30080601008080FA
:103880000080008080800F300C030C300F0000801F
:103890008000808080000020312E0E31200080804A
:1038A00080000080808080818E701806010000807A
:1038B0008080808080000021302C22213000000098
:1038C0000000807C020200000000003F4040000039
:1038D0000000FF00000000000000FF0000000002E8
:1038E000027C800000000040403F00000000000615
:1038F00001010202040400000000000000000800B2
:10390000000018000000003000000800000018004F
:10391000000000300000080700000000E80300007D
:103920002000010008000300E8030000200001005F
:1039300008076300020000009F0F00000100000064
:1039400000000000000000005961773A20252E3267
:10395000662C2050697463683A20252E3266004731
:103960006574436C6F636B4672653A2074696D656C
:1039700072206973204E554C4C00534D6F746F721A
:103980005F53657453706565643A206D6F746F7230
:10399000206F722070776D5F74696D657220697336
:1039A000204E554C4C00534D6F746F725F496E69D9
:1039B000743A206D6F746F72206F722070776D5F34
:1039C00074696D6572206973204E554C4C00534DDF
:1039D0006F746F725F557064617465537461746560
:1039E0003A206D6F746F72206973204E554C4C00F5
:1039F000534D6F746F725F506172616D6574657263
:103A0000735F496E69743A206D6F746F72206973C9
:103A1000204E554C4C004765745374657046726572
:103A20007175656E63793A206D6F746F722069737A
:103A3000204E554C4C000000583A00000000202059
:103A40001000000008280000683A00001000202044
:103A5000401500002028000001000000FFFFFFFFCC
:083A600001000000FFFFFFFF61
:04000005000000C136
:00000001FF
