:020000040000FA
:1000000068052020D5000000D9000000DB000000BA
:1000100000000000000000000000000000000000E0
:10002000000000000000000000000000DD000000F3
:100030000000000000000000DF00000005150000C7
:10004000E3000000E3000000E3000000E300000024
:10005000E3000000E3000000E3000000E300000014
:1000600000000000E3000000E300000000000000CA
:1000700000000000E3000000E3000000E3000000D7
:10008000E3000000E3000000E3000000E3000000E4
:10009000E3000000E300000000000000000000009A
:1000A000E3000000E300000000000000000000008A
:1000B000E300000000000000E3000000E300000097
:1000C0000348854600F010F800480047F11500008D
:1000D0006805202003480047FEE7FEE7FEE7FEE74D
:1000E000FEE7FEE7C10000001CB509480090094882
:1000F000019005460126009C05E0E36807CC3343E8
:100100000C3C98471034AC42F7D3FFF7DDFF0000FA
:10011000D41E0000F41E0000811E091F00BFFCD287
:10012000704784B003900291019203980068009098
:10013000009801998843009000980299019A114013
:1001400008430399086004B0704784B0039002919B
:1001500001920398006800900098019988430090EC
:1001600000980299019A114008430399086004B06D
:10017000704782B001900091009801999522520138
:10018000885002B0704782B00190009100980199A8
:1001900095225201885002B07047000081B0009053
:1001A00000988100384A885801235B06184388501C
:1001B00001B0704782B00190009100980199024A05
:1001C000885002B07047C046D012000081B0009045
:1001D00000990120C2024748885001B07047C046CC
:1001E00081B0009000988100274A8120885001B09A
:1001F0007047C04610B584B0069C039002910192EE
:10020000009302980199084300990843069908430E
:1002100081210843039989001B4A885004B010BD0E
:1002200082B001900091009810490843019989001B
:10023000154A885002B0704710B584B0079C069CE0
:10024000039002910192009302980199084300994A
:10025000084306990843079908430449084303994A
:100260008900094A885004B010BDC04680000400CF
:1002700082B0019000910098802108430199890083
:10028000014A885002B070470480424081B000901B
:100290000099364A3648885001B0704781B00090C6
:1002A000009909204202885801231B0218438850F4
:1002B00001B0704781B000900099084A8858012326
:1002C0001843885001B0704781B000900099034AEC
:1002D000885804231843885001B070472812000042
:1002E00081B0009000990120C202C148885001B03D
:1002F0007047C0460100002610B5002A0FD0912398
:100300005B01C3180020DC692405240F05D00C5CB8
:100310001C60401C8242F6D1104680B210BD002005
:1003200080B210BD3C4A835880210B438350801813
:100330000F221202436813400122D2029342F7D1E6
:1003400002688A430260704781B0009000980249B9
:10035000405801B07047C0461812000081B00090AC
:100360000099024A0248885001B070470408000012
:10037000030000B181B000900099494A00208850E4
:1003800001B0704780B584B0019101460198039196
:1003900002A90880039809225202801809880322C2
:1003A0005202FFF7BEFE04B080BD70B50A780C2380
:1003B0001A400124240305196E689E43B2186A602E
:1003C000497807221140035993435918015170BDD0
:1003D00080B584B0019101460198039102A908807B
:1003E00003980D4A8018098807221202FFF799FE28
:1003F00004B080BD80B584B001910146019803919D
:1004000002A908700398044A801809780722FFF7A8
:1004100088FE04B080BDC0463812000080B584B0AC
:10042000019101460198039102A9087003980922DD
:100430005202801809780722FFF773FE04B080BDCE
:1004400082B001906846017000780199014A885095
:1004500002B070472412000010B586B00192024627
:1004600001980592049103AA107002A803800598D0
:10047000094940180499490012781143074AFFF7C7
:1004800064FE05980649401802990904C91D054AE9
:10049000FFF75BFE06B010BD10120000FF07000062
:1004A000141200000700FF0F06490868012290435C
:1004B00008607047034908680122120290430860EF
:1004C0007047C04608010B4081B001466846017084
:1004D00000780249086001B07047C04608030B402D
:1004E00080B582B0014601A8017001780F480F2243
:1004F000FFF717FE02B080BD80B582B0014601A8AB
:100500000170017802480322FFF70BFE02B080BDA4
:1005100000010B4080B582B0014601A8017001784E
:1005200002483022FFF7FDFD02B080BD04010B4000
:1005300082B00190009100980199024A885002B05F
:100540007047C0464810000010B585B000930B46B8
:100550000099049003A80380029201AB19700499DA
:100560001A7892008A18B24C084911510299049ADB
:100570001B789B00D2183123DB01D150008804493D
:1005800008430499DA4A885005B010BD0100020002
:100590001200001081B000900099024A012088509A
:1005A00001B070470811000082B001900091009BDB
:1005B0000199094A88581843885002B07047C046CC
:1005C00082B001900091009B0199034A885818431A
:1005D000885002B07047C0462810000081B00090DB
:1005E00000990120C202CE48885001B07047C04631
:1005F0000100002681B0009000980321C9024058F4
:1006000001B07047F0B5BA4A82183B4BC31808795D
:100610004E793A4D764C002E23D0202804D0052662
:10062000F601002803D003E0354E002800D18826CB
:10063000576F2F4037435767976F2F403743976760
:10064000566B26405663966B264096630026566589
:1006500096658F26F6435F6837405F609F68374036
:100660009F608E79096820280BD0002819D1491E77
:100670005160D76E2F4088210F43D76617467037D9
:1006800019E0491E5160D16E29401D4F3943D16692
:10069000116F29403943116701214907194D174648
:1006A00009E049085160D76E2F400521C9010F4369
:1006B000D766174670373C682C400C433C60D16AC3
:1006C0004B4C2140D162116B214011630021D16458
:1006D00011658F21C943D46F0C40D4671C680C404E
:1006E0001C600643BD2030401168074B0B40C0180A
:1006F000801C1060F0BDC0468418000024493E00F4
:1007000001040000FFFFFFCF4000FFCFB0B54A68F3
:100710006C4BC250764A80180A78222A58D8930027
:1007200001A4E3589F46C046C7070000D107000058
:10073000C7070000D1070000D1070000D107000063
:10074000D1070000D1070000D1070000D107000049
:10075000D1070000D1070000D1070000D107000039
:10076000D1070000D1070000B5070000D107000045
:10077000B5070000D1070000D1070000D107000035
:10078000D1070000D1070000D1070000D107000009
:10079000D1070000D1070000D1070000D1070000F9
:1007A000D1070000D1070000B5070000D107000005
:1007B000B507000003231B0704689C4301235B0764
:1007C000E318036004E003231B0704689C430460F0
:1007D0000B69C360CB68054C1C40C36A044D1D40C7
:1007E0002B19C362097A11430160B0BD777702000B
:1007F0008888FDFF81B000900099604A6048885069
:1008000001B0704782B001900091009801991122C7
:100810001202885002B0704710B507239B0419409C
:1008200092008018024A84589C436118815010BD80
:100830003018000010B5029CA400001911431943A0
:10084000014A815010BDC046501800009200801827
:10085000014A81507047C0461018000010B50122AF
:10086000120383180C789C604B7883508978014A76
:10087000815010BD0C11000010B586B001930B46DD
:1008800001460198059104A90B8003AB1A8002AAC6
:1008900010800598164C001909881B881943128886
:1008A0001143024AFFF73DFC06B010BD80FF000077
:1008B00082B00190009100980199024A885002B0DC
:1008C0007047C0460818000081B000900099084A9F
:1008D000885801231843885001B0704781B00090B8
:1008E0000099034A885801231843885001B0704783
:1008F0000418000081B0009000991120020288586D
:1009000001231843885001B07047000081B0009067
:1009100000990120C2020248885001B07047C046C9
:1009200001000026B0B51122120283580124A3430E
:1009300083500B888C781C438B882343094C1C40C4
:100940008358094D1D40631983508B79CC791C4322
:10095000097A21437E231940801842689A4351182E
:100960004160B0BD18670000E798FDFF81B00090BE
:100970000099024A0248885001B0704704080000FC
:10098000030000B180B584B00390029101920398F6
:100990000B49401802990B4AFFF7C3FB03980A4919
:1009A000401801993F22FFF7BCFB0399074A8818BA
:1009B000895801221140FFF7B4FB04B080BDC04646
:1009C00010110000FFFF00001411000004110000CE
:1009D00010B50122120383180C789C60497881506D
:1009E00010BD80B582B001900091019811210902DB
:1009F000401800990322D203FFF793FB02B080BD99
:100A000080B582B00190FFE70198411E0191002856
:100A100005D0FFE77D20C00000F004F8F4E702B045
:100A200080BD000082B001900198400100900098C4
:100A3000401E0A4908600A4900200860094905204B
:100A40000860FFE707480068C003002801D4FFE7FB
:100A5000F8E704490020086002B0704714E000E0A5
:100A600018E000E010E000E080B588B00790069143
:100A700005920493254800680A2801DBFFE742E05D
:100A80000798224A039211684B0121490291CB1821
:100A900098600698126852018918C8600798FFF795
:100AA0001DFF069801210191FFF742FD019906986B
:100AB000FFF786FD0698FFF711FF0299039A106869
:100AC00040010B1864201861106843010020C850D1
:100AD00012685201891848600798FFF78BFD039947
:100AE000024602980B685B01C3189A8309684901A2
:100AF000401814300599049A00F00CF8039908681E
:100B0000401C0860FFE708B080BDC046600420209C
:100B10008400202083B00290019100920298002866
:100B200001D1FFE706E00198029908600098029958
:100B30004860FFE703B0704710B58CB000F036FC9A
:100B400041200B9002901E480590019000240094D3
:100B50001C4804901C4B0693224600F043F804986E
:100B60000394012108910291184A07920192CA0444
:100B700000928A04164B0A93194600F053F8059820
:100B8000069B0B990291019000941248099022460D
:100B900000F028F8079A089909980A9B0394029490
:100BA00001924A0400920A040B4900F03BF80B9AA8
:100BB0005B20830009480A49FFF756FF0CB010BDBF
:100BC00000C072402000202000003C4000A0864071
:100BD00000200A405000202000000A400000094088
:100BE00000008640B0B586B004460B990A980C9D6B
:100BF000059403930292019100900598002801D179
:100C0000FFE70DE00298039A0599CA618861009890
:100C1000019A05994A6208620C9805998862FFE773
:100C200006B0B0BD70B586B00C4605460D980C995F
:100C30000B9E0A9E059504940392029301AA1170DB
:100C4000694608800598002804D0FFE70B98002823
:100C500001D1FFE729E004980599086003980599F8
:100C600048600298059988600A980599C8600B98B1
:100C70000599086101980599087500980599C88239
:100C800005998868C968FFF77EFA05990868496878
:100C9000FFF779FA05980069FFF716FE059A1069C3
:100CA000D18A127DFFF7D2FDFFE706B070BD80B597
:100CB00084B003A900200870FFE703A80078072884
:100CC00024DCFFE70398B030C0B200F009F900203F
:100CD000019000F005F9102000F002F9019802A936
:100CE0000870FFE702A800787F2809DCFFE70020F2
:100CF00000F01AF9FFE70298401C02A90870F1E71A
:100D0000FFE70398401C03A90870D6E704B080BD34
:100D100080B50348FFF700FA00F00CFC80BDC04628
:100D200000A8610080B584B003AA0192107002A8E7
:100D300001700298B030C0B200F0D2F8019800788B
:100D40000009103000F0CCF8019800780F2108401D
:100D500000F0C6F804B080BD10B586B0044605A802
:100D6000047004AC217003A90A7002A90B7001AAD7
:100D7000002111706B4619700399203911700078A9
:100D8000802808DBFFE705A9002008700498801C74
:100D900004A90870FFE702A80078102841D1FFE7F6
:100DA00005A8007804A90978FFF7BCFF6946002070
:100DB0000870FFE768460078072810DCFFE701A805
:100DC000007800016946097841182848405C00F025
:100DD000ABF8FFE70098401C69460870EAE705A8F1
:100DE00000780499491CC9B2FFF79CFF69460020AE
:100DF0000870FFE768460078072811DCFFE701A8C4
:100E00000078000169460978401818494018007AAE
:100E100000F08AF8FFE70098401C69460870E9E78F
:100E200020E005A8007804A90978FFF77BFF694650
:100E300000200870FFE768460078052811DCFFE70E
:100E400001A80078062141430748401869460978FF
:100E5000405C00F069F8FFE70098401C69460870A4
:100E6000E9E7FFE706B010BD5E1600008618000037
:100E700010B586B005AC207004A80170039202A8DA
:100E8000037001A900200870FFE7039801A9097801
:100E9000405C002822D0FFE705A80090007804A954
:100EA0000978039A01AB1B78D25C02AB1B78FFF781
:100EB00053FF00980599083101700078792808DB04
:100EC000FFE705A9002008700498801C04A9087099
:100ED000FFE70198401C01A90870D6E706B010BDD5
:100EE00080B586B005A9087004A9029100220A7095
:100EF00005984870AB480190782102230393FFF7CF
:100F0000ABFA0198FFF70EFA01980299039AFFF7DE
:100F1000F3F9FFE7A348FFF717FA4006002801D5C9
:100F2000FFE7F7E706B080BD80B586B005A9087079
:100F300004A90291402008700598487099480190D2
:100F40007821002202230393FFF786FA0198FFF726
:100F5000E9F901980299039AFFF7CEF9FFE7914862
:100F6000FFF7F2F94006002801D5FFE7F7E706B0E2
:100F700080BDC04680B582B00B490C480190FFF798
:100F800027FD01980A49FFF7CDFC01980021FFF7E2
:100F900028FD0198D0211522FFF7F4FC0198FFF7F6
:100FA000A9FC02B080BDC046761E00000080104043
:100FB000781E000080B592B0262006210591FFF72B
:100FC00057F901200B9041045C480E90FFF7F2F8AE
:100FD00005992720FFF74CF90B990E988904FFF724
:100FE000E9F80320049005210391FFF741F90B99DB
:100FF0000E984907FFF7DEF803990420FFF738F948
:101000000B990E988907FFF7D5F804992D20FFF763
:1010100007F9059802210A91FFF702F90B980023BE
:101020000D930193C00406900090142008900821AD
:1010300007911A46FFF700F9069807990D9B01934F
:101040000090152009901A46FFF7F6F80898FFF768
:10105000A5F80998FFF7A2F80A990B20FFF708F9FD
:101060000A990C20FFF7DCF80A993420FFF700F901
:101070000A993520FFF7D4F80B980D9B00930204D2
:101080000C9231201946FFF7B5F83020FFF7A8F889
:101090001E20FFF7A5F81F20FFF7A2F82020FFF77A
:1010A0009FF80E20FFF79CF80C9A0D9B00932520CB
:1010B0001946FFF79FF80C9A0D9B00932A201946BA
:1010C000FFF798F80C9A0D9B00932B201946FFF719
:1010D00091F80C9A0D9B00932C201946FFF78AF883
:1010E0001620FFF77DF81720FFF77AF81820FFF792
:1010F00077F81920FFF774F82120FFF771F8222004
:10110000FFF76EF83220FFF76BF83820FFF768F82A
:101110000E98132109030F91FFF72BF80E980F99E2
:10112000FFF748F8DB48109005491191FFF721F8C7
:1011300010981199FFF73EF812B080BD00000A40E8
:10114000C4C3EF0480B584B01549D7480390FFF7B6
:101150002CF90398032101914902FFF713F9039831
:10116000FFF79CF803980121FFF758F90398FFF760
:1011700001F901990398FFF763F903980721029198
:10118000FFF738F9029903980902FFF721F903984C
:10119000FFF79AF80398FFF78DF804B080BDC046BA
:1011A000821E000000200F4080B582B00B49C0486D
:1011B0000190FFF70DFC01980949FFF7B3FB019877
:1011C0000021FFF70EFC0198D0211522FFF7DAFB72
:1011D0000198FFF78FFB02B080BDC046841E00005F
:1011E000861E000080B586B01F49AB480590FFF70A
:1011F00035FB05981D49FFF705FA05980023029372
:1012000019461A46FFF738FB029B059800931946CA
:101210001A46FFF70FFB029A05981146FFF7FCFAF2
:10122000029A05987D2189000391FFF70FFB029B2D
:10123000059801210491009119461A46FFF7FAFA20
:101240000299049A0598FFF7E7FA0399049A05981A
:10125000FFF7FCFA0598FFF79DF905980321FFF7C2
:10126000D1FA06B080BDC046901E0000941E00005A
:1012700080B584B00E498A480390FFF7EFFA0398CF
:10128000492149020191002302931A46FFF75CF9B4
:101290000199029A03980123FFF756F9039805492B
:1012A000FFF706FB0398FFF775F904B080BDC04651
:1012B0009C1E0000FFFF000080B586B01F497748E4
:1012C0000590FFF7CBFA05981D49FFF79BF90598A4
:1012D0000023029319461A46FFF7CEFA029B05989F
:1012E000009319461A46FFF7A5FA029A0598114687
:1012F000FFF792FA029A05987D21C9000391FFF742
:10130000A5FA029B059801210491009119461A46FD
:10131000FFF790FA0299049A0598FFF77DFA03996E
:10132000049A0598FFF792FA0598FFF733F90598A4
:101330000321FFF767FA06B080BDC0469F1E00007C
:10134000A41E000080B582B000200190FFF7BCF819
:101350000198FFF7D1F8FFF7A7F8FFF7ABF801986E
:10136000FFF7D8F80198FFF7BBF802B080BD80B551
:101370007D20000200F09EF880BD000080B582B0A4
:10138000084948480190FFF769FA01980649FFF7B4
:10139000BDF901980121FFF707F90198FFF7FAF865
:1013A00002B080BDAC1E0000B01E000080B500F091
:1013B00029F8FFF7FFFDFFF7C5FFFFF713FFFFF762
:1013C0007BFFFFF755FFFFF7D9FFFFF7BBFEFFF7E6
:1013D000D1FDFFF7E9FEFFF7CAFF06499C22002076
:1013E000885405498854054988540549B8228854C9
:1013F00080BDC046C40120200403202064022020B8
:10140000A403202080B58AB021480190FEF73EFF5A
:1014100020480290FEF73AFF1F480390FFF7EAF9D1
:101420001E480490FFF7E6F91D480590FFF7E2F922
:101430001C480690FFF7DEF91B480790FEF78EFF69
:101440001A480890FFF792FA19480990FFF78EFAA8
:101450000198FEF7BBFE0298FEF7B8FE0398FFF76F
:10146000BDF80498FFF7BAF80598FFF7B7F80698A3
:10147000FFF7B4F80798FEF733FF0898FFF746FA2E
:101480000998FFF743FA1020FEF746FE0AB080BD28
:1014900000000A4000200A4000A0864000808640EC
:1014A000000009400000864000200F4000801040EE
:1014B0000020104080B584B002900298401E000EBB
:1014C000002803D0FFE70120039011E00298401E9E
:1014D0000949086000200190C043032100F046F84C
:1014E000019806490860064A072111600390FFE74A
:1014F000039804B080BDC04614E000E018E000E0AE
:1015000010E000E009480168491C0160084A1168C0
:10151000491C116000687D21C900884204D1FFE7A1
:10152000024900200860FFE77047C0468000202085
:101530006404202080B582B001A9002008700870E2
:10154000FFE701A800781A280CDCFFE701A8017862
:101550000548405CFFF7C4FCFFE70198401C01A967
:101560000870EEE702B080BD0000202070B582B0A8
:10157000024601A80270009100214056002816D4AE
:10158000FFE7002401A908570322D3431840174A54
:10159000805809578C07E50EFF24AC40A043009CFF
:1015A000A401E4B2AC402043194088501AE001A9DC
:1015B00008780F24204008380322D34318400A4AF1
:1015C0008058002549578D07EE0EFF25B540A843EA
:1015D000009DAD01EDB2B5402843214008391940C6
:1015E0008850FFE702B070BD1CED00E000E400E0B1
:1015F00080B582B0002000900190FFF7D7FEFFF782
:1016000087FBFFF754FB0099094A08231846FFF7A8
:101610002FFCFFF791FAFFE77D20C000FFF7F0F9FC
:10162000034A002108231846FFF722FCF4E7C046CE
:10163000C41E00000000000002E008C8121F08C11C
:10164000002AFAD170470000704700000000000037
:10165000002001E001C1121F002AFBD170470000E9
:10166000000000000000002F00000000070007003D
:1016700000147F147F1400242A7F2A120062640859
:1016800013230036495522500000050300000000D6
:101690001C224100000041221C000014083E0814D6
:1016A0000008083E0808000000A0600000080808C4
:1016B0000808000060600000002010080402003EDE
:1016C0005149453E0000427F400000426151494679
:1016D000002141454B31001814127F100027454569
:1016E0004539003C4A49493000017109050300367B
:1016F0004949493600064949291E0000363600008E
:101700000000563600000008142241000014141492
:10171000141400004122140800020151090600328D
:101720004959513E007C1211127C007F49494936CB
:10173000003E41414122007F4141221C007F494936
:101740004941007F09090901003E4149497A007F6A
:101750000808087F0000417F4100002040413F0110
:10176000007F08142241007F40404040007F020C6F
:10177000027F007F0408107F003E4141413E007F10
:1017800009090906003E4151215E007F09192946D9
:101790000046494949310001017F0101003F4040B5
:1017A000403F001F2040201F003F4038403F006363
:1017B0001408146300070870080700615149454385
:1017C00000007F41410000552A552A550000414143
:1017D0007F0000040201020400404040404000003D
:1017E00001020400002054545478007F48444438D7
:1017F00000384444442000384444487F003854545E
:10180000541800087E0901020018A4A4A47C007FDB
:10181000080404780000447D4000004080847D007E
:10182000007F102844000000417F4000007C041825
:101830000478007C0804047800384444443800FCF0
:10184000242424180018242418FC007C080404080C
:1018500000485454542000043F444020003C404081
:10186000207C001C2040201C003C4030403C0044B8
:1018700028102844001CA0A0A07C004464544C44C0
:1018800014141414141400000000000000000000E0
:10189000000000000000000000F800000000000050
:1018A00000333000000000100C06100C0600000091
:1018B00000000000000040C07840C0784000043FB5
:1018C00004043F040400007088FC08300000001885
:1018D00020FF211E0000F008F000E01800000021A9
:1018E0001C031E211E0000F00888700000001E214D
:1018F00023241927211010160E00000000000000FC
:10190000000000000000000000E0180402000000D9
:1019100000071820400000020418E000000000400A
:10192000201807000000404080F080404000020284
:10193000010F01020200000000F0000000000101A0
:10194000011F01010100000000000000000080B044
:101950007000000000000000000000000000000116
:101960000101010101010000000000000000003041
:1019700030000000000000000000806018040060DB
:1019800018060100000000E010080810E000000F39
:10199000102020100F00001010F8000000000020A0
:1019A000203F2020000000700808088870000030E8
:1019B0002824222130000030088888483000001890
:1019C000202020110E000000C02010F800000007A9
:1019D0000424243F240000F808888808080000191F
:1019E000212020110E0000E0108888180000000F50
:1019F000112020110E0000380808C8380800000027
:101A0000003F000000000070880808887000001C7B
:101A1000222121221C0000E010080810E000000034
:101A2000312222110F00000000C0C00000000000A1
:101A300000303000000000000080000000000000C6
:101A400080600000000000008040201008000001BD
:101A50000204081020004040404040404000040480
:101A6000040404040400000810204080000000204A
:101A7000100804020100007048080808F000000087
:101A8000003036010000C030C828E810E000071818
:101A9000272423140B000000C038E0000000203C85
:101AA00023020227382008F8888888700000203F29
:101AB000202020110E00C030080808083800071840
:101AC00020202010080008F808080810E000203F37
:101AD000202020100F0008F88888E8081000203F18
:101AE00020202320180008F88888E8081000203FEC
:101AF000200003000000C030080808380000071864
:101B00002020221E020008F808000008F808203FE4
:101B1000210101213F20000808F8080800000020EA
:101B2000203F2020000000000808F8080800C080BE
:101B300080807F00000008F888C028180800203F37
:101B400020012638200008F8080000000000203F8F
:101B500020202020300008F8F800F8F80800203F86
:101B6000003F003F200008F830C00008F808203F80
:101B7000200007183F00E01008080810E0000F10D0
:101B8000202020100F0008F808080808F000203F67
:101B9000210101010000E01008080810E0000F1802
:101BA000242438504F0008F8888888887000203F27
:101BB0002000030C30200070880808083800003826
:101BC000202121221C00180808F80808180000002D
:101BD000203F2000000008F808000008F808001F57
:101BE000202020201F000878880000C83808000046
:101BF00007380E010000F80800F80008F800033C60
:101C00000700073C03000818688080681808203027
:101C10002C03032C30200838C800C8380800000006
:101C2000203F2000000010080808C83808002038AD
:101C3000262120201800000000FE02020200000001
:101C4000007F40404000000C30C000000000000059
:101C500000010638C00000020202FE000000004041
:101C600040407F0000000000040202020400000067
:101C70000000000000000000000000000000808064
:101C8000808080808080000202040000000000004C
:101C9000000000000000000080808080000000192B
:101CA000242222223F2008F8008080000000003F0C
:101CB000112020110E000000008080800000000E26
:101CC000112020201100000000808088F800000E04
:101CD000112020103F200000808080800000001F25
:101CE000222222221300008080F088888818002099
:101CF000203F202000000000808080808000006B5A
:101D000094949493600008F8008080800000203F45
:101D1000210000203F200080989800000000002053
:101D2000203F20200000000000809898000000C0A4
:101D30008080807F000008F8000080808000203FC5
:101D400024022D302000000808F8000000000020C8
:101D5000203F202000008080808080808000203F05
:101D600020003F20003F8080008080800000203FD6
:101D7000210000203F200000808080800000001FA4
:101D8000202020201F00808000808000000080FF35
:101D9000A12020110E000000008080808000000E35
:101DA000112020A0FF808080800080808000202083
:101DB0003F212000010000008080808080000033EF
:101DC000242424241900008080E08080000000008A
:101DD000001F202000008080000000808000001F85
:101DE000202020103F208080800000808080000123
:101DF0000E300806010080800080008080800F3057
:101E00000C030C300F0000808000808080000020D8
:101E1000312E0E3120008080800000808080808103
:101E20008E70180601000080808080808000002174
:101E3000302C2221300000000000807C02020000D3
:101E40000000003F404000000000FF0000000000D4
:101E50000000FF0000000002027C80000000004043
:101E6000403F0000000000060101020204040000DF
:101E70000000000000000800000018000000003012
:101E800000000800080000001800000000300000FA
:101E900008070000E8030000200001000800000817
:101EA00000030000E80300000000000008076300D2
:101EB000020000008F01000001000000000000008F
:101EC0000000000048656C6C6F204E55454443216E
:101ED00000000000F81E000000002020200000008C
:101EE00038160000181F00002000202048050000C0
:101EF0005016000000000000AE001040B081FFA1AD
:101F0000A6A83FC8D300D580D805D9F1DA12D830B9
:081F10008D14AF000000000079
:04000005000000C136
:00000001FF
