:020000040000FA
:10000000605520206D0100007101000073010000A7
:1000100000000000000000000000000000000000E0
:10002000000000000000000000000000750100005A
:10003000000000000000000077010000851C0000A7
:100040007B0100007B0100007B0100007B010000C0
:100050007B0100007B0100007B0100007B010000B0
:10006000000000007B0100007B0100000000000098
:10007000000000007B0100007B0100007B0100000C
:100080007B0100007B0100007B0100007B01000080
:100090007B0100007B010000000000000000000068
:1000A0007B0100007B010000000000000000000058
:1000B0007B010000000000007B0100007B010000CC
:1000C00000F002F800F042F812A030C808382418F6
:1000D0002D18AC4201D100F039F80FCCA246AB4646
:1000E0000CA730CF2D1B083F3F197C427F1E544484
:1000F0002D090426F441641EAC4201D300F026F819
:100100000126334200D0FB1A3343984754465D46DC
:10011000DFE70000D4210000E4210000000000001F
:100120007047000000000000002300240025002686
:10013000103A01D378C1FBD8520700D330C100D5A3
:100140000B6070471FB51FBD10B510BD00F067F9FB
:100150001146FFF7F7FF01F0D9FE00F07FF903B475
:10016000FFF7F2FF03BC00F0A1F9000006480047CA
:10017000FEE7FEE7FEE7FEE7FEE7FEE70348044989
:10018000044A054B70470000C100000060052020B4
:100190006055202060152020601520207047704792
:1001A00070470000F0B5FF252D04C609C209FF27DE
:1001B00004462E400137CB093E4348402A402B409D
:1001C0000746002A6BD0002B69D0AA4267D0AB4209
:1001D00065D0002800DA32460125ED0529432C437D
:1001E00009022002090AD21A4B0C7F24E31A434C5D
:1001F000000A7C44E35C7D242404121914145B007F
:10020000A218884201D3521C00E0400049420C462B
:100210005C4324115C43DB016415E318040A5C436E
:10022000C502200D0C4644436419250A5D4323038F
:10023000EC0C0D46654300030019EB184C42A34239
:1002400001D35B18401CD4052018002B07D05B009D
:10025000C91804D3401C002901D1400840003F21A7
:1002600089048A4209D3002A08DC1106090F04D048
:10027000032149074018C00FC007F0BD012241000B
:10028000120689187F2252069142F6D205214907AB
:10029000C84201D59010F0BDFF20C005F0BD002F71
:1002A00000DA32461648AA4207D2AB4205D21902FA
:1002B000090E17D0F80FC007F0BDFF2563002D060B
:1002C000AB42F9D84900A942F6D8AB4201D1A942C4
:1002D000F2D0A94201D1002101E061004908D00516
:1002E0000843F0BD1102090EFBD0FF200243D005E8
:1002F000F0BD0A460146104654E7000046200000C3
:100300000000C07F10B501469E240002CA15A30755
:10031000002A02D01843002A04DBA21A002A0CDDAE
:10032000D04010BD1206120E01D140004008A21AA2
:1003300003D4D04040420028F3DDFF2248001206DB
:10034000904201D9002010BDC817C043584010BDCD
:100350001F22030C02D10F2200041CD0030E01D176
:100360000002083A030F01D10001121F830F01D1CF
:100370008000921E002801DB4000521ED205511859
:10038000021251181922904004D3491C002801D1AF
:100390004908490008467047C10FC90700D04042CC
:1003A000012292071143D3E701218907D0E700001A
:1003B000004870470000202010B5FF231B064400B2
:1003C0009C421DD84C009C421AD80346124A0B434B
:1003D00007D4401A02D3EFF3008010BDEFF3008082
:1003E00010BD081A03D3EFF30080904305E0EFF34C
:1003F000008001219043C907084380F3008810BDA5
:100400000D231B041A4204D01146002000F02EF8E0
:1004100010BD00F043F810BD000000907047754615
:10042000FFF7C6FFAE46050069465346C008C00048
:10043000854618B020B5FFF7A1FE60BCB646002681
:100440000027C0C5C0C5C0C5C0C5C0C5C0C5C0C5E2
:10045000C0C5403D490849008D46704710B5044667
:10046000C046C0462046FFF77AFE10BDC80212D52E
:100470004803400F002804D0C803C043012188402E
:100480007047EFF3008000010009032109070843CA
:1004900080F30088704700207047000010B50248C4
:1004A00000F00AF810BD00000000C07F01491820CC
:1004B000ABBEFEE72600020010B50C461107090F7F
:1004C000092904D00A290AD008290CD104E01146D0
:1004D0000820FFF7CBFF06E0510606D501E05106E4
:1004E00001D50120C007214610BDD10607D5010165
:1004F0000909CC084907000E0006044309E0410F32
:1005000020024907000A0143200E00061D22D141A6
:1005100001430846E7E780B582B002200090002141
:10052000019100F05DFC0098019901F09BF802B088
:1005300080BD811E091F00BFFCD2704784B00390AC
:1005400002910192039800680090009801998843F5
:10055000009000980299019A11400843039908609D
:1005600004B0704782B001900091009801999522E3
:100570005201885002B0704782B0019000910098FB
:10058000019995225201885002B0704782B00190C3
:1005900000910098019995225201885002B070474D
:1005A00082B00190009100980199024A885002B0EF
:1005B0007047C046D012000081B000900099012021
:1005C000C2029748885001B07047C04610B584B049
:1005D000069C0390029101920093029801990843AE
:1005E0000099084306990843034908430399890081
:1005F0001F4A885004B010BD8100040081B00090F3
:10060000009881001A4A8120885001B07047C04686
:1006100010B584B0069C0390029101920093029859
:10062000019908430099084306990843812108432A
:10063000039989000E4A885004B010BD82B0019021
:10064000009100980349084301998900084A88509D
:1006500002B070478000040082B0019000910098C1
:100660008021084301998900014A885002B07047EF
:100670000480424082B00190009101982721C90175
:1006800040580099084002B0704782B00190009134
:1006900001982721C90140580099084002B07047CD
:1006A00081B000900099E34AE348885001B0704758
:1006B00082B00190009100980199074A885002B0D9
:1006C0007047C04682B00190009100980199024A9B
:1006D000885002B07047C046901200000649086872
:1006E0000122904308607047034908680122120202
:1006F000904308607047C04608010B4081B0014636
:100700006846017000780249086001B07047C04631
:1007100008030B4080B582B0014601A80170017842
:100720000F480F22FFF70AFF02B080BD80B582B0EC
:10073000014601A80170017802480322FFF7FEFE7E
:1007400002B080BD00010B4080B582B0014601A817
:100750000170017802483022FFF7F0FE02B080BD40
:1007600004010B4082B00190009100980199024A67
:10077000885002B07047C0464810000010B585B0E0
:1007800000930B460099049003A80380029201ABEA
:10079000197004991A7892008A18B34C08491151BB
:1007A0000299049A1B789B00D2183123DB01D150A7
:1007B0000088044908430499DB4A885005B010BDFD
:1007C000010002001200001081B000900099024A5E
:1007D0000120885001B070470811000082B00190DC
:1007E0000091009B0199DD4A88581843885002B057
:1007F0007047C04682B001900091009B0199D74A92
:1008000088581843885002B07047C04681B00090A5
:1008100000990120C202D748885001B07047C046F5
:100820000100002681B0009000980321C9024058C1
:1008300001B07047F0B5BC4A82183B4BC318087929
:100840004E793A4D764C002E23D0202804D0052630
:10085000F601002803D003E0354E002800D1882699
:10086000576F2F4037435767976F2F40374397672E
:10087000566B26405663966B264096630026566557
:1008800096658F26F6435F6837405F609F68374004
:100890009F608E79096820280BD0002819D1491E45
:1008A0005160D76E2F4088210F43D76617467037A7
:1008B00019E0491E5160D16E29401D4F3943D16660
:1008C000116F29403943116701214907194D174616
:1008D00009E049085160D76E2F400521C9010F4337
:1008E000D766174670373C682C400C433C60D16A91
:1008F0004B4C2140D162116B214011630021D16426
:1009000011658F21C943D46F0C40D4671C680C401B
:100910001C600643BD2030401168074B0B40C018D7
:10092000801C1060F0BDC0468418000024493E00C1
:1009300001040000FFFFFFCF4000FFCFB0B54A68C1
:100940006E4BC250784A80180A78222A58D89300F1
:1009500001A4E3589F46C046F7090000010A0000C1
:10096000F7090000010A0000010A0000010A000066
:10097000010A0000010A0000010A0000010A00004B
:10098000010A0000010A0000010A0000010A00003B
:10099000010A0000010A0000E5090000010A000048
:1009A000E5090000010A0000010A0000010A000038
:1009B000010A0000010A0000010A0000010A00000B
:1009C000010A0000010A0000010A0000010A0000FB
:1009D000010A0000010A0000E5090000010A000008
:1009E000E509000003231B0704689C4301235B0700
:1009F000E318036004E003231B0704689C430460BE
:100A00000B69C360CB68054C1C40C36A044D1D4094
:100A10002B19C362097A11430160B0BD77770200D8
:100A20008888FDFF81B000900099694A6948885024
:100A300001B0704704080000030000B182B00190CB
:100A400000910098019911221202885002B070475B
:100A500010B507239B04194092008018024A84585D
:100A60009C436118815010BD3018000010B5029CE5
:100A7000A400001911431943014A815010BDC0461A
:100A80005018000092008018014A81507047C046FB
:100A90001018000010B50122120383180C789C6016
:100AA0004B7883508978014A815010BD0C110000A9
:100AB00010B586B001930B4601460198059104A933
:100AC0000B8003AB1A8002AA10800598164C0019FF
:100AD00009881B88194312881143024AFFF72EFD2B
:100AE00006B010BD80FF000082B001900091009818
:100AF0000199024A885002B07047C04608180000A9
:100B000081B000900099084A885801231843885002
:100B100001B0704781B000900099034A88580123C2
:100B20001843885001B070470418000081B000904D
:100B3000009911200202885801231843885001B0FF
:100B40007047000082B001900091009B0199034A18
:100B500088581843885002B07047C04628100000DB
:100B600081B0009000990120C2020248885001B073
:100B70007047C04601000026B0B51122120283580A
:100B80000124A34383500B888C781C438B88234318
:100B9000094C1C408358094D1D40631983508B79C3
:100BA000CC791C43097A21437E231940801842687E
:100BB0009A4351184160B0BD18670000E798FDFFE7
:100BC00081B000900099024A0248885001B07047F5
:100BD00004080000030000B180B584B003900291C6
:100BE000019203980B49401802990B4AFFF7A6FCA3
:100BF00003980A49401801993F22FFF79FFC039987
:100C0000074A8818895801221140FFF797FC04B061
:100C100080BDC04610110000FFFF0000141100004D
:100C20000411000010B50122120383180C789C6097
:100C30004978815010BD80B582B001900091019833
:100C400011210902401800990322D203FFF776FC14
:100C500002B080BD82B001900198400100900098E0
:100C6000401E0A4908600A49002008600949052019
:100C70000860FFE707480068C003002801D4FFE7C9
:100C8000F8E704490020086002B0704714E000E073
:100C900018E000E010E000E080B588B00790069111
:100CA00005920493294800680A2801DBFFE74AE01F
:100CB0000798264A039211684B0125490291CB18E7
:100CC00098600698126852018918C8600798FFF763
:100CD00021FF069801210091FFF744FD0099069835
:100CE000FFF788FD0698FFF715FF0299039A106831
:100CF00040010B1864201861106843010020C8509F
:100D000012685201891848600798FFF78BFD029915
:100D1000039A12685201891888831220019000F00A
:100D2000C9FF019800F0DCFF0298039909684901A6
:100D3000401814300599049A00F00CF803990868DB
:100D4000401C0860FFE708B080BDC0463C0520207D
:100D50005C01202083B0029001910092029800284B
:100D600001D1FFE706E00198029908600098029916
:100D70004860FFE703B0704780B584B00120019060
:100D8000810200915A480290FFF79CFC0199029859
:100D9000C9020391FFF796FC00990298FFF7F6FB52
:100DA0000198FFF757FF02980399FFF7EFFB04B094
:100DB00080BDC04680B584B00120019081020391BE
:100DC0004B480290FFF7E2FB01990298C902FFF736
:100DD00079FC02980399FFF775FC04B080BDC0460A
:100DE00080B582B00A46014601A8017069460A80B2
:100DF00000780988394A00F08BF902B080BDC046FE
:100E000080B582B0014601A801806A4600211170B8
:100E1000405E002808D5FFE7694601200870019868
:100E2000404201A90880FFE7002101A8405E8249F5
:100E3000884205DBFFE77D20C00001A90880FFE7AD
:100E40006846007801A90988FFF7CAFF02B080BD93
:100E500010B58CB000F076FE41200B9002901E4839
:100E600005900190002400941C4804901C4B0693AC
:100E7000224600F0E7F804980394012108910291BA
:100E8000184A07920192CA0400928A04164B0A93E8
:100E9000194600F0F7F80598069B0B99029101900E
:100EA000009412480990224600F0CCF8079A08995D
:100EB00009980A9B0394029401924A0400920A043E
:100EC000E24900F0DFF80B9A5B20830009480A49E9
:100ED000FFF7E2FE0CB010BD00C072407000202091
:100EE00000003C4000A0864000200A40280120204D
:100EF00000000A40000009400000864080B58CB028
:100F000003460BA8079003800AAB198009A9059135
:100F10000A8042490891424A002106911160405ED0
:100F2000FFF73AFA0699024605983E4B1A60405E72
:100F3000FFF732FA3C49FFF735F9089901F0BEF89E
:100F4000069902460798394B1A60405E002814D172
:100F5000FFE700210AA8405E00280ED1FFE700212C
:100F600009A8405E002808D1FFE70020049000F0A7
:100F70008BFB0498FFF744FF4EE02A48029000687C
:100F80002A490191096800F0FFFFFFF7BBF90199B9
:100F900002460298264B03931A600068096801F024
:100FA000E5F8FFF7AFF901460398224A116000689F
:100FB0002149884205DBFFE71D497D20C00008600C
:100FC000FFE71B4800681D49884204DCFFE7184919
:100FD0001B480860FFE7174800681749884205DB8F
:100FE000FFE714497D20C0000860FFE71148006852
:100FF0001249884204DCFFE70E4911480860FFE708
:10100000002100910A48405EFFF7FAFE0099094866
:10101000405E00F039FBFFE70CB080BD0000E64207
:10102000500520204C05202000007A445405202043
:101030004405202048052020E903000017FCFFFF9D
:1010400018FCFFFFB0B586B004460B990A980C9DBA
:10105000059403930292019100900598002801D114
:10106000FFE70DE00298039A0599CA61886100982C
:10107000019A05994A6208620C9805998862FFE70F
:1010800006B0B0BD70B586B00C4605460D980C99FB
:101090000B9E0A9E059504940392029301AA117077
:1010A000694608800598002804D0FFE70B980028BF
:1010B00001D1FFE729E00498059908600398059994
:1010C00048600298059988600A980599C8600B984D
:1010D0000599086101980599087500980599C882D5
:1010E00005998868C968FFF747FA0599086849684B
:1010F000FFF742FA05980069FFF702FD059A1069AB
:10110000D18A127DFFF7BEFCFFE706B070BD00007C
:1011100080B584B003AB187002A8018001920198D9
:10112000002801D1FFE74AE003A8007800900428D6
:101130003BD80098810001A040588746511100001B
:10114000671100007D11000093110000A91100003B
:10115000019908684968FFF7ABFA01998868C9687E
:10116000FFF70AFA21E0019908684968FFF704FAD5
:1011700001998868C968FFF79BFA16E00199086829
:101180004968FFF795FA01998868C968FFF790FAEE
:101190000BE0019908684968FFF7EEF90199886842
:1011A000C968FFF7E9F900E0FFE702980199C882F2
:1011B000019A1069D18A127DFFF764FCFFE704B041
:1011C00080BD000080B582B001A900200870FFE753
:1011D00001A8007807280FDCFFE701A801780020AC
:1011E00000F0F4F80548802100F089F9FFE7019844
:1011F000401C01A90870EBE702B080BDA0002020D0
:1012000080B584B003A9012000900870810202918A
:101210006D480190FFF756FA00990198C902FFF74F
:1012200051FA01980299FFF730FA002804D1FFE73C
:1012300003A900200870FFE70120C1026248FFF700
:10124000A5F903A8007804B080BDC04600000A409C
:1012500080B584B0AE200021039100F0D1F803994D
:10126000084600F0CDF80399102000F0C9F8039962
:101270004020019000F0C4F80399812000F0C0F8EC
:101280000399CF2000F0BCF80399A12000F0B8F832
:101290000399C82000F0B4F80399A620029000F04A
:1012A000AFF80399A82000F0ABF803993F2000F0B5
:1012B000A7F80399D32000F0A3F80399084600F09B
:1012C0009FF80399D52000F09BF80399802000F047
:1012D00097F80399D92000F093F80399F12000F0D2
:1012E0008FF80399DA2000F08BF80399122000F0B0
:1012F00087F80399DB2000F083F80198039900F048
:101300007FF80399202000F07BF80399022000F079
:1013100077F803998D2000F073F80399142000F0FA
:101320006FF80399A42000F06BF80298039900F07D
:1013300067F8FFF747FF0399AF2000F061F804B0AA
:1013400080BD000080B586B005A9087004A9002002
:101350000870FFE704A80078072833DCFFE70120C6
:10136000C1021948FFF712F905A800780006002805
:1013700006D5FFE7012081021348FFF7A3F905E036
:10138000012081021048FFF701F9FFE701200190D9
:10139000FFF760FC0198C10203910B480290FFF730
:1013A00091F90198FFF756FC02980399FFF7EEF8C0
:1013B0000598400005A90870FFE70498401C04A99F
:1013C0000870C7E706B080BD00000A4080B584B051
:1013D00000910246009803A90A7002AA1070029AAE
:1013E000B03201A802700A781209103242700978EE
:1013F0000F2211408170032100F03BF804B080BD42
:1014000080B582B001AA107068460170FFF7B4FC85
:101410007820FFF797FFFFF7F3FE002803D0FFE7E0
:10142000FFF7C8FC23E068460078002804D0FFE7F7
:101430004020FFF787FF03E00020FFF783FFFFE76F
:10144000FFF7DEFE002803D0FFE7FFF7B3FC0EE056
:1014500001A80078FFF776FFFFF7D2FE002803D03F
:10146000FFE7FFF7A7FC02E0FFF7A4FCFFE702B0ED
:1014700080BD80B584B0039002A801700078002878
:1014800001D1FFE739E0FFF777FC7820FFF75AFF3B
:10149000FFF7B6FE002803D0FFE7FFF78BFC2CE038
:1014A0000020FFF74FFFFFF7ABFE002803D0FFE758
:1014B000FFF780FC21E001A900200870FFE701A8E8
:1014C000007802A90978884214DAFFE7039801A995
:1014D0000978405CFFF736FFFFF792FE002803D043
:1014E000FFE7FFF767FC08E0FFE70198401C01A950
:1014F0000870E4E7FFF75EFCFFE704B080BD80B54D
:1015000084B0039002A801800088002801D1FFE781
:1015100027E0FFF731FC7820FFF714FFFFF770FE9C
:101520004020FFF70FFFFFF76BFE01A900200880A6
:10153000FFE701A8008802A9098888420EDAFFE7C0
:10154000039801A90988405CFFF7FCFEFFF758FEED
:10155000FFE70198401C01A90880EAE7FFF72AFC91
:10156000FFE704B080BD000010B58EB00DAC208048
:101570000C910B920A93002109910D9A08A8028000
:10158000405EFEF709FF014630480790006800F012
:10159000FBFC01460798016000682D4900F0E7FC5C
:1015A000002804D1FFE7294929480860FFE72748B8
:1015B0000068284900F0D0FC002804D1FFE7234947
:1015C00024480860FFE70021039108A8405E0490CA
:1015D000FEF7E2FE01900C9800900B981B490968F9
:1015E00000F06CFD009902460198029200F066FD41
:1015F000029900F0C9FC039A014604980591164926
:101600000691895E401AFEF7C7FE0A9900F056FD62
:10161000059900F0B9FC0699099008980880099886
:101620000E4900F0A4FC002803D1FFE70B48099005
:10163000FFE709980A4900F08FFC002803D1FFE773
:1016400007480990FFE709980EB010BD200120203F
:101650000000FA430000FAC32401202000409C450A
:1016600000409CC580B582B00A46014601A80170C1
:1016700069460A8000780988024AFFF749FD02B0EE
:1016800080BDC0462801202080B582B0014601A857
:1016900001806A4600211170405E002808D5FFE7EE
:1016A0006946012008700198404201A90880FFE7BF
:1016B000002101A8405E0849884205DBFFE77D2044
:1016C000C00001A90880FFE76846007801A90988E1
:1016D000FFF7C8FF02B080BDE903000085B00390AA
:1016E0000291002001900090FFE7009807280EDC8F
:1016F000FFE700991148405C002804D1FFE70198FA
:10170000401C0190FFE70098401C0090EDE7019815
:101710000299884209DCFFE701980399884204DBBB
:10172000FFE704A90120087003E004A90020087065
:10173000FFE704A8007805B07047C046600020208D
:1017400080B582B00B490C480190FFF76BFA019805
:101750000A49FFF711FA01980021FFF76CFA019886
:10176000D0211522FFF738FA0198FFF7DFF902B010
:1017700080BDC0469C220000008010409E220000D8
:1017800080B58EB0262006210391FEF765FF01206B
:1017900005904104089166480A90FEF701FF0399FD
:1017A0002720FEF759FF05990A988904FEF7F8FEED
:1017B0000320029005210191FEF74EFF05990A983A
:1017C0004907FEF7EDFE01990420FEF745FF059954
:1017D0000A988907FEF7E4FE02992D20FEF72EFFF6
:1017E000039802210491FEF729FF04990B20FEF7CC
:1017F00033FF04990C20FEF721FF04993420FEF7F3
:101800002BFF04993520FEF719FF05980023099353
:1018100000930204069231201946FEF7F9FE3020AB
:10182000FEF7ECFE1E20FEF7E9FE1F20FEF7E6FEA7
:101830002020FEF7E3FE0E20FEF7E0FE069A099B4D
:10184000009325201946FEF7E3FE069A099B0093B4
:101850002A201946FEF7DCFE069A099B00932B20EE
:101860001946FEF7D5FE069A099B00932C201946CF
:10187000FEF7CEFE0598069A09990091C3040793D6
:101880001620FEF7A3FE069A079B099900911720E0
:10189000FEF79CFE069A079B099900911820FEF717
:1018A00095FE069A079B099900911920FEF78EFE76
:1018B000069A079B099900912120FEF787FE069A58
:1018C000079B099900913820FEF780FE069A079B36
:1018D000099900913220FEF779FE069A079B099933
:1018E00000912220FEF772FE089A099B00931420B3
:1018F0001946FEF78DFE089A099B0093152019469C
:10190000FEF786FE0A98432189020B91FEF72AFE14
:101910000A980B99FEF744FEBF480C9005490D91BB
:10192000FEF720FE0C980D99FEF73AFE0EB080BD32
:1019300000000A4004C06F0080B582B00D49BC4869
:101940000190FFF76FF901980B49FFF715F901981E
:101950000021FFF770F9019811211722FFF73CF9D8
:10196000019803218902FFF7EDF80198FFF7DEF8EF
:1019700002B080BDA8220000AA22000080B586B077
:101980001F49A6480590FFF785F805981D49FEF701
:1019900051FF05980023029319461A46FFF788F86D
:1019A000029B0598009319461A46FFF75FF8029AC2
:1019B00005981146FFF74CF8029A05987D21890099
:1019C0000391FFF75FF8029B0598012104910091B4
:1019D00019461A46FFF74AF80299049A0598FFF744
:1019E00037F80399049A0598FFF74CF80598FEF725
:1019F000EBFE05980321FFF721F806B080BDC04635
:101A0000B4220000B822000080B584B00E49854899
:101A10000390FFF73FF80398492149020191002301
:101A200002931A46FEF7AAFE0199029A039801232F
:101A3000FEF7A4FE03980549FFF756F80398FEF752
:101A4000C3FE04B080BDC046C0220000FFFF0000FE
:101A500080B586B01F4972480590FFF71BF80598BE
:101A60001D49FEF7E7FE05980023029319461A4622
:101A7000FFF71EF8029B0598009319461A46FEF7D9
:101A8000F5FF029A05981146FEF7E2FF029A0598C3
:101A90007D21C9000391FEF7F5FF029B0598012106
:101AA0000491009119461A46FEF7E0FF0299049A44
:101AB0000598FEF7CDFF0399049A0598FEF7E2FF1B
:101AC0000598FEF781FE05980321FEF7B7FF06B0E3
:101AD00080BDC046C3220000C822000080B582B08D
:101AE00000200190FEF70AFE0198FEF71FFEFEF7A8
:101AF000F5FDFEF7F9FD0198FEF726FE0198FEF7C9
:101B000009FE02B080BD80B57D20000200F092F891
:101B100080BD000080B582B0084943480190FEF7BF
:101B2000B9FF01980649FEF709FF01980121FEF768
:101B300055FE0198FEF748FE02B080BDD02200009D
:101B4000D422000080B500F027F8FFF719FEFFF758
:101B5000C5FFFFF713FFFFF77BFFFFF755FFFFF709
:101B6000D9FFFFF7EDFDFFF7E7FEFFF7CCFF0649D2
:101B70009C22002088540549885405498854054909
:101B8000B822885480BDC046A0022020E003202057
:101B9000400320208004202080B588B0A348009016
:101BA000FEF77EFDA0480190FEF77AFD1B480290EB
:101BB000FEF738FF1A480390FEF734FF19480490E7
:101BC000FEF730FF18480590FEF72CFF17480690E7
:101BD000FEF7F6FF16480790FEF7F2FF0098FEF7B3
:101BE000EBFC0198FEF7E8FC0298FEF70FFE039865
:101BF000FEF70CFE0498FEF709FE0598FEF706FEB8
:101C00000698FEF7ADFF0798FEF7AAFF1020FEF733
:101C100090FC08B080BDC04600200A4000A086406D
:101C2000008086400000094000008640008010408F
:101C30000020104080B584B002900298401E000E33
:101C4000002803D0FFE70120039011E00298401E16
:101C50000949086000200190C043032100F056F8B4
:101C6000019806490860064A072111600390FFE7C2
:101C7000039804B080BDC04614E000E018E000E026
:101C800010E000E009480168491C0160084A116839
:101C9000491C116000687D21C900884204D1FFE71A
:101CA000024900200860FFE77047C0465801202025
:101CB0005805202081B00146684601700021405639
:101CC000002809D4FFE7684601781F200140012061
:101CD000884002490860FFE701B0704780E200E0F9
:101CE00081B001466846017000214056002809D4A1
:101CF000FFE7684601781F20014001208840024923
:101D00000860FFE701B0704700E100E070B582B005
:101D1000024601A80270009100214056002816D406
:101D2000FFE7002401A908570322D3431840174AAC
:101D3000805809578C07E50EFF24AC40A043009C57
:101D4000A401E4B2AC402043194088501AE001A934
:101D500008780F24204008380322D34318400A4A49
:101D60008058002549578D07EE0EFF25B540A84342
:101D7000009DAD01EDB2B54028432140083919401E
:101D80008850FFE702B070BD1CED00E000E400E009
:101D900080B500210846FFF7A1FC80BD80B584B066
:101DA0000390214800904021FEF764FC0146009812
:101DB000039A11708021FEF75DFC01460098039A9A
:101DC0005170012101910902FEF754FC019902466C
:101DD0000098039B9A704902FEF74CFC014601985B
:101DE000039AD170010311480290FEF743FC019958
:101DF00002460098039B1A718906FEF73BFC019985
:101E000002460098039B5A71C905FEF733FC0199FD
:101E100002460298039B9A714903FEF72BFC039933
:101E2000C87104B080BDC04600200A4000000A40CE
:101E300070B592B011AC208010910F920E930020DB
:101E40000D900C90274A04A978CA78C178CA78C145
:101E50000390FFE70398072817DCFFE703993D4845
:101E6000405C00280CD1FFE70398810004A841588A
:101E70000D9800F089F80D900C98401C0C90FFE72D
:101E8000FFE70398401C0390E4E70C98012813DB5C
:101E9000FFE70D9801900C98FEF77EFA0146019835
:101EA000FEF780F9029002980F4900F007F9FEF75B
:101EB00029FA0E49087000E0FFE70C480021009164
:101EC00040560E9B0F9A1099FFF74EFBFEF71AFA39
:101ED0000099074A106011A8405E525EFFF70EF8A5
:101EE00012B070BD7C220000000020419C02202026
:101EF0004005202080B53F200306C820024900226B
:101F0000FFF796FF80BDC0460000A04180B582B0BB
:101F100000200190FFF716FEFFF79AF9FEF798FFF1
:101F20000348FFF73BFF00F005F8FFE7FEE7C04678
:101F30006800202080B5FFE70648FFF72FFFFFF776
:101F4000D9FFFFF725FF002803D0FFE7FEF7E3FAEC
:101F500080BDF1E76000202010B500F05BF8EFF3E2
:101F60000080800001D5012010BD002010BD10B5FB
:101F700000F07AF8EFF300804000800F012801D0D4
:101F8000012010BD002010BD70B50125ED07040033
:101F90004C4020D4441A01D2001B0919C60D4B0035
:101FA000F2B2FF2A29D01B0E2CD000020C022843CB
:101FB0002C43D31ADC40051910D2280A02D3401C46
:101FC0006D0611D0761EF6058019FF2A00DA70BD65
:101FD000C00DC00570BD694000F0CEF8012005437A
:101FE000C541521C761CE8E764089C40C901614069
:101FF0008900E7D10124A043E4E71B0E440200D08E
:10200000034870BD002AFCD1C00FC00770BD00BFDF
:102010000000C07F0123DB0502000A430DD4DA4231
:1020200003D49A4207D488427047D84214D4D94284
:1020300012D48842704780427047DA4203D59A42F0
:10204000F9D5814270475B004200DA4204D24A006F
:10205000DA4201D28142704710B5024AFEF7ACF96C
:1020600010BD00BF090013040123DB0502000A4371
:102070000DD4DA4203D49A4207D488427047D8423A
:1020800014D4D94212D48842704780427047DA4251
:1020900003D59A42F9D5814270475B004200DA428B
:1020A00004D24A00DA4201D28142704710B5024A96
:1020B000FEF782F910BD00BF0900160470B542009A
:1020C00064414B005C41120E39D01B0E38D0FF2A00
:1020D0003CD0FF2B3AD0D2187F3A40024902400A46
:1020E000490A4518ED0106004E43000A090A484313
:1020F0000104731A4019190C4318990F04D05B0896
:10210000012149075B1A521CD80904D3401CF5036E
:1021100001D19D0607D0FF2A08D2D50506D0E407D5
:102120002043401970BD0125A843F4E7002A01DCD3
:10213000E00770BD2402FF202043C00570BD1B0EC8
:10214000FF2A03D0FF2B01D0E00770BDFF26360623
:102150004500B54206D84D00B54203D8D218FF2A33
:1021600000D0E7E7004870BD0000C07F70B50125D2
:10217000ED0704004C4022D4441A02D26C40001BEC
:102180000919C60D4B00F2B2FF2A4BD01B0E50D0DE
:1021900000020C02A8432C43D31ADC40051B05D5D2
:1021A000AD0019D36D08761E521E37D0F605280AE9
:1021B00001D2801970BD70416D0603D070BD6940B9
:1021C000FFF7E8FE9C4009026140490001D0401E33
:1021D00070BD0124A04370BD6D081DD001202B0CE3
:1021E00001D12D0410302B0E01D12D0208302B0F00
:1021F00001D12D01001DAB0F01D1AD00801CEB0FF3
:1022000001D16D00401C361A121A6D00680AF505DE
:102210004019012A02DB70BD002070BDC036300AB3
:10222000C00770BD1B0E440201D1FF2B00D1024834
:1022300070BD002AF0D070BD0000C07F8182838411
:1022400085868788898B8C8D8E8F919293959697B2
:10225000999A9C9D9FA0A2A3A5A7A8AAACAEB0B234
:10226000B3B5B7B9BCBEC0C2C5C7C9CCCED1D4D72F
:10227000D9DCDFE2E6E9ECF0F3F7FAFE000060C03B
:10228000000020C00000C0BF000000BF0000003FF1
:102290000000C03F00002040000060400800000037
:1022A00018000000003000000800000018000000C6
:1022B0000030000008070000E803000020000100D3
:1022C0000800000800030000E80300000000000010
:1022D00008076300020000008F01000001000000F9
:1022E0000000000000000000F82200000000202094
:0822F000605500002801000008
:04000005000000C136
:00000001FF
